:020000040800F2
:100000002008002049010008350B000835060008CB
:10001000310B000831020008A712000800000000A0
:10002000000000000000000000000000090D0008B2
:100030003502000800000000D10B0008D50E0008B2
:100040006301000863010008630100086301000800
:100050006301000863010008390200086301000819
:100060006D020008A1020008D50200086301000823
:1000700063010008630100086301000863010008D0
:1000800063010008630100086301000863010008C0
:1000900063010008630100086301000863010008B0
:1000A00063010008630100086301000863010008A0
:1000B0006301000863010008630100086301000890
:1000C0006301000863010008630100086301000880
:1000D00063010008C1100008630100086301000803
:1000E0006301000863010008630100086301000860
:1000F0006301000863010008630100086301000850
:10010000630100086301000863010008630100083F
:100110006301000863010008390F0008630100084B
:10012000630100086301000863010008630100081F
:10013000DFF810D000F06AF800480047F11400081A
:10014000AFF300802008002006488047064800479B
:10015000FEE7FEE7FEE7FEE7FEE7FEE7FEE7FEE777
:10016000FEE7FEE7D90E0008310100082DE9F05F37
:100170000546002092469B46884606468146402416
:100180001BE0284641464746224600F02FF85346DA
:100190005A46C01A914110D311461846224600F023
:1001A00016F82D1A67EB01084F4622460120002160
:1001B00000F00DF817EB00094E41201EA4F10104D8
:1001C000DFDC484631462A464346BDE8F09F202AF8
:1001D00004DB203A00FA02F1002070479140C2F19E
:1001E000200320FA03F3194390407047202A04DBD0
:1001F000203A21FA02F00021704721FA02F3D040A0
:10020000C2F120029140084319467047064C074D41
:1002100006E0E06840F0010394E8070098471034D6
:10022000AC42F6D3FFF788FFC8440008E844000852
:1002300000BFFEE77047000010B5142001F05EF823
:1002400000BF0121074800F0E8F90128F9D0142087
:1002500001F054F8012000F057F80020024908701E
:1002600010BD0000000801401800002010B5142047
:1002700001F044F800BF0421074800F0CEF900283F
:10028000F9D0142001F03AF8042000F03DF80220E3
:100290000249087010BD000000180140180000203D
:1002A00010B5142001F02AF800BF0821074800F01B
:1002B000B4F90028F9D0142001F020F8082000F04B
:1002C00023F803200249087010BD00000018014007
:1002D0001800002010B5142001F010F800BF102104
:1002E000074800F09AF90028F9D0142001F006F828
:1002F000102000F009F804200249087010BD000029
:1003000000180140180000200149086070470000F3
:1003100014040140002123498279002A3AD00A4678
:10032000126803689A430B461A600A1D1268036834
:100330009A430B1D1A60027911440A6803681A4334
:100340000A60184A0832126803689A43154B08334A
:100350001A601A1D126803689A43124B0C331A6014
:100360004279102A0ED11A1F126803681A430D4BE6
:1003700008331A601A1D126803681A43094B0C33BC
:100380001A600DE00749427911440A6803681A436C
:100390000A6005E0027911440A6803689A430A601A
:1003A000704700000004014051B18200A2F1C04238
:1003B000126842F001038200A2F1C042136009E01A
:1003C0008200A2F1C0421268034B1A408300A3F1DD
:1003D000C0431A6070470000FEFF0F00D0E9011211
:1003E0001143C26811430269114342691143826992
:1003F0001143C2691143026A1143426A1143826A7E
:100400001143C26A1143026B114302689200A2F1C8
:10041000C0421160816808290BD101688900A1F1EF
:10042000C041096841F0400201688900A1F1C04162
:100430000A60416B0968426B526841EA0211426BE3
:10044000926841EA0221426B928941EA0241426B81
:10045000128A41EA0251426B127D41EA0261426B0B
:10046000926911430268521C9200A2F1C0421160CD
:10047000C16AB1F5804F1BD1816B0968826B5268EC
:1004800041EA0211826B926841EA0221826B128A70
:1004900041EA0251826B127D41EA0261826B9269EC
:1004A000114302689200A2F1C042C2F8041107E0B1
:1004B0006FF0704201688900A1F1C041C1F80421C8
:1004C0007047000030B500228B071C0F0F2303FA82
:1004D00004F20B4B8C1053F824309343084C8D10CE
:1004E00044F8253023468C1053F824308C07240F11
:1004F00000FA04F42343024C8D1044F8253030BD3B
:10050000080001402DE9F0410246002500260020A8
:1005100000230024002791F803C00CF00F0591F888
:1005200003C00CF0100CBCF1000F03D091F802C016
:100530004CEA050591F800C0BCF1000F31D01468F9
:1005400000202BE04FF0010C0CFA00F3B1F800C0D2
:100550000CEA03069E4220D183004FF00F0C0CFAE8
:1005600003F7BC4305FA03FC4CEA040491F803C00A
:10057000BCF1280F06D14FF0010C0CFA00FCC2F8B8
:1005800014C00AE091F803C0BCF1480F05D14FF048
:10059000010C0CFA00FCC2F810C0401C0828D1D392
:1005A0001460B1F800C0BCF1FF0F34DD54680020C6
:1005B0002EE000F1080C4FF0010808FA0CF3B1F836
:1005C00000C00CEA03069E4221D183004FF00F0CBD
:1005D0000CFA03F7BC4305FA03FC4CEA040491F857
:1005E00003C0BCF1280F05D100F1080C08FA0CF883
:1005F000C2F8148091F803C0BCF1480F07D100F194
:10060000080C4FF0010808FA0CF8C2F81080401CE2
:100610000828CED35460BDE8F081024600209368DC
:100620000B400BB1012000E0002070474161704792
:100630000161704700BFFEE71FB50121042000F0F3
:10064000E9FA0121402000F0E5FA0121084600F016
:10065000E1FA1C20ADF80C0048208DF80F000320B3
:100660008DF80E0003A93F48FFF74CFF0120ADF8BD
:100670000C0028208DF80F0003A93B48FFF742FF2C
:1006800000210846FFF71EFF02210420FFF71AFF92
:1006900003210420FFF716FF04210846FFF712FF8D
:1006A0001C20019001208DF80A0000208DF8080020
:1006B0000C208DF8090001A8FFF72CFE0120019005
:1006C00008208DF8090001A8FFF724FE4FF4A06070
:1006D00000F074FA06208DF8000001208DF8030068
:1006E00002208DF8010001208DF80200684600F01C
:1006F0002DFA062000F01FFA08208DF800000120D6
:100700008DF8030002208DF801008DF80200684684
:1007100000F01CFA082000F00EFA09208DF8000005
:1007200001208DF8030002208DF8010003208DF8D0
:100730000200684600F00AFA092000F0FCF90A20DD
:100740008DF8000001208DF8030002208DF80100D3
:1007500000208DF80200684600F0F8F90A2000F049
:10076000EAF91FBD001801400008014000B59FB024
:100770000121080200F02EFA01214FF4B47000F0BC
:1007800049FA0120ADF8780010208DF87B00032095
:100790008DF87A001EA93048FFF7B4FE41F201003F
:1007A000ADF8780018208DF87B001EA92B48FFF7C4
:1007B000A9FE4CF23370ADF878001EA92848FFF767
:1007C000A1FE4FF68070ADF878001EA92548FFF70E
:1007D00099FE00200E9001200990002008900B90B7
:1007E0000C900D9001200A900020079001200290AB
:1007F00000200190049005900690012003900020B5
:10080000149006200F900020139010904FF4804019
:100810001A901020129000201190199017901590A6
:1008200016904FF48050189008A81D9001A81C90B5
:100830000FA8FFF7D3FD01210620FFF7B5FD00F05B
:1008400083FD01210448FFF7F3FE4FF6FF7000F02F
:100850000BF81FB000BD0000000C0140002001405B
:10086000001401400018014030B504464FF496359D
:1008700040F23F130022EF21104600F010F800F084
:1008800009F8002203E0204600F014F9521CAA42A5
:10089000F9D930BD00B52C2000F006F900BD30B507
:1008A00004460D462A2000F0FFF8201200F002F95D
:1008B000E0B200F0FFF8281200F0FCF8E8B200F017
:1008C000F9F82B2000F0F0F8101200F0F3F8D0B295
:1008D00000F0F0F8181200F0EDF8D8B200F0EAF8E5
:1008E00030BD00002DE9FF4F82460F461646DDF869
:1008F0003880B34606EBDB700AEB6000401E81B225
:10090000B819401E83B23A465046FFF7C8FFFFF7BA
:10091000C1FF4FF00009102E04D0182E22D0202E37
:1009200073D152E04FF01009A8F12000434900FBB9
:100930000914002213E014F8015B00230CE005F019
:10094000800018B1039800F0B5F802E00D9800F0AF
:10095000B1F86806050E5B1C082BF0DB521CB24296
:10096000E9DB68E04FF03009A8F12000344900FBD2
:100970000914002226E014F8015B00230CE005F0C6
:10098000800018B1039800F095F802E00D9800F08F
:1009900091F86806050E5B1C082BF0DB14F8015B70
:1009A00000230CE005F0800018B1039800F082F8F5
:1009B00002E00D9800F07EF86806050E5B1C042B23
:1009C000F0DB521CB242D6DB35E04FF04009A8F113
:1009D00020001C4900FB0914002227E014F8015BE9
:1009E00000230CE005F0800018B1039800F062F8D5
:1009F00002E00D9800F05EF86806050E5B1C082BFF
:100A0000F0DB14F8015B00230DE012E005F080003C
:100A100018B1039800F04EF802E00D9800F04AF883
:100A20006806050E5B1C082BF0DB521CB242D5DBBE
:100A300001E0BDE8FF8F00BF00BFFAE748150008DE
:100A4000381B0008082D00082DE9FF4F83B006462B
:100A50009146DDE910BA00210C460D461CE000214C
:100A6000A4FB097205FB092204FB012802220B46A4
:100A700038464146FFF77AFB801980B202901AF897
:100A80000400CDE900B04A46069B04990298FFF79E
:100A900029FF641C45F100051AF804000028DED186
:100AA00007B0BDE8F08F00000149088070470000E2
:100AB000FE07006C01490880704700000008006CC8
:100AC00008B50121482000F0A5F82020ADF800006D
:100AD00010208DF8030003208DF8020069460948B4
:100AE000FFF710FD20210748FFF7A2FD2020ADF8F9
:100AF000000069460448FFF705FD20210248FFF782
:100B000097FD08BD000C01400018014070B5044677
:100B10000D4629462046FFF780FD20B9294620468C
:100B2000FFF786FD03E029462046FFF77FFD70BDF5
:100B300000BFFEE7704700F01F020121914042090B
:100B4000920002F1E022C2F80011704770B5002156
:100B500000230F22C47804B3154C246804F4E06425
:100B6000C4F5E064210AC1F10403CA40447804FAE0
:100B700003F184781440214309010E4C0678A155F5
:100B8000047804F01F050124AC4005786D11AD0018
:100B900005F1E025C5F8004109E0047804F01F05DF
:100BA0000124AC40044D0678761145F8264070BD0E
:100BB0000CED00E000E400E080E100E002490143C8
:100BC000024A1160704700000000FA050CED00E0D9
:100BD0007047000029B1064A52690243044B5A612A
:100BE00004E0034A52698243014B5A617047000096
:100BF0000010024029B1064AD2690243044BDA616F
:100C000004E0034AD2698243014BDA617047000075
:100C10000010024029B1064A92690243044B9A61CE
:100C200004E0034A92698243014B9A6170470000D5
:100C30000010024030B500210022002400232D4D79
:100C40006D6805F00C0121B1042905D0082923D1D4
:100C500005E0294D056022E0274D05601FE0254D88
:100C60006D6805F47012234D6D6805F4803402251B
:100C700005EB92421CB9214D554305600BE01D4D1B
:100C80006D6805F400351DB11C4D5543056002E04B
:100C9000194D5543056002E0174D056000BF00BFC8
:100CA000144D6D6805F0F0010909154D6B5C056880
:100CB000DD4045600F4D6D6805F4E061090A104D97
:100CC0006B5C4568DD4085600A4D6D6805F46051D8
:100CD000C90A0B4D6B5C4568DD40C560054D6D680C
:100CE00005F44041890B074D6B5CC568B5FBF3F516
:100CF000056130BD0010024000127A0000093D007D
:100D000004000020140000207047000000B587B0E8
:100D100001210420FFF77EFF01218803FFF77AFFFE
:100D200018208DF81B004FF40070ADF81800032058
:100D30008DF81A0006A92148FFF7E4FB48208DF83A
:100D40001B004FF48060ADF8180003208DF81A00E6
:100D500006A91A48FFF7D6FB4FF4E13002900020B5
:100D6000ADF814000C20ADF812000020ADF8100012
:100D7000ADF80E00ADF80C0002A9114800F022FAFF
:100D8000012240F225510E4800F0F6F94FF4A06020
:100D9000FFF714FF25208DF8040001208DF80700CF
:100DA0008DF805008DF8060001A8FFF7CFFE0121A0
:100DB000034800F0ABF907B000BD00000008014097
:100DC0000038014010B500F001F810BD0CB500204E
:100DD000019000903348006840F480303149086049
:100DE00000BF3048006800F4003000900198401CBB
:100DF0000190009818B90198B0F5A06FF1D1294879
:100E0000006800F4003010B10120009001E00020E3
:100E100000900098012843D12348006840F010005A
:100E2000214908600846006820F00700086008466D
:100E3000006840F0020008601A484068194948609C
:100E40000846406848600846406840F48060486052
:100E50000846406820F47C1048600846406840F42A
:100E6000E81048600846006840F08070086000BFE5
:100E70000C48006800F000700028F9D0094840686C
:100E800020F00300074948600846406840F002002F
:100E9000486000BF0348406800F00C000828F9D102
:100EA0000CBD00000010024000200240042808D1C0
:100EB0004FF0E021096941F004014FF0E022116197
:100EC00007E04FF0E021096921F004014FF0E02232
:100ED000116170477047000010B51348006840F07A
:100EE00001001149086008464068104908400E4951
:100EF0004860084600680E4908400B4908600846EB
:100F0000006820F4802008600846406820F4FE0055
:100F100048604FF41F008860FFF754FF4FF00060F7
:100F20000449086010BD0000001002400000FFF8F6
:100F3000FFFFF6FE08ED00E010B50121064800F0C5
:100F40001EF8012807D10121034800F009F82021EB
:100F50000248FFF7DBFD10BD001000400018014003
:100F6000CA430282704721B1028842F00102028026
:100F700004E002884FF6FE731A400280704730B5D5
:100F80000246002000230024158A05EA0103958902
:100F900005EA010413B10CB1012000E0002030BDCE
:100FA0001AB183890B43838102E083898B43838158
:100FB00070470000002202881D4B98420ED01D4B46
:100FC00098420BD0B0F1804F08D01B4B984205D00F
:100FD0001A4B984202D01A4B984204D14FF68F73A5
:100FE0001A404B881A43174B984207D0164B984229
:100FF00004D04FF6FF431A40CB881A4302808B88F7
:1010000083850B8803850A4B98420BD0094B984285
:1010100008D00E4B984205D00D4B984202D00D4B94
:10102000984201D10B7A0386012383827047000026
:10103000002C014000340140000400400008004042
:10104000000C00400010004000140040004001402F
:1010500000440140004801401FB501211020FFF766
:10106000C9FD41F28730ADF8080041F61F40ADF8E8
:1010700004000020ADF80A00ADF8060001A90F48F1
:10108000FFF798FF012211460C48FFF789FF012165
:101090000A48FFF768FF4FF4A060FFF78FFD362086
:1010A0008DF8000001208DF801008DF802008DF808
:1010B00003006846FFF74AFD1FBD00000010004016
:1010C00010B514E00E4800F0E9F80E490E4A1288F7
:1010D00088540D480088401C0B4908800846008849
:1010E00040F2FF31884202DB00200749088040F2CD
:1010F0002551034800F016F80128E3D010BD000088
:10110000003801401C0000201A00002021B1828913
:1011100042F40052828104E082894DF6FF731A4046
:101120008281704770B5024600240023002500200C
:1011300040F66A16B14200D100BFC1F3421501F07A
:101140001F03012606FA03F3012D02D196893340CD
:1011500006E0022D02D1168A334001E0968A334020
:101160000C12012606FA04F41688344013B10CB1AF
:10117000012000E0002070BDF0B5034600240026E9
:101180000025002040F66A17B94200D100BF18467A
:10119000C1F3421401F01F06012707FA06F5012CDE
:1011A00001D10C3004E0022C01D1103000E01430E9
:1011B0001AB107682F43076002E00768AF43076072
:1011C000F0BD00002DE9F04786B005460E4600242C
:1011D000A24600BFA1460027B08900B100BF2F463C
:1011E0002C8A4CF6FF700440F08804432C82AC89B2
:1011F0004EF6F3100440B0883189084371890843E2
:101200000443AC81AC8A4FF6FF400440B0890443EC
:10121000AC8201A8FFF70EFD1F48874202D1DDF81E
:1012200010A001E0DDF80CA0A88900F4004040B156
:101230000AEBCA0000EB0A1031684900B0FBF1F874
:1012400007E00AEBCA0000EB0A1031688900B0FB26
:10125000F1F86420B8FBF0F004012009642101FBDF
:101260001089A88900F4004040B1322000EBC90089
:10127000B0FBF1F000F00700044308E0322000EB7F
:1012800009106421B0FBF1F000F00F0004432C8141
:1012900006B0BDE8F08700000038014001468888AC
:1012A000C0F30800704700BFFEE702E008C8121F45
:1012B00008C1002AFAD170477047002001E001C13F
:1012C000121F002AFBD1704710B56FF00400FFF722
:1012D000EDFD0920074908700846007800EB400141
:1012E000C1EBC0104FF6FF7101EAC000024908804F
:1012F00010BD000000000020020000200146114A3D
:1013000012884A434FF0E0235A6100229A611A463C
:10131000126942F001021A6100BF4FF0E022106929
:1013200000F001021AB100F48032002AF5D04FF02B
:10133000E022126922F001024FF0E0231A6100223C
:101340009A6170470200002010B51120FFF7ACFB36
:101350007820FFF7D3FF3620FFF7A6FB0820FFF722
:10136000A9FB3A20FFF7A0FB0520FFF7A3FBB22063
:10137000FFF79AFB0C20FFF79DFB0C20FFF79AFB71
:101380000020FFF797FB3320FFF794FB3320FFF794
:1013900091FBB720FFF788FB3520FFF78BFBBB20C5
:1013A000FFF782FB3220FFF785FBC020FFF77CFBB5
:1013B0000C20FFF77FFBC220FFF776FB0120FFF731
:1013C00079FBC320FFF770FB1020FFF773FBC420ED
:1013D000FFF76AFB2020FFF76DFBC620FFF764FBD9
:1013E0000F20FFF767FBD020FFF75EFBA420FFF77D
:1013F00061FBA120FFF75EFBE020FFF755FBD0204B
:10140000FFF758FB0020FFF755FB0220FFF752FBC8
:101410000720FFF74FFB0A20FFF74CFB2820FFF7C0
:1014200049FB3220FFF746FB4420FFF743FB4220F5
:10143000FFF740FB0620FFF73DFB0E20FFF73AFBCE
:101440001220FFF737FB1420FFF734FB1720FFF7BC
:1014500031FBE120FFF728FBD020FFF72BFB00201A
:10146000FFF728FB0220FFF725FB0720FFF722FBF1
:101470000A20FFF71FFB2820FFF71CFB3120FFF796
:1014800019FB5420FFF716FB4720FFF713FB0E2034
:10149000FFF710FB1C20FFF70DFB1720FFF70AFBDF
:1014A0001B20FFF707FB1E20FFF704FB2A20FFF796
:1014B000FBFA0020FFF7FEFA0020FFF7FBFA0020FE
:1014C000FFF7F8FAEF20FFF7F5FA2B20FFF7ECFA19
:1014D0000020FFF7EFFA0020FFF7ECFA0120FFF7FA
:1014E000E9FA3F20FFF7E6FA2920FFF7DDFA10BD01
:1014F0001CB5FFF7E9FEFFF7E3FAFFF79DF8FFF7EA
:1015000005FCFFF733F9FFF7A7FD0AA04FF6FF71BF
:1015100000231022CDE9001019468220FFF794FA2B
:1015200007E020210748FFF7F1FA4FF47A70FFF740
:10153000E5FEF6E748656C6C6F20776F726C64218E
:1015400000000000000C014000000000000000004E
:10155000000000000000000000000010101010103B
:101560001010000010100000001224244800000099
:1015700000000000000000000000001212127E2493
:1015800024247E24242400000000083C4A4A4838D1
:101590000C0A0A4A4A3C080800000044A4A8A8B063
:1015A000541A2A2A4A440000000000304848485093
:1015B0006EA494988976000000602020400000000E
:1015C00000000000000000000002040808101010D5
:1015D000101010080804020000402010100808082D
:1015E0000808081010204000000000001010D63835
:1015F00038D61010000000000000000000080808A5
:101600007F08080800000000000000000000000043
:1016100000000000602020400000000000000000EA
:101620007E0000000000000000000000000000003C
:1016300000000000606000000000020404040808CC
:1016400010101020204040000000001824424242A8
:1016500042424242241800000000000838080808EE
:1016600008080808083E00000000003C4242420210
:1016700004081020427E00000000003C42420204A8
:1016800018040242423C0000000000040C0C142428
:1016900024447F04041F00000000007E4040407886
:1016A0004402024244380000000000182440405C1C
:1016B00062424242221C00000000007E42040408F4
:1016C00008101010101000000000003C424242249C
:1016D00018244242423C000000000038444242428A
:1016E000463A02022418000000000000000018180A
:1016F00000000000181800000000000000000010AA
:10170000000000000010101000000002040810206B
:1017100040201008040200000000000000007E00CD
:10172000007E0000000000000000004020100804BF
:1017300002040810204000000000003C4242620405
:10174000080808001818000000000038445AAAAA27
:10175000AAAAAA5C423C0000000000101018282829
:10176000243C444242E70000000000F8444444782E
:101770004442424244F800000000003E4242808061
:101780008080804244380000000000F84442424219
:101790004242424244F80000000000FC42484878BF
:1017A0004848404242FC0000000000FC42484878A3
:1017B0004848404040E000000000003C4444808035
:1017C000808E844444380000000000E742424242D8
:1017D0007E42424242E700000000007C10101010E0
:1017E00010101010107C00000000003E08080808CF
:1017F00008080808080888F0000000EE4448507007
:101800005048484444EE0000000000E040404040A2
:101810004040404042FE0000000000EE6C6C6C6CEA
:101820006C54545454D60000000000C762625252F7
:101830004A4A4A4646E2000000000038448282825A
:101840008282828244380000000000FC4242424210
:101850007C40404040E0000000000038448282822A
:10186000828282B24C380600000000FC4242427C78
:101870004848444442E300000000003E4242402009
:1018800018040242427C0000000000FE921010107A
:101890001010101010380000000000E742424242D1
:1018A00042424242423C0000000000E742424424DF
:1018B0002428281810100000000000D65454545456
:1018C000546C282828280000000000E7422424182F
:1018D0001818242442E70000000000EE44442828A1
:1018E00010101010103800000000007E840408085A
:1018F0001020204242FC0000001E1010101010109A
:101900001010101010101E00000040202020101099
:1019100010080804040402020078080808080808EF
:1019200008080808080878000018240000000000D3
:1019300000000000000000000000000000000000A7
:1019400000000000000000FF006010000000000028
:10195000000000000000000000000000000000384F
:10196000440C34444C36000000000000C040405895
:101970006442424264580000000000000000001C65
:1019800022404040221C0000000000000602023EEF
:1019900042424242463B0000000000000000003C82
:1019A00042427E40423C0000000000000C12107CCD
:1019B00010101010107C0000000000000000003E1D
:1019C000444438403C42423C00000000C040405C7F
:1019D0006242424242E700000000003030000070E6
:1019E00010101010107C00000000000C0C00001CF7
:1019F000040404040404447800000000C040404E85
:101A00004850704844EE00000000001070101010A4
:101A100010101010107C000000000000000000FEFC
:101A20004949494949ED000000000000000000DC80
:101A30006242424242E70000000000000000003C19
:101A400042424242423C000000000000000000D838
:101A500064424242645840E0000000000000001A66
:101A600026424242261A020700000000000000EE53
:101A70003220202020F80000000000000000003E7E
:101A800042403C02427C0000000000000010107C3C
:101A900010101010120C000000000000000000C622
:101AA00042424242463B000000000000000000EEBF
:101AB000444428281010000000000000000000DB53
:101AC000894A5A54242400000000000000000076D7
:101AD00024181818246E000000000000000000E721
:101AE0004224241818101060000000000000007E3E
:101AF00044081010227E00000003040404040404BF
:101B00000804040404040300080808080808080876
:101B1000080808080808080800C020202020202005
:101B2000102020202020C000205A040000000000C7
:101B300000000000000000000000000000000000A5
:101B40000000000000000000000000000000000095
:101B50000000000000000000000000000000000085
:101B60000000000000000000000000000000000075
:101B70000600060006000600060006000600020039
:101B8000040004000400000000000000060006003D
:101B90000600000000000000000000000660066073
:101BA0000CC019801100220000000000000000009D
:101BB0000000000000000000000000000000000025
:101BC0000000000000000000000000000000000015
:101BD00008400840084008407FE07FE01040108047
:101BE0001080108010807FE07FE0208020802080A7
:101BF0002080000000000000000000000000020043
:101C000002000F801AC032C033C032001A000E002A
:101C100007000380038002C032C03AC032C0128085
:101C20000F000200020000000000000000000000A1
:101C3000708050808900890089008A008A005C00D9
:101C400075C005400A200A201220122012202140CF
:101C500021C00000000000000000000000000000A3
:101C60001C0036003600360036003600340019E01D
:101C700038805880CC80CC80C680C700C310639069
:101C80003CE00000000000000000000030003800D0
:101C90000800080010002000000000000000000004
:101CA0000000000000000000000000000000000034
:101CB00000000000000000000000000000200040C4
:101CC0000080010001000200020004000400040082
:101CD00004000400040004000200020001000100EE
:101CE00000800040002000000000000040002000B4
:101CF00010000800080004000400020002000200B6
:101D000002000200020002000400040008000800B3
:101D10001000200040000000000000000000000053
:101D200000000000020003000200623072F00B802D
:101D30000F807AF062300200020002000000000012
:101D40000000000000000000000000000000000093
:101D50000000000000000200020002000200020079
:101D60007FF00200020002000200020000000000FA
:101D70000000000000000000000000000000000063
:101D80000000000000000000000000000000000053
:101D900000000000000000000000000030003800DB
:101DA00008000800100020000000000000000000F3
:101DB0000000000000000000000000000000000023
:101DC0007FE00000000000000000000000000000B4
:101DD0000000000000000000000000000000000003
:101DE00000000000000000000000000000000000F3
:101DF0000000000000000000000000003800380073
:101E0000380000000000000000000000002000601A
:101E1000004000C0008000800100010002000200BC
:101E20000600040004000800080010001000300044
:101E300020006000400000000000000000000000E2
:101E400000000F00198030C030C0606060606060CA
:101E50006060606060606060606030C030C0198049
:101E60000F00000000000000000000000000000063
:101E7000000002003E000600060006000600060004
:101E80000600060006000600060006000600060022
:101E90003FC0000000000000000000000000000043
:101EA00000001F00218040C060C060C000C00080F2
:101EB000018003000600040008001040204060403C
:101EC0007FC00000000000000000000000000000D3
:101ED00000001E00630061806180018001800300BA
:101EE0000E000180008000C000C060C060C0618042
:101EF0001F000000000000000000000000000000C3
:101F00000000018001800380058005800980118028
:101F10001180218041807FF001800180018001805B
:101F200007E00000000000000000000000000000CA
:101F300000003FC0200020002000200020002F00D3
:101F4000318020C000C000C060C060C041802180DE
:101F50001F00000000000000000000000000000062
:101F60000000078018C030C030002000600067808B
:101F700068C070606060606060602060304018C061
:101F80000F00000000000000000000000000000042
:101F900000001FE0306020402080008000800100B1
:101FA0000100020002000200060006000600060012
:101FB000060000000000000000000000000000001B
:101FC00000001F8030C0606060606060304038C0DA
:101FD0000F00138030C0606060606060606030C07F
:101FE0000F80000000000000000000000000000062
:101FF00000000F00308030C0604060606060606052
:1020000060E031601E60006000C000C03080318040
:102010001E000000000000000000000000000000A2
:1020200000000000000000000000000007000700A2
:10203000070000000000000000000000070007008B
:102040000700000000000000000000000000000089
:102050000000000000000000000000000600060074
:10206000000000000000000000000000000006006A
:102070000600020004000400000000000000000050
:102080000020004000800100020004000800100051
:102090002000100008000400020001000080004041
:1020A0000020000000000000000000000000000010
:1020B0000000000000000000000000007FE00000C1
:1020C000000000007FE000000000000000000000B1
:1020D0000000000000000000000000000000000000
:1020E00020001000080004000200010000800040F1
:1020F00000200040008001000200040008001000E1
:1021000020000000000000000000000000000000AF
:10211000000007C01860203020303030303000E040
:10212000018002000200020000000000070007001A
:102130000700000000000000000000000000000098
:10214000070018C0304033A026A066A065A06D200F
:102150006D206D206D206D4027803020304018C0EC
:102160000F00000000000000000000000000000060
:102170000000060006000A000B000900090011001B
:10218000118010801F8020C020C02040404040604F
:10219000F0F000000000000000000000000000005F
:1021A00000007F0031C030C030C030C030C031804E
:1021B0003F0030C03040306030603060306030C050
:1021C0007F80000000000000000000000000000010
:1021D000000007C018C03060302020206000600080
:1021E000600060006000600060203020304018C057
:1021F0000F000000000000000000000000000000D0
:102200000000FE00318030C030C03060306030608F
:102210003060306030603060306030C030C031805D
:10222000FE000000000000000000000000000000B0
:102230000000FFC060C0602060206000610061009D
:102240007F006100610061006000602060206040EC
:10225000FFC00000000000000000000000000000BF
:102260000000FFC060C0602060206000610061006D
:102270007F0061006100610060006000600060003C
:10228000F800000000000000000000000000000056
:1022900000000F0018803040304020406000600097
:1022A0006000600063F060C060C030C030C018C023
:1022B0000F0000000000000000000000000000000F
:1022C0000000F0F0606060606060606060606060AE
:1022D0007FE060606060606060606060606060605F
:1022E000F0F000000000000000000000000000000E
:1022F00000003FC0060006000600060006000600BB
:10230000060006000600060006000600060006009D
:102310003FC00000000000000000000000000000BE
:1023200000001FE00300030003000300030003009C
:102330000300030003000300030003000300030085
:102340000300630066003C00000000000000000085
:102350000000F3C0618063006200640068006C00EC
:10236000740076006200630061006180608060C07C
:10237000F1E000000000000000000000000000008C
:102380000000F80060006000600060006000600015
:1023900060006000600060006000602060206040BD
:1023A000FFC000000000000000000000000000006E
:1023B0000000E0E061C061C071C071C072C072C055
:1023C00052C05AC05AC05CC04CC04CC04CC048C07F
:1023D000E1E000000000000000000000000000003C
:1023E000000071F03040384038402C402C402640EE
:1023F000264022402340214021C021C020C020C0CF
:10240000F840000000000000000000000000000094
:1024100000000F00198030C0304060606060606074
:1024200060606060606060606060304030C01980F3
:102430000F0000000000000000000000000000008D
:102440000000FF0060C060606060606060606060AD
:1024500061C07F006000600060006000600060009C
:10246000F800000000000000000000000000000074
:1024700000000F00198030C0304060606060606014
:1024800060606060606060606E60324033C0198080
:102490000F0001E000C0000000000000000000008C
:1024A0000000FF8060C0606060606060606060C06D
:1024B0007F00620063006100618060C060C0606096
:1024C000F0700000000000000000000000000000AC
:1024D00000001F4030C060406040600070003C0061
:1024E0001F0007C001C000E040604060606030C075
:1024F0000F8000000000000000000000000000004D
:1025000000007FE0462086108610060006000600C8
:10251000060006000600060006000600060006008B
:102520001F8000000000000000000000000000000C
:10253000000078E0304030403040304030403040A3
:1025400030403040304030403040304030401880E3
:102550000F0000000000000000000000000000006C
:102560000000F0E06040208020803080308011004A
:102570001100190019000A000A000E000C000400E6
:102580000400000000000000000000000000000047
:102590000000EF7046204220622062202640264044
:1025A0002740274039403980198019801180110057
:1025B000110000000000000000000000000000000A
:1025C000000079E030801080188009000D000600BE
:1025D0000400060006000B0009001180108020C0D6
:1025E00071E000000000000000000000000000009A
:1025F0000000F0F0602020403040108018801D0066
:102600000D000E000600060006000600060006008B
:102610001F8000000000000000000000000000001B
:1026200000003FE0304060C04080018001000200B7
:102630000200040004000800180010203020204090
:102640007FC00000000000000000000007C0040080
:10265000040004000400040004000400040004005A
:10266000040004000400040004000400040004004A
:102670000400040007C0000000000000000000008B
:1026800020002000100010000800080008000400CE
:10269000040002000200030001000100008000802D
:1026A0000040004000400020000000003E0002000A
:1026B000020002000200020002000200020002000A
:1026C00002000200020002000200020002000200FA
:1026D000020002003E000000000006000900108019
:1026E00000000000000000000000000000000000EA
:1026F00000000000000000000000000000000000DA
:1027000000000000000000000000000000000000C9
:1027100000000000000000000000000000000000B9
:1027200000000000000000000000000000000000A9
:10273000000000000000FFF000000000180006008C
:102740000000000000000000000000000000000089
:102750000000000000000000000000000000000079
:102760000000000000000000000000000000000069
:102770000000000000000000000000000F8030C0DA
:1027800030C000C007C038C070C060C060C071D029
:102790003E7000000000000000000000000000008B
:1027A00010007000300030003000300033803CC03A
:1027B000386030603060306030603060304038C049
:1027C0002780000000000000000000000000000062
:1027D0000000000000000000000000000F00318039
:1027E0003180618060006000600060403040308077
:1027F0000F000000000000000000000000000000CA
:10280000004003C000C000C000C000C01EC031C0F6
:1028100030C060C060C060C060C060C020C031E037
:102820001E8000000000000000000000000000000A
:10283000000000000000000000000000078018C039
:102840001040306030603FE0300030001820184009
:1028500007800000000000000000000000000000F1
:10286000000003C006600C600C000C007F800C00B0
:102870000C000C000C000C000C000C000C000C00F8
:102880003F80000000000000000000000000000089
:102890000000000000000000000000000FE01B60CE
:1028A00031803180318019801F0030003F0033C0FB
:1028B00060C060C071C01F00000000000000000088
:1028C000100070003000300030003000378038C019
:1028D00030C030C030C030C030C030C030C030C078
:1028E00079E000000000000000000000000000008F
:1028F0000000060006000000000002003E00060086
:102900000600060006000600060006000600060097
:102910003FC00000000000000000000000000000B8
:102920000000038003800000000000800F80018011
:10293000018001800180018001800180018001808F
:102940000180018033003E00000000000000000014
:1029500010007000300030003000300031C0310015
:102960003100320036003A0031003180308030C012
:1029700079E00000000000000000000000000000FE
:1029800002003E00060006000600060006000600E3
:102990000600060006000600060006000600060007
:1029A0003FC0000000000000000000000000000028
:1029B000000000000000000000000000ECE0776074
:1029C00066606660666066606660666066606660D7
:1029D000FFF0000000000000000000000000000008
:1029E000000000000000000000000000778038C0F8
:1029F00030C030C030C030C030C030C030C030C057
:102A000079E000000000000000000000000000006D
:102A10000000000000000000000000000F0019800E
:102A200030C06060606060606060606030C030C016
:102A30000F00000000000000000000000000000087
:102A4000000000000000000000000000778038C097
:102A500030603060306030603060306030C038C02E
:102A60003780300030007C000000000000000000D3
:102A70000000000000000000000000001E4031C007
:102A800030C060C060C060C060C060C020C031C0E5
:102A90001EC000C000C003E00000000000000000F5
:102AA000000000000000000000000000F9C01A60F3
:102AB0001C601800180018001800180018001800F2
:102AC000FF00000000000000000000000000000007
:102AD0000000000000000000000000000FC038C02F
:102AE000304030401C000F0003C020C020C031C067
:102AF0003F80000000000000000000000000000017
:102B000000000000040004000C000C007F800C009A
:102B10000C000C000C000C000C000C000C400C40D5
:102B2000078000000000000000000000000000001E
:102B300000000000000000000000104071C030C024
:102B400030C030C030C030C030C030C030C039E0DC
:102B50001E800000000000000000000000000000D7
:102B600000000000000000000000000078E030409D
:102B700010801080188009000D000D00060006006E
:102B80000400000000000000000000000000000041
:102B9000000000000000000000000000EF70462070
:102BA00062202640264037403980198019801980DC
:102BB0001000000000000000000000000000000005
:102BC0000000000000000000000000003DE0188050
:102BD00008800D000600060007000900108010C0E4
:102BE00079E000000000000000000000000000008C
:102BF00000000000000000000000000079E01080EC
:102C000010801080090009000D0006000600060073
:102C10000400040024003800000000000000000050
:102C20000000000000000000000000003F80218044
:102C300023002200060004000C001840104030C0A1
:102C40003F800000000000000000000000C0010004
:102C5000010001000100010001000100010002006B
:102C60000400020001000100010001000100010058
:102C70000100010000C0000002000200020002008A
:102C80000200020002000200020002000200020034
:102C90000200020002000200020002000200020024
:102CA00002000200020002000000000030000800E4
:102CB00008000800080008000800080008000400D8
:102CC00002000400080008000800080008000800CE
:102CD00008000800300000000000380044204320B5
:102CE00001C0000000000000000000000000000023
:102CF00000000000000000000000000000000000D4
:102D000000000000000000000000000000000000C3
:102D100000000000000000000000000000000000B3
:102D200000000000000000000000000000000000A3
:102D30000000000000000000000000000000000093
:102D40000000000000000000000000000000000083
:102D50000000000003C003C003C003C003C003C0E1
:102D600001C001800180018001800180018001801B
:102D70000180000000000000018003C003C001804A
:102D800000000000000000000000000003180738E9
:102D900007380E700C6018C0318021000000000060
:102DA0000000000000000000000000000000000023
:102DB0000000000000000000000000000000000013
:102DC0000000000000000000000000000000000003
:102DD00000000000040804080408040804087FFE3A
:102DE0007FFE7FFE08100810081008100810081059
:102DF0007FFE7FFE7FFE1830102010201020102054
:102E000000000000000000000000000000000000C2
:102E10000100010003C00D300918191819381938BC
:102E20001D000D000F00070003C001E001F001309C
:102E3000013801183918391831183130196007C0B4
:102E4000010001000100000000000000000000007F
:102E50000000000038106C104420C620C640C64058
:102E6000C640C680C68044806D38396C024402C6B4
:102E700002C604C604C608C608C60844106C10384A
:102E80000000000000000000000000000000000042
:102E9000000000000F001900318031803180318046
:102EA000310033003A001C00387C3C104C10CE102E
:102EB000C620C720C320C1C0C1C260E6317C1E3815
:102EC00000000000000000000000000038003C008E
:102ED0003C000C000C000800300060000000000006
:102EE00000000000000000000000000000000000E2
:102EF00000000000000000000000000000000000D2
:102F000000000000000000000000000000020004BB
:102F100000080018003000200060004000C000C021
:102F20000180018001800180018001800180018099
:102F3000018000C000C00040006000200030001888
:102F40000008000400020000000000004000200013
:102F5000100018000C00040006000200030003002B
:102F60000180018001800180018001800180018059
:102F70000180030003000300060004000C00180099
:102F800010002000400000000000000000000000D1
:102F9000000000000000000000C001C001C030C6F9
:102FA000388E1C9C06B001C001C006B01C9C388E37
:102FB000318601C001C001C0000000000000000017
:102FC0000000000000000000000000000000000001
:102FD0000000000000000000000000800080008071
:102FE00000800080008000803FFE00800080008024
:102FF00000800080008000800000000000000000D1
:1030000000000000000000000000000000000000C0
:1030100000000000000000000000000000000000B0
:1030200000000000000000000000000000000000A0
:10303000000000000000000038003C003C000C00D4
:103040000C000800300060000000000000000000DC
:103050000000000000000000000000000000000070
:1030600000000000000000007FFE000000000000E3
:103070000000000000000000000000000000000050
:103080000000000000000000000000000000000040
:103090000000000000000000000000000000000030
:1030A0000000000000000000000000000000000020
:1030B000000000000000000018003C003C00180068
:1030C00000000000000000000000000000000002FE
:1030D00000060004000C000800180010003000205A
:1030E0000060004000C00080018001000300020079
:1030F000060004000C00080018001000300020003A
:10310000600040000000000000000000000000001F
:103110000000000003C006200C301818181818080A
:10312000300C300C300C300C300C300C300C300CBF
:10313000300C300C1808181818180C30062003C072
:10314000000000000000000000000000000000007F
:1031500000000000008001801F800180018001804C
:103160000180018001800180018001800180018057
:1031700001800180018001800180018003C01FF86F
:10318000000000000000000000000000000000003F
:103190000000000007E008381018200C200C300C4C
:1031A000300C000C001800180030006000C00180D6
:1031B00003000200040408041004200C3FF83FF848
:1031C00000000000000000000000000000000000FF
:1031D0000000000007C01860303030183018301878
:1031E000001800180030006003C0007000180008CC
:1031F000000C000C300C300C30083018183007C0B0
:1032000000000000000000000000000000000000BE
:10321000000000000060006000E000E0016001606C
:103220000260046004600860086010603060206024
:1032300040607FFC0060006000600060006003FC94
:10324000000000000000000000000000000000007E
:10325000000000000FFC0FFC100010001000100018
:103260001000100013E0143018181008000C000CA7
:10327000000C000C300C300C20182018183007C03F
:10328000000000000000000000000000000000003E
:103290000000000001E006180C18081818001000C3
:1032A0001000300033E0363038183808300C300C5D
:1032B000300C300C300C180C18080C180E3003E0D1
:1032C00000000000000000000000000000000000FE
:1032D000000000001FFC1FFC1008301020102020F0
:1032E00000200040004000400080008001000100FC
:1032F00001000100030003000300030003000300BA
:1033000000000000000000000000000000000000BD
:103310000000000007E00C301818300C300C300CA6
:10332000380C38081E180F2007C018F030783038D5
:10333000601C600C600C600C600C3018183007C00A
:10334000000000000000000000000000000000007D
:103350000000000007C01820301030186008600C12
:10336000600C600C600C600C701C302C186C0F8CA6
:10337000000C0018001800103030306030C00F8092
:10338000000000000000000000000000000000003D
:10339000000000000000000000000000000000002D
:1033A0000000018003C003C0018000000000000095
:1033B0000000000000000000018003C003C0018085
:1033C00000000000000000000000000000000000FD
:1033D00000000000000000000000000000000000ED
:1033E0000000000003800380038000000000000054
:1033F0000000000000000000000003800380038044
:103400000180030003000000000000000000000035
:1034100000000000000400080010002000400080B0
:103420000100020004000800100010000800040061
:10343000020001000080004000200010000800048D
:10344000000000000000000000000000000000007C
:10345000000000000000000000000000000000006C
:1034600000007FFE000000000000000000007FFE62
:10347000000000000000000000000000000000004C
:10348000000000000000000000000000000000003C
:1034900000000000200010000800040002000100ED
:1034A00000800040002000100008000800100020EC
:1034B000004000800100020004000800100020000D
:1034C00000000000000000000000000000000000FC
:1034D0000000000003E00C18180C10063006380637
:1034E00038063806000C0018007000C0008000800C
:1034F0000080008000000000018003C003C0018044
:1035000000000000000000000000000000000000BB
:103510000000000003E006100C08180430D431B29B
:103520002132633263226622662266226662666404
:10353000666426E8333030021004180C0C1803E0DF
:10354000000000000000000000000000000000007B
:1035500000000000038003800380038004C004C0D7
:1035600004C004C00C4008600860086018201FF008
:10357000103010301030201820182018601CF83E31
:10358000000000000000000000000000000000003B
:10359000000000007FE018381818180C180C180CE0
:1035A000180C180C181818301FE01818180C1804EC
:1035B00018061806180618061806180C18187FF0B2
:1035C00000000000000000000000000000000000FB
:1035D0000000000003E0061C080C18063002300250
:1035E000300060006000600060006000600060000B
:1035F0006000600030023002100418080C1003E074
:1036000000000000000000000000000000000000BA
:10361000000000007FC0187018181808180C180C4B
:1036200018061806180618061806180618061806AA
:1036300018061804180C180C1818181818607FC0F1
:10364000000000000000000000000000000000007A
:10365000000000007FFC180C180418021802180063
:1036600018001810181018301FF018301810181003
:10367000180018001800180218021804180C7FFC13
:10368000000000000000000000000000000000003A
:10369000000000007FFC181C180418021802180013
:1036A00018001810181018301FF0183018101810C3
:1036B00018101800180018001800180018007E00D4
:1036C00000000000000000000000000000000000FA
:1036D0000000000003C00C30081018183008300833
:1036E000200060006000600060006000607E601884
:1036F0006018201830183018101818180C2007C03F
:1037000000000000000000000000000000000000B9
:1037100000000000FC3F300C300C300C300C300C42
:10372000300C300C300C300C3FFC300C300C300CBA
:10373000300C300C300C300C300C300C300CFC3FAA
:103740000000000000000000000000000000000079
:10375000000000001FF801800180018001800180CD
:103760000180018001800180018001800180018051
:1037700001800180018001800180018001801FF8AB
:103780000000000000000000000000000000000039
:103790000000000007FE0060006000600060006044
:1037A0000060006000600060006000600060006019
:1037B0000060006000600060006000600060006009
:1037C000706070C071803F000000000000000000C9
:1037D000000000007E7C1830182018601840188007
:1037E0001880190019001B001D801D8018C018C00A
:1037F00018601860183018301830181818187E3EE5
:1038000000000000000000000000000000000000B8
:10381000000000007E0018001800180018001800B2
:1038200018001800180018001800180018001800D8
:10383000180018001800180218021804180C7FFC51
:103840000000000000000000000000000000000078
:1038500000000000F00F381C381C381C381C382CB5
:103860002C2C2C2C2C2C2C4C2C4C264C264C264C0A
:10387000268C228C238C238C230C230C210CF13FCF
:103880000000000000000000000000000000000038
:1038900000000000F01F380438042C042C04260417
:1038A0002604230423042184218420C420C420640A
:1038B000206420342034201C201C200C200CF80410
:1038C00000000000000000000000000000000000F8
:1038D0000000000003C00C3018181008300C300C29
:1038E00060046006600660066006600660066006AA
:1038F00060062006300C300C100818180C3003C07D
:1039000000000000000000000000000000000000B7
:10391000000000007FF01818180C1806180618068A
:10392000180618061806180C18181FE018001800BA
:1039300018001800180018001800180018007E0061
:103940000000000000000000000000000000000077
:103950000000000003C00C3018181008300C300CA8
:103960006006600660066006600660066006600627
:1039700060066006278438CC386C18780C7003E039
:103980000032003C001C00000000000000000000AD
:10399000000000007FE018381818180C180C180CDC
:1039A000180C180C181818301FE018C018C0186030
:1039B00018601860183018301830181818187E1E43
:1039C00000000000000000000000000000000000F7
:1039D000000000000FC818783018601860086008F0
:1039E000600070003C001F0007C001F00078001864
:1039F000001C400C400C600C200C3018383027E0C4
:103A000000000000000000000000000000000000B6
:103A1000000000003FFC3184218641824182018008
:103A2000018001800180018001800180018001808E
:103A3000018001800180018001800180018007E018
:103A40000000000000000000000000000000000076
:103A500000000000FC3E3008300830083008300814
:103A60003008300830083008300830083008300896
:103A70003008300830083008300818101C2007C003
:103A80000000000000000000000000000000000036
:103A9000000000007C1E180C1808180818080C10EC
:103AA0000C100C100C100C200620062006200640DE
:103AB00003400340034003800180018001000100B6
:103AC00000000000000000000000000000000000F6
:103AD00000000000F3CF618661842184208430C41B
:103AE00031C431C431C831C811C812481A681A68C3
:103AF0001A701C700C700C700C300C200820082000
:103B000000000000000000000000000000000000B5
:103B1000000000007C3E180818100C100C20062035
:103B200006400340038001800180018001C002C083
:103B3000026004600470083008301818101C7C3EC5
:103B40000000000000000000000000000000000075
:103B5000000000007E3E3808180818100C100C10E9
:103B60000C200620062003400340038001800180D2
:103B7000018001800180018001800180018007E0D7
:103B80000000000000000000000000000000000035
:103B9000000000001FFE1C0C180C3018201800300C
:103BA0000060006000C000C00180018003000300CD
:103BB000060006000C00180218063004301C7FFCBA
:103BC000000000000000000000000000000003FCF6
:103BD00003000300030003000300030003000300CD
:103BE00003000300030003000300030003000300BD
:103BF00003000300030003000300030003000300AD
:103C0000030003FC000000000000000000000000B2
:103C100000001800180008000C0004000600060050
:103C200002000300010001800180008000C000400C
:103C30000060006000300030003000180018000CF8
:103C4000000C000C000600000000000000003FC057
:103C500000C000C000C000C000C000C000C000C064
:103C600000C000C000C000C000C000C000C000C054
:103C700000C000C000C000C000C000C000C000C044
:103C800000C03FC0000000000000000003C003E0CF
:103C900006200810000000000000000000000000E6
:103CA0000000000000000000000000000000000014
:103CB0000000000000000000000000000000000004
:103CC00000000000000000000000000000000000F4
:103CD00000000000000000000000000000000000E4
:103CE00000000000000000000000000000000000D4
:103CF00000000000000000000000000000000000C4
:103D0000000000000000FFFF000000001E00030094
:103D10000080000000000000000000000000000023
:103D20000000000000000000000000000000000093
:103D30000000000000000000000000000000000083
:103D40000000000000000000000000000000000073
:103D50000000000000000000000000000000000063
:103D6000000007E01830301830183018003807D835
:103D70001C183018601860186018601930791F8E90
:103D80000000000000000000000000000000000033
:103D9000000008007800180018001800180018002B
:103DA000180019E01A381C181C0C180C180C180CE8
:103DB000180C180C180C180C18081C181C3013E0E0
:103DC00000000000000000000000000000000000F3
:103DD00000000000000000000000000000000000E3
:103DE000000003E00E100C181818301830003000D6
:103DF0003000300030003004180418080C1003E0C4
:103E000000000000000000000000000000000000B2
:103E100000000008007800180018001800180018AA
:103E2000001807D80C38181818183018301830181F
:103E30003018301830183018101818380C5E0790E9
:103E40000000000000000000000000000000000072
:103E50000000000000000000000000000000000062
:103E6000000003C00C3008181808300C300C300C5F
:103E70003FFC300030003000180418080E1803E032
:103E80000000000000000000000000000000000032
:103E900000000000007C0186010603060300030009
:103EA00003003FF8030003000300030003000300C6
:103EB00003000300030003000300030003001FF0DE
:103EC00000000000000000000000000000000000F2
:103ED00000000000000000000000000000000000E2
:103EE000000003EE0C3608181818181818180818CF
:103EF0000C300FE0180018001FC00FF8181C300C11
:103F0000300C300C181807E0000000000000000022
:103F100000000800780018001800180018001800A9
:103F2000180019E01A301C18181818181818181842
:103F300018181818181818181818181818187E7E35
:103F40000000000000000000000000000000000071
:103F500000000000018003C001800000000000009C
:103F600000801F800180018001800180018001802C
:103F700001800180018001800180018001801FF8A3
:103F80000000000000000000000000000000000031
:103F90000000000000380078003000000000000041
:103FA000001003F0003000300030003000300030EE
:103FB0000030003000300030003000300030003081
:103FC0000030186018400F80000000000000000062
:103FD00000000800780018001800180018001800E9
:103FE0001800187C183018201840188019801B8081
:103FF0001EC01CC01860183018301818181C7E3EDF
:1040000000000000000000000000000000000000B0
:10401000000000801F8001800180018001800180FC
:104020000180018001800180018001800180018088
:1040300001800180018001800180018001801FF8E2
:104040000000000000000000000000000000000070
:104050000000000000000000000000000000000060
:104060002000EF3C71C6618661866186618661864B
:104070006186618661866186618661866186F3CF2D
:104080000000000000000000000000000000000030
:104090000000000000000000000000000000000020
:1040A000000009E07A301C18181818181818181889
:1040B00018181818181818181818181818187E7EB4
:1040C00000000000000000000000000000000000F0
:1040D00000000000000000000000000000000000E0
:1040E000000003C00C3008181818100C300C300CED
:1040F000300C300C300C300C181818180C3003C071
:1041000000000000000000000000000000000000AF
:10411000000000000000000000000000000000009F
:10412000000009E07A301C181808180C180C180C3C
:10413000180C180C180C180C18181C181E3019E044
:104140001800180018007E000000000000000000A9
:10415000000000000000000000000000000000005F
:10416000000003C80C7818381818301830183018A8
:104170003018301830183018101818380C78079884
:10418000001800180018007E000000000000000069
:10419000000000000000000000000000000000001F
:1041A0000000061C7E6606860780070006000600E3
:1041B00006000600060006000600060006007FE076
:1041C00000000000000000000000000000000000EF
:1041D00000000000000000000000000000000000DF
:1041E000000003E4061C0C0C0C040C040E0007C0B9
:1041F00001F00078001C100C100C180C1C1813F0A7
:1042000000000000000000000000000000000000AE
:104210000000000000000000010001000100030098
:1042200007003FF80300030003000300030003003E
:10423000030003000300030003040304018800F0EB
:10424000000000000000000000000000000000006E
:10425000000000000000000000000000000000005E
:10426000080878781818181818181818181818182E
:104270001818181818181818181818380C5E0790FD
:10428000000000000000000000000000000000002E
:10429000000000000000000000000000000000001E
:1042A00000007C3E180C180818180C100C10042084
:1042B000062006200340034003C001800180010066
:1042C00000000000000000000000000000000000EE
:1042D00000000000000000000000000000000000DE
:1042E0000000FBCF618621843184318431C811C83C
:1042F0001AC81A481A700E700C700C300C2004206A
:1043000000000000000000000000000000000000AD
:10431000000000000000000000000000000000009D
:1043200000003E7C0C100E1006200340034001806C
:10433000018001C0026004600430081818187C7EF7
:10434000000000000000000000000000000000006D
:10435000000000000000000000000000000000005D
:1043600000007C3E1818181008100C1004200620BD
:10437000062002400340014001800180010001004D
:10438000010002003E003C000000000000000000B0
:10439000000000000000000000000000000000001D
:1043A00000003FF830383030206020E000C001804D
:1043B0000380030006000E040C04180C30183FF8AC
:1043C000000000000000000000000000000C0010D1
:1043D00000200020002000200020002000200020DD
:1043E00000200020002000C00180004000200020AC
:1043F00000200020002000200020002000200020BD
:1044000000200010000C0000008000800080008070
:10441000008000800080008000800080008000809C
:10442000008000800080008000800080008000808C
:10443000008000800080008000800080008000807C
:104440000080008000800080000000001800040050
:10445000020002000200020002000200020002004C
:10446000020002000200018000C001000200020000
:10447000020002000200020002000200020002002C
:10448000020004001800000000001E00230041820A
:10449000408200E40038000000000000000000003E
:1044A000000000000000000000000000000000000C
:1044B00000000000000000000000000000000000FC
:1044C0000000000000000000E84400080000002098
:1044D0001C000000AA120008044500081C0000206F
:1044E00004080000BA1200080000000000000000EC
:1044F0000102030401020304060708090204060876
:04450000FF000000B8
:0400000508000131BD
:00000001FF
