:020000040800F2
:10000000E0E000204901000861170008CB0E00085D
:100010005D1700089D0B0008D91C000800000000B7
:100020000000000000000000000000008D18000823
:10003000A10B000800000000E9170008A119000842
:100040006301000863010008630100086301000800
:100050006301000863010008A50B000863010008A4
:10006000D90B00080D0C0008410C000863010008C2
:1000700063010008630100086301000863010008D0
:1000800063010008630100086301000863010008C0
:1000900063010008630100086301000863010008B0
:1000A00063010008630100086301000863010008A0
:1000B0006301000863010008630100086301000890
:1000C0006301000863010008630100086301000880
:1000D00063010008ED1B00086301000863010008CC
:1000E0006301000863010008630100086301000860
:1000F0006301000863010008630100086301000850
:10010000630100086301000863010008630100083F
:100110006301000863010008051A00086301000874
:10012000630100086301000863010008630100081F
:10013000DFF810D000F074FC00480047E19E020890
:10014000AFF30080E0E00020064880470648004703
:10015000FEE7FEE7FEE7FEE7FEE7FEE7FEE7FEE777
:10016000FEE7FEE7A5190008310100082DE9F05F60
:100170000546002092469B46884606468146402416
:100180001BE0284641464746224600F042FB5346C4
:100190005A46C01A914110D311461846224600F023
:1001A00029FB2D1A67EB01084F462246012000214A
:1001B00000F020FB17EB00094E41201EA4F10104C2
:1001C000DFDC484631462A464346BDE8F09F40EA18
:1001D00001039B0703D009E008C9121F08C0042AC5
:1001E000FAD203E011F8013B00F8013B521EF9D2AC
:1001F0007047D2B201E000F8012B491EFBD27047D4
:100200000022F6E710B513460A4604461946FFF7E2
:10021000F0FF204610BD421C10F8011B0029FBD145
:10022000801A704710B5002200E0521C835C8C5C81
:10023000A34201D1002BF8D1D8B2E1B2401A10BDCF
:10024000034611F8012B00F8012B002AF9D11846BA
:100250007047F0B480EA0102D40F4200B2EB410FC4
:1002600002D20246084611464A0042D0C30DDDB212
:10027000C1F3C752AD1A202D35DAC1F3160141F48E
:10028000000204B15242C5F1200602FA06F12A41E9
:100290001044B3EBD05F23D0C4B1012DA0EBC35009
:1002A00009DCF0BC4FF0004202EAC352DBB200F5B9
:1002B000000000F0D9BA400000F1807000EBC3509C
:1002C000A0F1807040EAD170490009E0490841EA94
:1002D000C071A0EBC35000F50000400800EBC35014
:1002E000F0BC00F0B8BA6142012202EB4101001BF0
:1002F000F6E7F0BC704781F00041AAE780F00040CB
:10030000A7E730B480EA010202F0004530F0004275
:1003100021F0004013D090B1C30DD40DC2F31601EB
:10032000C0F31600E41A41F4000140F400027D34E9
:10033000914201D3641C00E04900002C02DA30BC79
:10034000002070474FF400000023914201D3891A26
:10035000034340084FEA4101F7D151B1914202D124
:100360004FF0004105E002D24FF0010101E06FF0D3
:10037000010103EBC450284430BC00F06CBA2DE9F5
:10038000FE4F804681EA0300C00F0C46009021F02A
:10039000004123F00045B8EB0200A94105D24046D8
:1003A000214690461C460B46024623F0004010436F
:1003B00047D0270DC7F30A00C3F30A510290401A31
:1003C000019040286BDAC3F3130040F4801B0098BF
:1003D000924620B10023D2EB030A63EB0B0B01988A
:1003E0005946C0F14002504600F004FA06460D4658
:1003F00050465946019A00F01CFA10EB0800614182
:10040000002487EA115284EAE7731A4340D0009A25
:1004100062B3019A012A4FEA075215DC001B61EB17
:1004200002014FF0004202EA0752CDE90042001CEF
:1004300041F5801132462B4600F053FA03B0BDE877
:10044000F08F40462146F9E7001B61EB0201001CDA
:1004500041F5801300185B412018A2F5001747EB07
:10046000030140EAD570B6196D4111E06D084FEAFD
:10047000360645EAC0754FEA0752001B61EB0201E0
:10048000001C41F5801149084FEA30000019514124
:1004900032462B4603B0BDE8F04F00F013BA009887
:1004A000012240000023D0EB020263EBE0730098CE
:1004B00021464FEAE074B8EB000061EB0401E9E784
:1004C00083F000435BE781F0004158E72DE9FE4FE0
:1004D00081EA030404F0004421F0004100944FF04D
:1004E000000B23F0004350EA01045ED052EA0304FB
:1004F0005BD0C3F30A54C1F30A552C44A4F2F3347D
:100500000194A0FB0254C1F3130141F48011C3F321
:10051000130343F4801301FB024400FB034E840ADF
:10052000970A44EA815447EA8357A4FB0768029577
:100530008D0A05FB07854FEA932C04FB0C54270515
:10054000029D4FEA065847EA1637B5EB08056EEBF1
:10055000070C870E920E47EA811742EA8312A7FB27
:100560000201B6EB0B0164EB00042B0D43EA0C33E4
:100570005E1844EB1C50DA465146E7FB0201C5F316
:1005800013044FEA0B3343EA14534FEA0432019C3D
:1005900043EA0603A4F10C040294009CCDE900B4E4
:1005A00000F09FF903B0BDE8F08F00200146F9E7A5
:1005B0002DE9F04D81EA030404F0004B21F00045E1
:1005C00014464FF0000A23F0004150EA050220D003
:1005D00054EA01021DD0C5F30A570246C5F31303BE
:1005E000C1F31300C1F30A5640F4801543F480139D
:1005F000A7EB0608101BD64608F2FD3873EB050082
:1006000002D308F1010801E092185B41B8F1000F34
:1006100003DA00200146BDE8F08D00204FF4801180
:10062000064684460EE0171B73EB050705D3121B25
:1006300063EB050306434CEA010C49084FEA30001E
:1006400092185B4150EA0107EDD152EA030012D043
:1006500082EA040083EA0501084305D0101BAB4180
:1006600006D20122002306E000224FF0004302E000
:100670006FF0010253101AEB06004CEB085110EB1F
:100680000A0041EB0B01BDE8F04D00F01BB9C10FB2
:1006900080EAE0700844CA079623002100F0E4B81D
:1006A0000EB5C10F80EAE0700844CA07002140F28D
:1006B00033438DE80E000A460B4600F012F903B0F2
:1006C00000BD0EB540F2334102910021CDE9001189
:1006D0000A460B4600F005F903B000BD20F00040CB
:1006E000C10DC0F3160040F400007F2901DA00209C
:1006F0007047962903DCC1F19601C84070479639CE
:1007000088407047C1F30A5210B5C1F3130140F29B
:10071000FF3341F480119A4201DA002010BD40F20B
:1007200033439A42A2F2334203DC524200F071F8A2
:1007300010BD904010BDC1F30A52C1F3130140F245
:10074000FF3341F480119A4202DA002001467047DB
:1007500040F233439A42A2F2334202DC524200F0AA
:1007600058B800F047B8000030B5041E71F100041D
:1007700004DB4FF00044404264EB0101141E73F1AE
:10078000000405DB1C464FF00043524263EB0403B8
:100790008B4208BF824230BD30B5041E71F10004A7
:1007A00004DB4FF00044404264EB0101141E73F17E
:1007B000000405DB1C464FF00043524263EB040388
:1007C000994208BF904230BD30B50B46014600202B
:1007D0002022012409E021FA02F59D4205D303FA03
:1007E00002F5491B04FA02F52844151EA2F1010284
:1007F000F1DC30BD202A04DB203A00FA02F10020AF
:1008000070479140C2F1200320FA03F3194390404E
:100810007047202A04DB203A21FA02F000217047B9
:1008200021FA02F3D040C2F1200291400843194658
:100830007047202A06DBCB17203A41FA02F043EA40
:10084000E07306E041FA02F3D040C2F12002914089
:100850000843194670470029A8BF7047401C49004B
:1008600008BF20F00100704710B4B0FA80FC00FA15
:100870000CF050EA010404BF10BC704749B1CCF140
:10088000200421FA04F411FA0CF118BF01212143CC
:100890000843A3EB0C01CB1D4FEA00614FEA102087
:1008A00042BF002010BC704700EBC3501044002929
:1008B000A4BF10BC7047401C490008BF20F00100D5
:1008C00010BC704710B5141E73F1000408DA401C08
:1008D00041F1000192185B411A4301D120F001005F
:1008E00010BD2DE9F04D92469B4611B1B1FA81F24F
:1008F00002E0B0FA80F220329046FFF77BFF044618
:100900000F4640EA0A0041EA0B0153465A460843A3
:1009100013D0114653EA010019D0C8F140025046E5
:10092000FFF777FF05460E46504659464246FFF709
:1009300061FF084305D0012004E020463946BDE8A8
:10094000F08D0020054346EAE0762C4337430A98B1
:100950006305E40AA0EB08000022FD0A44EA4754BC
:100960000A3002D500200146E9E701051019694166
:10097000DDE9084500196941BDE8F04DA2E72DE920
:10098000F04D00231A461B1A8A4103DB0020014662
:10099000BDE8F08DC1F30A52C1F3130141F4801593
:1009A0004FF0000BD10702D100186D41521E0027F5
:1009B000044640F2FF11384601EB620A3E4680468B
:1009C000024600204FF48011FFF723FFC219714146
:1009D000BB1846EB0100B4EB030C75EB000C04D321
:1009E000E41A65EB000517460E46241908F10100CC
:1009F0006D4180463428E3DDF91946EB0600091BFA
:100A0000A84103D24FF0FF32134601E00022134603
:100A10001BEB070046EB0A51BDE8F04DFFF752BF54
:100A2000064C074D06E0E06840F0010394E807003B
:100A300098471034AC42F6D3FFF77EFB6C7803087E
:100A40008C78030870B58C1810F8015B15F007035B
:100A500001D110F8013B2A1106D110F8012B03E057
:100A600010F8016B01F8016B5B1EF9D12B0705D45F
:100A70000023521E0DD401F8013BFAE710F8013BA8
:100A8000CB1A921C03E013F8015B01F8015B521EC4
:100A9000F9D5A142D8D3002070BD10B500F0D4FA2A
:100AA00010BD70B505460C46164607E029466A1C7F
:100AB00095B2C8B200F008F804F8010B301EA6F198
:100AC00001018EB2F2D170BD70B5054600F0A8FAF2
:100AD000A02000F077FA00F011FA0446ECB929469C
:100AE0000FA001F0FBF8284600F06CFA00F006FABF
:100AF000044694B900F094FAA12000F063FA00F0E3
:100B0000FDF904464CB9012000F01EFA06463146B4
:100B100006A001F0E3F800F0DFF9304670BD0000F8
:100B200061646472203D2025640A00006461746180
:100B3000203D2025630A000070B504460D46164688
:100B400006E02978E0B200F009F8601C84B26D1C60
:100B5000301EA6F101018EB2F3D170BD70B506460C
:100B60000D4600F05DFAA02000F02CFA00F0C6F966
:100B7000044694B9304600F025FA00F0BFF9044667
:100B80005CB9284600F01EFA00F0B8F9044624B912
:100B900000F0A2F90A2006F0C9FA70BD00BFFEE716
:100BA0007047000010B5142006F0C0FA00BF012104
:100BB000074800F07DF90128F9D0142006F0B6FAB4
:100BC000012000F057F800200249087010BD000015
:100BD000000801400400002010B5142006F0A6FA19
:100BE00000BF0421074800F063F90028F9D0142061
:100BF00006F09CFA042000F03DF80220024908703B
:100C000010BD0000001801400400002010B51420A1
:100C100006F08CFA00BF0821074800F049F90028C7
:100C2000F9D0142006F082FA082000F023F80320FF
:100C30000249087010BD00000018014004000020A7
:100C400010B5142006F072FA00BF1021074800F01A
:100C50002FF90028F9D0142006F068FA102000F0CF
:100C600009F804200249087010BD00000018014076
:100C7000040000200149086070470000140401408E
:100C800051B18200A2F1C042126842F00103820019
:100C9000A2F1C042136009E08200A2F1C0421268D2
:100CA000034B1A408300A3F1C0431A607047000051
:100CB000FEFF0F00D0E901121143C268114302691F
:100CC00011434269114382691143C2691143026AA7
:100CD0001143426A1143826A1143C26A1143026B93
:100CE000114302689200A2F1C04211608168082994
:100CF0000BD101688900A1F1C041096841F04002AF
:100D000001688900A1F1C0410A60416B0968426B2A
:100D1000526841EA0211426B926841EA0221426B39
:100D2000928941EA0241426B128A41EA0251426BC6
:100D3000127D41EA0261426B926911430268521CC2
:100D40009200A2F1C0421160C16AB1F5804F1BD17F
:100D5000816B0968826B526841EA0211826B92686A
:100D600041EA0221826B128A41EA0251826B127DB2
:100D700041EA0261826B9269114302689200A2F11A
:100D8000C042C2F8041107E06FF0704201688900A8
:100D9000A1F1C041C1F8042170472DE9F04102469C
:100DA00000250026002000230024002791F803C01E
:100DB0000CF00F0591F803C00CF0100CBCF1000F03
:100DC00003D091F802C04CEA050591F800C0BCF1CF
:100DD000000F31D0146800202BE04FF0010C0CFA0A
:100DE00000F3B1F800C00CEA03069E4220D1830054
:100DF0004FF00F0C0CFA03F7BC4305FA03FC4CEA66
:100E0000040491F803C0BCF1280F06D14FF0010C87
:100E10000CFA00FCC2F814C00AE091F803C0BCF15F
:100E2000480F05D14FF0010C0CFA00FCC2F810C0BD
:100E3000401C0828D1D31460B1F800C0BCF1FF0FEA
:100E400034DD546800202EE000F1080C4FF001085A
:100E500008FA0CF3B1F800C00CEA03069E4221D157
:100E600083004FF00F0C0CFA03F7BC4305FA03FCA8
:100E70004CEA040491F803C0BCF1280F05D100F13D
:100E8000080C08FA0CF8C2F8148091F803C0BCF101
:100E9000480F07D100F1080C4FF0010808FA0CF8D0
:100EA000C2F81080401C0828CED35460BDE8F08101
:100EB0000246002093680B400BB1012000E00020A7
:100EC0007047416170470161704700BFFEE710B590
:100ED000022006F051F910BD10B5002000F0C6FC4C
:100EE000FFF7F5FF012000F0B1FCFFF7F0FF012054
:100EF00000F0BCFCFFF7EBFF10BD000070B5002454
:100F00000025012000F0B2FCFFF7E1FF012000F016
:100F10009DFCFFF7DCFF07E0601CC4B2FA2C03DD88
:100F2000FFF7DAFF012505E080210648FFF7C0FF43
:100F30000028F1D100BF002000F088FCFFF7C7FFB8
:100F4000284670BD000C014070B505460026012002
:100F500000F08CFC002412E0012000F077FCFFF789
:100F6000B6FF80210B48FFF7A3FF10B1802020417E
:100F70000643002000F06AFCFFF7A9FF641C082C60
:100F8000EADB15B900F008F801E000F038F8304667
:100F900070BD0000000C014010B5002000F066FCA0
:100FA000FFF795FF012000F051FCFFF790FF0020B4
:100FB00000F04CFCFFF78BFF012000F057FCFFF71F
:100FC00086FF10BD70B50546002412E0C4F107018C
:100FD00045FA01F101F0010000F048FCFFF777FF4E
:100FE000012000F033FCFFF772FF002000F02EFC20
:100FF000641C082CEADB012000F038FC70BD10B541
:10100000012000F033FCFFF762FF012000F01EFC1E
:10101000FFF75DFF002000F019FCFFF758FF10BD3F
:1010200010B5012000F022FC012000F00FFCFFF7BA
:101030004EFF002000F01AFCFFF749FF002000F0EF
:1010400005FCFFF744FF10BD08B50121082000F0A2
:10105000EDFB4020ADF8000010208DF803000320C8
:101060008DF8020069460848FFF797FE8020ADF82A
:10107000000014208DF8030069460348FFF78DFE39
:10108000FFF72AFF08BD0000000C0140034991F959
:101090000000FF21014A1170704700000400002089
:1010A00000B59FB00121080200F0A0FB01214FF420
:1010B000B47000F0BBFB0120ADF8780010208DF873
:1010C0007B0003208DF87A001EA93048FFF765FEEB
:1010D00041F20100ADF8780018208DF87B001EA9C0
:1010E0002B48FFF75AFE4CF23370ADF878001EA97A
:1010F0002848FFF752FE4FF68070ADF878001EA921
:101100002548FFF74AFE00200E900120099000209C
:1011100008900B900C900D9001200A9000200790F1
:10112000012002900020019004900590069001207B
:1011300003900020149006200F9000201390109030
:101140004FF480401A9010201290002011901990B6
:101150001790159016904FF48050189008A81D9085
:1011600001A81C900FA8FFF7A5FD01210620FFF79D
:1011700087FD12F051FD01210448FFF7A4FE4FF650
:10118000FF7000F00BF81FB000BD0000000C014024
:1011900000200140001401400018014030B5044611
:1011A0004FF4963540F23F130022EF21104600F035
:1011B000BBF800F09EF8002203E0204600F0C8FAD9
:1011C000521CAA42F9D930BDF0B506460C46174666
:1011D0001D467019401E81B223462246304600F05B
:1011E000A3F800F086F8002204E0384600F0B0FAD8
:1011F000501C82B2AA42F8DBF0BD70B505460C4621
:101200001646234622462946284600F08DF800F06F
:1012100070F8304600F09CFA70BDF0B506460C46FA
:1012200017461D466019401E83B22246314630469D
:1012300000F07AF800F05DF8002204E0384600F093
:1012400087FA501C82B2AA42F8DBF0BD2DE9F84FB4
:1012500007460D4690469946DDF828A0A8EB070002
:10126000401C80B20090A9EB0500401C1FFA80FBD7
:10127000002417E0281981B2384600F03FF800F04A
:1012800038F8002609E0C4EB041006EB00103AF829
:10129000100006490880701C86B200988642F2DB76
:1012A000601C84B25C45E5DBBDE8F88F0008006C8B
:1012B0002DE9F04306460C4615461F46DDF81C8016
:1012C000A81B401C391B491C00FB01F93B46224668
:1012D0002946304600F028F800F00BF802E04046BE
:1012E00000F036FAB9F10000A9F10109F7D1BDE823
:1012F000F08300B52C2000F025FA00BD00B50246B1
:101300000B462A2000F01EFA101200F021FAD0B28B
:1013100000F01EFA2B2000F015FA181200F018FA4F
:10132000D8B200F015FA00BD30B504460D462A20AB
:1013300000F008FA201200F00BFAE0B200F008FA10
:10134000281200F005FAE8B200F002FA2B2000F0B3
:10135000F9F9101200F0FCF9D0B200F0F9F9181206
:1013600000F0F6F9D8B200F0F3F930BD2DE9FF4FE7
:1013700082460F461646DDF83880B34606EBDB7032
:101380000AEB6000401E81B2B819401E83B23A4693
:101390005046FFF7C9FFFFF7ACFF4FF00009102ED2
:1013A00004D0182E22D0202E73D152E04FF0100915
:1013B000A8F12000434900FB0914002213E014F8AF
:1013C000015B00230CE005F0800018B1039800F0E9
:1013D000BFF902E00D9800F0BBF96806050E5B1C32
:1013E000082BF0DB521CB242E9DB68E04FF0300919
:1013F000A8F12000344900FB0914002226E014F86B
:10140000015B00230CE005F0800018B1039800F0A8
:101410009FF902E00D9800F09BF96806050E5B1C31
:10142000082BF0DB14F8015B00230CE005F08000D2
:1014300018B1039800F08CF902E00D9800F088F9DB
:101440006806050E5B1C042BF0DB521CB242D6DB97
:1014500035E04FF04009A8F120001C4900FB0914B9
:10146000002227E014F8015B00230CE005F0800067
:1014700018B1039800F06CF902E00D9800F068F9DB
:101480006806050E5B1C082BF0DB14F8015B0023DB
:101490000DE012E005F0800018B1039800F058F953
:1014A00002E00D9800F054F96806050E5B1C082B4D
:1014B000F0DB521CB242D5DB01E0BDE8FF8F00BF7C
:1014C00000BFFAE7BE020308AE0803087E1A03084D
:1014D0002DE9FF4F89B082468B46DDE918562F462D
:1014E000B046002409E0601CC4B20A22002338463A
:1014F0004146FEF73BFE07468846002187EA010089
:1015000088EA01010843EED181461CE00A2200234B
:1015100028463146FEF72AFE30201018C1B2A4F149
:101520000100A0EB090003AA11544FF00A024FF08A
:10153000000328463146FEF719FE05460E4609F11E
:10154000010000F0FF09A145E0DB002003A90855D8
:101550001698CDE9000159465046DDE90B2300F00D
:1015600003F80DB0BDE8F08F2DE9FF4F83B00646BC
:101570009146DDE910BA00210C460D461CE0002121
:10158000A4FB097205FB092204FB012802220B4679
:1015900038464146FEF7EAFD801980B202901AF8FB
:1015A0000400CDE900B04A46069B04990298FFF773
:1015B000DDFE641C45F100051AF804000028DED1A8
:1015C00007B0BDE8F08F2DE9FF4F89B005460C4606
:1015D0001E46ADF82050A01B80B2ADF82200ADF839
:1015E0001C50A01980B2ADF81E00A81B80B2ADF847
:1015F0001800ADF81A40A81980B2ADF81400ADF883
:101600001640BDF8189048E006FB06F1A9EB05026C
:10161000A9EB050302FB1310FFF742F8CDE9000127
:101620002AF088FC074688462046FFF74AF83A46E3
:101630004346CDE90201FEF7A2FE8246FFF762F8BB
:1016400080B20490014648460B9AFFF7D6FD06FB90
:1016500006F1A9EB0502A9EB050302FB1310FFF746
:101660001FF882462AF066FCCDE902012046FFF70A
:1016700028F8CDE90001DDE90223FEF721FF074646
:10168000FFF740F880B20490014648460B9AFFF7F6
:10169000B4FD09F101001FFA80F9BDF814004845B6
:1016A000B2DABDF822B046E006FB06F1ABEB04026D
:1016B000ABEB040302FB1310FEF7F2FFCDE90001D0
:1016C0002AF038FC074688462846FEF7FAFF81468E
:1016D0003A464346FEF753FECDE90201FFF712F802
:1016E00080B2049059460B9AFFF787FD06FB06F17E
:1016F000ABEB0402ABEB040302FB1310FEF7D0FFCD
:10170000CDE900012AF016FCCDE902012846FEF7DA
:10171000D8FF0746DDE90223FEF7D2FE8146FEF739
:10172000F1FF80B2049059460B9AFFF766FD0BF16A
:1017300001001FFA80FBBDF81E005845B4DA0DB059
:10174000BDE8F08F0149088070470000FE07006C7B
:1017500001490880704700000008006C00BFFEE7E8
:101760007047000070B5002100230F22C47804B335
:10177000154C246804F4E064C4F5E064210AC1F166
:101780000403CA40447804FA03F1847814402143E6
:1017900009010E4C0678A155047804F01F050124B8
:1017A000AC4005786D11AD0005F1E025C5F80041AC
:1017B00009E0047804F01F050124AC40044D0678CC
:1017C000761145F8264070BD0CED00E000E400E025
:1017D00080E100E002490143024A116070470000C5
:1017E0000000FA050CED00E07047000029B1064A40
:1017F00052690243044B5A6104E0034A526982432E
:10180000014B5A61704700000010024029B1064A9E
:10181000D2690243044BDA6104E0034AD26982438D
:10182000014BDA61704700000010024029B1064AFE
:1018300092690243044B9A6104E0034A926982432D
:10184000014B9A61704700000010024010B5044639
:1018500024B140210448FFF736FB03E04021024851
:10186000FFF72FFB10BD0000000C014010B504462F
:1018700024B180210448FFF726FB03E080210248C1
:10188000FFF71FFB10BD0000000C0140704710B5B2
:1018900000F002F810BD00000CB50020019000908F
:1018A0003348006840F480303149086000BF304858
:1018B000006800F4003000900198401C01900098EE
:1018C00018B90198B0F5A06FF1D12948006800F46B
:1018D000003010B10120009001E00020009000983D
:1018E000012843D12348006840F0100021490860D6
:1018F0000846006820F0070008600846006840F0CD
:10190000020008601A484068194948600846406863
:1019100048600846406840F4806048600846406877
:1019200020F47C1048600846406840F4E8104860A5
:101930000846006840F08070086000BF0C480068EE
:1019400000F000700028F9D00948406820F003003A
:10195000074948600846406840F00200486000BF00
:101960000348406800F00C000828F9D10CBD0000C5
:101970000010024000200240042808D14FF0E0216E
:10198000096941F004014FF0E022116107E04FF0D6
:10199000E021096921F004014FF0E0221161704754
:1019A0007047000010B51348006840F0010011496D
:1019B000086008464068104908400E4948600846DB
:1019C00000680E4908400B4908600846006820F48A
:1019D000802008600846406820F4FE0048604FF40C
:1019E0001F008860FFF753FF4FF000600449086054
:1019F00010BD0000001002400000FFF8FFFFF6FEDF
:101A000008ED00E010B50121064800F01CF801289F
:101A100006D10121034800F007F8012027F0B4FBAC
:101A200010BD000000100040CA430282704721B17F
:101A3000028842F00102028004E002884FF6FE7341
:101A40001A400280704730B502460020002300246F
:101A5000158A05EA0103958905EA010413B10CB161
:101A6000012000E0002030BD1AB183890B4383813F
:101A700002E083898B438381704700000022028843
:101A80001D4B98420ED01D4B98420BD0B0F1804FA9
:101A900008D01B4B984205D01A4B984202D01A4BE3
:101AA000984204D14FF68F731A404B881A43174B54
:101AB000984207D0164B984204D04FF6FF431A4085
:101AC000CB881A4302808B8883850B8803850A4B59
:101AD00098420BD0094B984208D00E4B984205D043
:101AE0000D4B984202D00D4B984201D10B7A0386E0
:101AF0000123838270470000002C01400034014024
:101B00000004004000080040000C004000100040AD
:101B100000140040004001400044014000480140E2
:101B200010B504462CB14FF400610548FFF7CBF91E
:101B300004E04FF400610248FFF7C3F910BD000054
:101B4000001C014010B504462CB14FF4007105484B
:101B5000FFF7B9F904E04FF400710248FFF7B1F95B
:101B600010BD0000001C014010B5044624B1022144
:101B70000448FFF7A8F903E002210248FFF7A1F9A2
:101B800010BD0000000C01401FB501211020FFF71F
:101B90003DFE0920ADF8080041F61F40ADF80400F5
:101BA0000020ADF80A00ADF8060001A90E48FFF7C5
:101BB00065FF01210C48FFF73AFF012211460A4850
:101BC000FFF752FF4FF4A060FFF704FE36208DF8B8
:101BD000000001208DF801008DF802008DF803004F
:101BE0006846FFF7BFFD1FBD0010004010B514E0B0
:101BF0000E4800F068F80E490E4A128888540D48C5
:101C00000088401C0B4908800846008840F2FF31DC
:101C1000884202DB00200749088040F22551034832
:101C200000F027F80128E3D010BD00000038014083
:101C30004C0200200600002010B50446214605484D
:101C400000F046F800BF8021024800F005F80028A7
:101C5000F9D010BD0038014002460020B1F5007FE8
:101C600000D100BF13880B400BB1012000E0002021
:101C7000704770B50246002400230025002040F67E
:101C80006A16B14200D100BFC1F3421501F01F0333
:101C9000012606FA03F3012D02D19689334006E0AE
:101CA000022D02D1168A334001E0968A33400C128D
:101CB000012606FA04F41688344013B10CB1012051
:101CC00000E0002070BD01468888C0F3080070471E
:101CD000C1F308028280704700BFFEE70FB4054BD6
:101CE00010B503A9044A029802F00AFA10BC5DF884
:101CF00014FB0000E7090108440200200FB4084B60
:101D000010B504A902AA039802F0FAF9044602A940
:101D1000002002F078FD204610BC5DF814FB0000A6
:101D20000748000802E008C8121F08C1002AFAD1BB
:101D300070477047002001E001C1121F002AFBD14B
:101D40007047000001490860704700004802002009
:101D500070B50446002508E02168481C206008781A
:101D6000303805EB850100EB41052168087800F06B
:101D7000C7F80028F0D1284670BD00002DE9FF5FAC
:101D800082B00021DDE90430020DDDF840B00343EC
:101D900018D044F61050A2F2FF32424315141198A5
:101DA00001281FD0A5EB0B00401C5FEA000A4FF092
:101DB00000064E4FDFF83891B046504615D5CAF1AF
:101DC000000413E0119801244AA3012801D16FEA0D
:101DD0000B010298119AC0E90031C0E9024206B035
:101DE000BDE8F09FCBF10000DFE704460021404A48
:101DF000491842EB0450CDE9001012E0E00707D08B
:101E000032463B4640464946FEF760FB80468946DF
:101E100032463B4610461946FEF758FB06460F462B
:101E20006410002CEAD1DDE90401DDE90023BAF1F8
:101E3000000F06DAFEF74AFB42464B46FEF746FB2A
:101E400005E0FEF7B5FB42464B46FEF7B1FB044604
:101E50000E460022284BFEF79FFC03D84FF0FF30C0
:101E6000014607E00022254B20463146FEF787FA5F
:101E7000FEF761FC102409E0002C0ADB0A22002393
:101E8000FEF774F9039B30321A55641E50EA0102C2
:101E9000F2D1641C039AC4F111031444119A012A6B
:101EA00003D0012208430DD10AE0084304D00020EA
:101EB0004FF0110B119072E7A3EB0B056D1E0DE0B7
:101EC0005B4504DD4FF0000205F1010504E003DA93
:101ED0004FF00002A5F10105002AECD002981199FB
:101EE000C0E90231C0E9004579E700000000144074
:101EF0000000F03F300000000000F0430000E03F31
:101F00000146302903DB392901DC0120704700201C
:101F1000FCE7000010B54021074801F0E3FA002279
:101F20001E21064827F098F90549086003F088F952
:101F300000200449087010BD101B00200D5300083C
:101F4000CC010020C801002030B50346B1F90040A3
:101F5000B2F90050AC4202DDB1F9004001E0B2F943
:101F600000401C80B1F90240B2F90250AC4202DDDF
:101F7000B1F9024001E0B2F902405C80B1F90440DD
:101F8000B2F90450AC4202DAB1F9044001E0B2F90E
:101F900004409C80B1F90640B2F90650AC4202DA26
:101FA000B1F9064001E0B2F90640DC800120B3F946
:101FB0000040B3F90450AC4205DCB3F90240B3F978
:101FC0000650AC4200DD002030BDF8B504460D4699
:101FD00016460027B4F90000B5F90010884212DB5C
:101FE000B4F90200B5F9021088420CDBB4F9040020
:101FF000B5F90410884206DCB4F90600B5F90610FC
:10200000884200DC01270FB90020F8BD0EB901207D
:10201000FBE72088ADF800006088ADF8020032468A
:102020006946284600F0A7F808B90020EDE7A08827
:10203000ADF800006088ADF80200324669462846D7
:1020400000F099F808B90020DFE72088ADF800001B
:10205000E088ADF8020032466946284600F08BF869
:1020600008B90020D1E7A088ADF80000E088ADF8FD
:10207000020032466946284600F07DF808B9002083
:10208000C3E70120C1E70246B2F90000B1F904300C
:10209000984213DCB2F90400B1F9003098420DDB2C
:1020A000B2F90200B1F90630984207DCB2F9060035
:1020B000B1F90230984201DB012070470020FCE7B3
:1020C000F8B504460D461646B4F90400B5F90010FB
:1020D000884211DBB4F90600B5F9021088420BDB27
:1020E000B4F90000B5F90410884205DCB4F9020027
:1020F000B5F90610884201DD0120F8BD0EB90020B7
:10210000FBE72088ADF800006088ADF80200324699
:102110006946284600F02FF808B10020EDE7A088B6
:10212000ADF800006088ADF80200324669462846E6
:1021300000F021F808B10020DFE72088ADF80000AA
:10214000E088ADF8020032466946284600F013F8F0
:1021500008B10020D1E7A088ADF80000E088ADF814
:10216000020032466946284600F005F808B1002012
:10217000C3E70120C1E72DE9FC5F05460E46144682
:102180004FF0000AB6F90000B5F90010884213DBE1
:10219000B6F90000B5F9041088420DDCB6F902006A
:1021A000B5F90210884207DBB6F90200B5F906104E
:1021B000884201DC4FF0010ABAF1000F02D1002081
:1021C000BDE8FC9F002C01DC0120F9E7284613F054
:1021D00040F8834600EBDB704710284612F0B1FF51
:1021E000834600EBDB704FEA6008474501DA38466A
:1021F00000E0404681464C4500DD4C462888ADF85D
:1022000000002888204400B2ADF804006888ADF8CA
:1022100002006888204400B2ADF806000022314672
:102220006846FFF7A8FF80B1BDF80400204400B263
:10223000ADF80400BDF80600204400B2ADF8060079
:102240003146684623F0C4FBBAE7E888001B00B2B9
:10225000ADF80200E888ADF8060000223146684675
:10226000FFF789FF80B1BDF80400204400B2ADF84B
:102270000400BDF80200001B00B2ADF802003146B8
:10228000684623F0A5FB9BE7A888001B00B2ADF8C9
:102290000000A888ADF80400002231466846FFF728
:1022A0006AFF80B1BDF80000001B00B2ADF800006D
:1022B000BDF80200001B00B2ADF8020031466846CE
:1022C00023F086FB7CE76888ADF80200688820442C
:1022D00000B2ADF80600002231466846FFF74BFF1A
:1022E00080B1BDF80000001B00B2ADF80000BDF8E1
:1022F0000600204400B2ADF806003146684623F0DF
:1023000067FB5DE701205BE710B5B1F90030B2F97A
:102310000040A34202DAB1F9003001E0B2F9003026
:102320000380B1F90230B2F90240A34202DAB1F9F6
:10233000023001E0B2F902304380B1F90430B2F961
:102340000440A34202DDB1F9043001E0B2F90430E7
:102350008380B1F90630B2F90640A34202DDB1F93B
:10236000063001E0B2F90630C38010BD2DE9FF410F
:10237000044626F0F9FE05460020039034B1474993
:10238000E0680860204627F07FF803E015F0B2FD12
:102390004249086041490968086923F077FA3F48D3
:1023A0000068406920B13D490968486923F06EFA28
:1023B0003A490968C86923F069FA38490968086A1E
:1023C00023F064FA35480068006940B900203349B9
:1023D0000968A1F8500100BF00BFBDE8FF8123F0EC
:1023E000F3FD23F039FD2D480068B0F850010028B6
:1023F0004BD02A4800680068007CC0F34000E8B178
:102400002648006815F0F4FD401E06B22348006817
:1024100015F088FD401E07B23B460022114601A878
:10242000009612F05BFF01A81C4909680968896BD6
:1024300048601A48006805F0C1FF00BF4FF4807182
:102440001648006830301DF0ACFC202113480068AD
:1024500000F598701DF0A5FC002010490968A1F84E
:102460005001284626F072FE03900C480068006870
:10247000406A50B10949096808680849096809684B
:102480004B6A07490A68039998471DF0C1F900F0A3
:102490003FF800F007F800BF9FE70000840000202D
:1024A0008000002010B5002416E0C4EBC4000C49E5
:1024B00051F8200030B1C4EBC401094A52F82100A0
:1024C0001DF058FAC4EBC401054A02EB81001C213F
:1024D0001DF067FC601CC4B2042CE6DB10BD0000DC
:1024E000EC1B00200146094A10680BE042688A4252
:1024F00002D002688A4204D1027E22F00102521CFC
:10250000027640690028F1D1704700005800002091
:102510007047000010B50421014800F0E3FF10BD32
:10252000041B002010B51C21014800F0DBFF10BD8A
:102530001C1B00202DE9FF4F8BB004469A46199DC5
:10254000BAF1000F11D11898B0F5807F0DD100209D
:10255000208060800C98401E00B2A0800D98401E24
:1025600000B2E0800FB0BDE8F08FB5F90000404246
:10257000189948430121C1EB202000B22080B5F911
:1025800002004042189948430121C1EB202000B2CB
:102590006080B5F900100C98401A18994843022140
:1025A00001EB202000B2A080B5F902100D98401A6E
:1025B00018994843022101EB202000B2E080BAF1D3
:1025C000000F14D120882988084400B22080608838
:1025D0006988084400B26080A0882988084400B255
:1025E000A080E0886988084400B2E080BAE70A2049
:1025F0009AFBF0F00A900A98401C09900A9800EBA8
:102600008000AAEB400B0A9800B227F0C3F80890AC
:10261000099800B227F0BEF807900A985A3000B225
:1026200027F0B8F8069009985A3000B227F0B2F8AF
:102630000590CBF10A0108984143079800FB0B1065
:102640000A2190FBF1F6CBF10A0106984143059867
:1026500000FB0B100A2190FBF1F776117F11B4F902
:102660000080B4F9029007FB08F006FB19002988E6
:1026700001EBA02000B2ADF8100006FB08F007FB4C
:102680000900698801EBA02000B2ADF81200B4F98E
:102690000480B4F9029007FB08F006FB19002988B2
:1026A00001EBA02000B2ADF80C0006FB08F007FB20
:1026B0000900698801EBA02000B2ADF80E00B4F962
:1026C0000080B4F9069007FB08F006FB1900298882
:1026D00001EBA02000B2ADF8080006FB08F007FBF4
:1026E0000900698801EBA02000B2ADF80A00B4F936
:1026F0000480B4F9069007FB08F006FB190029884E
:1027000001EBA02000B2ADF8040006FB08F007FBC7
:102710000900698801EBA02000B2ADF80600BDF900
:102720000800BDF91010884202DABDF9080001E086
:10273000BDF91000BDF90410BDF90C20914202DA78
:10274000BDF9041001E0BDF90C1088420BDABDF9A7
:102750000800BDF91010884202DABDF908000DE04A
:10276000BDF910000AE0BDF90400BDF90C10884263
:1027700002DABDF9040001E0BDF90C002080BDF9CA
:102780000800BDF91010884202DDBDF9080001E023
:10279000BDF91000BDF90410BDF90C20914202DD15
:1027A000BDF9041001E0BDF90C1088420BDDBDF944
:1027B0000800BDF91010884202DDBDF908000DE0E7
:1027C000BDF910000AE0BDF90400BDF90C10884203
:1027D00002DDBDF9040001E0BDF90C00A080BDF9E7
:1027E0000A00BDF91210884202DABDF90A0001E0C0
:1027F000BDF91200BDF90610BDF90E20914202DAB2
:10280000BDF9061001E0BDF90E1088420BDABDF9E2
:102810000A00BDF91210884202DABDF90A000DE083
:10282000BDF912000AE0BDF90600BDF90E1088429C
:1028300002DABDF9060001E0BDF90E006080BDF9C5
:102840000A00BDF91210884202DDBDF90A0001E05C
:10285000BDF91200BDF90610BDF90E20914202DD4E
:10286000BDF9061001E0BDF90E1088420BDDBDF97F
:102870000A00BDF91210884202DDBDF90A000DE020
:10288000BDF912000AE0BDF90600BDF90E1088423C
:1028900002DDBDF9060001E0BDF90E00E08000BFD9
:1028A00060E62DE9F74F86B0044620680590B4F93C
:1028B00008100798A0EB0108B4F90A100898A0EBDB
:1028C0000109E089B0F5807F13D1206B00FB08F08F
:1028D000E16A01FB1901606A00EBA10BE06A00FBF1
:1028E00008F0216B01FB0901A06A00EBA100049034
:1028F0002FE0A08980B9A06B00FB08F04FEA6018B8
:10290000A06B00FB09F04FEA6019606A00EB080B4E
:10291000A06A484404901CE0A06B00FB08F04FEA5A
:102920006018A06B00FB09F04FEA6019206B00FBF8
:1029300008F0E16A01FB1901606A00EBA12BE06A73
:1029400000FB08F0216B01FB0901A06A00EBA1204C
:1029500004904FEA2B2604980712B4F90400B04201
:1029600003DC002009B0BDE8F08F002E01DA002062
:10297000F8E7B4F90600B84201DC0020F2E7002FC6
:1029800001DA0020EEE73420005DC0F3800050B390
:102990003420005DC0F3400078B90225B4F904008A
:1029A0007843684306FB050A059800EB0A012A46AE
:1029B00004F114001DF0A3F92CE00325B4F9040080
:1029C0007843684306FB050A6A1E059800EB0A0176
:1029D00004F114001DF093F90AEB0500401E05995F
:1029E000095CA17516E04FF0000A0025208A034615
:1029F0003AB231B2019004F1180019F06FFE029062
:102A0000BDF80800A0823AB231B204F1180019F002
:102A1000C5FDA0753420005D00F00100B0B14FF499
:102A20007F40002100F47C4241EA5211C0F3C4020D
:102A300011430191BDF8042011460291A08ABDF80E
:102A40000810884201D100208CE700BFE07C08B963
:102A5000012087E70FFA8BF1A187049801B2E18783
:102A600031B24020015339B242200153C4F844A08E
:102A700084F84850204600F003F80390039871E76B
:102A80002DE9F04F8DB00446D4F8009094F83C0046
:102A90000C9094F83E000B900C9870280BDA4FF0D5
:102AA000FF35B4F940002844002800DA00250C98CE
:102AB0008030C7B213E00C9890280EDD0125B4F9E0
:102AC00040002844B4F90410884200DB00250C982B
:102AD000C0F1FF008030C7B201E00025FF270B984E
:102AE00070280CDA4FF0FF36B4F942003044002869
:102AF00000DA00260B98803000F0FF0815E00B98F4
:102B000090280FDD0126B4F942003044B4F90610D4
:102B1000884200DB00260B98C0F1FF00803000F0F7
:102B2000FF0802E000264FF0FF08A08A0A90A07D6F
:102B3000069000200590049003903420005DC0F3BF
:102B4000800000285BD094F84800626C00FB0520F0
:102B500000EB0901022209A81DF0D1F8B4F9040024
:102B600094F848205043626C00FB062000EB0901FA
:102B7000022208A81DF0C3F8B4F9040094F8482014
:102B80005043626C00FB062294F8480000FB0520CD
:102B900000EB0901022207A81DF0B1F83420005D06
:102BA000C0F3400000287ED094F84800616C00FB20
:102BB00005110844401E19F800000590B4F90400FE
:102BC00094F848104843616C00FB061194F84800E3
:102BD0000844401E19F800000490B4F9040094F869
:102BE00048104843616C00FB061194F8480000FB54
:102BF00005110844401E19F80000039053E0208A94
:102C00000090B4F942204020005B284401B204F156
:102C10001800009B19F062FD0990208A0090422064
:102C2000005B304402B2B4F9401004F11800009B7C
:102C300019F054FD0890208A00904220005B304437
:102C400002B24020005B284401B204F11800009B4E
:102C500019F044FD07903420005DC0F3400010B32C
:102C6000B4F942204020005B284401B204F118006E
:102C700019F094FC05904220005B304402B2B4F994
:102C8000401004F1180019F089FC04904220005B08
:102C9000304402B24020005B284401B204F1180025
:102CA00019F07CFC0390BA46BB463420005DC0F3AB
:102CB0004000E0B306987843C7F1FF0C059B03FB87
:102CC0000C00C0F3072104987843C7F1FF0C039B65
:102CD00003FB0C00C0F3072201FB08F0C8F1FF035F
:102CE00002FB0300030AA375022905DC022A03DCA8
:102CF00000200DB0BDE8F08F022901DC4FF0000884
:102D0000022A01DC4FF0FF080698022801DC4FF090
:102D1000000A0598022801DC4FF0FF0A04980228F7
:102D200001DC4FF0000B0398022803DC00E002E016
:102D30004FF0FF0B03E0BA46BB46FF21A175BAF185
:102D4000000F02D1099802900BE0BAF1FF0F02D1F7
:102D50000A98029005E05246DDE9091014F042FBA2
:102D60000290BBF1000F02D1079801900BE0BBF17C
:102D7000FF0F02D10898019005E05A46DDE90710DF
:102D800014F030FB0190B8F1000F03D1BDF804003E
:102D9000A0820FE0B8F1FF0F03D1BDF80800A082B8
:102DA00008E04246DDE9011014F01CFB0090BDF87C
:102DB0000000A08201209CE72DE9F05F0446B4F9F1
:102DC000080001026162B4F90A000102A162B4F9CB
:102DD0000C000A2190FBF1F56F1CB4F90C0005EB17
:102DE0008501A0EB4106684200B226F0D3FC804684
:102DF000784200B226F0CEFC8146C5F15A0000B2FE
:102E000026F0C8FC8246C7F15A0000B226F0C2FC88
:102E10008346C6F10A0000FB08F009FB06000A2100
:102E200090FBF1F1E162C6F10A0000FB0AF00BFB36
:102E300006000A2190FBF1F12163E06A4111E16291
:102E4000206B41112163A07C19F057FD3421095DED
:102E500060F3000134200155A07C19F031FD3421CC
:102E6000095D60F3410134200155A07C042805D0A0
:102E7000A07C052802D0A07C062807D13420005D64
:102E800020F00400001D3421085505E03420005DC9
:102E900020F004013420015521682162A06920F04E
:102EA000E000A061A17CA06961F30400A061A18899
:102EB000A06961F39420A061E188A06961F35F508B
:102EC000A061E08900EBD071491001F5001191FB80
:102ED000F0F2A263FF21A175208AA082BDE8F09FD5
:102EE0002DE9F743054616460024134C26F03CF91D
:102EF0008046334629462046019A1AF0ADF9074626
:102F00005FB900BF00BF2C2120461CF04AFF4FF0E4
:102F10000040A0620020BDE8FE830020A062E069BE
:102F200018B9404626F012F9E061E06908B90120BD
:102F3000E0612046EFE70000401B002010B514219F
:102F4000114800F0CFFA1AF039F9044600BF1CB955
:102F500000BF00BF00BFFEE700BF14B900BF00BF45
:102F600010BD0A4920461AF011FA094920461AF004
:102F70000FFA084920461AF00DFA074920461AF0C0
:102F800003FA00BFECE70000281B0020D9C90108A4
:102F9000ADCE0108C9D00108A1C9010870B5044629
:102FA0000D46102128461CF0FCFE20680078012800
:102FB00004D1208A2880608A68800CE0206800782C
:102FC000022802D1E068686005E0206800780428E3
:102FD00001D10A2068602068406820B12068294635
:102FE0004268904701E000BF00BF70BD2DE9FE437D
:102FF0000446A66AEEB9A18A208A084401B2A182D9
:10300000E18A608A084401B2E18220460CF0EFFEBA
:1030100006460EB9BDE8FE8320460FF0F7FF0022FA
:103020000921304618F034FC6078C0F3400000B14C
:10303000F0E7208A10B9608A002870D00020029042
:10304000019094F83C0000F00F00032812D13046A4
:103050001EF060FF074630461EF0E4FE8046032067
:103060000090B4F910103B46424630460CF0B6F9D9
:10307000029012E030461EF0CFFF074630461EF0A9
:1030800043FE80460C200090B4F9121043463A46A5
:1030900030460CF0A3F9019000BF30461EF094FEBC
:1030A000054605F0010028B9BDF90800002801DD3A
:1030B0000020029005F0020028B9BDF908000028A0
:1030C00001DA0020029005F0040028B9BDF90400DF
:1030D000002801DD0020019005F0080028B9BDF9A5
:1030E0000400002801DA0020019001AA02A920466C
:1030F00028F0B8FB0023BDF90420BDF908103046C4
:1031000021F068FEA08ABDF80810084401B2A1822F
:10311000E08ABDF80410084401B2E18200BF00BF9C
:1031200078E72DE9F84F0446D4F828B0BBF1000F3A
:1031300001D1BDE8F88F94F83C0000F00F0000B911
:10314000F7E71AF00BFC06463068477E40215846E8
:1031500020F06AFB10B900216183218358461EF0DC
:1031600047FF804658461EF04DFF054694F83C0048
:1031700000F00F000C2843D1002121831DBBB4F9BE
:103180001A00C7F164014843642190FBF1F001B2D9
:10319000618358461EF0B8FD814658461EF03CFF3C
:1031A00082460C200090B4F91A104B4652465846FD
:1031B0000CF014F96083B4F91A200023194658461C
:1031C00021F008FE69E0204628F0A3FB00900021D2
:1031D00061836A46204628F045FBBDF9003041F680
:1031E000FF72514258460CF0ABFF8146BDF800001B
:1031F000484402B201230021584621F0EBFD4CE087
:1032000094F83C0000F00F00032846D100216183B0
:10321000B8F1000F23D1B4F91800C7F16401484395
:10322000642190FBF1F001B2218358461EF0FAFDB3
:10323000814658461EF06EFE824603200090B4F987
:10324000181053464A4658460CF0C8F82083B4F983
:10325000181000231A46584621F0BCFD1DE02046F8
:1032600028F03CFB00900021218300226946204683
:1032700028F0F8FABDF9003041F6FF725142584685
:103280000CF0C4FE8146BDF80000484401B20123A1
:103290000022584621F09EFD00BF208B002860D1FF
:1032A000608B00285DD11DBB58461EF0B5FE8146DF
:1032B00058461EF029FD8246B9F1000F02DCBAF132
:1032C000000F14DDB9F1000F06DA01234A46002190
:1032D000584621F07FFD0AE0BAF1000F07DA01231A
:1032E000CAF1000002B20021584621F073FD00BF70
:1032F000B8F1000F23D158461EF094FD8146584680
:103300001EF008FE8246B9F1000F02DCBAF1000F90
:1033100014DDB9F1000F06DA0123002249465846B0
:1033200021F058FD0AE0BAF1000F07DA012300226C
:10333000CAF1000001B2584621F04CFD00BF3246F0
:103340000A21584618F0A4FA6078C0F3400000B192
:10335000EFE694F83C0020F00F0184F83C100021C7
:10336000A16200BFE5E62DE9FF4104460F4614B90E
:1033700014F0C0FD04460CB9BDE8FF811FB9002060
:10338000A4F85001F8E70020ADF80800ADF80A00F5
:10339000204614F0C7FD401E00B2ADF80C002046D8
:1033A00014F026FE401E00B2ADF80E0002AA394607
:1033B0006846FEF7C9FD064606B9DDE72068007CD1
:1033C000C0F3400060B1029820630398606301205D
:1033D000A4F85001606810B1606826F061F8CBE78E
:1033E0002068806918B12068694682699047002585
:1033F0000BE004F1300000EBC50100226846FEF747
:10340000E4FD00B1B8E7681C85B2B4F85001A842E9
:10341000EFDCB4F85001202809DAB4F8502104F1A7
:10342000300101EBC200694611F0FBFD0BE000200A
:10343000A4F85001B4F8502104F1300101EBC200AE
:1034400002A911F0EEFDB4F85001401CA4F850019F
:10345000606810B1606826F023F800BF8CE770B593
:103460000546284600F013F8044600260CE02146E5
:10347000284600F024F806462146284600F086F843
:1034800020461CF077FA3446002CF0D170BD01467E
:1034900009B9002070474868FCE770B5064600246B
:1034A0003046FFF7F4FF054605E0641C2946304628
:1034B00000F005F80546002DF7D1204670BD024604
:1034C0000B461068001D03441868704702460B46FF
:1034D0001068034418687047014609B90020704716
:1034E0008868FCE7002242608260CA1C22F0030167
:1034F0000160704770B50446216801F108001CF0B6
:103500006BF90546A5B100222946204627F0ACF903
:1035100029462046626827F099F9606820B12A465A
:103520002046616827F0A0F96560A06800B9A56031
:10353000284670BD70B50446216801F108001CF0F2
:103540004BF90546A5B100222946204627F07EF911
:1035500029462046A26827F087F9A06820B12A46AC
:103560002046A16827F072F9A560606800B965601F
:10357000284670BD014609B901207047486818B94E
:10358000886808B90120F8E70020F6E72DE9F04146
:1035900004460D460CB9BDE8F0812046FFF777FFE1
:1035A000A8420FD129462046FFF789FF6060606876
:1035B00010B90020A0602FE000222046616827F0AB
:1035C00053F929E02046FFF787FFA8420FD129468B
:1035D0002046FFF77BFFA060A06810B90020606064
:1035E0001AE000222046A16827F030F914E02946AD
:1035F0002046FFF76BFF064629462046FFF75FFF90
:1036000007463A463146204627F020F932463946E9
:10361000204627F029F900BF00BFBCE710B50446DB
:103620002068806818B12068214682689047206829
:10363000006828B12068006820602046FFF7EEFF90
:1036400010BD0146886818B18868B0F91600704747
:103650000020FCE72DE9F04F93B005468B469146DC
:103660009A461C9E688C20F00400001D6884A5F812
:1036700020903289594628461FF052FE1290A5F834
:1036800020A03289594628461FF04AFE1190688CC6
:1036900020F004006884DDE9111088420CD1DDE9D6
:1036A0001110884208D1BDF84800BDF84410884286
:1036B00002D113B0BDE8F08FA5F8209032895946A9
:1036C00028461FF02DFE1290A5F820A05946284646
:1036D0000EF095FA10903189109A1068129A24F021
:1036E000FEF93089602833D147F6FF71129888427D
:1036F00002D0119888422BD1284620F038F80F903C
:1037000000EBD0704710284620F031F80F9000EB06
:10371000D0704FEA600847F6FF711298884208D1CE
:10372000781C08F10101884200DA01E008F101008B
:10373000129047F6FF711198884208D1781C08F161
:103740000101884200DA01E008F10100119000BF98
:103750002448FFF7CFFE044600BF1CB900BF00BFDE
:1037600000BFFEE700BF04B9A3E71298E06011981C
:103770002061ACB325603089A080C4F808B06846E9
:1037800010F01AFE2146684610F0C9FE1649684638
:1037900010F095FE1548029000BF1549684610F0DC
:1037A0009CFEFF220021684610F0A9FE3188684681
:1037B00010F09BFE7188684610F07CFEF068069061
:1037C00000BF6846002190F83E2061F3000280F8B7
:1037D0003E2000BF30690590684610F0B7FE00BF7C
:1037E00000BF66E7341B002021FB0208CDFD020864
:1037F000FDFC020810B514210148FFF773FE10BD4F
:10380000341B00202DE9FE4F04460F4690464FF032
:10381000000900256BE1E06800EBC5004068C0F3DB
:10382000406000B162E1E16801EBC501496821F047
:103830007F4022F027F8064626EA070008B9012053
:1038400000E00020029026EA080008B9012000E00C
:1038500000200190DDE90101814272D0E06850F85A
:1038600035A04FF0000B6A4641F61001504623F098
:10387000CFFD10B14FF0010BA9E06A4641F61101EE
:10388000504623F0C5FD10B14FF0010B9FE06A4692
:1038900041F61201504623F0BBFD10B14FF0010B71
:1038A00095E06A4641F61301504623F0B1FD10B190
:1038B0004FF0010B8BE06A4641F61501504623F0AC
:1038C000A7FD10B14FF0010B81E06A4641F61401EB
:1038D000504623F09DFD10B14FF0010B77E06A4692
:1038E00041F26901504623F093FD10B14FF0010BF6
:1038F0006DE06A4643F20C01504623F089FD10B199
:103900004FF0010B63E06A4643F20D01504623F08D
:103910007FFD10B14FF0010B59E06A4641F2010101
:10392000504623F075FD10B14FF0010B4FE06A4691
:1039300041F20401504623F06BFD18B14FF0010B2A
:1039400045E0D2E06A4641F20201504623F060FDB4
:1039500010B14FF0010B3AE06A4641F203015046C4
:1039600023F056FD10B14FF0010B30E06A4641F2F2
:103970000501504623F04CFD10B14FF0010B26E03D
:103980006A4641F20601504623F042FD10B14FF065
:10399000010B1CE06A4641F23201504623F038FD2B
:1039A00010B14FF0010B12E06A4643F60F0150468A
:1039B00023F02EFD10B14FF0010B08E06A4643F6EC
:1039C0000E01504623F024FD08B14FF0010BBBF16E
:1039D000000F02D00320BDE8FE8F6A4640F60A01C0
:1039E000504623F015FD10B14FF002097CE06A4605
:1039F00040F60B01504623F00BFD10B14FF00209C9
:103A000072E06A4643F60F01504623F001FD10B103
:103A10004FF0020968E06A4643F60E01504623F073
:103A2000F7FC10B14FF002095EE06A4640F63C0137
:103A3000504623F0EDFC10B14FF0020954E06A4605
:103A400040F63D01504623F0E3FC10B14FF002096F
:103A50004AE06A4640F63A01504623F0D9FC10B1DC
:103A60004FF0020940E06A464FF40461504623F0EB
:103A7000CFFC10B14FF0020936E06A4640F645012E
:103A8000504623F0C5FC10B14FF002092CE06A4605
:103A900040F64101504623F0BBFC10B14FF0020943
:103AA00022E06A4640F64201504623F0B1FC10B1D4
:103AB0004FF0020918E06A4640F64301504623F0F1
:103AC000A7FC10B14FF002090EE06A4640F649012A
:103AD000504623F09DFC10B14FF0020904E0B9F10B
:103AE000000F01D14FF0010900BF00BF6D1C608CB9
:103AF000C0F3C500A8423FF68EAE48466BE7000013
:103B000001480068704700008400002070470146AB
:103B1000C1F30412072A00DD0722D0B2704700006B
:103B200010B518210348FFF7DDFC012025F0D0FB7C
:103B300010BD0000E01A00202DE9F04105460F46B7
:103B400016460DB9BDE8F0812846FCF764FB8046B7
:103B5000394628460A4A126890470746E81931460E
:103B6000074A1268904706463C4603E0A019285CC5
:103B70002855641CA8EB0600A042F7D200BFE1E77D
:103B8000180200202DE9F04106460C4617461D4656
:103B900029463046084A126890472060206830B1B4
:103BA000296888190021044A1268904700E0002023
:103BB0003860BDE8F0810000100200202DE9F04FD0
:103BC00087B004460F4692469846DDE910560DB17F
:103BD000002028801CB9002007B0BDE8F08F2078B5
:103BE00008B90020F8E70FB90020F5E74FF0000909
:103BF00006F0020010B906F0040098B1002000E0C1
:103C0000401C215C0A2905D0215C0D2902D0215CD1
:103C10000029F5D1215C01B1401C15B14FF0FF31F5
:103C20002980D9E706F0020008B141F6FF780020AC
:103C30000690059038E000200490059808B901200E
:103C400000E0002006A904AACDE90062CDE9021037
:103C50000599601843465246394625F0D3FD834600
:103C60000498A8EB00000FFA80F8049848440FFA73
:103C700080F9BBF1000F00D11CE005985844059075
:103C800020780A2802D020780D2800D112E005986B
:103C9000205C0A2803D00598205C0D2803D10598E4
:103CA000401C059006E000BF0598205C10B1B8F1FB
:103CB000000FC0DC00BF059870B905A92046094A6D
:103CC00012689047834635B100225946384617F0AE
:103CD00020FF0FFA80F900BF0DB1A5F800900598FC
:103CE0007AE70000100200202DE9F04706468846DA
:103CF000174606B10FB9BDE8F0873046FCF78BFADE
:103D000081463846FCF787FA044604B9F3E704EB2A
:103D1000090A414630460B4A12689047804655468C
:103D200003E0281B305C70556D1E08EB0400A842B0
:103D3000F7D906EB0800224639461BF0ECFF00BF1E
:103D4000D9E7000018020020024600200FA31B78CC
:103D50008B4211D113781BB90123137001200BE0A2
:103D60001378012B02D10023137005E01378022B86
:103D700002D10023137001201378012B04D12029D4
:103D800001D10223137001207047000023000000BE
:103D900073B582B00646039801903246002108466A
:103DA000019B26F04BF80546002001900024681C7A
:103DB0001BF012FD044600BF1CB900BF00BF00BFCE
:103DC000FEE700BF14B9002004B070BD00206055AC
:103DD0003246691C2046039B26F030F82046F3E764
:103DE0002DE9F04781460E4614461F46DDF820A017
:103DF00035461BE0600800FB075529464846D0477A
:103E0000B0F1000809DD04F0010080F00100C0EB12
:103E10005404E8190546064608E0B8F1000F02DA36
:103E20006408354602E02846BDE8F087002CE1D161
:103E30000020F9E72DE9FF4F85B08346DDE9158ABB
:103E4000DDE91349DDE91775129E05F00200F8B9A6
:103E50004FB105F0010030B1B9F1000F02D105F00A
:103E60000C0000B17F1E03E030222046641C325457
:103E7000544501D2202CF7D303E030222046641CA5
:103E8000325405F0010018B1BC4201D2202CF4D309
:103E900005F01000B0B305F4806050B94CB1544542
:103EA00001D0BC4205D1641E1CB1B8F1100F00D185
:103EB000641EB8F1100F09D105F0200030B9202C94
:103EC00004D278222046641C325415E0B8F1100F59
:103ED00009D105F0200030B1202C04D25822204610
:103EE000641C325408E0B8F1020F05D1202C03D233
:103EF00062222046641C3254202C03D230222046F9
:103F0000641C3254202C16D2B9F1000F04D02D229B
:103F10002046641C32540EE005F0040020B12B2230
:103F20002046641C325406E005F0080018B1202237
:103F30002046641C3254CDE90275CDE90064584630
:103F400006A90EC900F0A2F809B0BDE8F08F2DE96E
:103F5000FF4F8FB08046DDE91FABDDE91D96219D47
:103F60001C9C00270CB925F0100505F4806000B1F9
:103F7000E4B100BFB4FBF6F106FB1141C8B20A2858
:103F800002DA00F1300107E005F0200109B141211A
:103F900000E0612101440A39CBB239467F1C07AAEF
:103FA0005354B4FBF6F40CB1202FE3D307A8CDE9AA
:103FB00004AB8DE8810203960695404610A90EC910
:103FC000FFF738FF13B0BDE8F08F2DE9FF4F8FB03A
:103FD000DDE9217BDDF89080209EDDE91C454FF076
:103FE0000009002184EA01006940084301D128F05A
:103FF000100808F4806028B1002184EA01006940BB
:1040000008432DD000BF32463B4620462946FCF7E8
:10401000ADF802F0FF0ABAF10A0F02DA0AF1300035
:1040200007E008F0200008B1412000E06120504482
:104030000A38C2B2484609F1010907A90A543246B2
:104040003B4620462946FCF791F804460D460021E0
:1040500084EA01006940084302D0B9F1200FD2D3AD
:104060002398CDE9036BCDE9050807A91E98CDE992
:10407000001902900FA80FC8FFF7DCFE13B0BDE8CF
:10408000F08F9A4200D28854704770472DE9FF5F45
:1040900005461446DDE90EA6DDE91087A34607F0C4
:1040A000020078B907F0010060B9B14607E0224686
:1040B000641C2020039B0199A84709F10109C1450F
:1040C000F5D300BF08E02246641C711E0E461AF8A4
:1040D0000100039B0199A847002EF4D107F00200CC
:1040E00050B105E02246641C2020039B0199A8479B
:1040F000A4EB0B004045F5D3204604B0BDE8F09F8B
:104100002DE9FF4F95B09A46884606460025EEE118
:10411000252877D100242746F94A0121039400E09D
:10412000044316F8013F203B01FA03F01042F7D197
:1041300030782A2811D06FF02F033078A0F13002A8
:10414000092A16D8039A44F0020402EB820203EB18
:1041500042021044761C0390EFE758F8042B0392B8
:10416000002A03DA504244F40054039044F002045D
:10417000761C30782E2816D116F8010F44F004046E
:104180002A280DD06FF02F023078A0F13003092BD0
:1041900009D807EB870302EB4303C718761CF3E744
:1041A00058F8047B761C30786C280FD006DC4C283D
:1041B00017D068280DD06A2814D104E0742810D0D4
:1041C0007A280FD10DE044F400140AE044F480147E
:1041D00001E044F440147278824202D104F5801464
:1041E000761C761C307866280BD013DC582877D0E4
:1041F00009DC002875D04528F6D04628F4D0472899
:104200001AD193E118E0632835D0642879D0652865
:1042100012D18BE1702873D008DC6728F1D06928AF
:104220006FD06E280DD06F2806D1ACE073282CD04B
:10423000752874D0782853D05246179990476D1C32
:1042400054E1C4F30250022809D003280DD0D8F855
:10425000001004280DD00D6008F1040846E1D8F8DC
:104260000010EA17C1E90052F6E7D8F800100D80F7
:10427000F2E70D70F0E718F8041B8DF8001000202D
:104280008DF80100EB46012003E058F804BB4FF025
:10429000FF3061074FF0000102D40DE009F1010188
:1042A0008946B9420FDA8145F8DB1BF8091000296D
:1042B000F4D108E009F1010189468142FADB1BF8DB
:1042C00009100029F6D103985346A0EB09072146AF
:1042D0003846179A00F080FA284400EB090507E0F9
:1042E00044E008E10DE01BF8010B52461799904796
:1042F000B9F10109F7D2534621463846179AF2E040
:1043000039E00A21C4F302524FF0000B0091022A57
:1043100006D058F8040BC117032A09D00AE023E09D
:1043200008F1070020F00702F2E80201904605E0DC
:1043300000B2C117042A01D140B2C117002906DA20
:104340000A460021404261EB02012D2202E02205D3
:1043500004D52B228DF80420012203E0E20701D0CE
:104360002022F7E7914657E00A2100E010214FF0A4
:10437000000B00910BE010214FF0000B44F00404FF
:104380000827009103E008204FF0000B0090C4F3D1
:104390000252022A05D058F8040B0021032A08D043
:1043A00008E008F1070020F00702F2E80201904659
:1043B00003E080B2042A00D1C0B24FF00009220706
:1043C0002AD53278702A07D0DDF800C08CF0100CA6
:1043D0005CEA0B0C05D00EE040228DF8042001228F
:1043E00008E050EA010306D030238DF804308DF840
:1043F000052002229146009B83F0080353EA0B0339
:104400000AD150EA010201D1620705D530228DF8A8
:1044100004204FF001097F1E3278582A04D039A2B7
:104420000C920CAA02920BE03BA2F9E75B46009AC1
:10443000FBF79CFE0C9B9B5C029A521E029213702F
:1044400050EA0102F2D1029804A9081A00F1200BE7
:10445000600702D524F4803400E001275F4502DDC7
:10446000A7EB0B0000E0002000EB0B01009003988D
:104470004944401A0390E00306D453462146179A54
:10448000039800F0A9F90544002706E001A8524668
:10449000C05D179990476D1C7F1C4F45F6DBE0030C
:1044A0000CD553462146179A039800F095F9054418
:1044B00004E030205246179990476D1C0099481E21
:1044C00000900029F5DC08E0029802995246007835
:1044D000491C0291179990476D1CBBF10001ABF18B
:1044E000010BF1DC5BE100F065F90544761C3078E6
:1044F00000287FF40DAE19B02846BDE8F08F00000B
:1045000009280100303132333435363738396162A9
:10451000636465660000000030313233343536376D
:10452000383941424344454600000000600700D44A
:10453000062708F1070020F00700F0E80223804674
:1045400003F0004C5FEA0C0001D097A009E02005C1
:1045500001D596A005E0E00701D095A001E0AFF2FB
:104560004C001390307823F0004365280CD006DC13
:10457000452809D046281DD047287FD13BE0662832
:1045800018D067287AD136E00021112F01DB1120E5
:1045900000E0781CCDE9000104A90CA8FDF7EEFBB2
:1045A000DDE90D010C9A4FF0000B07F101091092A3
:1045B00000914EE04FF000400097CDE9011004A9B2
:1045C0000CA8FDF7DBFBDDE90D020C9B0F994FF00A
:1045D000000B91461093009211B9791C00EB010970
:1045E000B7EB090003D4C0F1FF3B07F10109A9EBC8
:1045F0000700019042E0012F00DA01270021112F6E
:1046000001DD112000E03846CDE9000104A90CA825
:10461000FDF7B4FBDDE90D010C9A00914FF0000BA2
:10462000B946109221070FD4009A4A4503DA914601
:1046300001E0A9F10109B9F1010F05DD109AA9F115
:104640000101515C3029F4D0B84202DA10F1040FB4
:1046500003DA0121CDE9011010E0002803DC8344D6
:10466000A9EB000102E0411C494500DD8946A0EBB1
:104670000B00401C01904FF000400290200705D431
:104680000198484502DB4FF0FF30019000208DF883
:104690004B0002980DF14B07B0F1004F25D00220DE
:1046A0000C902B200D90029800280CDA40420290CA
:1046B0002D200D9007E00A210298FCF785F8303193
:1046C000029007F8011D0C99481E0C900029F2DC9D
:1046D00002980028EFD1791E0D980870307800F00C
:1046E000200040F0450007F8020D11A8C01BC01DB6
:1046F00002901398007800B1012000EB09010198A5
:1047000001EBE071029801440398401A401E0390A7
:10471000E00306D453462146179A039800F05CF84C
:1047200005441398007818B15246179990476D1CAC
:10473000E00323D553462146179A039800F04CF81E
:1047400005441BE0BBF1000F07DB0098584504DD72
:104750001098179910F80B0001E017993020524675
:10476000904701980BF1010B401E05F101050190E6
:1047700004D12E205246179990476D1CB9F10001C3
:10478000A9F10109DEDC05E017F8010B5246179983
:1047900090476D1C0299481E02900029F4DC534694
:1047A0002146179A03989EE62D0000002B0000007A
:1047B000200000002DE9F041044600251E46174662
:1047C000880404D405E039462020B0476D1C641EDF
:1047D000F9D52846BDE8F0812DE9F04104460025D1
:1047E0001E469046C80301D5302700E020278804E4
:1047F00004D505E041463846B0476D1C641EF9D526
:104800002846BDE8F0810A68531C0B6010707047A1
:104810002DE9FF4F8BB0074600250C9800B9FA4FE1
:10482000EAE20E98007825280AD02A466D1C0E99D7
:104830000878DDE90C13B8470E98401C0E90DBE2B7
:104840000E98401C0E90002400BF0E9800782B2874
:1048500019D004DC20281ED023282CD123E02D28B9
:1048600009D0302827D144F001040E98401C0E9046
:1048700001200A9022E044F002040E98401C0E90A1
:1048800001200A901AE044F004040E98401C0E9097
:1048900001200A9012E044F008040E98401C0E908B
:1048A00001200A900AE044F010040E98401C0E907B
:1048B00001200A9002E000200A9000BF00BF0A9881
:1048C0000028C2D180460E990878FDF719FB20B167
:1048D0000EA8FDF73DFA804612E00E9800782A28CF
:1048E0000ED1189901C91891002804DA44F0020485
:1048F000C0F1000800E080460E99491C0E9100BFEF
:104900004FF000090E9800782E281FD144F48064DF
:104910000E98401C0E900E990878FDF7F1FA20B120
:104920000EA8FDF715FA814610E00E9800782A28A7
:104930000CD1189901C91891002801DD014600E049
:10494000002189460E99491C0E9100BF0E980078EF
:104950006C280AD004DC682816D06A2835D128E0F3
:10496000742820D07A2830D129E044F480740E983D
:10497000401C0E900E9800786C2804D144F400740A
:104980000E98401C0E9021E044F080040E98401CCC
:104990000E900E980078682804D144F040040E98D8
:1049A000401C0E9012E044F480740E98401C0E904F
:1049B0000CE044F400740E98401C0E9006E044F4A1
:1049C00080740E98401C0E9000E000BF00BF0E984F
:1049D000007869281DD00EDC622821D006DC25284D
:1049E0007ED050281AD058287BD115E0632879D082
:1049F0006428F9D10CE0732875D004DC6F280ED040
:104A00007028F1D109E0752804D07828ECD102E0B3
:104A100000BF00BF00BF00BF00BF00BF00BF00BF9E
:104A20000E980078782803D00E980078582801D185
:104A3000102623E00E980078702803D00E98007896
:104A400050280CD1102644F0100444F480740E98C1
:104A50004078562812D10E98401C0E900EE00E9809
:104A600000786F2801D1082608E00E9800786228A7
:104A700001D1022602E00A2624F010040E980078E4
:104A8000582803D00E980078502801D144F0200413
:104A90000E980078692805D00E980078642801D017
:104AA00024F00C0404F4806008B124F001040E9892
:104AB0000078692803D00E98007864287CD104F42B
:104AC0000070B8B31898C01D20F007001890D0E906
:104AD00000AB189A083218920020CDE9069803E03E
:104AE00073E17CE1F2E01CE1CDE904600894BAEBEB
:104AF00000017BEB000001DA012000E00020002132
:104B000002900846B1EB0A0170EB0B0002DA504646
:104B1000594605E000200146B0EB0A0061EB0B01AD
:104B2000CDE900012A463846DDE90C13FFF74DFABE
:104B30000546C7E0FFE704F48070D0B1189850F83C
:104B400004AB18904FEADA70CDE903980296059409
:104B5000BAF1000F01DD514601E0CAF10001CDE9D3
:104B600000102A463846DDE90C13FFF7F0F9054638
:104B7000A8E004F0400028B1189810F8041B189021
:104B8000C8B20DE004F0800028B1189830F8041B7A
:104B9000189008B204E0189800681899091D189137
:104BA00082464FEADA70CDE9039802960594BAF18D
:104BB000000F02DD514602E00BE0CAF10001CDE931
:104BC00000102A463846DDE90C13FFF7C0F9054608
:104BD00078E00E980078562818D1189850F804AB51
:104BE0001890DAF804000068099009980090DAF843
:104BF00000300D98421B0C9841193846FFF708FE0B
:104C00000544002009905DE08B40000804F400702A
:104C1000D0B11898C01D20F00700CDE9069808947F
:104C200018900020CDE904600290189903C9189AE1
:104C300008321892CDE900012A463846DDE90C1306
:104C4000FFF7C3F905463DE004F4807098B10022F7
:104C5000CDE9039802960594189800681899091DE3
:104C6000CDE9000218912A463846DDE90C13FFF71A
:104C70006EF9054626E004F0400028B1189810F8B7
:104C8000041B1890C8B20DE004F0800028B11898F9
:104C900030F8041B189088B204E01898006818993E
:104CA000091D189182460020CDE900A0CDE90398A6
:104CB000029605942A463846DDE90C13FFF747F9BA
:104CC000054600BF0E98401C0E9093E0012604F0AC
:104CD000020050B905E02A466D1C2020DDE90C13C6
:104CE000B8473046761C4045F5D3189911F8043B77
:104CF000D8B22A466D1C1891DDE90C13B84704F0B0
:104D0000020050B105E02A466D1C2020DDE90C139D
:104D1000B8473046761C4045F5D30E98401C0E909F
:104D200068E0189850F804AB18905046B9F1000F9D
:104D300001D0494601E04FF0FF310A46014600E04C
:104D4000491C0B781BB1131EA2F10102F8D10E1AF7
:104D500004F4806028B14E4501D2304600E0484658
:104D6000064604F0020050B905E02A466D1C2020DA
:104D7000DDE90C13B8473046761C4045F5D306E014
:104D80001AF8010B2A466D1CDDE90C13B8479AF896
:104D9000000040B104F480600028F1D0B9F10000B7
:104DA000A9F10109ECD104F0020050B105E02A4656
:104DB0006D1C2020DDE90C13B8473046761C4045B9
:104DC000F5D30E98401C0E9014E02A466D1C252049
:104DD000DDE90C13B8470E98401C0E900AE02A46F5
:104DE0006D1C0E990878DDE90C13B8470E98401C2D
:104DF0000E9000BF00BF00BF0E98007800287FF41F
:104E000010AD0D98854201D2284601E00D98401E54
:104E100002460020DDE90C13B84728460FB0BDE874
:104E2000F08F2DE9F04104460E46002774B131465B
:104E3000204600F02DF80546B5F5803F05D20C2D33
:104E400001D9284600E00C20074600BF3846BDE8DF
:104E5000F081024600BF481E084018B100BF00BFE5
:104E600000BFFEE700BF481E1040101A704710B583
:104E700002464B1E13444C1E23EA040000BF4B1E87
:104E80000B401BB100BF00BF00BFFEE700BF10BD5D
:104E9000024600BF481E084018B100BF00BF00BF57
:104EA000FEE700BF481E10444B1E984370470000A9
:104EB0002DE9F04180460E464446012060860025DB
:104EC00000270DE056F8270025A1FBF7ABF910B13C
:104ED000681C85B202E0608E401C6086781C87B238
:104EE00056F8270020B156F8270000780028E9D1AD
:104EF000208EA84201D1BDE8F081A06A20B1A06A4D
:104F00001AF038FD0020A062E06A20B1E06A1AF0D1
:104F100031FD0020E062E8001AF05EFCA06200BFF4
:104F2000A06A18B900BF00BF00BFFEE700BF68005D
:104F30001AF052FCE06200BFE06A18B900BF00BF7F
:104F400000BFFEE700BFA06A08B1E06A00B9002513
:104F50006900E06A1AF025FF258600BFCBE7000054
:104F60000A0000002DE9F84F81460E46924699F856
:104F7000090000F00700022801D1304600E0504649
:104F80008346564501DD304600E050460746032083
:104F900000EB470020F0030000F1100539480068DD
:104FA00039490968A0EB0108002405EB08003749DE
:104FB0000968884206D233480468606820F00040DF
:104FC00060603AE031480068854221D813E04FF034
:104FD000FF300090002269462D480EF067FD002248
:104FE00069462C480EF062FD26480068264909688B
:104FF000A0EB010800BF08EB0500244909688842BE
:10500000E5D820480468606820F00040606014E043
:1050100028461AF0E1FB044600BF1CB900BF00BFE0
:1050200000BFFEE700BF14B90020BDE8F88F60683C
:1050300020F0004000F1004060603246594648468A
:1050400001F069FE2060606800F04040401C606034
:10505000606820F080406060A781A4F80EB06068AE
:10506000C00F20B1204600F11001A16008E0054802
:1050700000681030A06003480068284401490860B7
:105080002046D2E78C000020E001002088000020AC
:10509000D1FD00082D3B0108F0B585B006460D4650
:1050A0003446002004900390029094F83C0000F0F5
:1050B000030020B1012838D0022866D000BF94F840
:1050C0003C0000F003005A49097888421BD0262092
:1050D000005D00EB001000EB4000142190FBF1F0AC
:1050E000544908702720005D00EB001000EB4000E1
:1050F000142190FBF1F05049087094F83C0000F046
:1051000003004B49087002A803A9CDE9001005EB84
:1051100045014FF6FF7202EA410004AB46490A78A6
:10512000444909780AF02AFB5FE094F83C0000F05B
:1051300003003F49097888421AD0A08C00EB400058
:1051400040024FF4B471B0FBF1F03C4908802720D5
:10515000005D00EB001000EB4000142190FBF1F02B
:105160003549087094F83C0000F00300304908709D
:1051700002A803A9CDE90010E9B204AB2E480278D9
:105180002E4800880AF0FAFA2FE094F83C0000F06C
:1051900003002749097888421AD0A08C00EB400010
:1051A00040024FF4B471B0FBF1F02449088026208E
:1051B000005D00EB001000EB4000142190FBF1F0CB
:1051C0001C49087094F83C0000F00300184908706E
:1051D00002A803A9EAB204ABCDE900101548017892
:1051E000164800880AF0CAFA00BF00BF9DF81000F8
:1051F0009DF80C109DF80820D708BDF8003067F323
:1052000004038F080093BDF8003067F34A13C70802
:105210000093BDF8003067F3CF230093BDF8007012
:105220003B460193BDF80410084605B0F0BD0000F0
:105230003E0100203C0100203D0100203A010020F9
:1052400010B50120074908700748FEF720F920B97A
:105250000648006824F018F903E00448006824F0C8
:105260001FF910BDC8010020101B0020CC01002038
:1052700010B5044694F83E00C0F3400050B9A08F2A
:10528000002807DDA08F4FF6FF71884202D0A08F63
:10529000401EA087A08FA8B9606B20B194F83E0093
:1052A000C0F3400070B121461748FEF76FF9FFF7D1
:1052B000C7FFE06810B12046E168884720461AF031
:1052C00059FB1FE0A06B4042E062606BD0B194F8E4
:1052D0003E10C1F3400111B9216B4942E16294F8DB
:1052E0003E104908C94394F83E2061F3410284F816
:1052F0003E20E069616AE1616062A06A616BA1625F
:10530000606300BF10BD0000101B00202DE9F041BC
:1053100080464248006823F019FF0646404800785E
:1053200080F001003E4908703E48FEF7B0F80446A0
:105330006BE000203C49087094F83E00C0F3800008
:1053400037490978884253D0354801782C34A07CFD
:1053500061F38200A07420688719A07C2C3CC0F304
:10536000C00010BBE06A00281FDC002F1DDB94F892
:105370003E0000F0010060B9206950B1204621696B
:1053800088470546E0692844E061606A2844606215
:1053900000BFA06810B12046A168884794F83E007D
:1053A00020F00800083084F83E00E06A3044E062F3
:1053B000E06A00281BDBD4E90A10884201DDA06AFC
:1053C000E0622046A16988470546206AA84206D0C7
:1053D0002562606818B12946D4E900029047D4E9F3
:1053E0000A10884202DB2046FFF742FF00BF00BFE1
:1053F0000D48007820B10B48FEF749F8044604E058
:1054000021460848FEF75BF80446002C91D123F0B2
:10541000ABFE02490860BDE8F0810000C401002035
:10542000C9010020101B0020C8010020F7B582B080
:1054300004460E4614B9049805B0F0BD00BF6322BF
:10544000314620461DF06CFF0190019D00BFBDB1AB
:105450002868A8B100BF6422314620461DF060FFD5
:1054600001900198C0B207464FB13A462B682846D2
:10547000049998470190BDF80400ADF8100000BFF2
:105480000498D9E770B504460D46606818B12946FE
:105490006068FFF7F7FF206818B1294620462268A8
:1054A000904770BD70B505460C46A1B228460FF076
:1054B000E5FC70BD70B505460C46A1B228460FF05C
:1054C0002EFD70BD70B504460D4600BF204600F0AD
:1054D0003BF818B100BF00BF00BFFEE700BF284681
:1054E00000F050F9001D616808446060204600F03B
:1054F0003AF8204670BD70B505460C46284600F0C7
:1055000041F904F11001884201D3012070BD00204F
:10551000FCE70146A1F1080070477CB505460C4642
:10552000204600F02FF906466A4601A924F0B8FF8C
:1055300021462846DDE900320DF03AFE7CBD0146E9
:10554000087900F00100704710B50446204600F0CD
:1055500019F908B9012010BD0020FCE701460879BF
:1055600000F00200704770B50446204600F097F83E
:1055700005462C60284670BD7CB506460C460020CA
:105580000190009000256CB16A4601A9204624F0E4
:10559000A4FF01980A2805DA6A4601A9304626F0D8
:1055A0009FFA054685B100BF284600F0EBF8A042FF
:1055B00003D200BF00BF00BFFEE700BF2946304650
:1055C000DDE9003225F0F4FE28467CBD70B50446C6
:1055D0002046FFF7C8FF0546284600F0BEF82046E3
:1055E00000F0B6F870BD70B50446204600F057F8DC
:1055F0000546284600F0B6F8204600F0BEF870BD1B
:1056000070B506460D46284600F049F8044600BF2E
:105610001CB900BF00BF00BFFEE700BF2046FFF778
:105620008EFF90B100BF2846FFF78EFF18B100BF74
:1056300000BF00BFFEE700BF2146304600F076F80D
:1056400021462846FFF73EFF0546284670BD70B547
:1056500006460D462846FFF781FFF0B1284600F0C8
:1056600057F8044600BF1CB900BF00BF00BFFEE7EB
:1056700000BF00BF2046FFF762FF18B900BF00BFA0
:1056800000BFFEE700BF2146304600F04FF8294634
:105690002046FFF717FF054600BF284670BD2DE9DD
:1056A000F0410446204600F06DF8061F204600F049
:1056B000B8F80746314625F08BF9054600BF20466D
:1056C000FFF742FF18B100BF00BF00BFFEE700BFF9
:1056D0002846BDE8F0812DE9F04106460C46154606
:1056E000002794B100BF1DB900BF00BF00BFFEE797
:1056F00000BF2A462146304600F097F82046FFF7C3
:1057000072FF204600F08DF807463846BDE8F0816C
:1057100010B5044600BF2046FFF720FF18B900BFB0
:1057200000BF00BFFEE700BF206810BD7CB5054686
:105730000C46204600F026F806466A4601A924F0E9
:10574000AFFE21462846DDE9003225F031FE7CBD62
:10575000416841F0010141607047416841F0020138
:1057600041607047416821F0020141607047426822
:1057700002F003030B4343607047416821F00101CD
:10578000416070470146486820F0030070472DE9EA
:10579000F04706460C46304600F043F88046211F8D
:1057A00025F016F907463046FFF7ECFF211D451A94
:1057B00000BF384600F035F88146384600F031F831
:1057C00080460421FFF753FB814503D000BF00BF93
:1057D00000BFFEE700BF00BF3046FFF7D3FF291927
:1057E000091D884203D000BF00BF00BFFEE700BF15
:1057F00029463846FFF7BBFF00BF3846FFF7C2FF18
:105800000C2803D200BF00BF00BFFEE700BF214647
:105810003046FFF7ACFF3846FFF7D8FE3846BDE804
:10582000F087014601F1080070472DE9F041064676
:105830000C46154600BF2046FFF781FE18B900BF91
:1058400000BF00BFFEE700BF29462046FFF753FE1A
:1058500078B129462046FFF79AFF07462046FFF712
:1058600082FE3846FFF779FF39463046FFF755FE8E
:1058700000BFBDE8F0812DE9F04106460C46154613
:1058800000BF2046FFF75BFE18B100BF00BF00BF9E
:10589000FEE700BF29462046FFF72DFE88B12946C6
:1058A0002046FFF774FF07463846FFF75BFF39468F
:1058B0003046FFF7A5FE074639463046FFF72DFE76
:1058C00000BFBDE8F0812DE9F8430646344618F0E4
:1058D00045F88046404618F086F878BB304615F00B
:1058E000EAFC38B3304615F062FB208FE18E884227
:1058F00012D0E08E2087E08E00906A461C21304650
:1059000015F0C6FF0746012F02D03846BDE8F883E0
:1059100030461EF026FB00BF404618F074F80546DE
:10592000042D06D130461CF07DF90746002116F003
:1059300008FE09E0304615F021FD05E0FFE7208F65
:10594000E08630461EF00DFB0120DFE72DE9F04137
:105950000446204615F096FF054628461CF0BCF983
:105960000646284610F038FB0746012239463046E5
:1059700022F0A4FDBDE8F0810146C1F3C0107047DC
:105980000146C1F3801070470146C1F3C010704753
:105990000146C1F3002070470146C1F3C0007047C3
:1059A0000146C1F3401070470146C1F340207047E3
:1059B0000146C1F3003070470146C1F30010704743
:1059C0002DE9F04F89B004460D46002120461CF019
:1059D0001EF830B91C2128461AF0E3F909B0BDE8D9
:1059E000F08F2946204600F00BFB2946204600F0A8
:1059F0007DF8002120461DF03DFA08900021204648
:105A00001DF0BEFB0790002120461CF0F3FF01288B
:105A100000D100E000208146002120461DF066FEF6
:105A20000746002120461DF0D3F8064642F2D17009
:105A3000874205D1608CC0F3802008B9012000E0C6
:105A40000020824620461CF082F8069000BF4FF0EE
:105A5000000824480288414620461DF061FC03905E
:105A60000398C0B200BF8346AA6829692868CDE9B7
:105A70000209CDE900125A465146089B06980CF0DF
:105A80004BF9288342F2D170864205D1608CC0F375
:105A9000402008B9012000E00020059020461CF0BD
:105AA00037F8049000BF4FF000080F4802884146C5
:105AB00020461DF035FC03900398C0B200BF83461A
:105AC0000023EA6869686869CDE90213CDE900023C
:105AD0005A46079BDDE904010CF01EF9688300BFFC
