:020000040800F2
:100000002008002049010008F9120008E90B000847
:10001000F5120008E5070008431900080000000079
:10002000000000000000000000000000ED140008C7
:10003000E90700080000000095130008B916000841
:100040006301000863010008630100086301000800
:100050006301000863010008ED0700086301000860
:1000600021080008550800088908000863010008F5
:1000700063010008630100086301000863010008D0
:1000800063010008630100086301000863010008C0
:1000900063010008630100086301000863010008B0
:1000A00063010008630100086301000863010008A0
:1000B0006301000863010008630100086301000890
:1000C0006301000863010008630100086301000880
:1000D000630100081D1700086301000863010008A0
:1000E0006301000863010008630100086301000860
:1000F0006301000863010008630100086301000850
:10010000630100086301000863010008630100083F
:10011000630100086301000863010008630100082F
:10012000630100086301000863010008630100081F
:10013000DFF810D000F0A8FA004800479924000822
:10014000AFF300802008002006488047064800479B
:10015000FEE7FEE7FEE7FEE7FEE7FEE7FEE7FEE777
:10016000FEE7FEE7BD160008310100082DE9F05F4B
:100170000546002092469B46884606468146402416
:100180001BE0284641464746224600F0E6F9534622
:100190005A46C01A914110D311461846224600F023
:1001A000CDF92D1A67EB01084F46224601200021A8
:1001B00000F0C4F917EB00094E41201EA4F1010420
:1001C000DFDC484631462A464346BDE8F09F2DE92C
:1001D000FE4F804681EA0300C00F0C46009021F0DC
:1001E000004123F00045B8EB0200A94105D240468A
:1001F000214690461C460B46024623F00040104321
:1002000047D0270DC7F30A00C3F30A510290401AE2
:10021000019040286BDAC3F3130040F4801B009870
:10022000924620B10023D2EB030A63EB0B0B01983B
:100230005946C0F14002504600F080F906460D468E
:1002400050465946019A00F098F910EB08006141B8
:10025000002487EA115284EAE7731A4340D0009AD7
:1002600062B3019A012A4FEA075215DC001B61EBC9
:1002700002014FF0004202EA0752CDE90042001CA1
:1002800041F5801132462B4600F098F903B0BDE8E5
:10029000F08F40462146F9E7001B61EB0201001C8C
:1002A00041F5801300185B412018A2F5001747EBB9
:1002B000030140EAD570B6196D4111E06D084FEAAF
:1002C000360645EAC0754FEA0752001B61EB020192
:1002D000001C41F5801149084FEA300000195141D6
:1002E00032462B4603B0BDE8F04F00F058B90098F5
:1002F000012240000023D0EB020263EBE073009880
:1003000021464FEAE074B8EB000061EB0401E9E735
:1003100083F000435BE781F0004158E72DE9FE4F91
:1003200081EA030404F0004421F0004100944FF0FE
:10033000000B23F0004350EA01045ED052EA0304AC
:100340005BD0C3F30A54C1F30A552C44A4F2F3342E
:100350000194A0FB0254C1F3130141F48011C3F3D3
:10036000130343F4801301FB024400FB034E840A91
:10037000970A44EA815447EA8357A4FB0768029529
:100380008D0A05FB07854FEA932C04FB0C542705C7
:10039000029D4FEA065847EA1637B5EB08056EEBA3
:1003A000070C870E920E47EA811742EA8312A7FBD9
:1003B0000201B6EB0B0164EB00042B0D43EA0C3396
:1003C0005E1844EB1C50DA465146E7FB0201C5F3C8
:1003D00013044FEA0B3343EA14534FEA0432019CEF
:1003E00043EA0603A4F10C040294009CCDE900B496
:1003F00000F0E4F803B0BDE8F08F00200146F9E713
:100400002DE9F04D81EA030404F0004B21F0004592
:1004100014464FF0000A23F0004150EA050220D0B4
:1004200054EA01021DD0C5F30A570246C5F313036F
:10043000C1F31300C1F30A5640F4801543F480134E
:10044000A7EB0608101BD64608F2FD3873EB050033
:1004500002D308F1010801E092185B41B8F1000FE6
:1004600003DA00200146BDE8F08D00204FF4801132
:10047000064684460EE0171B73EB050705D3121BD7
:1004800063EB050306434CEA010C49084FEA3000D0
:1004900092185B4150EA0107EDD152EA030012D0F5
:1004A00082EA040083EA0501084305D0101BAB4132
:1004B00006D20122002306E000224FF0004302E0B2
:1004C0006FF0010253101AEB06004CEB085110EBD1
:1004D0000A0041EB0B01BDE8F04D00F060B80000F0
:1004E00030B5041E71F1000404DB4FF000444042BB
:1004F00064EB0101141E73F1000405DB1C464FF090
:100500000043524263EB0403994208BF904230BD5E
:1005100030B50B46014600202022012409E021FAD3
:1005200002F59D4205D303FA02F5491B04FA02F5D0
:100530002844151EA2F10102F1DC30BD202A04DBA3
:10054000203A00FA02F1002070479140C2F12003E6
:1005500020FA03F3194390407047202A04DB203A25
:1005600021FA02F00021704721FA02F3D040C2F1D3
:1005700020029140084319467047202A06DBCB171A
:10058000203A41FA02F043EAE07306E041FA02F34E
:10059000D040C2F12002914008431946704710B57F
:1005A000141E73F1000408DA401C41F10001921896
:1005B0005B411A4301D120F0010010BD2DE9F04D3F
:1005C00092469B4611B1B1FA81F202E0B0FA80F294
:1005D00020329046FFF7B2FF04460F4640EA0A0079
:1005E00041EA0B0153465A46084313D0114653EAD9
:1005F000010019D0C8F140025046FFF7AEFF054692
:100600000E46504659464246FFF798FF084305D02C
:10061000012004E020463946BDE8F08D0020054366
:1006200046EAE0762C4337430A986305E40AA0EBD8
:1006300008000022FD0A44EA47540A3002D500208F
:100640000146E9E7010510196941DDE9084500198E
:100650006941BDE8F04DA2E7C1F30A52C1F31301AD
:1006600040F2FF3341F480119A4202DA0020014641
:10067000704740F233439A42A2F2334202DC5242C4
:10068000FFF76BBFFFF75ABF064C074D06E0E06867
:1006900040F0010394E8070098471034AC42F6D3C9
:1006A000FFF74AFDAC560008CC56000810B500F024
:1006B00059FB10BD10B5FF2000F02AF80446552C58
:1006C00001D1002010BD5521FF2000F06BF80A2059
:1006D00001F0BAFDFF2000F01BF80446552C01D1B3
:1006E0000020EFE70120EDE770B505460C46164601
:1006F00007E029466A1C95B2C8B200F009F804F870
:10070000010B301EA6F101018EB2F2D170BD0000C6
:1007100070B5054600F012FBA02000F0E1FA00F0F1
:100720007BFA0446ECB929460FA001F00DF92846E2
:1007300000F0D6FA00F070FA044694B900F0FEFA20
:10074000A12000F0CDFA00F067FA04464CB9012070
:1007500000F088FA0646314606A001F0F5F800F0F0
:100760004AFA304670BD000061646472203D202565
:10077000640A000064617461203D2025630A000062
:1007800070B504460D46164606E02978E0B200F042
:1007900009F8601C84B26D1C301EA6F101018EB2F6
:1007A000F3D170BD70B506460D4600F0C7FAA02023
:1007B00000F096FA00F030FA044694B9304600F0A2
:1007C0008FFA00F029FA04465CB9284600F088FA4E
:1007D00000F022FA044624B900F00DFA0A2001F0D4
:1007E00033FD70BD00BFFEE77047000010B5142058
:1007F00001F02AFD00BF0121074800F0E8F90128B7
:10080000F9D0142001F020FD012000F057F800205D
:100810000249087010BD00000008014018000020C7
:1008200010B5142001F010FD00BF0421074800F0AE
:10083000CEF90028F9D0142001F006FD042000F0C4
:100840003DF802200249087010BD00000018014068
:100850001800002010B5142001F0F6FC00BF08219C
:10086000074800F0B4F90028F9D0142001F0ECFC9E
:10087000082000F023F803200249087010BD000092
:10088000001801401800002010B5142001F0DCFC15
:1008900000BF1021074800F09AF90028F9D0142071
:1008A00001F0D2FC102000F009F804200249087081
:1008B00010BD000000180140180000200149086028
:1008C0007047000014040140002123498279002A66
:1008D0003AD00A46126803689A430B461A600A1D0A
:1008E000126803689A430B1D1A60027911440A6862
:1008F00003681A430A60184A0832126803689A4368
:10090000154B08331A601A1D126803689A43124B7C
:100910000C331A604279102A0ED11A1F126803682C
:100920001A430D4B08331A601A1D126803681A43E4
:10093000094B0C331A600DE00749427911440A68EB
:1009400003681A430A6005E0027911440A680368E3
:100950009A430A60704700000004014051B18200D0
:10096000A2F1C042126842F001038200A2F1C0422B
:10097000136009E08200A2F1C0421268034B1A40E2
:100980008300A3F1C0431A6070470000FEFF0F0010
:10099000D0E901121143C26811430269114342694F
:1009A000114382691143C2691143026A1143426AC9
:1009B0001143826A1143C26A1143026B11430268F8
:1009C0009200A2F1C0421160816808290BD1016830
:1009D0008900A1F1C041096841F040020168890025
:1009E000A1F1C0410A60416B0968426B526841EA5B
:1009F0000211426B926841EA0221426B928941EAFC
:100A00000241426B128A41EA0251426B127D41EA75
:100A10000261426B926911430268521C9200A2F17A
:100A2000C0421160C16AB1F5804F1BD1816B09686A
:100A3000826B526841EA0211826B926841EA02219C
:100A4000826B128A41EA0251826B127D41EA026195
:100A5000826B9269114302689200A2F1C042C2F80F
:100A6000041107E06FF0704201688900A1F1C041F4
:100A7000C1F804217047000030B500228B071C0F1D
:100A80000F2303FA04F20B4B8C1053F824309343DA
:100A9000084C8D1044F8253023468C1053F8243030
:100AA0008C07240F00FA04F42343024C8D1044F801
:100AB000253030BD080001402DE9F04102460025F7
:100AC0000026002000230024002791F803C00CF02A
:100AD0000F0591F803C00CF0100CBCF1000F03D00F
:100AE00091F802C04CEA050591F800C0BCF1000F76
:100AF00031D0146800202BE04FF0010C0CFA00F309
:100B0000B1F800C00CEA03069E4220D183004FF0EA
:100B10000F0C0CFA03F7BC4305FA03FC4CEA04047F
:100B200091F803C0BCF1280F06D14FF0010C0CFA6C
:100B300000FCC2F814C00AE091F803C0BCF1480FF1
:100B400005D14FF0010C0CFA00FCC2F810C0401C9B
:100B50000828D1D31460B1F800C0BCF1FF0F34DD18
:100B6000546800202EE000F1080C4FF0010808FA4C
:100B70000CF3B1F800C00CEA03069E4221D18300B9
:100B80004FF00F0C0CFA03F7BC4305FA03FC4CEAD8
:100B9000040491F803C0BCF1280F05D100F1080C42
:100BA00008FA0CF8C2F8148091F803C0BCF1480FA1
:100BB00007D100F1080C4FF0010808FA0CF8C2F850
:100BC0001080401C0828CED35460BDE8F081024656
:100BD000002093680B400BB1012000E0002070471B
:100BE000416170470161704700BFFEE710B5022008
:100BF00001F050FB10BD10B5002000F067FCFFF7BE
:100C0000F5FF012000F052FCFFF7F0FF012000F09B
:100C10005DFCFFF7EBFF10BD70B50024002501203F
:100C200000F054FCFFF7E2FF012000F03FFCFFF76B
:100C3000DDFF07E0601CC4B2FA2C03DDFFF7DBFF29
:100C4000012505E080210648FFF7C1FF0028F1D10A
:100C500000BF002000F02AFCFFF7C8FF284670BD47
:100C6000000C014070B505460026012000F02EFC66
:100C7000002412E0012000F019FCFFF7B7FF8021EB
:100C80000B48FFF7A4FF10B180202041064300204D
:100C900000F00CFCFFF7AAFF641C082CEADB15B976
:100CA00000F008F801E000F038F8304670BD0000B0
:100CB000000C014010B5002000F008FCFFF796FF83
:100CC000012000F0F3FBFFF791FF002000F0EEFBA6
:100CD000FFF78CFF012000F0F9FBFFF787FF10BD45
:100CE00070B50546002412E0C4F1070145FA01F190
:100CF00001F0010000F0EAFBFFF778FF012000F0AF
:100D0000D5FBFFF773FF002000F0D0FB641C082C1C
:100D1000EADB012000F0DAFB70BD10B5012000F025
:100D2000D5FBFFF763FF012000F0C0FBFFF75EFF7C
:100D3000002000F0BBFBFFF759FF10BD10B50120EC
:100D400000F0C4FB012000F0B1FBFFF74FFF0020D3
:100D500000F0BCFBFFF74AFF002000F0A7FBFFF705
:100D600045FF10BD08B50121082000F025FB4020FB
:100D7000ADF8000010208DF8030003208DF802006C
:100D800069460848FFF798FE8020ADF8000014205F
:100D90008DF8030069460348FFF78EFEFFF72BFF2F
:100DA00008BD0000000C01401FB50121042000F027
:100DB00003FB0121402000F0FFFA0121084600F06A
:100DC000FBFA1C20ADF80C0048208DF80F00032022
:100DD0008DF80E0003A93F48FFF76EFE0120ADF825
:100DE0000C0028208DF80F0003A93B48FFF764FE94
:100DF00000210846FFF740FE02210420FFF73CFED9
:100E000003210420FFF738FE04210846FFF734FED3
:100E10001C20019001208DF80A0000208DF80800A8
:100E20000C208DF8090001A8FFF74EFD012001906C
:100E300008208DF8090001A8FFF746FD4FF4A060D7
:100E400000F09EFA06208DF8000001208DF80300C6
:100E500002208DF8010001208DF80200684600F0A4
:100E600057FA062000F049FA08208DF8000001200A
:100E70008DF8030002208DF801008DF8020068460D
:100E800000F046FA082000F038FA09208DF800003A
:100E900001208DF8030002208DF8010003208DF859
:100EA0000200684600F034FA092000F026FA0A2011
:100EB0008DF8000001208DF8030002208DF801005C
:100EC00000208DF80200684600F022FA0A2000F0A7
:100ED00014FA1FBD0018014000080140034991F9B0
:100EE0000000FF21014A1170704700001800002027
:100EF00000B59FB00121080200F04EFA01214FF425
:100F0000B47000F059FA0120ADF8780010208DF887
:100F10007B0003208DF87A001EA93048FFF7CCFD36
:100F200041F20100ADF8780018208DF87B001EA971
:100F30002B48FFF7C1FD4CF23370ADF878001EA9C5
:100F40002848FFF7B9FD4FF68070ADF878001EA96C
:100F50002548FFF7B1FD00200E90012009900020E8
:100F600008900B900C900D9001200A9000200790A3
:100F7000012002900020019004900590069001202D
:100F800003900020149006200F90002013901090E2
:100F90004FF480401A901020129000201190199068
:100FA0001790159016904FF48050189008A81D9037
:100FB00001A81C900FA8FFF7EBFC01210620FFF70A
:100FC000CDFC01F095F901210448FFF70BFE4FF627
:100FD000FF7000F00BF81FB000BD0000000C0140D6
:100FE00000200140001401400018014030B50446C3
:100FF0004FF4963540F23F130022EF21104600F0E7
:1010000031F800F02AF8002203E0204600F034F91D
:10101000521CAA42F9D930BD2DE9F04306460C46D0
:1010200015461F46DDF81C80A81B401C391B491CB7
:1010300000FB01F93B4622462946304600F012F8F3
:1010400000F00BF802E0404600F016F9B9F100009C
:10105000A9F10109F7D1BDE8F08300B52C2000F01B
:1010600005F900BD30B504460D462A2000F0FEF813
:10107000201200F001F9E0B200F0FEF8281200F0B2
:10108000FBF8E8B200F0F8F82B2000F0EFF81012AF
:1010900000F0F2F8D0B200F0EFF8181200F0ECF81F
:1010A000D8B200F0E9F830BD2DE9FF4F82460F4677
:1010B0001646DDF83880B34606EBDB700AEB6000BD
:1010C000401E81B2B819401E83B23A465046FFF71F
:1010D000C9FFFFF7C2FF4FF00009102E04D0182EF1
:1010E00022D0202E73D152E04FF01009A8F1200039
:1010F000434900FB0914002213E014F8015B0023AC
:101100000CE005F0800018B1039800F0B5F802E09B
:101110000D9800F0B1F86806050E5B1C082BF0DB9B
:10112000521CB242E9DB68E04FF03009A8F1200020
:10113000344900FB0914002226E014F8015B002367
:101140000CE005F0800018B1039800F095F802E07B
:101150000D9800F091F86806050E5B1C082BF0DB7B
:1011600014F8015B00230CE005F0800018B103982F
:1011700000F082F802E00D9800F07EF86806050E97
:101180005B1C042BF0DB521CB242D6DB35E04FF087
:101190004009A8F120001C4900FB0914002227E0A7
:1011A00014F8015B00230CE005F0800018B10398EF
:1011B00000F062F802E00D9800F05EF86806050E97
:1011C0005B1C082BF0DB14F8015B00230DE012E040
:1011D00005F0800018B1039800F04EF802E00D9879
:1011E00000F04AF86806050E5B1C082BF0DB521C69
:1011F000B242D5DB01E0BDE8FF8F00BF00BFFAE7D8
:101200002B2700081B2D0008EB3E00082DE9FF4F9F
:1012100083B006469146DDE910BA00210C460D4622
:101220001CE00021A4FB097205FB092204FB012834
:1012300002220B4638464146FEF798FF801980B2DD
:1012400002901AF80400CDE900B04A46069B0499C2
:101250000298FFF729FF641C45F100051AF8040005
:101260000028DED107B0BDE8F08F000001490880FA
:1012700070470000FE07006C0149088070470000BD
:101280000008006C08B50121482000F095F82020E6
:10129000ADF8000010208DF8030003208DF8020047
:1012A00069460948FFF708FC20210748FFF79AFC28
:1012B0002020ADF8000069460448FFF7FDFB20211F
:1012C0000248FFF78FFC08BD000C014000180140E8
:1012D00070B504460D4629462046FFF778FC20B934
:1012E00029462046FFF77EFC03E029462046FFF70B
:1012F00077FC70BD00BFFEE7704700F01F020121C0
:1013000091404209920002F1E022C2F800117047B8
:1013100070B5002100230F22C47804B3154C246853
:1013200004F4E064C4F5E064210AC1F10403CA4096
:10133000447804FA03F184781440214309010E4CE7
:101340000678A155047804F01F050124AC40057807
:101350006D11AD0005F1E025C5F8004109E0047804
:1013600004F01F050124AC40044D0678761145F8C1
:10137000264070BD0CED00E000E400E080E100E0FC
:1013800002490143024A1160704700000000FA055B
:101390000CED00E07047000029B1064A5269024393
:1013A000044B5A6104E0034A52698243014B5A617B
:1013B000704700000010024029B1064A92690243BA
:1013C000044B9A6104E0034A92698243014B9A619B
:1013D000704700000010024030B5002100220024B8
:1013E00000232D4D6D6805F00C0121B1042905D0B5
:1013F000082923D105E0294D056022E0274D05602D
:101400001FE0254D6D6805F47012234D6D6805F4DD
:101410008034022505EB92421CB9214D55430560ED
:101420000BE01D4D6D6805F400351DB11C4D554395
:10143000056002E0194D5543056002E0174D056057
:1014400000BF00BF144D6D6805F0F0010909154D8E
:101450006B5C0568DD4045600F4D6D6805F4E0612B
:10146000090A104D6B5C4568DD4085600A4D6D686A
:1014700005F46051C90A0B4D6B5C4568DD40C560E1
:10148000054D6D6805F44041890B074D6B5CC568DF
:10149000B5FBF3F5056130BD0010024000127A0083
:1014A00000093D00040000201400002010B504468F
:1014B00024B140210448FFF795FB03E04021024896
:1014C000FFF78EFB10BD0000000C014010B5044674
:1014D00024B180210448FFF785FB03E08021024806
:1014E000FFF77EFB10BD0000000C014070470000BC
:1014F00000B587B001210420FFF75EFF01218803BA
:10150000FFF75AFF18208DF81B004FF40070ADF85C
:10151000180003208DF81A0006A92148FFF7CCFA1D
:1015200048208DF81B004FF48060ADF818000320B0
:101530008DF81A0006A91A48FFF7BEFA4FF4E130F9
:1015400002900020ADF814000C20ADF8120000202D
:10155000ADF81000ADF80E00ADF80C0002A911486E
:1015600000F07AF9012240F225510E4800F04FF9BF
:101570004FF4A060FFF704FF25208DF80400012040
:101580008DF807008DF805008DF8060001A8FFF71B
:10159000BFFE0121034800F0F7F807B000BD0000CE
:1015A000000801400038014010B500F001F810BDFE
:1015B0000CB50020019000903348006840F4803062
:1015C0003149086000BF3048006800F400300090E6
:1015D0000198401C0190009818B90198B0F5A06FCF
:1015E000F1D12948006800F4003010B101200090CA
:1015F00001E0002000900098012843D123480068B2
:1016000040F01000214908600846006820F00700FB
:1016100008600846006840F0020008601A48406808
:10162000194948600846406848600846406840F4E8
:10163000806048600846406820F47C104860084696
:10164000406840F4E81048600846006840F0807048
:10165000086000BF0C48006800F000700028F9D056
:101660000948406820F00300074948600846406880
:1016700040F00200486000BF0348406800F00C00E2
:101680000828F9D10CBD00000010024000200240E3
:10169000042808D14FF0E021096941F004014FF01E
:1016A000E022116107E04FF0E021096921F0040117
:1016B0004FF0E022116170477047000010B51348E9
:1016C000006840F001001149086008464068104970
:1016D00008400E494860084600680E4908400B491A
:1016E00008600846006820F48020086008464068CA
:1016F00020F4FE0048604FF41F008860FFF754FF9D
:101700004FF000600449086010BD00000010024066
:101710000000FFF8FFFFF6FE08ED00E010B514E052
:101720000E4800F005F90E490E4A128888540D48FB
:101730000088401C0B4908800846008840F2FF31B1
:10174000884202DB00200749088040F22551034807
:1017500000F033F80128E3D010BD0000003801404C
:10176000200000201A00002010B50446214605483C
:1017700000F0E3F800BF8021024800F011F80028D3
:10178000F9D010BD0038014021B1828942F40052E5
:10179000828104E082894DF6FF731A40828170478E
:1017A00002460020B1F5007F00D100BF13880B4036
:1017B0000BB1012000E00020704770B50246002404
:1017C00000230025002040F66A16B14200D100BF78
:1017D000C1F3421501F01F03012606FA03F3012DA0
:1017E00002D19689334006E0022D02D1168A334099
:1017F00001E0968A33400C12012606FA04F416889A
:10180000344013B10CB1012000E0002070BDF0B5F0
:101810000346002400260025002040F66A17B9423E
:1018200000D100BF1846C1F3421401F01F06012782
:1018300007FA06F5012C01D10C3004E0022C01D18D
:10184000103000E014301AB107682F43076002E03F
:101850000768AF430760F0BD2DE9F04786B0054645
:101860000E460024A24600BFA1460027B08900B161
:1018700000BF2F462C8A4CF6FF700440F0880443CA
:101880002C82AC894EF6F3100440B08831890843AD
:10189000718908430443AC81AC8A4FF6FF40044091
:1018A000B0890443AC8201A8FFF796FD1F48874228
:1018B00002D1DDF810A001E0DDF80CA0A88900F449
:1018C000004040B10AEBCA0000EB0A103168490041
:1018D000B0FBF1F807E00AEBCA0000EB0A10316830
:1018E0008900B0FBF1F86420B8FBF0F00401200996
:1018F000642101FB1089A88900F4004040B1322026
:1019000000EBC900B0FBF1F000F00700044308E071
:10191000322000EB09106421B0FBF1F000F00F0061
:1019200004432C8106B0BDE8F08700000038014078
:1019300001468888C0F308007047C1F3080282801E
:10194000704700BFFEE700000FB4054B10B503A9B8
:10195000044A029800F0DAF810BC5DF814FB0000AD
:10196000E12200081C00002002E008C8121F08C184
:10197000002AFAD170477047002001E001C1121F10
:10198000002AFBD1704700002DE9FF5F82B00021E3
:10199000DDE90430020DDDF840B0034318D044F611
:1019A0001050A2F2FF3242431514119801281FD0A3
:1019B000A5EB0B00401C5FEA000A4FF000064E4FFB
:1019C000DFF83891B046504615D5CAF1000413E04F
:1019D000119801244AA3012801D16FEA0B01029852
:1019E000119AC0E90031C0E9024206B0BDE8F09F9B
:1019F000CBF10000DFE704460021404A491842EBE2
:101A00000450CDE9001012E0E00707D032463B4613
:101A100040464946FEF782FC8046894632463B46B0
:101A200010461946FEF77AFC06460F466410002C55
:101A3000EAD1DDE90401DDE90023BAF1000F06DA9D
:101A4000FEF76CFC42464B46FEF768FC05E0FEF7ED
:101A5000D7FC42464B46FEF7D3FC04460E46002216
:101A6000284BFEF73DFD03D84FF0FF30014607E05D
:101A70000022254B20463146FEF7A9FBFEF7ECFD80
:101A8000102409E0002C0ADB0A220023FEF76EFB7B
:101A9000039B30321A55641E50EA0102F2D1641CD5
:101AA000039AC4F111031444119A012A03D00122AC
:101AB00008430DD10AE0084304D000204FF0110B79
:101AC000119072E7A3EB0B056D1E0DE05B4504DD85
:101AD0004FF0000205F1010504E003DA4FF00002C7
:101AE000A5F10105002AECD002981199C0E9023154
:101AF000C0E9004579E70000000014400000F03F15
:101B0000300000000000F0430000E03F2DE9FF4FEF
:101B100095B09A46884606460025EEE1252877D1FD
:101B200000242746F94A0121039400E0044316F8F3
:101B3000013F203B01FA03F01042F7D130782A2808
:101B400011D06FF02F033078A0F13002092A16D897
:101B5000039A44F0020402EB820203EB42021044B7
:101B6000761C0390EFE758F8042B0392002A03DA5F
:101B7000504244F40054039044F00204761C307840
:101B80002E2816D116F8010F44F004042A280DD08F
:101B90006FF02F023078A0F13003092B09D807EB42
:101BA000870302EB4303C718761CF3E758F8047B5E
:101BB000761C30786C280FD006DC4C2817D06828AB
:101BC0000DD06A2814D104E0742810D07A280FD1DF
:101BD0000DE044F400140AE044F4801401E044F4FD
:101BE00040147278824202D104F58014761C761C6F
:101BF000307866280BD013DC582877D009DC002811
:101C000075D04528F6D04628F4D047281AD193E15C
:101C100018E0632835D0642879D0652812D18BE18B
:101C2000702873D008DC6728F1D069286FD06E283F
:101C30000DD06F2806D1ACE073282CD0752874D055
:101C4000782853D05246179990476D1C54E1C4F33D
:101C50000250022809D003280DD0D8F8001004281B
:101C60000DD00D6008F1040846E1D8F80010EA171D
:101C7000C1E90052F6E7D8F800100D80F2E70D70C8
:101C8000F0E718F8041B8DF8001000208DF8010013
:101C9000EB46012003E058F804BB4FF0FF3061072A
:101CA0004FF0000102D40DE009F101018946B9426B
:101CB0000FDA8145F8DB1BF809100029F4D108E0A0
:101CC00009F1010189468142FADB1BF8091000295C
:101CD000F6D103985346A0EB090721463846179AD8
:101CE00000F080FA284400EB090507E044E008E131
:101CF0000DE01BF8010B524617999047B9F1010905
:101D0000F7D2534621463846179AF2E039E00A21C5
:101D1000C4F302524FF0000B0091022A06D058F88B
:101D2000040BC117032A09D00AE023E008F10700D9
:101D300020F00702F2E80201904605E000B2C11768
:101D4000042A01D140B2C117002906DA0A4600214F
:101D5000404261EB02012D2202E0220504D52B2234
:101D60008DF80420012203E0E20701D02022F7E7EA
:101D7000914657E00A2100E010214FF0000B00913E
:101D80000BE010214FF0000B44F0040408270091F1
:101D900003E008204FF0000B0090C4F30252022A27
:101DA00005D058F8040B0021032A08D008E008F1F8
:101DB000070020F00702F2E80201904603E080B23B
:101DC000042A00D1C0B24FF0000922072AD5327888
:101DD000702A07D0DDF800C08CF0100C5CEA0B0C08
:101DE00005D00EE040228DF80420012208E050EAE0
:101DF000010306D030238DF804308DF8052002222F
:101E00009146009B83F0080353EA0B030AD150EA82
:101E1000010201D1620705D530228DF804204FF070
:101E200001097F1E3278582A04D039A20C920CAADC
:101E300002920BE03BA2F9E75B46009AFEF796F9A7
:101E40000C9B9B5C029A521E0292137050EA010294
:101E5000F2D1029804A9081A00F1200B600702D5FC
:101E600024F4803400E001275F4502DDA7EB0B007E
:101E700000E0002000EB0B01009003984944401A59
:101E80000390E00306D453462146179A039800F0C6
:101E9000A9F90544002706E001A85246C05D17993C
:101EA00090476D1C7F1C4F45F6DBE0030CD5534675
:101EB0002146179A039800F095F9054404E0302074
:101EC0005246179990476D1C0099481E00900029B2
:101ED000F5DC08E00298029952460078491C02910C
:101EE000179990476D1CBBF10001ABF1010BF1DCC0
:101EF0005BE100F065F90544761C307800287FF43A
:101F00000DAE19B02846BDE8F08F00000928010089
:101F1000303132333435363738396162636465665F
:101F20000000000030313233343536373839414221
:101F30004344454600000000600700D4062708F12E
:101F4000070020F00700F0E80223804603F0004C71
:101F50005FEA0C0001D097A009E0200501D596A00A
:101F600005E0E00701D095A001E0AFF24C0013902E
:101F7000307823F0004365280CD006DC452809D0D2
:101F800046281DD047287FD13BE0662818D0672817
:101F90007AD136E00021112F01DB112000E0781CFE
:101FA000CDE9000104A90CA8FFF7EEFCDDE90D0165
:101FB0000C9A4FF0000B07F10109109200914EE0CE
:101FC0004FF000400097CDE9011004A90CA8FFF7DD
:101FD000DBFCDDE90D020C9B0F994FF0000B9146E5
:101FE0001093009211B9791C00EB0109B7EB0900BD
:101FF00003D4C0F1FF3B07F10109A9EB07000190F1
:1020000042E0012F00DA01270021112F01DD11200C
:1020100000E03846CDE9000104A90CA8FFF7B4FCA4
:10202000DDE90D010C9A00914FF0000BB9461092BA
:1020300021070FD4009A4A4503DA914601E0A9F13D
:102040000109B9F1010F05DD109AA9F10101515CF7
:102050003029F4D0B84202DA10F1040F03DA01217A
:10206000CDE9011010E0002803DC8344A9EB000156
:1020700002E0411C494500DD8946A0EB0B00401CF5
:1020800001904FF000400290200705D40198484588
:1020900002DB4FF0FF30019000208DF84B000298DA
:1020A0000DF14B07B0F1004F25D002200C902B20F2
:1020B0000D90029800280CDA404202902D200D90DD
:1020C00007E00A210298FEF723FA3031029007F860
:1020D000011D0C99481E0C900029F2DC0298002882
:1020E000EFD1791E0D980870307800F0200040F094
:1020F000450007F8020D11A8C01BC01D02901398DF
:10210000007800B1012000EB0901019801EBE071BA
:10211000029801440398401A401E0390E00306D43D
:1021200053462146179A039800F05CF8054413982B
:10213000007818B15246179990476D1CE00323D5DB
:1021400053462146179A039800F04CF805441BE0CB
:10215000BBF1000F07DB0098584504DD1098179974
:1021600010F80B0001E01799302052469047019873
:102170000BF1010B401E05F10105019004D12E2049
:102180005246179990476D1CB9F10001A9F1010958
:10219000DEDC05E017F8010B5246179990476D1CDD
:1021A0000299481E02900029F4DC53462146179AF2
:1021B00003989EE62D0000002B0000002000000088
:1021C0002DE9F041044600251E461746880404D434
:1021D00005E039462020B0476D1C641EF9D528461D
:1021E000BDE8F0812DE9F041044600251E469046E9
:1021F000C80301D5302700E02027880404D505E076
:1022000041463846B0476D1C641EF9D52846BDE8E6
:10221000F081000010B56FF00400FFF739FA0920D3
:10222000074908700846007800EB4001C1EBC01078
:102230004FF6FF7101EAC0000249088010BD00009E
:1022400000000020020000200146114A12884A4383
:102250004FF0E0235A6100229A611A46126942F057
:1022600001021A6100BF4FF0E022106900F0010284
:102270001AB100F48032002AF5D04FF0E022126942
:1022800022F001024FF0E0231A6100229A617047A8
:10229000020000200146114A12784A434FF0E02321
:1022A0005A6100229A611A46126942F001021A61CB
:1022B00000BF4FF0E022106900F001021AB100F4F3
:1022C0008032002AF5D04FF0E022126922F001029C
:1022D0004FF0E0231A6100229A617047000000204D
:1022E00070B504460D46E0B2FFF73EFA204670BDD9
:1022F00010B51120FEF7BAFF7820FFF7A5FF3620B2
:10230000FEF7B4FF0820FEF7B7FF3A20FEF7AEFF56
:102310000520FEF7B1FFB220FEF7A8FF0C20FEF764
:10232000ABFF0C20FEF7A8FF0020FEF7A5FF33202F
:10233000FEF7A2FF3320FEF79FFFB720FEF796FFC0
:102340003520FEF799FFBB20FEF790FF3220FEF705
:1023500093FFC020FEF78AFF0C20FEF78DFFC220FE
:10236000FEF784FF0120FEF787FFC320FEF77EFF04
:102370001020FEF781FFC420FEF778FF2020FEF733
:102380007BFFC620FEF772FF0F20FEF775FFD020FF
:10239000FEF76CFFA420FEF76FFFA120FEF76CFF95
:1023A000E020FEF763FFD020FEF766FF0020FEF777
:1023B00063FF0220FEF760FF0720FEF75DFF0A20A3
:1023C000FEF75AFF2820FEF757FF3220FEF754FF92
:1023D0004420FEF751FF4220FEF74EFF0620FEF795
:1023E0004BFF0E20FEF748FF1220FEF745FF14209A
:1023F000FEF742FF1720FEF73FFFE120FEF736FF12
:10240000D020FEF739FF0020FEF736FF0220FEF74E
:1024100033FF0720FEF730FF0A20FEF72DFF2820AC
:10242000FEF72AFF3120FEF727FF5420FEF724FF96
:102430004720FEF721FF0E20FEF71EFF1C20FEF7AF
:102440001BFF1720FEF718FF1B20FEF715FF1E20AD
:10245000FEF712FF2A20FEF709FF0020FEF70CFF0F
:102460000020FEF709FF0020FEF706FFEF20FEF731
:1024700003FF2B20FEF7FAFE0020FEF7FDFE0020F2
:10248000FEF7FAFE0120FEF7F7FE3F20FEF7F4FE0E
:102490002920FEF7EBFE10BD86B0FFF7BBFEFEF76E
:1024A000F1FEFEF781FCFFF723F8FEF721FDFEF7B2
:1024B000FDF862A04FF6FF714FF478431022CDE98A
:1024C000001032211E20FEF7A1FE5EA04FF6FF7124
:1024D0004FF478431022CDE9001046211E20FEF76C
:1024E00095FE5BA04FF6FF714FF478431022CDE9C3
:1024F00000105A211E20FEF789FE59A04FF6FF71E9
:102500004FF478431022CDE900106E211E20FEF713
:102510007DFE23E058A04FF6FF714FF47843102260
:10252000CDE9001082211E20FEF770FE4FF4967058
:10253000FFF78AFE55A04FF6FF714FF47843102243
:10254000CDE9001082211E20FEF760FE4FF4967048
:10255000FFF77AFE20215248FEF7BAFEFEF7AAF8EE
:102560000028D7D14FA04FF6FF714FF478431022C7
:10257000CDE9001082211E20FEF748FE00200290C7
:1025800003900490059058E0FEF7A8FCC4B2032C19
:1025900024D14FF6FF7040F23F13EF2296210090B6
:1025A0000020FEF739FD43A04FF6FF711F231022D4
:1025B000CDE9001096211E20FEF728FE0F22434988
:1025C0000020FEF7DDF842A04FF6FF711F23102216
:1025D000CDE9001096211E20FEF718FE042C25D10F
:1025E00041A04FF6FF711F231022CDE90010962164
:1025F0001E20FEF70BFE0F2202A90020FEF774F842
:102600003FA04FF6FF711F231022CDE90010962145
:102610001E20FEF7FBFD02A84FF6FF711F231022BC
:10262000CDE90010AA211E20FEF7F0FD20213A4836
:10263000FEF74EFEC820FFF707FEA5E753544D33C3
:102640003200000049494320544553540000000023
:1026500041544F4D40414C49454E54454B000000BC
:102660004B4559313A577269746520204B455930B2
:102670003A526561640000003234433032204368CE
:1026800065636B204661696C65642100506C65610F
:10269000736520436865636B212020202020200083
:1026A000000C01403234433032205265616479219C
:1026B00000000000537461727420577269746520C1
:1026C00032344330322E2E2E2E0000001C270008FC
:1026D00032344330322057726974652046696E691E
:1026E0007368656421000000537461727420526540
:1026F00061642032344330322E2E2E2E2000000012
:102700005468652044617461205265616465642089
:1027100049733A20200000000018014053544D3303
:102720003220494943205445535400000000000022
:102730000000000000000000000000000000101079
:102740001010101010000010100000001224244877
:102750000000000000000000000000000000121255
:10276000127E2424247E24242400000000083C4AF5
:102770004A48380C0A0A4A4A3C080800000044A4A7
:10278000A8A8B0541A2A2A4A440000000000304881
:102790004848506EA494988976000000602020403C
:1027A0000000000000000000000000000204080813
:1027B0001010101010100808040200004020101023
:1027C0000808080808081010204000000000001049
:1027D00010D63838D61010000000000000000000AD
:1027E0000808087F0808080000000000000000003A
:1027F00000000000000000602020400000000000F9
:102800000000007E0000000000000000000000004A
:1028100000000000000000606000000000020404EE
:102820000408081010102020404000000000182468
:10283000424242424242422418000000000008384E
:1028400008080808080808083E00000000003C428C
:1028500042420204081020427E00000000003C4278
:1028600042020418040242423C0000000000040C32
:102870000C142424447F04041F00000000007E4048
:10288000404078440202424438000000000018240E
:1028900040405C62424242221C00000000007E4236
:1028A00004040808101010101000000000003C4242
:1028B00042422418244242423C00000000003844B6
:1028C000424242463A020224180000000000000082
:1028D0000018180000000018180000000000000098
:1028E00000001000000000001010100000000204A2
:1028F0000810204020100804020000000000000022
:10290000007E00007E00000000000000000040206B
:1029100010080402040810204000000000003C429F
:10292000426204080808001818000000000038443B
:102930005AAAAAAAAAAA5C423C00000000001010F1
:10294000182828243C444242E70000000000F844D4
:102950004444784442424244F800000000003E42B1
:102960004280808080804244380000000000F844AB
:102970004242424242424244F80000000000FC420F
:102980004848784848404242FC0000000000FC42B1
:102990004848784848404040E000000000003C447F
:1029A000448080808E844444380000000000E74268
:1029B0004242427E42424242E700000000007C1058
:1029C00010101010101010107C00000000003E08C5
:1029D00008080808080808080888F0000000EE4405
:1029E0004850705048484444EE0000000000E04069
:1029F0004040404040404042FE0000000000EE6C7D
:102A00006C6C6C6C54545454D60000000000C762C7
:102A10006252524A4A4A4646E200000000003844E8
:102A20008282828282828244380000000000FC425E
:102A30004242427C40404040E000000000003844F8
:102A4000828282828282B24C380600000000FC4200
:102A500042427C4848444442E300000000003E42B9
:102A600042402018040242427C0000000000FE9216
:102A70001010101010101010380000000000E74275
:102A800042424242424242423C0000000000E742D1
:102A90004244242428281810100000000000D654B6
:102AA000545454546C282828280000000000E742A1
:102AB0002424181818242442E70000000000EE44E3
:102AC00044282810101010103800000000007E84E8
:102AD0000408081020204242FC0000001E101010C4
:102AE0001010101010101010101E000000402020B8
:102AF00020101010080804040402020078080808D6
:102B000008080808080808080878000018240000C9
:102B100000000000000000000000000000000000B5
:102B200000000000000000000000FF006010000036
:102B30000000000000000000000000000000000095
:102B4000000038440C34444C36000000000000C043
:102B500040405864424242645800000000000000B7
:102B600000001C22404040221C0000000000000623
:102B700002023E42424242463B000000000000008A
:102B800000003C42427E40423C0000000000000C3D
:102B900012107C10101010107C00000000000000CB
:102BA00000003E444438403C42423C00000000C02B
:102BB00040405C6242424242E70000000000303088
:102BC00000007010101010107C00000000000C0CB1
:102BD00000001C040404040404447800000000C045
:102BE00040404E4850704844EE0000000000107015
:102BF00010101010101010107C00000000000000D9
:102C00000000FE4949494949ED000000000000006C
:102C10000000DC6242424242E70000000000000087
:102C200000003C42424242423C00000000000000E2
:102C30000000D864424242645840E00000000000B6
:102C400000001A26424242261A0207000000000035
:102C50000000EE3220202020F800000000000000DC
:102C600000003E42403C02427C00000000000000A8
:102C700010107C10101010120C000000000000005A
:102C80000000C642424242463B00000000000000F5
:102C90000000EE444428281010000000000000004E
:102CA0000000DB894A5A5424240000000000000080
:102CB00000007624181818246E00000000000000A0
:102CC0000000E742242418181010600000000000E3
:102CD00000007E44081010227E000000030404045B
:102CE0000404040804040404040300080808080891
:102CF000080808080808080808080800C02020205C
:102D0000202020102020202020C000205A04000075
:102D100000000000000000000000000000000000B3
:102D200000000000000000000000000000000000A3
:102D30000000000000000000000000000000000093
:102D40000000000000000000000000000000000083
:102D50000000000600060006000600060006000649
:102D6000000200040004000400000000000000064F
:102D70000006000600000000000000000000000641
:102D80006006600CC01980110022000000000000E5
:102D90000000000000000000000000000000000033
:102DA0000000000000000000000000000000000023
:102DB00000000008400840084008407FE07FE01025
:102DC0004010801080108010807FE07FE020802005
:102DD0008020802080000000000000000000000033
:102DE00000020002000F801AC032C033C032001A45
:102DF000000E0007000380038002C032C03AC032D8
:102E0000C012800F0002000200000000000000005D
:102E1000000000708050808900890089008A008A43
:102E2000005C0075C005400A200A20122012201202
:102E300020214021C0000000000000000000000030
:102E40000000001C00360036003600360036003424
:102E50000019E038805880CC80CC80C680C700C381
:102E60001063903CE0000000000000000000003013
:102E700000380008000800100020000000000000DA
:102E80000000000000000000000000000000000042
:102E90000000000000000000000000000000000032
:102EA0002000400080010001000200020004000434
:102EB00000040004000400040004000200020001F9
:102EC00000010000800040002000000000000040E1
:102ED00000200010000800080004000400020002A6
:102EE00000020002000200020002000400040008C8
:102EF000000800100020004000000000000000005A
:102F000000000000000000020003000200623072B6
:102F1000F00B800F807AF0623002000200020000A5
:102F200000000000000000000000000000000000A1
:102F30000000000000000000000200020002000289
:102F40000002007FF0020002000200020002000006
:102F50000000000000000000000000000000000071
:102F60000000000000000000000000000000000061
:102F70000000000000000000000000000000003021
:102F800000380008000800100020000000000000C9
:102F90000000000000000000000000000000000031
:102FA0000000007FE00000000000000000000000C2
:102FB0000000000000000000000000000000000011
:102FC0000000000000000000000000000000000001
:102FD00000000000000000000000000000000038B9
:102FE0000038003800000000000000000000000071
:102FF000200060004000C00080008001000100024D
:103000000002000600040004000800080010001080
:1030100000300020006000400000000000000000C0
:1030200000000000000F00198030C030C0606060F8
:103030006060606060606060606060606030C03090
:10304000C019800F00000000000000000000000018
:10305000000000000002003E000600060006000618
:103060000006000600060006000600060006000630
:103070000006003FC000000000000000000000004B
:1030800000000000001F00218040C060C060C00040
:10309000C0008001800300060004000800104020EA
:1030A0004060407FC0000000000000000000000001
:1030B00000000000001E006300618061800180014B
:1030C0008003000E000180008000C000C060C0606E
:1030D000C061801F00000000000000000000000030
:1030E0000000000000018001800380058005800948
:1030F0008011801180218041807FF001800180015A
:1031000080018007E00000000000000000000000D7
:1031100000000000003FC020002000200020002010
:10312000002F00318020C000C000C060C060C041DE
:103130008021801F0000000000000000000000004F
:103140000000000000078018C030C0300020006080
:1031500000678068C07060606060606060206030A0
:103160004018C00F00000000000000000000000038
:1031700000000000001FE030602040208000800040
:1031800080010001000200020002000600060006A5
:103190000006000600000000000000000000000023
:1031A00000000000001F8030C06060606060603020
:1031B0004038C00F00138030C060606060606060A5
:1031C0006030C00F80000000000000000000000020
:1031D00000000000000F00308030C0604060606080
:1031E00060606060E031601E60006000C000C03060
:1031F0008031801E00000000000000000000000080
:1032000000000000000000000000000000000007B7
:103210000007000700000000000000000000000799
:103220000007000700000000000000000000000090
:103230000000000000000000000000000000000688
:103240000006000000000000000000000000000078
:103250000006000600020004000400000000000058
:10326000000000002000400080010002000400086F
:1032700000100020001000080004000200010000FF
:10328000800040002000000000000000000000005E
:103290000000000000000000000000000000007FAF
:1032A000E00000000000007FE000000000000000DF
:1032B000000000000000000000000000000000000E
:1032C00000000020001000080004000200010000BF
:1032D000800040002000400080010002000400083F
:1032E00000100020000000000000000000000000AE
:1032F000000000000007C01860203020303030305F
:103300003000E0018002000200020000000000071F
:10331000000700070000000000000000000000009F
:10332000000000070018C0304033A026A066A0654A
:10333000A06D206D206D206D206D402780302030E5
:103340004018C00F00000000000000000000000056
:103350000000000000060006000A000B000900093A
:10336000001100118010801F8020C020C02040402C
:10337000404060F0F000000000000000000000008D
:1033800000000000007F0031C030C030C030C030CD
:10339000C031803F0030C03040306030603060303D
:1033A0006030C07F800000000000000000000000CE
:1033B000000000000007C018C030603020202060EE
:1033C000006000600060006000600060203020301D
:1033D0004018C00F000000000000000000000000C6
:1033E0000000000000FE00318030C030C03060308E
:1033F0006030603060306030603060306030C030ED
:10340000C03180FE0000000000000000000000004D
:103410000000000000FFC060C0602060206000610C
:103420000061007F00610061006100600060206059
:10343000206040FFC000000000000000000000000D
:103440000000000000FFC060C060206020600061DC
:103450000061007F00610061006100600060006049
:10346000006000F800000000000000000000000004
:1034700000000000000F0018803040304020406005
:103480000060006000600063F060C060C030C03069
:10349000C018C00F00000000000000000000000085
:1034A0000000000000F0F0606060606060606060DC
:1034B0006060607FE060606060606060606060606D
:1034C000606060F0F00000000000000000000000FC
:1034D00000000000003FC0060006000600060006CF
:1034E00000060006000600060006000600060006AC
:1034F0000006003FC00000000000000000000000C7
:1035000000000000001FE0030003000300030003AD
:103510000003000300030003000300030003000393
:103520000003000300630066003C00000000000090
:103530000000000000F3C061806300620064006866
:10354000006C0074007600620063006100618060BE
:103550008060C0F1E00000000000000000000000FA
:103560000000000000F80060006000600060006083
:10357000006000600060006000600060006020602B
:10358000206040FFC00000000000000000000000BC
:103590000000000000E0E061C061C071C071C07255
:1035A000C072C052C05AC05AC05CC04CC04CC04C63
:1035B000C048C0E1E0000000000000000000000082
:1035C000000000000071F03040384038402C402CA2
:1035D000402640264022402340214021C021C020D7
:1035E000C020C0F840000000000000000000000003
:1035F00000000000000F00198030C03040606060A3
:10360000606060606060606060606060603040303A
:10361000C019800F00000000000000000000000042
:103620000000000000FF0060C060606060606060DB
:1036300060606061C07F00600060006000600060EA
:10364000006000F800000000000000000000000022
:1036500000000000000F00198030C0304060606042
:1036600060606060606060606060606E60324033C7
:10367000C019800F0001E000C00000000000000041
:103680000000000000FF8060C060606060606060FB
:103690006060C07F00620063006100618060C060A4
:1036A000C06060F07000000000000000000000003A
:1036B00000000000001F4030C060406040600070AB
:1036C000003C001F0007C001C000E0406040606097
:1036D0006030C00F8000000000000000000000000B
:1036E00000000000007FE0462086108610060006DD
:1036F000000600060006000600060006000600069A
:103700000006001F80000000000000000000000014
:10371000000000000078E030403040304030403061
:103720004030403040304030403040304030403019
:103730004018800F000000000000000000000000A2
:103740000000000000F0E0604020802080308030E9
:103750008011001100190019000A000A000E000C67
:103760000004000400000000000000000000000051
:103770000000000000EF70462042206220622026F8
:103780004026402740274039403980198019801150
:103790008011001100000000000000000000000087
:1037A000000000000079E030801080188009000DD2
:1037B0000006000400060006000B0009001180103E
:1037C0008020C071E0000000000000000000000048
:1037D0000000000000F0F060202040304010801811
:1037E000801D000D000E0006000600060006000603
:1037F0000006001F80000000000000000000000024
:1038000000000000003FE0304060C04080018001C7
:10381000000200020004000400080018001020301C
:103820002020407FC00000000000000000000007D2
:10383000C0040004000400040004000400040004A8
:103840000004000400040004000400040004000458
:103850000004000400040007C00000000000000095
:1038600000000020002000100010000800080008E0
:103870000004000400020002000300010001000037
:103880008000800040004000400020000000003E1A
:103890000002000200020002000200020002000218
:1038A0000002000200020002000200020002000208
:1038B000000200020002003E0000000000060009B5
:1038C0000010800000000000000000000000000068
:1038D00000000000000000000000000000000000E8
:1038E00000000000000000000000000000000000D8
:1038F00000000000000000000000000000000000C8
:1039000000000000000000000000000000000000B7
:10391000000000000000000000FFF00000000018A0
:103920000006000000000000000000000000000091
:103930000000000000000000000000000000000087
:103940000000000000000000000000000000000077
:103950000000000000000000000000000000000F58
:103960008030C030C000C007C038C070C060C060C8
:10397000C071D03E70000000000000000000000098
:1039800000000010007000300030003000300033C4
:10399000803CC03860306030603060306030603013
:1039A0004038C02780000000000000000000000038
:1039B0000000000000000000000000000000000FF8
:1039C00000318031806180600060006000604030C4
:1039D0004030800F000000000000000000000000E8
:1039E000000000004003C000C000C000C000C01EB6
:1039F000C031C030C060C060C060C060C060C02066
:103A0000C031E01E80000000000000000000000047
:103A1000000000000000000000000000000000079F
:103A20008018C01040306030603FE0300030001837
:103A30002018400780000000000000000000000087
:103A4000000000000003C006600C600C000C007F4A
:103A5000800C000C000C000C000C000C000C000C86
:103A6000000C003F8000000000000000000000008B
:103A70000000000000000000000000000000000F37
:103A8000E01B6031803180318019801F0030003FA1
:103A90000033C060C060C071C01F000000000000A3
:103AA000000000100070003000300030003000379F
:103AB0008038C030C030C030C030C030C030C030BE
:103AC000C030C079E00000000000000000000000ED
:103AD0000000000000060006000000000002003E9A
:103AE00000060006000600060006000600060006A6
:103AF0000006003FC00000000000000000000000C1
:103B00000000000000038003800000000000800F20
:103B1000800180018001800180018001800180019D
:103B20008001800180018033003E00000000000021
:103B30000000001000700030003000300030003114
:103B4000C031003100320036003A0031003180309F
:103B50008030C079E000000000000000000000009C
:103B600000000002003E00060006000600060006F7
:103B70000006000600060006000600060006000615
:103B80000006003FC0000000000000000000000030
:103B9000000000000000000000000000000000EC39
:103BA000E077606660666066606660666066606654
:103BB000606660FFF00000000000000000000000F0
:103BC000000000000000000000000000000000777E
:103BD0008038C030C030C030C030C030C030C0309D
:103BE000C030C079E00000000000000000000000CC
:103BF0000000000000000000000000000000000FB6
:103C000000198030C060606060606060606060303B
:103C1000C030C00F000000000000000000000000E5
:103C2000000000000000000000000000000000771D
:103C30008038C0306030603060306030603060307C
:103C4000C038C03780300030007C00000000000029
:103C50000000000000000000000000000000001E46
:103C60004031C030C060C060C060C060C060C02073
:103C7000C031C01EC000C000C003E0000000000052
:103C8000000000000000000000000000000000F93B
:103C9000C01A601C601800180018001800180018DE
:103CA000001800FF000000000000000000000000FD
:103CB0000000000000000000000000000000000FF5
:103CC000C038C0304030401C000F0003C020C0206E
:103CD000C031C03F80000000000000000000000074
:103CE00000000000000000040004000C000C007F35
:103CF000800C000C000C000C000C000C000C000CE4
:103D0000400C4007800000000000000000000000A0
:103D100000000000000000000000000000104071E2
:103D2000C030C030C030C030C030C030C030C03013
:103D3000C039E01E8000000000000000000000000C
:103D400000000000000000000000000000000078FB
:103D5000E0304010801080188009000D000D000632
:103D60000006000400000000000000000000000049
:103D7000000000000000000000000000000000EF54
:103D8000704620622026402640374039801980192D
:103D900080198010000000000000000000000000FA
:103DA0000000000000000000000000000000003DD6
:103DB000E0188008800D00060006000700090010CA
:103DC0008010C079E000000000000000000000004A
:103DD000000000000000000000000000000000796A
:103DE000E0108010801080090009000D0006000618
:103DF0000006000400040024003800000000000059
:103E00000000000000000000000000000000003F73
:103E100080218023002200060004000C00184010BE
:103E20004030C03F800000000000000000000000A3
:103E3000C0010001000100010001000100010001BA
:103E40000002000400020001000100010001000165
:103E50000001000100010000C00000020002000299
:103E60000002000200020002000200020002000242
:103E70000002000200020002000200020002000232
:103E800000020002000200020002000000000030F8
:103E900000080008000800080008000800080008E2
:103EA00000040002000400080008000800080008E0
:103EB000000800080008003000000000003800443E
:103EC00020432001C00000000000000000000000AE
:103ED00000000000000000000000000000000000E2
:103EE00000000000000000000000000000000000D2
:103EF00000000000000000000000000000000000C2
:103F000000000000000000000000000000000000B1
:103F100000000000000000000000000000000000A1
:103F20000000000000000000000000000000000091
:103F30000000000000000003C003C003C003C00372
:103F4000C003C001C00180018001800180018001A7
:103F50008001800180000000000000018003C00398
:103F6000C00180000000000000000000000000030D
:103F700018073807380E700C6018C0318021000017
:103F80000000000000000000000000000000000031
:103F90000000000000000000000000000000000021
:103FA0000000000000000000000000000000000011
:103FB00000000000000000040804080408040804CD
:103FC000087FFE7FFE7FFE0810081008100810080A
:103FD0001008107FFE7FFE7FFE183010201020108A
:103FE0002010200000000000000000000000000081
:103FF0000000000100010003C00D30091819181954
:104000003819381D000D000F00070003C001E00142
:10401000F0013001380118391839183118313019C8
:104020006007C00100010001000000000000000066
:104030000000000000000038106C104420C620C6AC
:1040400040C640C640C680C68044806D38396C0288
:104050004402C602C604C604C608C608C608441000
:104060006C1038000000000000000000000000009C
:10407000000000000000000F001900318031803185
:10408000803180310033003A001C00387C3C104CF9
:1040900010CE10C620C720C320C1C0C1C260E63107
:1040A0007C1E380000000000000000000000003806
:1040B000003C003C000C000C0008003000600000D8
:1040C00000000000000000000000000000000000F0
:1040D00000000000000000000000000000000000E0
:1040E00000000000000000000000000000000000D0
:1040F00002000400080018003000200060004000AA
:10410000C000C00180018001800180018001800128
:10411000800180018000C000C000400060002000DD
:1041200030001800080004000200000000000040F9
:10413000002000100018000C00040006000200031C
:104140000003000180018001800180018001800165
:104150008001800180030003000300060004000CBE
:1041600000180010002000400000000000000000C7
:10417000000000000000000000000000C001C001BD
:10418000C030C6388E1C9C06B001C001C006B01CF1
:104190009C388E318601C001C001C00000000000C3
:1041A000000000000000000000000000000000000F
:1041B000000000000000000000000000000080007F
:1041C00080008000800080008000803FFE00800032
:1041D00080008000800080008000800000000000DF
:1041E00000000000000000000000000000000000CF
:1041F00000000000000000000000000000000000BF
:1042000000000000000000000000000000000000AE
:10421000000000000000000000000038003C003CEE
:10422000000C000C000800300060000000000000DE
:10423000000000000000000000000000000000007E
:1042400000000000000000000000007FFE000000F1
:10425000000000000000000000000000000000005E
:10426000000000000000000000000000000000004E
:10427000000000000000000000000000000000003E
:10428000000000000000000000000000000000002E
:10429000000000000000000000000018003C003C8E
:1042A00000180000000000000000000000000000F6
:1042B00000000200060004000C00080018001000B6
:1042C0003000200060004000C00080018001000339
:1042D000000200060004000C000800180010003066
:1042E000002000600040000000000000000000000E
:1042F0000000000000000003C006200C3018181851
:10430000181808300C300C300C300C300C300C30DD
:104310000C300C300C300C1808181818180C30061B
:104320002003C000000000000000000000000000AA
:1043300000000000000000008001801F800180015B
:104340008001800180018001800180018001800165
:104350008001800180018001800180018001800353
:10436000C01FF80000000000000000000000000076
:104370000000000000000007E008381018200C20A2
:104380000C300C300C000C001800180030006000DD
:10439000C0018003000200040408041004200C3F44
:1043A000F83FF800000000000000000000000000DE
:1043B0000000000000000007C018603030301830E6
:1043C000183018001800180030006003C00070009A
:1043D000180008000C000C300C300C300830181895
:1043E0003007C000000000000000000000000000D6
:1043F000000000000000000060006000E000E0013C
:104400006001600260046004600860086010603051
:1044100060206040607FFC00600060006000600021
:104420006003FC000000000000000000000000002D
:10443000000000000000000FFC0FFC100010001036
:104440000010001000100013E014301818100800BD
:104450000C000C000C000C300C300C20182018182C
:104460003007C00000000000000000000000000055
:104470000000000000000001E006180C18081818E1
:104480000010001000300033E036303818380830A3
:104490000C300C300C300C300C180C18080C180EAA
:1044A0003003E000000000000000000000000000F9
:1044B000000000000000001FFC1FFC10083010204E
:1044C00010202000200040004000400080008001BB
:1044D00000010001000100030003000300030003CA
:1044E00000030000000000000000000000000000C9
:1044F0000000000000000007E00C301818300C30FD
:104500000C300C380C38081E180F2007C018F0307B
:10451000783038601C600C600C600C600C3018182F
:104520003007C00000000000000000000000000094
:104530000000000000000007C01820301030186094
:1045400008600C600C600C600C600C701C302C1847
:104550006C0F8C000C0018001800103030306030E8
:10456000C00F8000000000000000000000000000FC
:10457000000000000000000000000000000000003B
:104580000000000000018003C003C00180000000A3
:104590000000000000000000000000018003C003D4
:1045A000C0018000000000000000000000000000CA
:1045B00000000000000000000000000000000000FB
:1045C0000000000000000003800380038000000062
:1045D0000000000000000000000000000003800355
:1045E0008003800180030003000000000000000041
:1045F000000000000000000004000800100020007F
:1046000040008001000200040008001000100008B3
:1046100000040002000100008000400020001000A3
:10462000080004000000000000000000000000007E
:10463000000000000000000000000000000000007A
:1046400000000000007FFE000000000000000000ED
:10465000007FFE00000000000000000000000000DD
:10466000000000000000000000000000000000004A
:1046700000000000000000200010000800040002FC
:104680000001000080004000200010000800080029
:10469000100020004000800100020004000800100B
:1046A00000200000000000000000000000000000EA
:1046B0000000000000000003E00C18180C10063089
:1046C00006380638063806000C0018007000C000D6
:1046D0008000800080008000000000018003C00393
:1046E000C001800000000000000000000000000089
:1046F0000000000000000003E006100C0818043061
:10470000D431B22132633263226622662266226687
:10471000626664666426E8333030021004180C0CBC
:104720001803E0000000000000000000000000008E
:104730000000000000000003800380038003800469
:10474000C004C004C004C00C4008600860086018C1
:10475000201FF01030103010302018201820186062
:104760001CF83E00000000000000000000000000F7
:10477000000000000000007FE018381818180C181E
:104780000C180C180C180C181818301FE0181818F2
:104790000C180418061806180618061806180C181F
:1047A000187FF00000000000000000000000000082
:1047B0000000000000000003E0061C080C18063092
:1047C0000230023000600060006000600060006045
:1047D0000060006000600030023002100418080C15
:1047E0001003E000000000000000000000000000D6
:1047F000000000000000007FC0187018181808188A
:104800000C180C18061806180618061806180618AC
:1048100006180618061804180C180C18181818187A
:10482000607FC000000000000000000000000000E9
:10483000000000000000007FFC180C18041802188B
:1048400002180018001810181018301FF01830182F
:104850001018101800180018001802180218041870
:104860000C7FFC00000000000000000000000000C1
:10487000000000000000007FFC181C18041802183B
:1048800002180018001810181018301FF0183018EF
:104890001018101810180018001800180018001828
:1048A000007E00000000000000000000000000008A
:1048B0000000000000000003C00C30081018183081
:1048C0000830082000600060006000600060006048
:1048D0007E60186018201830183018101818180C3E
:1048E0002007C000000000000000000000000000E1
:1048F00000000000000000FC3F300C300C300C3099
:104900000C300C300C300C300C300C3FFC300C30C8
:104910000C300C300C300C300C300C300C300C30B7
:104920000CFC3F0000000000000000000000000040
:10493000000000000000001FF801800180018001DC
:10494000800180018001800180018001800180015F
:10495000800180018001800180018001800180014F
:10496000801FF800000000000000000000000000B0
:104970000000000000000007FE0060006000600012
:104980006000600060006000600060006000600027
:104990006000600060006000600060006000600017
:1049A000600060706070C071803F00000000000017
:1049B000000000000000007E7C18301820186018ED
:1049C0004018801880190019001B001D801D8018D8
:1049D000C018C0186018601830183018301818182F
:1049E000187E3E00000000000000000000000000F3
:1049F000000000000000007E0018001800180018D9
:104A000000180018001800180018001800180018E6
:104A100000180018001800180018021802180418CE
:104A20000C7FFC00000000000000000000000000FF
:104A300000000000000000F00F381C381C381C3843
:104A40001C382C2C2C2C2C2C2C2C4C2C4C264C2656
:104A50004C264C268C228C238C238C230C230C215B
:104A60000CF13F000000000000000000000000000A
:104A700000000000000000F01F380438042C042C53
:104A80000426042604230423042184218420C42032
:104A9000C42064206420342034201C201C200C20DE
:104AA0000CF80400000000000000000000000000FE
:104AB0000000000000000003C00C3018181008307F
:104AC0000C300C60046006600660066006600660DC
:104AD00006600660062006300C300C100818180C12
:104AE0003003C000000000000000000000000000D3
:104AF000000000000000007FF01818180C180618BD
:104B0000061806180618061806180C18181FE018BC
:104B100000180018001800180018001800180018D5
:104B2000007E000000000000000000000000000007
:104B30000000000000000003C00C301818100830FE
:104B40000C300C6006600660066006600660066059
:104B500006600660066006278438CC386C18780C2E
:104B60007003E00032003C001C0000000000000068
:104B7000000000000000007FE018381818180C181A
:104B80000C180C180C180C181818301FE018C01846
:104B9000C0186018601860183018301830181818CD
:104BA000187E1E0000000000000000000000000051
:104BB000000000000000000FC8187830186018606E
:104BC000086008600070003C001F0007C001F00092
:104BD000780018001C400C400C600C200C30183879
:104BE0003027E0000000000000000000000000008E
:104BF000000000000000003FFC318421864182411A
:104C0000820180018001800180018001800180019A
:104C1000800180018001800180018001800180018C
:104C20008007E0000000000000000000000000001D
:104C300000000000000000FC3E3008300830083062
:104C400008300830083008300830083008300830A4
:104C50000830083008300830083008300818101CB8
:104C60002007C0000000000000000000000000005D
:104C7000000000000000007C1E180C18081808181E
:104C8000080C100C100C100C100C2006200620062E
:104C9000200640034003400340038001800180015F
:104CA0000001000000000000000000000000000003
:104CB00000000000000000F3CF61866184218420A1
:104CC0008430C431C431C431C831C811C812481A43
:104CD000681A681A701C700C700C700C300C20086C
:104CE000200820000000000000000000000000007C
:104CF000000000000000007C3E180818100C100C8A
:104D000020062006400340038001800180018001CD
:104D1000C002C00260046004700830083018181027
:104D20001C7C3E00000000000000000000000000AD
:104D3000000000000000007E3E3808180818100C23
:104D4000100C100C200620062003400340038001B5
:104D5000800180018001800180018001800180014B
:104D60008007E000000000000000000000000000DC
:104D7000000000000000001FFE1C0C180C30182062
:104D80001800300060006000C000C0018001800396
:104D9000000300060006000C00180218063004305C
:104DA0001C7FFC000000000000000000000000006C
:104DB0000003FC03000300030003000300030003DF
:104DC00000030003000300030003000300030003CB
:104DD00000030003000300030003000300030003BB
:104DE000000300030003FC000000000000000000BE
:104DF00000000000001800180008000C0004000665
:104E00000006000200030001000180018000800014
:104E1000C00040006000600030003000300018002A
:104E200018000C000C000C00060000000000000040
:104E3000003FC000C000C000C000C000C000C000F3
:104E4000C000C000C000C000C000C000C000C00062
:104E5000C000C000C000C000C000C000C000C00052
:104E6000C000C000C03FC000000000000000000300
:104E7000C003E00620081000000000000000000051
:104E80000000000000000000000000000000000022
:104E90000000000000000000000000000000000012
:104EA0000000000000000000000000000000000002
:104EB00000000000000000000000000000000000F2
:104EC00000000000000000000000000000000000E2
:104ED00000000000000000000000000000000000D2
:104EE000000000000000000000FFFF000000001EA6
:104EF000000300008000000000000000000000002F
:104F000000000000000000000000000000000000A1
:104F10000000000000000000000000000000000091
:104F20000000000000000000000000000000000081
:104F30000000000000000000000000000000000071
:104F4000000000000007E01830301830183018005A
:104F50003807D81C183018601860186018601930AD
:104F6000791F8E000000000000000000000000001B
:104F70000000000000080078001800180018001851
:104F8000001800180019E01A381C181C0C180C180E
:104F90000C180C180C180C180C180C18081C181CE1
:104FA0003013E000000000000000000000000000DE
:104FB00000000000000000000000000000000000F1
:104FC000000000000003E00E100C18181830183014
:104FD0000030003000300030003004180418080C95
:104FE0001003E000000000000000000000000000CE
:104FF00000000000000008007800180018001800E9
:10500000180018001807D80C38181818183018305D
:105010001830183018301830183018101818380C8C
:105020005E0790000000000000000000000000008B
:105030000000000000000000000000000000000070
:10504000000000000003C00C3008181808300C30B5
:105050000C300C3FFC300030003000180418080EF3
:105060001803E00000000000000000000000000045
:1050700000000000000000007C018601060306031A
:1050800000030003003FF8030003000300030003D4
:1050900000030003000300030003000300030003F8
:1050A000001FF000000000000000000000000000F1
:1050B00000000000000000000000000000000000F0
:1050C000000000000003EE0C360818181818181815
:1050D0001808180C300FE0180018001FC00FF8183F
:1050E0001C300C300C300C181807E00000000000D9
:1050F00000000000000800780018001800180018D0
:10510000001800180019E01A301C18181818181880
:10511000181818181818181818181818181818180F
:10512000187E7E000000000000000000000000006B
:1051300000000000000000018003C00180000000AA
:1051400000000000801F800180018001800180013B
:105150008001800180018001800180018001800147
:10516000801FF800000000000000000000000000A8
:10517000000000000000000038007800300000004F
:10518000000000001003F00030003000300030005C
:10519000300030003000300030003000300030008F
:1051A0003000300030186018400F80000000000010
:1051B000000000000008007800180018001800180F
:1051C0000018001800187C18301820184018801992
:1051D000801B801EC01CC0186018301830181818AA
:1051E0001C7E3E00000000000000000000000000E7
:1051F000000000000000801F80018001800180010C
:105200008001800180018001800180018001800196
:105210008001800180018001800180018001800186
:10522000801FF800000000000000000000000000E7
:10523000000000000000000000000000000000006E
:105240000000002000EF3C71C661866186618661C6
:105250008661866186618661866186618661866116
:1052600086F3CF00000000000000000000000000F6
:10527000000000000000000000000000000000002E
:10528000000000000009E07A301C181818181818DF
:10529000181818181818181818181818181818188E
:1052A000187E7E00000000000000000000000000EA
:1052B00000000000000000000000000000000000EE
:1052C000000000000003C00C3008181818100C3043
:1052D0000C300C300C300C300C300C181818180C2A
:1052E0003003C000000000000000000000000000CB
:1052F00000000000000000000000000000000000AE
:10530000000000000009E07A301C181808180C187A
:105310000C180C180C180C180C180C18181C181E4B
:105320003019E01800180018007E0000000000008E
:10533000000000000000000000000000000000006D
:10534000000000000003C80C781838181830183016
:105350001830183018301830183018101818380C49
:10536000780798001800180018007E000000000060
:10537000000000000000000000000000000000002D
:105380000000000000061C7E6606860780070006F7
:1053900000060006000600060006000600060006DD
:1053A000007FE0000000000000000000000000009E
:1053B00000000000000000000000000000000000ED
:1053C000000000000003E4061C0C0C0C040C040E8E
:1053D0000007C001F00078001C100C100C180C1C09
:1053E0001813F000000000000000000000000000A2
:1053F00000000000000000000000000100010001AA
:1054000000030007003FF80300030003000300034C
:10541000000300030003000300030003040304016E
:105420008800F00000000000000000000000000004
:10543000000000000000000000000000000000006C
:105440000000000808787818181818181818181884
:105450001818181818181818181818181818380CB8
:105460005E07900000000000000000000000000047
:10547000000000000000000000000000000000002C
:1054800000000000007C3E180C180818180C100CC6
:10549000100420062006200340034003C0018001C1
:1054A000800100000000000000000000000000007B
:1054B00000000000000000000000000000000000EC
:1054C0000000000000FBCF618621843184318431EB
:1054D000C811C81AC81A481A700E700C700C300C1B
:1054E0002004200000000000000000000000000078
:1054F00000000000000000000000000000000000AC
:1055000000000000003E7C0C100E1006200340033B
:10551000400180018001C002600460043008181856
:10552000187C7E0000000000000000000000000069
:10553000000000000000000000000000000000006B
:1055400000000000007C3E1818181008100C100411
:105550002006200620024003400140018001800116
:10556000000100010002003E003C000000000000BD
:10557000000000000000000000000000000000002B
:1055800000000000003FF830383030206020E0009C
:10559000C001800380030006000E040C04180C30C8
:1055A000183FF800000000000000000000000000AC
:1055B0000C0010002000200020002000200020000F
:1055C00020002000200020002000C00180004000BA
:1055D00020002000200020002000200020002000CB
:1055E00020002000200010000C000000800080003F
:1055F00080008000800080008000800080008000AB
:10560000800080008000800080008000800080009A
:10561000800080008000800080008000800080008A
:105620008000800080008000800080000000001862
:105630000004000200020002000200020002000258
:10564000000200020002000200018000C00100020E
:10565000000200020002000200020002000200023A
:10566000000200020004001800000000001E0023D9
:10567000004182408200E400380000000000000089
:10568000000000000000000000000000000000001A
:10569000000000000000000000000000000000000A
:1056A000000000000000000000000000CC560008D0
:1056B000000000202000000068190008EC560008D7
:1056C00020000020000800007819000800000000F9
:1056D0000000000001020304010203040607080998
:0C56E00002040608FF00000000000000AB
:0400000508000131BD
:00000001FF
