:020000040800F2
:10000000700800204901000871180008C90E000896
:100010006D180008C50A0008731F000800000000E2
:10002000000000000000000000000000651A000849
:10003000C90A0008000000000D190008311C000862
:100040006301000863010008630100086301000800
:100050006301000863010008CD0A0008630100087D
:10006000010B0008350B0008690B0008630100084C
:1000700063010008630100086301000863010008D0
:1000800063010008630100086301000863010008C0
:1000900063010008630100086301000863010008B0
:1000A00063010008630100086301000863010008A0
:1000B0006301000863010008630100086301000890
:1000C0006301000863010008630100086301000880
:1000D000630100084D1D000863010008630100086A
:1000E0006301000863010008630100086301000860
:1000F0006301000863010008630100086301000850
:10010000630100086301000863010008630100083F
:100110006301000863010008951C000863010008E2
:10012000630100086301000863010008630100081F
:10013000DFF810D000F032FC004800472D2B0008FB
:10014000AFF300807008002006488047064800474B
:10015000FEE7FEE7FEE7FEE7FEE7FEE7FEE7FEE777
:10016000FEE7FEE7351C0008310100082DE9F05FCD
:100170000546002092469B46884606468146402416
:100180001BE0284641464746224600F000FB534606
:100190005A46C01A914110D311461846224600F023
:1001A000E7FA2D1A67EB01084F462246012000218D
:1001B00000F0DEFA17EB00094E41201EA4F1010405
:1001C000DFDC484631462A464346BDE8F09FF0B49E
:1001D00080EA0102D40F4200B2EB410F02D2024684
:1001E000084611464A0042D0C30DDDB2C1F3C752E2
:1001F000AD1A202D35DAC1F3160141F4000204B125
:100200005242C5F1200602FA06F12A411044B3EB2E
:10021000D05F23D0C4B1012DA0EBC35009DCF0BCEA
:100220004FF0004202EAC352DBB200F5000000F0DA
:10023000D9BA400000F1807000EBC350A0F180708B
:1002400040EAD170490009E0490841EAC071A0EBD9
:10025000C35000F50000400800EBC350F0BC00F0B4
:10026000B8BA6142012202EB4101001BF6E7F0BC83
:10027000704781F00041AAE780F00040A7E730B462
:1002800080EA010202F0004530F0004221F0004017
:1002900013D090B1C30DD40DC2F31601C0F31600F4
:1002A000E41A41F4000140F400027D34914201D38C
:1002B000641C00E04900002C02DA30BC00207047CA
:1002C0004FF400000023914201D3891A03434008F0
:1002D0004FEA4101F7D151B1914202D14FF00041B3
:1002E00005E002D24FF0010101E06FF0010103EBE4
:1002F000C450284430BC00F06CBA2DE9FE4F804653
:1003000081EA0300C00F0C46009021F0004123F069
:100310000045B8EB0200A94105D24046214690466F
:100320001C460B46024623F00040104347D0270DE1
:10033000C7F30A00C3F30A510290401A0190402803
:100340006BDAC3F3130040F4801B0098924620B18F
:100350000023D2EB030A63EB0B0B01985946C0F163
:100360004002504600F004FA06460D4650465946F3
:10037000019A00F01CFA10EB08006141002487EAA2
:10038000115284EAE7731A4340D0009A62B3019A8B
:10039000012A4FEA075215DC001B61EB02014FF006
:1003A000004202EA0752CDE90042001C41F58011EB
:1003B00032462B4600F053FA03B0BDE8F08F4046BA
:1003C0002146F9E7001B61EB0201001C41F5801397
:1003D00000185B412018A2F5001747EB030140EA23
:1003E000D570B6196D4111E06D084FEA360645EA41
:1003F000C0754FEA0752001B61EB0201001C41F57A
:10040000801149084FEA30000019514132462B460D
:1004100003B0BDE8F04F00F013BA0098012240008D
:100420000023D0EB020263EBE073009821464FEA11
:10043000E074B8EB000061EB0401E9E783F00043EE
:100440005BE781F0004158E72DE9FE4F81EA0304A4
:1004500004F0004421F0004100944FF0000B23F021
:10046000004350EA01045ED052EA03045BD0C3F3B8
:100470000A54C1F30A552C44A4F2F3340194A0FBAE
:100480000254C1F3130141F48011C3F3130343F485
:10049000801301FB024400FB034E840A970A44EADE
:1004A000815447EA8357A4FB076802958D0A05FB30
:1004B00007854FEA932C04FB0C542705029D4FEA55
:1004C000065847EA1637B5EB08056EEB070C870EA2
:1004D000920E47EA811742EA8312A7FB0201B6EBAC
:1004E0000B0164EB00042B0D43EA0C335E1844EB64
:1004F0001C50DA465146E7FB0201C5F313044FEAEC
:100500000B3343EA14534FEA0432019C43EA0603D7
:10051000A4F10C040294009CCDE900B400F09FF912
:1005200003B0BDE8F08F00200146F9E72DE9F04D5A
:1005300081EA030404F0004B21F0004514464FF01B
:10054000000A23F0004150EA050220D054EA0102DB
:100550001DD0C5F30A570246C5F31303C1F31300B8
:10056000C1F30A5640F4801543F48013A7EB060844
:10057000101BD64608F2FD3873EB050002D308F1D4
:10058000010801E092185B41B8F1000F03DA002086
:100590000146BDE8F08D00204FF4801106468446E8
:1005A0000EE0171B73EB050705D3121B63EB050366
:1005B00006434CEA010C49084FEA300092185B41AF
:1005C00050EA0107EDD152EA030012D082EA04009A
:1005D00083EA0501084305D0101BAB4106D2012276
:1005E000002306E000224FF0004302E06FF001021A
:1005F00053101AEB06004CEB085110EB0A0041EBCC
:100600000B01BDE8F04D00F01BB9C10F80EAE070AE
:100610000844CA079623002100F0E4B80EB5C10FC4
:1006200080EAE0700844CA07002140F233438DE8B5
:100630000E000A460B4600F012F903B000BD0EB5DD
:1006400040F2334102910021CDE900110A460B46E8
:1006500000F005F903B000BD20F00040C10DC0F36B
:10066000160040F400007F2901DA00207047962927
:1006700003DCC1F19601C840704796398840704745
:10068000C1F30A5210B5C1F3130140F2FF3341F434
:1006900080119A4201DA002010BD40F233439A42A1
:1006A000A2F2334203DC524200F071F810BD9040D8
:1006B00010BDC1F30A52C1F3130140F2FF3341F4FC
:1006C00080119A4202DA00200146704740F233431B
:1006D0009A42A2F2334202DC524200F058B800F0D3
:1006E00047B8000030B5041E71F1000404DB4FF080
:1006F0000044404264EB0101141E73F1000405DB69
:100700001C464FF00043524263EB04038B4208BF88
:10071000824230BD30B5041E71F1000404DB4FF09D
:100720000044404264EB0101141E73F1000405DB38
:100730001C464FF00043524263EB0403994208BF4A
:10074000904230BD30B50B460146002020220124E6
:1007500009E021FA02F59D4205D303FA02F5491B8F
:1007600004FA02F52844151EA2F10102F1DC30BDA5
:10077000202A04DB203A00FA02F100207047914061
:10078000C2F1200320FA03F3194390407047202A56
:1007900004DB203A21FA02F00021704721FA02F32B
:1007A000D040C2F120029140084319467047202AE8
:1007B00006DBCB17203A41FA02F043EAE07306E089
:1007C00041FA02F3D040C2F1200291400843194699
:1007D00070470029A8BF7047401C490008BF20F09F
:1007E0000100704710B4B0FA80FC00FA0CF050EA37
:1007F000010404BF10BC704749B1CCF1200421FAB8
:1008000004F411FA0CF118BF012121430843A3EBB2
:100810000C01CB1D4FEA00614FEA102042BF0020BF
:1008200010BC704700EBC35010440029A4BF10BC9B
:100830007047401C490008BF20F0010010BC704701
:1008400010B5141E73F1000408DA401C41F10001D8
:1008500092185B411A4301D120F0010010BD2DE92F
:10086000F04D92469B4611B1B1FA81F202E0B0FA26
:1008700080F220329046FFF77BFF04460F4640EAA5
:100880000A0041EA0B0153465A46084313D0114669
:1008900053EA010019D0C8F140025046FFF777FF34
:1008A00005460E46504659464246FFF761FF08434B
:1008B00005D0012004E020463946BDE8F08D002037
:1008C000054346EAE0762C4337430A986305E40A79
:1008D000A0EB08000022FD0A44EA47540A3002D582
:1008E00000200146E9E7010510196941DDE90845E5
:1008F00000196941BDE8F04DA2E72DE9F04D002354
:100900001A461B1A8A4103DB00200146BDE8F08D20
:10091000C1F30A52C1F3130141F480154FF0000BEB
:10092000D10702D100186D41521E0027044640F243
:10093000FF11384601EB620A3E468046024600201F
:100940004FF48011FFF723FFC2197141BB1846EB2A
:100950000100B4EB030C75EB000C04D3E41A65EB57
:10096000000517460E46241908F101006D41804626
:100970003428E3DDF91946EB0600091BA84103D230
:100980004FF0FF32134601E0002213461BEB070035
:1009900046EB0A51BDE8F04DFFF752BF064C074D3C
:1009A00006E0E06840F0010394E80700984710343F
:1009B000AC42F6D3FFF7C0FB64660008846600080B
:1009C00010B500F03FFB10BD70B505460C4616464D
:1009D00007E029466A1C95B2C8B200F009F804F88D
:1009E000010B301EA6F101018EB2F2D170BD0000E4
:1009F00070B5054600F012FBA02000F0E1FA00F00F
:100A00007BFA0446ECB929460FA001F0B5FA284656
:100A100000F0D6FA00F070FA044694B900F0FEFA3D
:100A2000A12000F0CDFA00F067FA04464CB901208D
:100A300000F088FA0646314606A001F09DFA00F063
:100A40004AFA304670BD000061646472203D202582
:100A5000640A000064617461203D2025630A00007F
:100A600070B504460D46164606E02978E0B200F05F
:100A700009F8601C84B26D1C301EA6F101018EB213
:100A8000F3D170BD70B506460D4600F0C7FAA02040
:100A900000F096FA00F030FA044694B9304600F0BF
:100AA0008FFA00F029FA04465CB9284600F088FA6B
:100AB00000F022FA044624B900F00DFA0A2001F0F1
:100AC000F9FE70BD00BFFEE77047000010B51420AE
:100AD00001F0F0FE00BF0121074800F0E8F901280D
:100AE000F9D0142001F0E6FE012000F057F80020B4
:100AF0000249087010BD00000008014018000020E5
:100B000010B5142001F0D6FE00BF0421074800F004
:100B1000CEF90028F9D0142001F0CCFE042000F01A
:100B20003DF802200249087010BD00000018014085
:100B30001800002010B5142001F0BCFE00BF0821F1
:100B4000074800F0B4F90028F9D0142001F0B2FEF3
:100B5000082000F023F803200249087010BD0000AF
:100B6000001801401800002010B5142001F0A2FE6A
:100B700000BF1021074800F09AF90028F9D014208E
:100B800001F098FE102000F009F8042002490870D6
:100B900010BD000000180140180000200149086045
:100BA0007047000014040140002123498279002A83
:100BB0003AD00A46126803689A430B461A600A1D27
:100BC000126803689A430B1D1A60027911440A687F
:100BD00003681A430A60184A0832126803689A4385
:100BE000154B08331A601A1D126803689A43124B9A
:100BF0000C331A604279102A0ED11A1F126803684A
:100C00001A430D4B08331A601A1D126803681A4301
:100C1000094B0C331A600DE00749427911440A6808
:100C200003681A430A6005E0027911440A68036800
:100C30009A430A60704700000004014051B18200ED
:100C4000A2F1C042126842F001038200A2F1C04248
:100C5000136009E08200A2F1C0421268034B1A40FF
:100C60008300A3F1C0431A6070470000FEFF0F002D
:100C7000D0E901121143C26811430269114342696C
:100C8000114382691143C2691143026A1143426AE6
:100C90001143826A1143C26A1143026B1143026815
:100CA0009200A2F1C0421160816808290BD101684D
:100CB0008900A1F1C041096841F040020168890042
:100CC000A1F1C0410A60416B0968426B526841EA78
:100CD0000211426B926841EA0221426B928941EA19
:100CE0000241426B128A41EA0251426B127D41EA93
:100CF0000261426B926911430268521C9200A2F198
:100D0000C0421160C16AB1F5804F1BD1816B096887
:100D1000826B526841EA0211826B926841EA0221B9
:100D2000826B128A41EA0251826B127D41EA0261B2
:100D3000826B9269114302689200A2F1C042C2F82C
:100D4000041107E06FF0704201688900A1F1C04111
:100D5000C1F804217047000030B500228B071C0F3A
:100D60000F2303FA04F20B4B8C1053F824309343F7
:100D7000084C8D1044F8253023468C1053F824304D
:100D80008C07240F00FA04F42343024C8D1044F81E
:100D9000253030BD080001402DE9F0410246002514
:100DA0000026002000230024002791F803C00CF047
:100DB0000F0591F803C00CF0100CBCF1000F03D02C
:100DC00091F802C04CEA050591F800C0BCF1000F93
:100DD00031D0146800202BE04FF0010C0CFA00F326
:100DE000B1F800C00CEA03069E4220D183004FF008
:100DF0000F0C0CFA03F7BC4305FA03FC4CEA04049D
:100E000091F803C0BCF1280F06D14FF0010C0CFA89
:100E100000FCC2F814C00AE091F803C0BCF1480F0E
:100E200005D14FF0010C0CFA00FCC2F810C0401CB8
:100E30000828D1D31460B1F800C0BCF1FF0F34DD35
:100E4000546800202EE000F1080C4FF0010808FA69
:100E50000CF3B1F800C00CEA03069E4221D18300D6
:100E60004FF00F0C0CFA03F7BC4305FA03FC4CEAF5
:100E7000040491F803C0BCF1280F05D100F1080C5F
:100E800008FA0CF8C2F8148091F803C0BCF1480FBE
:100E900007D100F1080C4FF0010808FA0CF8C2F86D
:100EA0001080401C0828CED35460BDE8F081024673
:100EB000002093680B400BB1012000E00020704738
:100EC000416170470161704700BFFEE710B5022025
:100ED00001F016FD10BD10B5002000F0B3FDFFF7C6
:100EE000F5FF012000F09EFDFFF7F0FF012000F06C
:100EF000A9FDFFF7EBFF10BD70B500240025012010
:100F000000F0A0FDFFF7E2FF012000F08BFDFFF7EE
:100F1000DDFF07E0601CC4B2FA2C03DDFFF7DBFF46
:100F2000012505E080210648FFF7C1FF0028F1D127
:100F300000BF002000F076FDFFF7C8FF284670BD17
:100F4000000C014070B505460026012000F07AFD36
:100F5000002412E0012000F065FDFFF7B7FF8021BB
:100F60000B48FFF7A4FF10B180202041064300206A
:100F700000F058FDFFF7AAFF641C082CEADB15B946
:100F800000F008F801E000F038F8304670BD0000CD
:100F9000000C014010B5002000F054FDFFF796FF53
:100FA000012000F03FFDFFF791FF002000F03AFD27
:100FB000FFF78CFF012000F045FDFFF787FF10BD14
:100FC00070B50546002412E0C4F1070145FA01F1AD
:100FD00001F0010000F036FDFFF778FF012000F07E
:100FE00021FDFFF773FF002000F01CFD641C082C9E
:100FF000EADB012000F026FD70BD10B5012000F0F5
:1010000021FDFFF763FF012000F00CFDFFF75EFFFD
:10101000002000F007FDFFF759FF10BD10B50120BB
:1010200000F010FD012000F0FDFCFFF74FFF002055
:1010300000F008FDFFF74AFF002000F0F3FCFFF787
:1010400045FF10BD08B50121082000F071FC4020CB
:10105000ADF8000010208DF8030003208DF8020089
:1010600069460848FFF798FE8020ADF8000014207C
:101070008DF8030069460348FFF78EFEFFF72BFF4C
:1010800008BD0000000C01401FB50121042000F044
:101090004FFC0121402000F04BFC0121084600F0EC
:1010A00047FC1C20ADF80C0048208DF80F000320F1
:1010B0008DF80E0003A93F48FFF76EFE0120ADF842
:1010C0000C0028208DF80F0003A93B48FFF764FEB1
:1010D00000210846FFF740FE02210420FFF73CFEF6
:1010E00003210420FFF738FE04210846FFF734FEF1
:1010F0001C20019001208DF80A0000208DF80800C6
:101100000C208DF8090001A8FFF74EFD0120019089
:1011100008208DF8090001A8FFF746FD4FF4A060F4
:1011200000F0EAFB06208DF8000001208DF8030096
:1011300002208DF8010001208DF80200684600F0C1
:10114000A3FB062000F095FB08208DF8000001208D
:101150008DF8030002208DF801008DF8020068462A
:1011600000F092FB082000F084FB09208DF80000BD
:1011700001208DF8030002208DF8010003208DF876
:101180000200684600F080FB092000F072FB0A2094
:101190008DF8000001208DF8030002208DF8010079
:1011A00000208DF80200684600F06EFB0A2000F077
:1011B00060FB1FBD0018014000080140034991F980
:1011C0000000FF21014A1170704700001800002044
:1011D00000B59FB00121080200F09AFB01214FF4F5
:1011E000B47000F0A5FB0120ADF8780010208DF858
:1011F0007B0003208DF87A001EA93048FFF7CCFD54
:1012000041F20100ADF8780018208DF87B001EA98E
:101210002B48FFF7C1FD4CF23370ADF878001EA9E2
:101220002848FFF7B9FD4FF68070ADF878001EA989
:101230002548FFF7B1FD00200E9001200990002005
:1012400008900B900C900D9001200A9000200790C0
:10125000012002900020019004900590069001204A
:1012600003900020149006200F90002013901090FF
:101270004FF480401A901020129000201190199085
:101280001790159016904FF48050189008A81D9054
:1012900001A81C900FA8FFF7EBFC01210620FFF727
:1012A000CDFC01F05BFB01210448FFF70BFE4FF67C
:1012B000FF7000F00BF81FB000BD0000000C0140F3
:1012C00000200140001401400018014030B50446E0
:1012D0004FF4963540F23F130022EF21104600F004
:1012E00073F800F06CF8002203E0204600F080FA6A
:1012F000521CAA42F9D930BDF0B506460C46174635
:101300001D467019401E81B223462246304600F029
:101310005BF800F054F8002204E0384600F068FA68
:10132000501C82B2AA42F8DBF0BD70B505460C46EF
:101330001646234622462946284600F045F800F086
:101340003EF8304600F054FA70BDF0B506460C4643
:1013500017461D466019401E83B22246314630466C
:1013600000F032F800F02BF8002204E0384600F0DC
:101370003FFA501C82B2AA42F8DBF0BD2DE9F043DF
:1013800006460C4615461F46DDF81C80A81B401C6F
:10139000391B491C00FB01F93B46224629463046D1
:1013A00000F012F800F00BF802E0404600F020FADE
:1013B000B9F10000A9F10109F7D1BDE8F08300B54A
:1013C0002C2000F00FFA00BD30B504460D462A204F
:1013D00000F008FA201200F00BFAE0B200F008FA70
:1013E000281200F005FAE8B200F002FA2B2000F013
:1013F000F9F9101200F0FCF9D0B200F0F9F9181266
:1014000000F0F6F9D8B200F0F3F930BD2DE9FF4F46
:1014100082460F461646DDF83880B34606EBDB7091
:101420000AEB6000401E81B2B819401E83B23A46F2
:101430005046FFF7C9FFFFF7C2FF4FF00009102E1B
:1014400004D0182E22D0202E73D152E04FF0100974
:10145000A8F12000434900FB0914002213E014F80E
:10146000015B00230CE005F0800018B1039800F048
:10147000BFF902E00D9800F0BBF96806050E5B1C91
:10148000082BF0DB521CB242E9DB68E04FF0300978
:10149000A8F12000344900FB0914002226E014F8CA
:1014A000015B00230CE005F0800018B1039800F008
:1014B0009FF902E00D9800F09BF96806050E5B1C91
:1014C000082BF0DB14F8015B00230CE005F0800032
:1014D00018B1039800F08CF902E00D9800F088F93B
:1014E0006806050E5B1C042BF0DB521CB242D6DBF7
:1014F00035E04FF04009A8F120001C4900FB091419
:10150000002227E014F8015B00230CE005F08000C6
:1015100018B1039800F06CF902E00D9800F068F93A
:101520006806050E5B1C082BF0DB14F8015B00233A
:101530000DE012E005F0800018B1039800F058F9B2
:1015400002E00D9800F054F96806050E5B1C082BAC
:10155000F0DB521CB242D5DB01E0BDE8FF8F00BFDB
:1015600000BFFAE7E4360008D43C0008A44E0008A7
:101570002DE9FF4F89B082468B46DDE918562F468C
:10158000B046002409E0601CC4B20A220023384699
:101590004146FEF7EBFD07468846002187EA010039
:1015A00088EA01010843EED181461CE00A220023AB
:1015B00028463146FEF7DAFD30201018C1B2A4F1FA
:1015C0000100A0EB090003AA11544FF00A024FF0EA
:1015D000000328463146FEF7C9FD05460E4609F1CF
:1015E000010000F0FF09A145E0DB002003A9085538
:1015F0001698CDE9000159465046DDE90B2300F06D
:1016000003F80DB0BDE8F08F2DE9FF4F83B006461B
:101610009146DDE910BA00210C460D461CE0002180
:10162000A4FB097205FB092204FB012802220B46D8
:1016300038464146FEF79AFD801980B202901AF8AA
:101640000400CDE900B04A46069B04990298FFF7D2
:10165000DDFE641C45F100051AF804000028DED107
:1016600007B0BDE8F08F2DE9FF4F89B005460C4665
:101670001E46ADF82050A01B80B2ADF82200ADF898
:101680001C50A01980B2ADF81E00A81B80B2ADF8A6
:101690001800ADF81A40A81980B2ADF81400ADF8E2
:1016A0001640BDF8189048E006FB06F1A9EB0502CC
:1016B000A9EB050302FB1310FEF7B0FFCDE9000113
:1016C00001F0E6FA074688462046FEF7B8FF3A469C
:1016D0004346CDE90201FEF710FE8246FEF7D0FF39
:1016E00080B20490014648460B9AFFF71EFE06FBA7
:1016F00006F1A9EB0502A9EB050302FB1310FEF7A7
:101700008DFF824601F0C4FACDE902012046FEF7C2
:1017100096FFCDE90001DDE90223FEF78FFE0746C3
:10172000FEF7AEFF80B20490014648460B9AFFF7E1
:10173000FCFD09F101001FFA80F9BDF814004845CD
:10174000B2DABDF822B046E006FB06F1ABEB0402CC
:10175000ABEB040302FB1310FEF760FFCDE90001C1
:1017600001F096FA074688462846FEF768FF81464C
:101770003A464346FEF7C1FDCDE90201FEF780FF80
:1017800080B2049059460B9AFFF7CFFD06FB06F195
:10179000ABEB0402ABEB040302FB1310FEF73EFFBE
:1017A000CDE9000101F074FACDE902012846FEF707
:1017B00046FF0746DDE90223FEF740FE8146FEF7BD
:1017C0005FFF80B2049059460B9AFFF7AEFD0BF114
:1017D00001001FFA80FBBDF81E005845B4DA0DB0B9
:1017E000BDE8F08F0149088070470000FE07006CDB
:1017F00001490880704700000008006C08B501210D
:10180000482000F095F82020ADF8000010208DF859
:10181000030003208DF8020069460948FFF7BCFA6F
:1018200020210748FFF74EFB2020ADF80000694655
:101830000448FFF7B1FA20210248FFF743FB08BD37
:10184000000C01400018014070B504460D462946C1
:101850002046FFF72CFB20B929462046FFF732FB34
:1018600003E029462046FFF72BFB70BD00BFFEE7D3
:10187000704700F01F02012191404209920002F1DD
:10188000E022C2F80011704770B5002100230F223A
:10189000C47804B3154C246804F4E064C4F5E0642F
:1018A000210AC1F10403CA40447804FA03F18478A0
:1018B0001440214309010E4C0678A155047804F028
:1018C0001F050124AC4005786D11AD0005F1E02540
:1018D000C5F8004109E0047804F01F050124AC407C
:1018E000044D0678761145F8264070BD0CED00E0F9
:1018F00000E400E080E100E002490143024A116097
:10190000704700000000FA050CED00E07047000091
:1019100029B1064A52690243044B5A6104E0034A62
:1019200052698243014B5A61704700000010024027
:1019300029B1064A92690243044B9A6104E0034AC2
:1019400092698243014B9A61704700000010024087
:1019500030B500210022002400232D4D6D6805F0D4
:101960000C0121B1042905D0082923D105E0294D16
:10197000056022E0274D05601FE0254D6D6805F4E8
:101980007012234D6D6805F48034022505EB9242F8
:101990001CB9214D554305600BE01D4D6D6805F4E4
:1019A00000351DB11C4D5543056002E0194D5543EE
:1019B000056002E0174D056000BF00BF144D6D6863
:1019C00005F0F0010909154D6B5C0568DD404560C7
:1019D0000F4D6D6805F4E061090A104D6B5C4568B8
:1019E000DD4085600A4D6D6805F46051C90A0B4DF4
:1019F0006B5C4568DD40C560054D6D6805F4404190
:101A0000890B074D6B5CC568B5FBF3F5056130BD0F
:101A10000010024000127A0000093D00040000207E
:101A20001400002010B5044624B140210448FFF7FB
:101A300049FA03E040210248FFF742FA10BD0000D6
:101A4000000C014010B5044624B180210448FFF782
:101A500039FA03E080210248FFF732FA10BD000096
:101A6000000C01407047000000B587B00121042040
:101A7000FFF75EFF01218803FFF75AFF18208DF85A
:101A80001B004FF40070ADF8180003208DF81A0009
:101A900006A92148FFF780F948208DF81B004FF474
:101AA0008060ADF8180003208DF81A0006A91A48C6
:101AB000FFF772F94FF4E13002900020ADF8140006
:101AC0000C20ADF812000020ADF81000ADF80E00AB
:101AD000ADF80C0002A9114800F0D6F9012240F23D
:101AE00025510E4800F0ABF94FF4A060FFF704FF5A
:101AF00025208DF8040001208DF807008DF80500E1
:101B00008DF8060001A8FFF7BFFE0121034800F091
:101B100053F907B000BD0000000801400038014043
:101B200010B500F001F810BD0CB500200190009038
:101B30003348006840F480303149086000BF3048C5
:101B4000006800F4003000900198401C019000985B
:101B500018B90198B0F5A06FF1D12948006800F4D8
:101B6000003010B10120009001E0002000900098AA
:101B7000012843D12348006840F010002149086043
:101B80000846006820F0070008600846006840F03A
:101B9000020008601A4840681949486008464068D1
:101BA00048600846406840F48060486008464068E5
:101BB00020F47C1048600846406840F4E810486013
:101BC0000846006840F08070086000BF0C4800685C
:101BD00000F000700028F9D00948406820F00300A8
:101BE000074948600846406840F00200486000BF6E
:101BF0000348406800F00C000828F9D10CBD000033
:101C00000010024000200240042808D14FF0E021DB
:101C1000096941F004014FF0E022116107E04FF043
:101C2000E021096921F004014FF0E02211617047C1
:101C30007047000010B51348006840F001001149DA
:101C4000086008464068104908400E494860084648
:101C500000680E4908400B4908600846006820F4F7
:101C6000802008600846406820F4FE0048604FF479
:101C70001F008860FFF754FF4FF0006004490860C0
:101C800010BD0000001002400000FFF8FFFFF6FE4C
:101C900008ED00E010B50121064800F012F8012817
:101CA00007D10121034800F009F820210248FFF77D
:101CB000CBFD10BD0010004000180140CA43028255
:101CC000704730B50246002000230024158A05EA3B
:101CD0000103958905EA010413B10CB1012000E06C
:101CE000002030BD10B504462CB14FF4006105480A
:101CF000FFF7E8F804E04FF400610248FFF7E0F86E
:101D000010BD0000001C014010B504462CB14FF47A
:101D100000710548FFF7D6F804E04FF4007102485F
:101D2000FFF7CEF810BD0000001C014010B50446BE
:101D300024B102210448FFF7C5F803E0022102485C
:101D4000FFF7BEF810BD0000000C014010B514E014
:101D50000E4800F005F90E490E4A128888540D48C5
:101D60000088401C0B4908800846008840F2FF317B
:101D7000884202DB00200749088040F225510348D1
:101D800000F033F80128E3D010BD00000038014016
:101D90006C0000201A00002010B5044621460548BA
:101DA00000F0E3F800BF8021024800F011F800289D
:101DB000F9D010BD0038014021B1828942F40052AF
:101DC000828104E082894DF6FF731A408281704758
:101DD00002460020B1F5007F00D100BF13880B4000
:101DE0000BB1012000E00020704770B502460024CE
:101DF00000230025002040F66A16B14200D100BF42
:101E0000C1F3421501F01F03012606FA03F3012D69
:101E100002D19689334006E0022D02D1168A334062
:101E200001E0968A33400C12012606FA04F4168863
:101E3000344013B10CB1012000E0002070BDF0B5BA
:101E40000346002400260025002040F66A17B94208
:101E500000D100BF1846C1F3421401F01F0601274C
:101E600007FA06F5012C01D10C3004E0022C01D157
:101E7000103000E014301AB107682F43076002E009
:101E80000768AF430760F0BD2DE9F04786B005460F
:101E90000E460024A24600BFA1460027B08900B12B
:101EA00000BF2F462C8A4CF6FF700440F088044394
:101EB0002C82AC894EF6F3100440B0883189084377
:101EC000718908430443AC81AC8A4FF6FF4004405B
:101ED000B0890443AC8201A8FFF73AFD1F4887424E
:101EE00002D1DDF810A001E0DDF80CA0A88900F413
:101EF000004040B10AEBCA0000EB0A10316849000B
:101F0000B0FBF1F807E00AEBCA0000EB0A103168F9
:101F10008900B0FBF1F86420B8FBF0F0040120095F
:101F2000642101FB1089A88900F4004040B13220EF
:101F300000EBC900B0FBF1F000F00700044308E03B
:101F4000322000EB09106421B0FBF1F000F00F002B
:101F500004432C8106B0BDE8F08700000038014042
:101F600001468888C0F308007047C1F308028280E8
:101F7000704700BFFEE700000FB4054B10B503A982
:101F8000044A029800F0F4F810BC5DF814FB00005D
:101F90004D290008640000200FB4084B10B504A9B7
:101FA00002AA039800F0E4F8044602A9002000F019
:101FB00062FC204610BC5DF814FB00007728000886
:101FC00002E008C8121F08C1002AFAD17047704702
:101FD000002001E001C1121F002AFBD17047000060
:101FE0000149086070470000680000202DE9FF5F8C
:101FF00082B00021DDE90430020DDDF840B003437A
:1020000018D044F61050A2F2FF3242431514119832
:1020100001281FD0A5EB0B00401C5FEA000A4FF01F
:1020200000064E4FDFF83891B046504615D5CAF13C
:10203000000413E0119801244AA3012801D16FEA9A
:102040000B010298119AC0E90031C0E9024206B0C2
:10205000BDE8F09FCBF10000DFE704460021404AD5
:10206000491842EB0450CDE9001012E0E00707D018
:1020700032463B4640464946FEF7E6F980468946E9
:1020800032463B4610461946FEF7DEF906460F4635
:102090006410002CEAD1DDE90401DDE90023BAF186
:1020A000000F06DAFEF7D0F942464B46FEF7CCF9B0
:1020B00005E0FEF73BFA42464B46FEF737FA044688
:1020C0000E460022284BFEF725FB03D84FF0FF30C9
:1020D000014607E00022254B20463146FEF70DF968
:1020E000FEF7E7FA102409E0002C0ADB0A2200239D
:1020F000FEF73CF8039B30321A55641E50EA010289
:10210000F2D1641C039AC4F111031444119A012AF8
:1021100003D0012208430DD10AE0084304D0002077
:102120004FF0110B119072E7A3EB0B056D1E0DE044
:102130005B4504DD4FF0000205F1010504E003DA20
:102140004FF00002A5F10105002AECD00298119988
:10215000C0E90231C0E9004579E700000000144001
:102160000000F03F300000000000F0430000E03FBE
:102170002DE9FF4F95B09A46884606460025EEE1C8
:10218000252877D100242746F94A0121039400E04D
:10219000044316F8013F203B01FA03F01042F7D147
:1021A00030782A2811D06FF02F033078A0F1300258
:1021B000092A16D8039A44F0020402EB820203EBC8
:1021C00042021044761C0390EFE758F8042B039268
:1021D000002A03DA504244F40054039044F002040D
:1021E000761C30782E2816D116F8010F44F004041E
:1021F0002A280DD06FF02F023078A0F13003092B80
:1022000009D807EB870302EB4303C718761CF3E7F3
:1022100058F8047B761C30786C280FD006DC4C28EC
:1022200017D068280DD06A2814D104E0742810D083
:102230007A280FD10DE044F400140AE044F480142D
:1022400001E044F440147278824202D104F5801413
:10225000761C761C307866280BD013DC582877D093
:1022600009DC002875D04528F6D04628F4D0472848
:102270001AD193E118E0632835D0642879D0652815
:1022800012D18BE1702873D008DC6728F1D069285F
:102290006FD06E280DD06F2806D1ACE073282CD0FB
:1022A000752874D0782853D05246179990476D1CE2
:1022B00054E1C4F30250022809D003280DD0D8F805
:1022C000001004280DD00D6008F1040846E1D8F88C
:1022D0000010EA17C1E90052F6E7D8F800100D80A7
:1022E000F2E70D70F0E718F8041B8DF800100020DD
:1022F0008DF80100EB46012003E058F804BB4FF0D5
:10230000FF3061074FF0000102D40DE009F1010137
:102310008946B9420FDA8145F8DB1BF8091000291C
:10232000F4D108E009F1010189468142FADB1BF88A
:1023300009100029F6D103985346A0EB090721465E
:102340003846179A00F080FA284400EB090507E0A8
:1023500044E008E10DE01BF8010B52461799904745
:10236000B9F10109F7D2534621463846179AF2E0EF
:1023700039E00A21C4F302524FF0000B0091022A07
:1023800006D058F8040BC117032A09D00AE023E04D
:1023900008F1070020F00702F2E80201904605E08C
:1023A00000B2C117042A01D140B2C117002906DAD0
:1023B0000A460021404261EB02012D2202E0220583
:1023C00004D52B228DF80420012203E0E20701D07E
:1023D0002022F7E7914657E00A2100E010214FF054
:1023E000000B00910BE010214FF0000B44F00404AF
:1023F0000827009103E008204FF0000B0090C4F381
:102400000252022A05D058F8040B0021032A08D0F2
:1024100008E008F1070020F00702F2E80201904608
:1024200003E080B2042A00D1C0B24FF000092207B5
:102430002AD53278702A07D0DDF800C08CF0100C55
:102440005CEA0B0C05D00EE040228DF8042001223E
:1024500008E050EA010306D030238DF804308DF8EF
:10246000052002229146009B83F0080353EA0B03E8
:102470000AD150EA010201D1620705D530228DF858
:1024800004204FF001097F1E3278582A04D039A267
:102490000C920CAA02920BE03BA2F9E75B46009A71
:1024A000FDF764FE0C9B9B5C029A521E0292137015
:1024B00050EA0102F2D1029804A9081A00F1200B97
:1024C000600702D524F4803400E001275F4502DD77
:1024D000A7EB0B0000E0002000EB0B01009003983D
:1024E0004944401A0390E00306D453462146179A04
:1024F000039800F0A9F90544002706E001A8524618
:10250000C05D179990476D1C7F1C4F45F6DBE003BB
:102510000CD553462146179A039800F095F90544C7
:1025200004E030205246179990476D1C0099481ED0
:1025300000900029F5DC08E00298029952460078E4
:10254000491C0291179990476D1CBBF10001ABF13A
:10255000010BF1DC5BE100F065F90544761C307895
:1025600000287FF40DAE19B02846BDE8F08F0000BA
:102570000928010030313233343536373839616259
:10258000636465660000000030313233343536371D
:10259000383941424344454600000000600700D4FA
:1025A000062708F1070020F00700F0E80223804624
:1025B00003F0004C5FEA0C0001D097A009E0200571
:1025C00001D596A005E0E00701D095A001E0AFF2AB
:1025D0004C001390307823F0004365280CD006DCC3
:1025E000452809D046281DD047287FD13BE06628E2
:1025F00018D067287AD136E00021112F01DB112095
:1026000000E0781CCDE9000104A90CA8FFF7EEFC5E
:10261000DDE90D010C9A4FF0000B07F10109109252
:1026200000914EE04FF000400097CDE9011004A961
:102630000CA8FFF7DBFCDDE90D020C9B0F994FF0B6
:10264000000B91461093009211B9791C00EB01091F
:10265000B7EB090003D4C0F1FF3B07F10109A9EB77
:102660000700019042E0012F00DA01270021112F1D
:1026700001DD112000E03846CDE9000104A90CA8D5
:10268000FFF7B4FCDDE90D010C9A00914FF0000B4F
:10269000B946109221070FD4009A4A4503DA9146B1
:1026A00001E0A9F10109B9F1010F05DD109AA9F1C5
:1026B0000101515C3029F4D0B84202DA10F1040F64
:1026C00003DA0121CDE9011010E0002803DC834486
:1026D000A9EB000102E0411C494500DD8946A0EB61
:1026E0000B00401C01904FF000400290200705D4E1
:1026F0000198484502DB4FF0FF30019000208DF833
:102700004B0002980DF14B07B0F1004F25D002208D
:102710000C902B200D90029800280CDA4042029079
:102720002D200D9007E00A210298FEF70BF83031BA
:10273000029007F8011D0C99481E0C900029F2DC4C
:1027400002980028EFD1791E0D980870307800F0BB
:10275000200040F0450007F8020D11A8C01BC01D65
:1027600002901398007800B1012000EB0901019854
:1027700001EBE071029801440398401A401E039057
:10278000E00306D453462146179A039800F05CF8FC
:1027900005441398007818B15246179990476D1C5C
:1027A000E00323D553462146179A039800F04CF8CE
:1027B00005441BE0BBF1000F07DB0098584504DD22
:1027C0001098179910F80B0001E017993020524625
:1027D000904701980BF1010B401E05F10105019096
:1027E00004D12E205246179990476D1CB9F1000173
:1027F000A9F10109DEDC05E017F8010B5246179933
:1028000090476D1C0299481E02900029F4DC534643
:102810002146179A03989EE62D0000002B00000029
:10282000200000002DE9F041044600251E46174611
:10283000880404D405E039462020B0476D1C641E8E
:10284000F9D52846BDE8F0812DE9F0410446002580
:102850001E469046C80301D5302700E02027880493
:1028600004D505E041463846B0476D1C641EF9D5D5
:102870002846BDE8F0810A68531C0B601070704751
:1028800010B56FF00400FFF7BFF909200749087081
:102890000846007800EB4001C1EBC0104FF6FF7115
:1028A00001EAC0000249088010BD000000000020BD
:1028B000020000200146114A12884A434FF0E023EB
:1028C0005A6100229A611A46126942F001021A61A5
:1028D00000BF4FF0E022106900F001021AB100F4CD
:1028E0008032002AF5D04FF0E022126922F0010276
:1028F0004FF0E0231A6100229A6170470200002025
:102900000146114A12784A434FF0E0235A610022EF
:102910009A611A46126942F001021A6100BF4FF033
:10292000E022106900F001021AB100F48032002A9E
:10293000F5D04FF0E022126922F001024FF0E023BF
:102940001A6100229A6170470000002070B50446A9
:102950000D46E0B2FFF720FA204670BD10B51120F9
:10296000FEF740FF7820FFF7A5FF3620FEF73AFF7D
:102970000820FEF73DFF3A20FEF734FF0520FEF762
:1029800037FFB220FEF72EFF0C20FEF731FF0C20A0
:10299000FEF72EFF0020FEF72BFF3320FEF728FF67
:1029A0003320FEF725FFB720FEF71CFF3520FEF78A
:1029B0001FFFBB20FEF716FF3220FEF719FFC020D5
:1029C000FEF710FF0C20FEF713FFC220FEF70AFFF0
:1029D0000120FEF70DFFC320FEF704FF1020FEF7D5
:1029E00007FFC420FEF7FEFE2020FEF701FFC620F1
:1029F000FEF7F8FE0F20FEF7FBFED020FEF7F2FEFA
:102A0000A420FEF7F5FEA120FEF7F2FEE020FEF77F
:102A1000E9FED020FEF7ECFE0020FEF7E9FE0220E2
:102A2000FEF7E6FE0720FEF7E3FE0A20FEF7E0FED3
:102A30002820FEF7DDFE3220FEF7DAFE4420FEF706
:102A4000D7FE4220FEF7D4FE0620FEF7D1FE0E2070
:102A5000FEF7CEFE1220FEF7CBFE1420FEF7C8FED6
:102A60001720FEF7C5FEE120FEF7BCFED020FEF7E2
:102A7000BFFE0020FEF7BCFE0220FEF7B9FE0720D5
:102A8000FEF7B6FE0A20FEF7B3FE2820FEF7B0FEE2
:102A90003120FEF7ADFE5420FEF7AAFE4720FEF7D8
:102AA000A7FE0E20FEF7A4FE1C20FEF7A1FE1720B5
:102AB000FEF79EFE1B20FEF79BFE1E20FEF798FEF3
:102AC0002A20FEF78FFE0020FEF792FE0020FEF780
:102AD0008FFE0020FEF78CFEEF20FEF789FE2B20F4
:102AE000FEF780FE0020FEF783FE0020FEF780FE4A
:102AF0000120FEF77DFE3F20FEF77AFE2920FEF73B
:102B000071FE10BD1CB54FF6FF70FEF7DFFB06A08F
:102B10004FF6FF711F231022CDE900100021D820AD
:102B2000FEF772FD1CBD0000525354001CB5FFF7A8
:102B3000A7FEFEF763FEFEF7A7FAFEF795FFFEF786
:102B400047FBFDF73DFF1D49086880471CA04FF675
:102B5000FF714FF478431022CDE9001032211E207E
:102B6000FEF752FD18A04FF6FF714FF47843102284
:102B7000CDE9001046211E20FEF746FD15A04FF6B8
:102B8000FF714FF478431022CDE900105A211E2026
:102B9000FEF73AFD13A04FF6FF714FF47843102271
:102BA000CDE900106E211E20FEF72EFD40F2DC5014
:102BB000FFF780FEFFF7A6FF00F020F81C000020C2
:102BC00053544D3332000000544F55434820544570
:102BD0005354000041544F4D40414C49454E5445DB
:102BE0004B0000005072657373204B4559302074C0
:102BF0006F2041646A75737400000000002542E094
:102C0000FEF7DCFAC4B220484168002088471E481D
:102C1000808E00F40040D8B11B488089F0281ADA71
:102C20001948008CB0F5A07F15DA17488089D8289C
:102C300006DD1548008C102802DAFFF763FF0AE072
:102C4000114A118C90894FF4784200F0D1FB02E0D8
:102C50000A20FFF72FFE042C09D14FF6FF70FEF774
:102C600035FB00F03BF800F011FDFFF74BFF681C4F
:102C7000C5B2142095FBF0F100FB115018B92021CA
:102C80000248FEF7E1FDBBE71C000020000C0140FC
:102C90002DE9F04106460F46FDF72FFE041E0D46B6
:102CA00018BF0120284320F00040C0F17F6000F1F0
:102CB000E040C00F0ED0301C18BF0120384320F078
:102CC0000040C0F17F6000F1E040C00F04BF012070
:102CD000FFF786F920462946BDE8F0812DE9F04F3F
:102CE0008FB000200990089009904FF6FF70FEF712
:102CF000EDFA4FF478421421084600F096FB0020CC
:102D0000F1498886DBE1F048416801208847EE48B8
:102D1000808E00F44040B0F5804F7DD100200890B7
:102D2000E948808E20F48040E749888608468189FA
:102D30000AAA099822F82010E348018C099802EBAE
:102D4000800041800998401CC0B20990099806286B
:102D500010D2DFE800F00F03101E2D384FF6FF727F
:102D60001421084600F061FB4FF478421421DC2066
:102D700000F05BFB93E14FF6FF721421DC2000F0C2
:102D800054FB4FF478424FF49671142000F04DFB41
:102D900085E14FF6FF724FF49671142000F045FB69
:102DA0004FF478424FF49671DC2000F03EFB76E160
:102DB0004FF6FF70FEF78AFA4FF47842A021782090
:102DC00000F033FB6BE1BDF82C00BDF82810401A71
:102DD00004B2BDF83400BDF83010401A0FFA80FA82
:102DE000BDF83610BDF82E00081A0FFA80F9BDF8AC
:102DF0003200BDF82A10401A0FFA80FBE017CDE927
:102E000002404FF6FF704FF47843102200210090EB
:102E1000A020FEF7ADFB00E042E14FEAE970CDE90A
:102E200002904FF6FF704FF478431022112100906A
:102E3000A020FEF79DFB4FEAEA70CDE902A04FF615
:102E4000FF704FF47843102222210090A020FEF75B
:102E50008FFB4FEAEB70CDE902B04FF6FF704FF4F5
:102E60007843102234210090A020FEF781FB5046C9
:102E7000FDF7D4FBCDE906012046FDF7CFFBCDE9F8
:102E80000401DDE90623FDF751FB07468846584655
:102E9000FDF7C4FBCDE906014846FDF7BFFBCDE9D0
:102EA0000401DDE90623FDF741FB05460E463846E1
:102EB0004146FDF7FEFBCDE90601CDE902014FF6E3
:102EC000FF704FF47843102264210090A020FEF799
:102ED0004FFB28463146FDF7ECFBCDE90601CDE975
:102EE00002014FF6FF704FF47843102278210090D2
:102EF000A020FEF73DFB0022134638464146FDF771
:102F0000F1FB01D288F000480022134628463146E2
:102F1000FDF7E8FB01D286F000464FF066326B4BBE
:102F200038464146FDF7DEFB69D3694A694B3846AE
:102F30004146FDF7EFFB62D34FF06632634B284604
:102F40003146FDF7CFFB5AD3614A624B28463146E2
:102F5000FDF7E0FB53D30094002C01DB009801E067
:102F600000984042B0F5805F49DACDF80490B9F19D
:102F7000000F01DB019801E001984042B0F5805F4D
:102F80003DDACDF808A0BAF1000F01DB029801E0AC
:102F900002984042B0F5805F31DACDF80CB0BBF159
:102FA000000F01DB039801E003984042B0F5805F19
:102FB00025DA0494002C01DB049801E004984042D7
:102FC000E8B1CDF81490B9F1000F01DB059801E0EC
:102FD0000598404298B1CDF818A0BAF1000F01DB76
:102FE000069801E00698404248B1CDF81CB0BBF10C
:102FF000000F01DB079801E007984042A8B90020C4
:1030000009904FF6FF72A021782000F00EFA4FF4DD
:1030100078421421084600F008FA3A4643460AA8C6
:10302000CDE9005600F050F949E004EB0A00FDF745
:10303000ECFA29490790FDF722F92349886309EB47
:103040000B00FDF7E2FA25490790FDF718F91E4934
:10305000C863BDF8380000B2A1F84000BDF83A00DE
:1030600000B2A1F842004FF6FF70FEF72FF91CA046
:103070004FF6FF711F231022CDE900106E2123208F
:10308000FEF7C2FA4FF47A70FFF714FC00F0FEFA74
:103090004FF6FF70FEF71AF90FB0BDE8F08F00BFD2
:1030A0000A20FFF707FC0898401C80B20890089897
:1030B000B0F57A7F02DD00F0EFF901E000BF22E613
:1030C00000BF00BFE8E700001C0000206666EE3F7E
:1030D000CDCCCCCCCCCCF03F0000C84300000C449D
:1030E000546F7563682053637265656E2041646A2E
:1030F000757374204F4B210008B500202B4981F8CF
:103100004400084690F8440081F8440001218820DA
:10311000FEF70EFC4FF48060ADF8000048208DF8FB
:10312000030003208DF8020069462148FDF734FEB4
:103130000420ADF8000069461E48FDF72DFE4FF44F
:103140000070ADF8000010208DF8030003208DF80A
:10315000020069461648FDF71FFE0220ADF8000088
:1031600069461448FDF718FE4FF40060ADF8000002
:1031700069460F48FDF710FE0C492031A1F11400FB
:1031800000F020FAFDF71CFC00F086F908B10020E1
:1031900008BD4FF6FF70FEF799F8FFF79FFD00F0AE
:1031A00075FA00F079F90120F2E700001C00002018
:1031B000001C0140000C01402DE9F04104464FF491
:1031C00080613D48FDF773FE002853D12CB13B4987
:1031D000A1F1140000F002FA3BE03849A1F114001B
:1031E00000F0FCF9A8B3354920398989334A203ADF
:1031F000B2F84020891A08B2FDF707FA07462F48AF
:103200002038816B3846FDF73AF806462C49FCF722
:10321000DEFF0546FDF720FA284920398881098C10
:10322000264A203AB2F84220891A08B2FDF7EDF991
:10323000074622482038C16B3846FDF720F806467D
:103240002049FCF7C4FF0546FDF706FA1B49203963
:1032500008841A482038808E00F4004020BB4FF4C8
:10326000404016492039888608468189C183018CEF
:10327000418619E011482038808E00F4004040B1AA
:103280000E482038808E20F400400C492039888672
:103290000AE0002109482038C18341864FF6FF70BB
:1032A00006492039888108840448203890F8340081
:1032B0000020BDE8F0810000001C01403C0000201F
:1032C0000000F042000020432DE9F04387B0814622
:1032D00015461E46DDE90E78002430E039F824302A
:1032E000621C39A102A8FEF757FE02A84FF6FF7133
:1032F000CDE9001004EB8400A02202EB80014FF422
:10330000784310222820FEF77FF909EB84004388D8
:10331000621C2FA102A8FEF73FFE02A84FF6FF7124
:10332000CDE9001004EB8400A02202EB80014FF4F1
:10333000784310227820FEF767F9601CC4B2052C90
:10334000CCDB4FF6FF70009004EB8400A02202EB70
:1033500080011023EF222820FEF710F82A4633467A
:103360001DA102A8FEF718FE00208DF80F0002A88C
:103370004FF6FF71CDE9001004EB8400A02202EBB0
:1033800080014FF4784310222820FEF73DF93A4699
:10339000434614A102A8FEF7FFFD00208DF80F00A0
:1033A00002A84FF6FF71CDE9001004EB8400A022C3
:1033B00002EB80014FF4784310227820FEF724F9C5
:1033C00007B0BDE8F08300007825643A256400006A
:1033D0007925643A2564000070783A25302E3266EB
:1033E0000000000070793A25302E3266000000009F
:1033F00070B504460D461646324629462046FDF76E
:1034000094FF611C88B232462946FDF78EFF681C86
:1034100081B232462046FDF788FF6A1C91B2621CD9
:1034200090B23246FDF781FF70BD70B504460D467F
:103430001646A4F10C0188B2192332462946FDF73D
:103440005BFFA5F10C0081B2192332462046FDF73F
:103450007CFF6A1C91B2621C90B23246FDF765FF98
:103460006A1C91B2621E90B23246FDF75EFF6A1E80
:1034700091B2621C90B23246FDF757FF6A1E91B2BC
:10348000621E90B23246FDF750FF062332462946AF
:103490002046FEF7E8F870BD70B5084C00250C22F8
:1034A00021462820FDF790FA3420FDF7A1FA0546C1
:1034B0000A2D01D1012070BD0020FCE7540000203E
:1034C00070B5064600240020FEF730FC0020FEF711
:1034D0001BFC0020FEF706FC304600F0E5F8062055
:1034E000FFF70EFA0020FEF721FC0120FFF708FA93
:1034F0000120FEF71BFC0120FFF702FA0020FEF777
:1035000015FC002515E04FF6FF7000EA440400208A
:10351000FEF70CFC0120FFF7F3F90120FEF706FC93
:1035200004210848FDF7C3FC08B1601C84B2681C84
:10353000C5B2102DE7DB24110120FEF7D3FB204696
:1035400070BD0000000C01402DE9FE430646002737
:103550000025A846002406E03046FFF7B1FF2DF80D
:103560001400601CC4B2052CF6DB002016E0421CDF
:10357000D1B20FE03DF810203DF811309A4207DD3E
:103580003DF810703DF811202DF810202DF8117025
:103590004A1CD1B20529EDDB411CC8B20428E6DB88
:1035A000012005E03DF8101029448DB2411C88B27D
:1035B0000428F7DB032095FBF0F01FFA80F8404663
:1035C000BDE8FE8370B504460D46D020FFF7BCFF72
:1035D00020809020FFF7B8FF288070BD7FB504469B
:1035E0000D4602A903A8FFF7EDFF694601A8FFF702
:1035F000E9FFBDF80400BDF80C10884206DCBDF8F8
:103600000C10BDF80400323081420CDBBDF80C0018
:10361000BDF80410884237DCBDF80410BDF80C007A
:103620003230814230DABDF80000BDF8081088421F
:1036300006DCBDF80810BDF80000323081420CDB1A
:10364000BDF80800BDF8001088421DDCBDF8001070
:10365000BDF808003230814216DABDF80C10BDF812
:103660000420881800EBD071C1F34F012180BDF810
:103670000810BDF80020881800EBD071C1F34F018D
:103680002980012004B070BD0020FBE710B5054C77
:103690000C2221462820FDF7E3F90A213420FDF70A
:1036A000F1F910BD5400002070B50446002516E065
:1036B00004F0800018B10120FEF726FB02E0002094
:1036C000FEF722FB6006040E0020FEF72FFB012010
:1036D000FFF716F90120FEF729FB681CC5B2082D7B
:1036E000E6DB70BD000000000000000000000000EC
:1036F000000000000000001010101010101000005A
:1037000010100000001224244800000000000000F7
:10371000000000000000001212127E2424247E24E7
:10372000242400000000083C4A4A48380C0A0A4A8F
:103730004A3C080800000044A4A8A8B0541A2A2A49
:103740004A44000000000030484848506EA4949855
:10375000897600000060202040000000000000008A
:1037600000000000000204080810101010101008DB
:10377000080402000040201010080808080808107B
:1037800010204000000000001010D63838D610106D
:103790000000000000000000000808087F0808087A
:1037A0000000000000000000000000000000000019
:1037B0006020204000000000000000007E000000AB
:1037C00000000000000000000000000000000000F9
:1037D00060600000000002040404080810101020BB
:1037E000204040000000001824424242424242422F
:1037F0002418000000000008380808080808080815
:10380000083E00000000003C424242020408102032
:10381000427E00000000003C4242020418040242C2
:10382000423C0000000000040C0C142424447F04DB
:10383000041F00000000007E404040784402024225
:1038400044380000000000182440405C62424242BC
:10385000221C00000000007E420404080810101022
:10386000101000000000003C424242241824424252
:10387000423C00000000003844424242463A020204
:1038800024180000000000000000181800000000CC
:1038900018180000000000000000001000000000E8
:1038A0000010101000000002040810204020100832
:1038B000040200000000000000007E00007E000006
:1038C000000000000000004020100804020408105E
:1038D000204000000000003C42426204080808004A
:1038E0001818000000000038445AAAAAAAAAAA5C24
:1038F000423C00000000001010182828243C4442DC
:1039000042E70000000000F8444444784442424248
:1039100044F800000000003E4242808080808042E7
:1039200044380000000000F8444242424242424211
:1039300044F80000000000FC4248487848484042F3
:1039400042FC0000000000FC4248487848484040E3
:1039500040E000000000003C44448080808E8444AD
:1039600044380000000000E7424242427E424242A8
:1039700042E700000000007C101010101010101022
:10398000107C00000000003E08080808080808082D
:10399000080888F0000000EE444850705048484441
:1039A00044EE0000000000E0404040404040404005
:1039B00042FE0000000000EE6C6C6C6C6C545454C1
:1039C00054D60000000000C7626252524A4A4A467A
:1039D00046E20000000000384482828282828282B5
:1039E00044380000000000FC424242427C4040401B
:1039F00040E000000000003844828282828282B26D
:103A00004C380600000000FC4242427C48484444D6
:103A100042E300000000003E4242402018040242FF
:103A2000427C0000000000FE9210101010101010D8
:103A300010380000000000E7424242424242424247
:103A4000423C0000000000E7424244242428281899
:103A500010100000000000D654545454546C282810
:103A600028280000000000E7422424181818242405
:103A700042E70000000000EE444428281010101017
:103A8000103800000000007E840408081020204246
:103A900042FC0000001E101010101010101010102A
:103AA00010101E00000040202020101010080804F4
:103AB0000404020200780808080808080808080832
:103AC0000808780000182400000000000000000032
:103AD00000000000000000000000000000000000E6
:103AE000000000FF00601000000000000000000067
:103AF000000000000000000000000038440C3444C6
:103B00004C36000000000000C04040586442424271
:103B100064580000000000000000001C22404040EB
:103B2000221C0000000000000602023E4242424207
:103B3000463B0000000000000000003C42427E4086
:103B4000423C0000000000000C12107C101010100D
:103B5000107C0000000000000000003E444438409B
:103B60003C42423C00000000C040405C6242424295
:103B700042E700000000003030000070101010100C
:103B8000107C00000000000C0C00001C0404040465
:103B90000404447800000000C040404E4850704883
:103BA00044EE0000000000107010101010101010F3
:103BB000107C000000000000000000FE4949494957
:103BC00049ED000000000000000000DC62424242BB
:103BD00042E70000000000000000003C4242424278
:103BE000423C000000000000000000D86442424255
:103BF000645840E0000000000000001A26424242E3
:103C0000261A020700000000000000EE32202020EB
:103C100020F80000000000000000003E42403C028E
:103C2000427C0000000000000010107C10101010FA
:103C3000120C000000000000000000C64242424298
:103C4000463B000000000000000000EE444428282D
:103C50001010000000000000000000DB894A5A54E8
:103C6000242400000000000000000076241818182A
:103C7000246E000000000000000000E74224241829
:103C800018101060000000000000007E44081010B2
:103C9000227E000000030404040404040804040455
:103CA00004040300080808080808080808080808A9
:103CB0000808080800C020202020202010202020F4
:103CC0002020C000205A0400000000000000000076
:103CD00000000000000000000000000000000000E4
:103CE00000000000000000000000000000000000D4
:103CF00000000000000000000000000000000000C4
:103D000000000000000000000000000006000600A7
:103D1000060006000600060006000200040004007B
:103D2000040000000000000006000600060000007D
:103D30000000000000000000066006600CC0198052
:103D40001100220000000000000000000000000040
:103D50000000000000000000000000000000000063
:103D600000000000000000000000000008400840C3
:103D7000084008407FE07FE01040108010801080F5
:103D800010807FE07FE02080208020802080000065
:103D900000000000000000000000020002000F8090
:103DA0001AC032C033C032001A000E000700038070
:103DB000038002C032C03AC032C012800F0002003D
:103DC0000200000000000000000000007080508031
:103DD0008900890089008A008A005C0075C005405E
:103DE0000A200A20122012201220214021C00000A7
:103DF0000000000000000000000000001C00360071
:103E00003600360036003600340019E0388058801D
:103E1000CC80CC80C680C700C31063903CE000001B
:103E2000000000000000000030003800080008001A
:103E30001000200000000000000000000000000052
:103E40000000000000000000000000000000000072
:103E50000000000000000000002000400080010081
:103E60000100020002000400040004000400040039
:103E70000400040002000200010001000080004074
:103E8000002000000000000040002000100008009A
:103E90000800040004000200020002000200020008
:103EA00002000200040004000800080010002000C6
:103EB00040000000000000000000000000000000C2
:103EC000020003000200623072F00B800F807AF073
:103ED000623002000200020000000000000000004A
:103EE00000000000000000000000000000000000D2
:103EF0000000020002000200020002007FF0020047
:103F000002000200020002000000000000000000A9
:103F100000000000000000000000000000000000A1
:103F20000000000000000000000000000000000091
:103F30000000000000000000300038000800080009
:103F40001000200000000000000000000000000041
:103F50000000000000000000000000007FE0000002
:103F60000000000000000000000000000000000051
:103F70000000000000000000000000000000000041
:103F80000000000000000000000000000000000031
:103F90000000000000000000380038003800000079
:103FA000000000000000000000200060004000C091
:103FB00000800080010001000200020006000400F1
:103FC000040008000800100010003000200060000D
:103FD00040000000000000000000000000000F0092
:103FE000198030C030C06060606060606060606098
:103FF00060606060606030C030C019800F000000F9
:1040000000000000000000000000000000000200AE
:104010003E00060006000600060006000600060038
:104020000600060006000600060006003FC000006D
:1040300000000000000000000000000000001F0061
:10404000218040C060C060C000C0008001800300CB
:104050000600040008001040204060407FC00000BF
:1040600000000000000000000000000000001E0032
:104070006300618061800180018003000E00018087
:10408000008000C000C060C060C061801F000000F0
:10409000000000000000000000000000000001809F
:1040A00001800380058005800980118011802180B6
:1040B00041807FF0018001800180018007E00000E5
:1040C00000000000000000000000000000003FC0F1
:1040D000200020002000200020002F00318020C080
:1040E00000C000C060C060C0418021801F0000008F
:1040F0000000000000000000000000000000078039
:1041000018C030C0300020006000678068C0706058
:104110006060606060602060304018C00F00000088
:1041200000000000000000000000000000001FE090
:1041300030602040208000800080010001000200EB
:10414000020002000600060006000600060000004D
:1041500000000000000000000000000000001F80C0
:1041600030C0606060606060304038C00F00138015
:1041700030C0606060606060606030C00F800000D0
:1041800000000000000000000000000000000F0020
:10419000308030C0604060606060606060E03160CE
:1041A0001E60006000C000C0308031801E00000032
:1041B00000000000000000000000000000000000FF
:1041C00000000000000000000700070007000000DA
:1041D00000000000000000000700070007000000CA
:1041E00000000000000000000000000000000000CF
:1041F00000000000000000000600060000000000B3
:1042000000000000000000000000060006000200A0
:104210000400040000000000000000000020004036
:1042200000800100020004000800100020001000BF
:10423000080004000200010000800040002000008F
:10424000000000000000000000000000000000006E
:1042500000000000000000007FE0000000000000FF
:104260007FE00000000000000000000000000000EF
:10427000000000000000000000000000200010000E
:1042800008000400020001000080004000200040FF
:10429000008001000200040008001000200000005F
:1042A000000000000000000000000000000007C047
:1042B0001860203020303030303000E001800200C3
:1042C00002000200000000000700070007000000D5
:1042D000000000000000000000000000070018C0FF
:1042E000304033A026A066A065A06D206D206D2013
:1042F0006D206D4027803020304018C00F00000036
:1043000000000000000000000000000000000600A7
:1043100006000A000B00090009001100118010803E
:104320001F8020C020C0204040404060F0F00000CE
:1043300000000000000000000000000000007F00FE
:1043400031C030C030C030C030C031803F0030C0DC
:104350003040306030603060306030C07F800000BE
:10436000000000000000000000000000000007C086
:1043700018C03060302020206000600060006000C5
:104380006000600060203020304018C00F00000046
:104390000000000000000000000000000000FE001F
:1043A000318030C030C030603060306030603060AC
:1043B00030603060306030C030C03180FE000000BE
:1043C0000000000000000000000000000000FFC02E
:1043D00060C0602060206000610061007F006100BB
:1043E000610061006000602060206040FFC000004C
:1043F0000000000000000000000000000000FFC0FE
:1044000060C0602060206000610061007F0061008A
:10441000610061006000600060006000F800000062
:1044200000000000000000000000000000000F007D
:104430001880304030402040600060006000600024
:1044400063F060C060C030C030C018C00F00000012
:104450000000000000000000000000000000F0F07C
:104460006060606060606060606060607FE06060AD
:10447000606060606060606060606060F0F00000DC
:1044800000000000000000000000000000003FC02D
:1044900006000600060006000600060006000600EC
:1044A0000600060006000600060006003FC00000E9
:1044B00000000000000000000000000000001FE0FD
:1044C00003000300030003000300030003000300D4
:1044D0000300030003000300030003000300630064
:1044E00066003C0000000000000000000000F3C077
:1044F000618063006200640068006C0074007600F4
:104500006200630061006180608060C0F1E00000D3
:104510000000000000000000000000000000F800A3
:10452000600060006000600060006000600060008B
:10453000600060006000602060206040FFC00000FC
:104540000000000000000000000000000000E0E0AB
:1045500061C061C071C071C072C072C052C05AC027
:104560005AC05CC04CC04CC04CC048C0E1E0000028
:10457000000000000000000000000000000071F0DA
:104580003040384038402C402C40264026402240C5
:104590002340214021C021C020C020C0F84000009D
:1045A00000000000000000000000000000000F00FC
:1045B000198030C030406060606060606060606042
:1045C000606060606060304030C019800F000000A3
:1045D0000000000000000000000000000000FF00DC
:1045E00060C06060606060606060606061C07F004B
:1045F000600060006000600060006000F800000083
:1046000000000000000000000000000000000F009B
:10461000198030C0304060606060606060606060E1
:10462000606060606E60324033C019800F0001E04E
:1046300000C0000000000000000000000000FF803B
:1046400060C0606060606060606060C07F00620049
:1046500063006100618060C060C06060F070000055
:1046600000000000000000000000000000001F40EB
:1046700030C060406040600070003C001F0007C018
:1046800001C000E040604060606030C00F8000000A
:1046900000000000000000000000000000007FE0BB
:1046A000462086108610060006000600060006005A
:1046B0000600060006000600060006001F80000037
:1046C000000000000000000000000000000078E092
:1046D000304030403040304030403040304030405A
:1046E0003040304030403040304018800F000000F3
:1046F0000000000000000000000000000000F0E0EA
:10470000604020802080308030801100110019002E
:1047100019000A000A000E000C000400040000004A
:104720000000000000000000000000000000EF702A
:104730004620422062206220264026402740274013
:104740003940398019801980118011001100000052
:10475000000000000000000000000000000079E000
:1047600030801080188009000D000600040006004B
:1047700006000B0009001180108020C071E00000CD
:104780000000000000000000000000000000F0F049
:10479000602020403040108018801D000D000E0069
:1047A0000600060006000600060006001F80000046
:1047B00000000000000000000000000000003FE0DA
:1047C000304060C04080018001000200020004000F
:1047D0000400080018001020302020407FC0000096
:1047E000000000000000000007C0040004000400F6
:1047F0000400040004000400040004000400040099
:104800000400040004000400040004000400040088
:1048100007C0000000000000000000002000200091
:104820001000100008000800080004000400020046
:1048300002000300010001000080008000400040F1
:1048400000400020000000003E00020002000200C4
:104850000200020002000200020002000200020048
:104860000200020002000200020002000200020038
:104870003E0000000000060009001080000000005B
:104880000000000000000000000000000000000028
:104890000000000000000000000000000000000018
:1048A0000000000000000000000000000000000008
:1048B00000000000000000000000000000000000F8
:1048C00000000000000000000000000000000000E8
:1048D0000000FFF0000000001800060000000000CB
:1048E00000000000000000000000000000000000C8
:1048F00000000000000000000000000000000000B8
:1049000000000000000000000000000000000000A7
:1049100000000000000000000F8030C030C000C068
:1049200007C038C070C060C060C071D03E70000069
:1049300000000000000000000000000010007000F7
:10494000300030003000300033803CC038603060D0
:104950003060306030603060304038C02780000008
:104960000000000000000000000000000000000047
:1049700000000000000000000F00318031806180E5
:104980006000600060006040304030800F00000038
:10499000000000000000000000000000004003C014
:1049A00000C000C000C000C01EC031C030C060C028
:1049B00060C060C060C060C020C031E01E800000E8
:1049C00000000000000000000000000000000000E7
:1049D0000000000000000000078018C01040306098
:1049E00030603FE0300030001820184007800000A1
:1049F000000000000000000000000000000003C0F4
:104A000006600C600C000C007F800C000C000C0099
:104A10000C000C000C000C000C000C003F8000008F
:104A20000000000000000000000000000000000086
:104A300000000000000000000FE01B6031803180AA
:104A4000318019801F0030003F0033C060C060C05B
:104A500071C01F0000000000000000001000700086
:104A60003000300030003000378038C030C030C0F7
:104A700030C030C030C030C030C030C079E000003D
:104A80000000000000000000000000000000060020
:104A900006000000000002003E00060006000600BE
:104AA0000600060006000600060006003FC00000E3
:104AB0000000000000000000000000000000038073
:104AC00003800000000000800F80018001800180D1
:104AD00001800180018001800180018001800180CE
:104AE00033003E00000000000000000010007000D5
:104AF000300030003000300031C031003100320071
:104B000036003A0031003180308030C079E000005A
:104B100000000000000000000000000002003E0055
:104B20000600060006000600060006000600060055
:104B30000600060006000600060006003FC0000052
:104B40000000000000000000000000000000000065
:104B50000000000000000000ECE077606660666026
:104B6000666066606660666066606660FFF00000B2
:104B70000000000000000000000000000000000035
:104B80000000000000000000778038C030C030C056
:104B900030C030C030C030C030C030C079E000001C
:104BA0000000000000000000000000000000000005
:104BB00000000000000000000F00198030C060609D
:104BC000606060606060606030C030C00F000000F6
:104BD00000000000000000000000000000000000D5
:104BE0000000000000000000778038C030603060B6
:104BF000306030603060306030C038C037803000A6
:104C000030007C00000000000000000000000000F8
:104C100000000000000000001E4031C030C060C035
:104C200060C060C060C060C020C031C01EC000C095
:104C300000C003E0000000000000000000000000D1
:104C40000000000000000000F9C01A601C6018009D
:104C5000180018001800180018001800FF000000C5
:104C60000000000000000000000000000000000044
:104C700000000000000000000FC038C0304030408D
:104C80001C000F0003C020C020C031C03F800000C6
:104C90000000000000000000000000000000000014
:104CA000040004000C000C007F800C000C000C00C1
:104CB0000C000C000C000C000C400C4007800000A5
:104CC00000000000000000000000000000000000E4
:104CD000000000000000104071C030C030C030C083
:104CE00030C030C030C030C030C039E01E8000005D
:104CF00000000000000000000000000000000000B4
:104D0000000000000000000078E0304010801080BB
:104D1000188009000D000D000600060004000000C8
:104D20000000000000000000000000000000000083
:104D30000000000000000000EF70462062202640C6
:104D400026403740398019801980198010000000F2
:104D50000000000000000000000000000000000053
:104D600000000000000000003DE0188008800D00F9
:104D70000600060007000900108010C079E000005E
:104D80000000000000000000000000000000000023
:104D9000000000000000000079E01080108010800A
:104DA000090009000D0006000600060004000400CA
:104DB0002400380000000000000000000000000097
:104DC00000000000000000003F802180230022003E
:104DD000060004000C001840104030C03F80000066
:104DE000000000000000000000C001000100010000
:104DF00001000100010001000100020004000200A6
:104E0000010001000100010001000100010001009A
:104E100000C00000020002000200020002000200C6
:104E20000200020002000200020002000200020072
:104E30000200020002000200020002000200020062
:104E40000200020000000000300008000800080016
:104E50000800080008000800080004000200040020
:104E60000800080008000800080008000800080002
:104E700030000000000038004420432001C0000042
:104E80000000000000000000000000000000000022
:104E90000000000000000000000000000000000012
:104EA0000000000000000000000000000000000002
:104EB00000000000000000000000000000000000F2
:104EC00000000000000000000000000000000000E2
:104ED00000000000000000000000000000000000D2
:104EE00000000000000000000000000000000000C2
:104EF00003C003C003C003C003C003C001C00180DE
:104F0000018001800180018001800180018000001A
:104F100000000000018003C003C001800000000009
:104F200000000000000000000318073807380E706A
:104F30000C6018C03180210000000000000000005B
:104F40000000000000000000000000000000000061
:104F50000000000000000000000000000000000051
:104F60000000000000000000000000000000000041
:104F7000040804080408040804087FFE7FFE7FFE7E
:104F80000810081008100810081008107FFE7FFE97
:104F90007FFE18301020102010201020000000008C
:104FA00000000000000000000000000001000100FF
:104FB00003C00D3009181918193819381D000D00D3
:104FC0000F00070003C001E001F0013001380118B3
:104FD0003918391831183130196007C00100010043
:104FE00001000000000000000000000000000000C0
:104FF00038106C104420C620C640C640C640C6804B
:10500000C68044806D38396C024402C602C604C6AC
:1050100004C608C608C60844106C1038000000001A
:105020000000000000000000000000000000000080
:105030000F00190031803180318031803100330020
:105040003A001C00387C3C104C10CE10C620C72003
:10505000C320C1C0C1C260E6317C1E380000000020
:10506000000000000000000038003C003C000C0084
:105070000C0008003000600000000000000000008C
:105080000000000000000000000000000000000020
:105090000000000000000000000000000000000010
:1050A00000000000000000000002000400080018DA
:1050B000003000200060004000C000C0018001807E
:1050C000018001800180018001800180018000C099
:1050D00000C00040006000200030001800080004FC
:1050E0000002000000000000400020001000180036
:1050F0000C00040006000200030003000180018090
:105100000180018001800180018001800180030015
:1051100003000300060004000C001800100020002B
:10512000400000000000000000000000000000003F
:105130000000000000C001C001C030C6388E1C9CB9
:1051400006B001C001C006B01C9C388E318601C07B
:1051500001C001C0000000000000000000000000CD
:10516000000000000000000000000000000000003F
:1051700000000000000000800080008000800080AF
:10518000008000803FFE0080008000800080008062
:10519000008000800000000000000000000000000F
:1051A00000000000000000000000000000000000FF
:1051B00000000000000000000000000000000000EF
:1051C00000000000000000000000000000000000DF
:1051D0000000000038003C003C000C000C000800FF
:1051E000300060000000000000000000000000002F
:1051F00000000000000000000000000000000000AF
:10520000000000007FFE0000000000000000000021
:10521000000000000000000000000000000000008E
:10522000000000000000000000000000000000007E
:10523000000000000000000000000000000000006E
:10524000000000000000000000000000000000005E
:105250000000000018003C003C00180000000000A6
:105260000000000000000000000000020006000432
:10527000000C000800180010003000200060004002
:1052800000C000800180010003000200060004004D
:105290000C000800180010003000200060004000E2
:1052A00000000000000000000000000000000000FE
:1052B00003C006200C30181818181808300C300CD1
:1052C000300C300C300C300C300C300C300C300CFE
:1052D0001808181818180C30062003C00000000029
:1052E00000000000000000000000000000000000BE
:1052F000008001801F800180018001800180018089
:105300000180018001800180018001800180018095
:10531000018001800180018003C01FF800000000AF
:10532000000000000000000000000000000000007D
:1053300007E008381018200C200C300C300C000C42
:10534000001800180030006000C001800300020057
:10535000040408041004200C3FF83FF8000000008B
:10536000000000000000000000000000000000003D
:1053700007C0186030303018301830180018001886
:105380000030006003C0007000180008000C000C22
:10539000300C300C30083018183007C00000000006
:1053A00000000000000000000000000000000000FD
:1053B0000060006000E000E00160016002600460E5
:1053C00004600860086010603060206040607FFC0E
:1053D0000060006000600060006003FC00000000EE
:1053E00000000000000000000000000000000000BD
:1053F0000FFC0FFC10001000100010001000100037
:1054000013E0143018181008000C000C000C000CED
:10541000300C300C20182018183007C00000000095
:10542000000000000000000000000000000000007C
:1054300001E006180C1808181800100010003000C1
:1054400033E0363038183808300C300C300C300C63
:10545000300C180C18080C180E3003E00000000087
:10546000000000000000000000000000000000003C
:105470001FFC1FFC100830102010202000200040CE
:105480000040004000800080010001000100010098
:1054900003000300030003000300030000000000FA
:1054A00000000000000000000000000000000000FC
:1054B00007E00C301818300C300C300C380C380861
:1054C0001E180F2007C018F030783038601C600CB0
:1054D000600C600C600C3018183007C00000000031
:1054E00000000000000000000000000000000000BC
:1054F00007C01820301030186008600C600C600C79
:10550000600C600C701C302C186C0F8C000C001898
:10551000001800103030306030C00F8000000000F4
:10552000000000000000000000000000000000007B
:1055300000000000000000000000000000000180EA
:1055400003C003C001800000000000000000000054
:1055500000000000018003C003C0018000000000C3
:10556000000000000000000000000000000000003B
:10557000000000000000000000000000000000002B
:105580000380038003800000000000000000000092
:1055900000000000000003800380038001800300FE
:1055A00003000000000000000000000000000000F8
:1055B00000040008001000200040008001000200EC
:1055C00004000800100010000800040002000100A0
:1055D00000800040002000100008000400000000CF
:1055E00000000000000000000000000000000000BB
:1055F00000000000000000000000000000007FFE2E
:10560000000000000000000000007FFE000000001D
:10561000000000000000000000000000000000008A
:10562000000000000000000000000000000000007A
:10563000200010000800040002000100008000406B
:10564000002000100008000800100020004000802A
:10565000010002000400080010002000000000000B
:10566000000000000000000000000000000000003A
:1056700003E00C18180C10063006380638063806F9
:10568000000C0018007000C00080008000800080C6
:1056900000000000018003C003C001800000000082
:1056A00000000000000000000000000000000000FA
:1056B00003E006100C08180430D431B221326332F2
:1056C000632266226622662266626664666426E853
:1056D000333030021004180C0C1803E000000000F6
:1056E00000000000000000000000000000000000BA
:1056F000038003800380038004C004C004C004C08E
:105700000C4008600860086018201FF0103010304E
:105710001030201820182018601CF83E00000000EF
:105720000000000000000000000000000000000079
:105730007FE018381818180C180C180C180C180CD6
:10574000181818301FE01818180C18041806180636
:10575000180618061806180C18187FF0000000002C
:105760000000000000000000000000000000000039
:1057700003E0061C080C18063002300230006000FE
:105780006000600060006000600060006000600019
:1057900030023002100418080C1003E00000000072
:1057A00000000000000000000000000000000000F9
:1057B0007FC0187018181808180C180C180618064E
:1057C00018061806180618061806180618061804EB
:1057D000180C180C1818181818607FC0000000006A
:1057E00000000000000000000000000000000000B9
:1057F0007FFC180C18041802180218001800181062
:10580000181018301FF01830181018101800180051
:105810001800180218021804180C7FFC0000000081
:105820000000000000000000000000000000000078
:105830007FFC181C18041802180218001800181011
:10584000181018301FF01830181018101810180001
:10585000180018001800180018007E000000000052
:105860000000000000000000000000000000000038
:1058700003C00C30081018183008300820006000F1
:105880006000600060006000607E60186018201892
:1058900030183018101818180C2007C0000000002D
:1058A00000000000000000000000000000000000F8
:1058B000FC3F300C300C300C300C300C300C300C09
:1058C000300C300C3FFC300C300C300C300C300CF9
:1058D000300C300C300C300C300CFC3F0000000061
:1058E00000000000000000000000000000000000B8
:1058F0001FF801800180018001800180018001800A
:10590000018001800180018001800180018001808F
:10591000018001800180018001801FF800000000EB
:105920000000000000000000000000000000000077
:1059300007FE0060006000600060006000600060C2
:105940000060006000600060006000600060006057
:10595000006000600060006000600060706070C007
:1059600071803F0000000000000000000000000007
:105970007E7C183018201860184018801880190094
:1059800019001B001D801D8018C018C01860186009
:10599000183018301830181818187E3E0000000013
:1059A00000000000000000000000000000000000F7
:1059B0007E001800180018001800180018001800C1
:1059C0001800180018001800180018001800180017
:1059D0001800180218021804180C7FFC00000000C0
:1059E00000000000000000000000000000000000B7
:1059F000F00F381C381C381C381C382C2C2C2C2C44
:105A00002C2C2C4C2C4C264C264C264C268C228C98
:105A1000238C238C230C230C210CF13F000000006D
:105A20000000000000000000000000000000000076
:105A3000F01F380438042C042C0426042604230404
:105A400023042184218420C420C4206420642034C1
:105A50002034201C201C200C200CF8040000000026
:105A60000000000000000000000000000000000036
:105A700003C00C3018181008300C300C600460069D
:105A80006006600660066006600660066006200626
:105A9000300C300C100818180C3003C00000000047
:105AA00000000000000000000000000000000000F6
:105AB0007FF01818180C180618061806180618068D
:105AC0001806180C18181FE0180018001800180005
:105AD000180018001800180018007E0000000000D0
