:020000040800F2
:10000000A8F3002049010008B11A0008BD0F00083C
:10001000AD1A0008B90B0008132300080000000007
:10002000000000000000000000000000C51C0008E7
:10003000BD0B0008000000004D1B0008951E0008C5
:100040006301000863010008630100086301000800
:100050006301000863010008C10B00086301000888
:10006000F50B0008290C00085D0C0008630100086E
:1000700063010008630100086301000863010008D0
:1000800063010008630100086301000863010008C0
:1000900063010008630100086301000863010008B0
:1000A00063010008630100086301000863010008A0
:1000B0006301000863010008630100086301000890
:1000C0006301000863010008630100086301000880
:1000D00063010008ED2000086301000863010008C7
:1000E0006301000863010008630100086301000860
:1000F0006301000863010008630100086301000850
:10010000630100086301000863010008630100083F
:100110006301000863010008F91E0008630100087C
:10012000630100086301000863010008630100081F
:10013000DFF810D000F082FC0048004765B90208E3
:10014000AFF30080A8F30020064880470648004728
:10015000FEE7FEE7FEE7FEE7FEE7FEE7FEE7FEE777
:10016000FEE7FEE7991E0008310100082DE9F05F67
:100170000546002092469B46884606468146402416
:100180001BE0284641464746224600F050FB5346B6
:100190005A46C01A914110D311461846224600F023
:1001A00037FB2D1A67EB01084F462246012000213C
:1001B00000F02EFB17EB00094E41201EA4F10104B4
:1001C000DFDC484631462A464346BDE8F09F10B57D
:1001D000431A934209D28318881803E010F8011DCE
:1001E00003F8011D521EF9D210BD40EA01039B071E
:1001F00003D009E008C9121F08C0042AFAD203E09C
:1002000011F8013B00F8013B521EF9D210BDD2B2E9
:1002100001E000F8012B491EFBD270470022F6E7EF
:1002200010B513460A4604461946FFF7F0FF20466C
:1002300010BD421C10F8011B0029FBD1801A704729
:1002400010B5002200E0521C835C8C5CA34201D1FB
:10025000002BF8D1D8B2E1B2401A10BD034611F814
:10026000012B00F8012B002AF9D118467047F0B491
:1002700080EA0102D40F4200B2EB410F02D20246E3
:10028000084611464A0042D0C30DDDB2C1F3C75241
:10029000AD1A202D35DAC1F3160141F4000204B184
:1002A0005242C5F1200602FA06F12A411044B3EB8E
:1002B000D05F23D0C4B1012DA0EBC35009DCF0BC4A
:1002C0004FF0004202EAC352DBB200F5000000F03A
:1002D000D9BA400000F1807000EBC350A0F18070EB
:1002E00040EAD170490009E0490841EAC071A0EB39
:1002F000C35000F50000400800EBC350F0BC00F014
:10030000B8BA6142012202EB4101001BF6E7F0BCE2
:10031000704781F00041AAE780F00040A7E730B4C1
:1003200080EA010202F0004530F0004221F0004076
:1003300013D090B1C30DD40DC2F31601C0F3160053
:10034000E41A41F4000140F400027D34914201D3EB
:10035000641C00E04900002C02DA30BC0020704729
:100360004FF400000023914201D3891A034340084F
:100370004FEA4101F7D151B1914202D14FF0004112
:1003800005E002D24FF0010101E06FF0010103EB43
:10039000C450284430BC00F06CBA2DE9FE4F8046B2
:1003A00081EA0300C00F0C46009021F0004123F0C9
:1003B0000045B8EB0200A94105D2404621469046CF
:1003C0001C460B46024623F00040104347D0270D41
:1003D000C7F30A00C3F30A510290401A0190402863
:1003E0006BDAC3F3130040F4801B0098924620B1EF
:1003F0000023D2EB030A63EB0B0B01985946C0F1C3
:100400004002504600F004FA06460D465046594652
:10041000019A00F01CFA10EB08006141002487EA01
:10042000115284EAE7731A4340D0009A62B3019AEA
:10043000012A4FEA075215DC001B61EB02014FF065
:10044000004202EA0752CDE90042001C41F580114A
:1004500032462B4600F053FA03B0BDE8F08F404619
:100460002146F9E7001B61EB0201001C41F58013F6
:1004700000185B412018A2F5001747EB030140EA82
:10048000D570B6196D4111E06D084FEA360645EAA0
:10049000C0754FEA0752001B61EB0201001C41F5D9
:1004A000801149084FEA30000019514132462B466D
:1004B00003B0BDE8F04F00F013BA009801224000ED
:1004C0000023D0EB020263EBE073009821464FEA71
:1004D000E074B8EB000061EB0401E9E783F000434E
:1004E0005BE781F0004158E72DE9FE4F81EA030404
:1004F00004F0004421F0004100944FF0000B23F081
:10050000004350EA01045ED052EA03045BD0C3F317
:100510000A54C1F30A552C44A4F2F3340194A0FB0D
:100520000254C1F3130141F48011C3F3130343F4E4
:10053000801301FB024400FB034E840A970A44EA3D
:10054000815447EA8357A4FB076802958D0A05FB8F
:1005500007854FEA932C04FB0C542705029D4FEAB4
:10056000065847EA1637B5EB08056EEB070C870E01
:10057000920E47EA811742EA8312A7FB0201B6EB0B
:100580000B0164EB00042B0D43EA0C335E1844EBC3
:100590001C50DA465146E7FB0201C5F313044FEA4B
:1005A0000B3343EA14534FEA0432019C43EA060337
:1005B000A4F10C040294009CCDE900B400F09FF972
:1005C00003B0BDE8F08F00200146F9E72DE9F04DBA
:1005D00081EA030404F0004B21F0004514464FF07B
:1005E000000A23F0004150EA050220D054EA01023B
:1005F0001DD0C5F30A570246C5F31303C1F3130018
:10060000C1F30A5640F4801543F48013A7EB0608A3
:10061000101BD64608F2FD3873EB050002D308F133
:10062000010801E092185B41B8F1000F03DA0020E5
:100630000146BDE8F08D00204FF480110646844647
:100640000EE0171B73EB050705D3121B63EB0503C5
:1006500006434CEA010C49084FEA300092185B410E
:1006600050EA0107EDD152EA030012D082EA0400F9
:1006700083EA0501084305D0101BAB4106D20122D5
:10068000002306E000224FF0004302E06FF0010279
:1006900053101AEB06004CEB085110EB0A0041EB2B
:1006A0000B01BDE8F04D00F01BB9C10F80EAE0700E
:1006B0000844CA079623002100F0E4B80EB5C10F24
:1006C00080EAE0700844CA07002140F233438DE815
:1006D0000E000A460B4600F012F903B000BD0EB53D
:1006E00040F2334102910021CDE900110A460B4648
:1006F00000F005F903B000BD20F00040C10DC0F3CB
:10070000160040F400007F2901DA00207047962986
:1007100003DCC1F19601C8407047963988407047A4
:10072000C1F30A5210B5C1F3130140F2FF3341F493
:1007300080119A4201DA002010BD40F233439A4200
:10074000A2F2334203DC524200F071F810BD904037
:1007500010BDC1F30A52C1F3130140F2FF3341F45B
:1007600080119A4202DA00200146704740F233437A
:100770009A42A2F2334202DC524200F058B800F032
:1007800047B8000030B5041E71F1000404DB4FF0DF
:100790000044404264EB0101141E73F1000405DBC8
:1007A0001C464FF00043524263EB04038B4208BFE8
:1007B000824230BD30B5041E71F1000404DB4FF0FD
:1007C0000044404264EB0101141E73F1000405DB98
:1007D0001C464FF00043524263EB0403994208BFAA
:1007E000904230BD30B50B46014600202022012446
:1007F00009E021FA02F59D4205D303FA02F5491BEF
:1008000004FA02F52844151EA2F10102F1DC30BD04
:10081000202A04DB203A00FA02F1002070479140C0
:10082000C2F1200320FA03F3194390407047202AB5
:1008300004DB203A21FA02F00021704721FA02F38A
:10084000D040C2F120029140084319467047202A47
:1008500006DBCB17203A41FA02F043EAE07306E0E8
:1008600041FA02F3D040C2F12002914008431946F8
:1008700070470029A8BF7047401C490008BF20F0FE
:100880000100704710B4B0FA80FC00FA0CF050EA96
:10089000010404BF10BC704749B1CCF1200421FA17
:1008A00004F411FA0CF118BF012121430843A3EB12
:1008B0000C01CB1D4FEA00614FEA102042BF00201F
:1008C00010BC704700EBC35010440029A4BF10BCFB
:1008D0007047401C490008BF20F0010010BC704761
:1008E00010B5141E73F1000408DA401C41F1000138
:1008F00092185B411A4301D120F0010010BD2DE98F
:10090000F04D92469B4611B1B1FA81F202E0B0FA85
:1009100080F220329046FFF77BFF04460F4640EA04
:100920000A0041EA0B0153465A46084313D01146C8
:1009300053EA010019D0C8F140025046FFF777FF93
:1009400005460E46504659464246FFF761FF0843AA
:1009500005D0012004E020463946BDE8F08D002096
:10096000054346EAE0762C4337430A986305E40AD8
:10097000A0EB08000022FD0A44EA47540A3002D5E1
:1009800000200146E9E7010510196941DDE9084544
:1009900000196941BDE8F04DA2E72DE9F04D0023B3
:1009A0001A461B1A8A4103DB00200146BDE8F08D80
:1009B000C1F30A52C1F3130141F480154FF0000B4B
:1009C000D10702D100186D41521E0027044640F2A3
:1009D000FF11384601EB620A3E468046024600207F
:1009E0004FF48011FFF723FFC2197141BB1846EB8A
:1009F0000100B4EB030C75EB000C04D3E41A65EBB7
:100A0000000517460E46241908F101006D41804685
:100A10003428E3DDF91946EB0600091BA84103D28F
:100A20004FF0FF32134601E0002213461BEB070094
:100A300046EB0A51BDE8F04DFFF752BF064C074D9B
:100A400006E0E06840F0010394E80700984710349E
:100A5000AC42F6D3FFF770FB70A3030890A3030822
:100A600070B58C1810F8015B15F0070301D110F870
:100A7000013B2A1106D110F8012B03E010F8016B9D
:100A800001F8016B5B1EF9D12B0705D40023521E20
:100A90000DD401F8013BFAE710F8013BCB1A921C88
:100AA00003E013F8015B01F8015B521EF9D5A14286
:100AB000D8D3002070BD10B500F03EFB10BD70B55E
:100AC00005460C46164607E029466A1C95B2C8B290
:100AD00000F008F804F8010B301EA6F101018EB2F7
:100AE000F2D170BD70B5054600F012FBA02000F0F9
:100AF000E1FA00F07BFA0446ECB929460FA001F0B8
:100B00000BFC284600F0D6FA00F070FA044694B9BF
:100B100000F0FEFAA12000F0CDFA00F067FA0446DA
:100B20004CB9012000F088FA0646314606A001F0D3
:100B3000F3FB00F04AFA304670BD00006164647255
:100B4000203D2025640A000064617461203D202559
:100B5000630A000070B504460D46164606E0297883
:100B6000E0B200F009F8601C84B26D1C301EA6F1E2
:100B700001018EB2F3D170BD70B506460D4600F08E
:100B8000C7FAA02000F096FA00F030FA044694B9B3
:100B9000304600F08FFA00F029FA04465CB9284686
:100BA00000F088FA00F022FA044624B900F00DFAA9
:100BB0000A2007F08BF870BD00BFFEE77047000009
:100BC00010B5142007F082F800BF0121074800F09B
:100BD000E8F90128F9D0142007F078F8012000F096
:100BE00057F800200249087010BD000000080140BD
:100BF0001800002010B5142007F068F800BF042189
:100C0000074800F0CEF90028F9D0142007F05EF86C
:100C1000042000F03DF802200249087010BD0000D9
:100C2000001801401800002010B5142007F04EF8FD
:100C300000BF0821074800F0B4F90028F9D01420BB
:100C400007F044F8082000F023F803200249087058
:100C500010BD0000001801401800002010B514203D
:100C600007F034F800BF1021074800F09AF9002877
:100C7000F9D0142007F02AF8102000F009F8042019
:100C80000249087010BD0000001801401800002043
:100C90000149086070470000140401400021234905
:100CA0008279002A3AD00A46126803689A430B46B2
:100CB0001A600A1D126803689A430B1D1A600279B4
:100CC00011440A6803681A430A60184A0832126815
:100CD00003689A43154B08331A601A1D126803689B
:100CE0009A43124B0C331A604279102A0ED11A1F04
:100CF000126803681A430D4B08331A601A1D1268F4
:100D000003681A43094B0C331A600DE00749427916
:100D100011440A6803681A430A6005E00279114425
:100D20000A6803689A430A607047000000040140A3
:100D300051B18200A2F1C042126842F00103820068
:100D4000A2F1C042136009E08200A2F1C042126821
:100D5000034B1A408300A3F1C0431A6070470000A0
:100D6000FEFF0F00D0E901121143C268114302696E
:100D700011434269114382691143C2691143026AF6
:100D80001143426A1143826A1143C26A1143026BE2
:100D9000114302689200A2F1C042116081680829E3
:100DA0000BD101688900A1F1C041096841F04002FE
:100DB00001688900A1F1C0410A60416B0968426B7A
:100DC000526841EA0211426B926841EA0221426B89
:100DD000928941EA0241426B128A41EA0251426B16
:100DE000127D41EA0261426B926911430268521C12
:100DF0009200A2F1C0421160C16AB1F5804F1BD1CF
:100E0000816B0968826B526841EA0211826B9268B9
:100E100041EA0221826B128A41EA0251826B127D01
:100E200041EA0261826B9269114302689200A2F169
:100E3000C042C2F8041107E06FF0704201688900F7
:100E4000A1F1C041C1F804217047000030B5002273
:100E50008B071C0F0F2303FA04F20B4B8C1053F873
:100E600024309343084C8D1044F8253023468C10D1
:100E700053F824308C07240F00FA04F42343024C67
:100E80008D1044F8253030BD080001402DE9F041B7
:100E9000024600250026002000230024002791F8A8
:100EA00003C00CF00F0591F803C00CF0100CBCF15E
:100EB000000F03D091F802C04CEA050591F800C07C
:100EC000BCF1000F31D0146800202BE04FF0010C72
:100ED0000CFA00F3B1F800C00CEA03069E4220D1E0
:100EE00083004FF00F0C0CFA03F7BC4305FA03FC28
:100EF0004CEA040491F803C0BCF1280F06D14FF06E
:100F0000010C0CFA00FCC2F814C00AE091F803C00E
:100F1000BCF1480F05D14FF0010C0CFA00FCC2F8EF
:100F200010C0401C0828D1D31460B1F800C0BCF137
:100F3000FF0F34DD546800202EE000F1080C4FF064
:100F4000010808FA0CF3B1F800C00CEA03069E424F
:100F500021D183004FF00F0C0CFA03F7BC4305FAC4
:100F600003FC4CEA040491F803C0BCF1280F05D13E
:100F700000F1080C08FA0CF8C2F8148091F803C0CC
:100F8000BCF1480F07D100F1080C4FF0010808FA36
:100F90000CF8C2F81080401C0828CED35460BDE87D
:100FA000F0810246002093680B400BB1012000E065
:100FB00000207047416170470161704700BFFEE744
:100FC00010B5022006F0A8FE10BD10B5002000F0FC
:100FD00069FEFFF7F5FF012000F054FEFFF7F0FF78
:100FE000012000F05FFEFFF7EBFF10BD70B500249D
:100FF0000025012000F056FEFFF7E2FF012000F07F
:1010000041FEFFF7DDFF07E0601CC4B2FA2C03DDF0
:10101000FFF7DBFF012505E080210648FFF7C1FF50
:101020000028F1D100BF002000F02CFEFFF7C8FF20
:10103000284670BD000C014070B505460026012011
:1010400000F030FE002412E0012000F01BFEFFF74C
:10105000B7FF80210B48FFF7A4FF10B1802020418B
:101060000643002000F00EFEFFF7AAFF641C082CC8
:10107000EADB15B900F008F801E000F038F8304676
:1010800070BD0000000C014010B5002000F00AFE09
:10109000FFF796FF012000F0F5FDFFF791FF00201C
:1010A00000F0F0FDFFF78CFF012000F0FBFDFFF7E3
:1010B00087FF10BD70B50546002412E0C4F107019A
:1010C00045FA01F101F0010000F0ECFDFFF778FFB7
:1010D000012000F0D7FDFFF773FF002000F0D2FDE4
:1010E000641C082CEADB012000F0DCFD70BD10B5AB
:1010F000012000F0D7FDFFF763FF012000F0C2FDE3
:10110000FFF75EFF002000F0BDFDFFF759FF10BDA7
:1011100010B5012000F0C6FD012000F0B3FDFFF77F
:101120004FFF002000F0BEFDFFF74AFF002000F057
:10113000A9FDFFF745FF10BD08B50121082000F00B
:1011400027FD4020ADF8000010208DF8030003209B
:101150008DF8020069460848FFF798FE8020ADF838
:10116000000014208DF8030069460348FFF78EFE47
:10117000FFF72BFF08BD0000000C01401FB5012147
:10118000042000F005FD0121402000F001FD0121B7
:10119000084600F0FDFC1C20ADF80C0048208DF83E
:1011A0000F0003208DF80E0003A93F48FFF76EFEE5
:1011B0000120ADF80C0028208DF80F0003A93B4852
:1011C000FFF764FE00210846FFF740FE02210420DD
:1011D000FFF73CFE03210420FFF738FE04210846F8
:1011E000FFF734FE1C20019001208DF80A0000203A
:1011F0008DF808000C208DF8090001A8FFF74EFDBE
:101200000120019008208DF8090001A8FFF746FD94
:101210004FF4A06000F090FC06208DF80000012043
:101220008DF8030002208DF8010001208DF80200E6
:10123000684600F049FC062000F03BFC08208DF8D1
:10124000000001208DF8030002208DF801008DF8C8
:101250000200684600F038FC082000F02AFC092053
:101260008DF8000001208DF8030002208DF80100A8
:1012700003208DF80200684600F026FC092000F0EB
:1012800018FC0A208DF8000001208DF803000220D0
:101290008DF8010000208DF80200684600F014FC73
:1012A0000A2000F006FC1FBD0018014000080140A4
:1012B000034991F90000FF21014A117070470000B5
:1012C0001800002000200849887141F66D60888070
:1012D000F02008804FF4A07048802C2008812A203C
:1012E00048812B2088817047A806002000B59FB058
:1012F0000121080200F02CFC01214FF4B47000F031
:1013000047FC0120ADF8780010208DF87B00032009
:101310008DF87A001EA93148FFF7B8FD41F20100AF
:10132000ADF8780018208DF87B001EA92C48FFF737
:10133000ADFD4CF23370ADF878001EA92948FFF7D7
:10134000A5FD4FF68070ADF878001EA92648FFF77E
:101350009DFD00200E9001200990002008900B9028
:101360000C900D9001200A9000200790012002901F
:101370000020019004900590069001200390002029
:10138000149006200F900020139010904FF480408E
:101390001A9010201290002011901990179015901B
:1013A00016904FF48050189008A81D9001A81C902A
:1013B0000FA8FFF7D7FC01210620FFF7B9FC13F0B7
:1013C00051FCFFF77FFF01210448FFF7F5FD4FF6C1
:1013D000FF7000F00BF81FB000BD0000000C0140D2
:1013E00000200140001401400018014030B50446BF
:1013F0000E4800880D49498800FB01F50B484088DC
:10140000401E83B209480088401E81B20022104667
:1014100000F000F900F094F8002203E0204600F00C
:1014200019FB521CAA42F9D930BD0000A8060020C1
:101430002DE9F04306460C4615461F46DDF81C8094
:10144000A81B401C391B491C00FB01F93B462246E6
:101450002946304600F0DEF800F072F805E0B8F8F2
:10146000000000F0F7FA08F10208B9F10000A9F154
:101470000109F4D1BDE8F083F0B506460C461746E5
:101480001D467019401E81B223462246304600F0A8
:10149000C1F800F055F8002204E0384600F0DAFA0E
:1014A000501C82B2AA42F8DBF0BD70B505460C466E
:1014B0001646234622462946284600F0ABF800F09F
:1014C0003FF8304600F0C6FA70BDF0B506460C464F
:1014D00017461D466019401E83B2224631463046EB
:1014E00000F098F800F02CF8002204E0384600F0F4
:1014F000B1FA501C82B2AA42F8DBF0BD2DE9F043EC
:1015000006460C4615461F46DDF81C80A81B401CED
:10151000391B491C00FB01F93B462246294630464F
:1015200000F078F800F00CF802E0404600F092FA83
:10153000B9F10000A9F10109F7D1BDE8F08300007D
:1015400000B50249088900F077FA00BDA80600201E
:1015500030B5044664B101202D4988714FF4A07064
:101560000880F02048802A2048812B2088810BE0C9
:10157000002027498871F02008804FF4A07048802F
:101580002A2048812B2088810023002514B1012CBA
:1015900005D101E000BF03E043F0A00300E000BF7D
:1015A00000BF362543F008031946284600F04AFAE2
:1015B0001749488900F040FA002000F04BFA00205B
:1015C00000F048FA12490988491EC1F30F2000F0C3
:1015D00041FA0F490978491EC8B200F03BFA0C499C
:1015E000888900F029FA002000F034FA002000F089
:1015F00031FA07494988491EC1F30F2000F02AFA41
:1016000003498978491EC8B200F024FA30BD0000B1
:10161000A806002030B504460D461049488900F060
:101620000BFA201200F016FAE0B200F013FA2812BA
:1016300000F010FAE8B200F00DFA0849888900F0CD
:10164000FBF9101200F006FAD0B200F003FA1812FB
:1016500000F000FAD8B200F0FDF930BDA806002075
:101660002DE9FF4F82460F461646DDF83880B34617
:1016700006EBDB700AEB6000401E81B2B819401E19
:1016800083B23A465046FFF7C5FFFFF759FF4FF0C8
:101690000009102E04D0182E22D0202E73D152E033
:1016A0004FF01009A8F12000434900FB0914002263
:1016B00013E014F8015B00230CE005F0800018B182
:1016C000039800F0C7F902E00D9800F0C3F968062E
:1016D000050E5B1C082BF0DB521CB242E9DB68E014
:1016E0004FF03009A8F12000344900FB0914002212
:1016F00026E014F8015B00230CE005F0800018B12F
:10170000039800F0A7F902E00D9800F0A3F968062D
:10171000050E5B1C082BF0DB14F8015B00230CE0CA
:1017200005F0800018B1039800F094F902E00D98DC
:1017300000F090F96806050E5B1C042BF0DB521CD0
:10174000B242D6DB35E04FF04009A8F120001C4939
:1017500000FB0914002227E014F8015B00230CE0D1
:1017600005F0800018B1039800F074F902E00D98BC
:1017700000F070F96806050E5B1C082BF0DB14F80E
:10178000015B00230DE012E005F0800018B1039822
:1017900000F060F902E00D9800F05CF96806050EB3
:1017A0005B1C082BF0DB521CB242D5DB01E0BDE82C
:1017B000FF8F00BF00BFFAE7462D0308363303084A
:1017C000064503082DE9FF4F89B082468B46DDE9C7
:1017D00018562F46B046002409E0601CC4B20A2205
:1017E000002338464146FEF7C1FC074688460021E3
:1017F00087EA010088EA01010843EED181461CE036
:101800000A22002328463146FEF7B0FC302010188B
:10181000C1B2A4F10100A0EB090003AA11544FF0DA
:101820000A024FF0000328463146FEF79FFC0546AA
:101830000E4609F1010000F0FF09A145E0DB0020A0
:1018400003A908551698CDE9000159465046DDE92F
:101850000B2300F003F80DB0BDE8F08F2DE9FF4F2A
:1018600083B006469146DDE910BA00210C460D46CC
:101870001CE00021A4FB097205FB092204FB0128DE
:1018800002220B4638464146FEF770FC801980B2B2
:1018900002901AF80400CDE900B04A46069B04996C
:1018A0000298FFF7DDFE641C45F100051AF80400FC
:1018B0000028DED107B0BDE8F08F2DE9FF4F89B0D9
:1018C00005460C461E46ADF82050A01B80B2ADF870
:1018D0002200ADF81C50A01980B2ADF81E00A81B64
:1018E00080B2ADF81800ADF81A40A81980B2ADF872
:1018F0001400ADF81640BDF8189048E006FB06F15C
:10190000A9EB0502A9EB050302FB1310FEF7D6FEB7
:10191000CDE900012CF0ACFE074688462046FEF7D4
:10192000DEFE3A464346CDE90201FEF736FD824629
:10193000FEF7F6FE80B20490014648460B9AFFF788
:10194000B4FD06FB06F1A9EB0502A9EB050302FBBA
:101950001310FEF7B3FE82462CF08AFECDE9020199
:101960002046FEF7BCFECDE90001DDE90223FEF7CB
:10197000B5FD0746FEF7D4FE80B204900146484606
:101980000B9AFFF792FD09F101001FFA80F9BDF8EB
:1019900014004845B2DABDF822B046E006FB06F175
:1019A000ABEB0402ABEB040302FB1310FEF786FE65
:1019B000CDE900012CF05CFE074688462846FEF77C
:1019C0008EFE81463A464346FEF7E7FCCDE902012A
:1019D000FEF7A6FE80B2049059460B9AFFF765FD0C
:1019E00006FB06F1ABEB0402ABEB040302FB1310A6
:1019F000FEF764FECDE900012CF03AFECDE90201CC
:101A00002846FEF76CFE0746DDE90223FEF766FD79
:101A10008146FEF785FE80B2049059460B9AFFF787
:101A200044FD0BF101001FFA80FBBDF81E00584574
:101A3000B4DA0DB0BDE8F08F0149088070470000AE
:101A4000FE07006C024A1080921C11807047000053
:101A5000FE07006C01490880704700000008006C18
:101A600008B50121482000F093F82020ADF80000CF
:101A700010208DF8030003208DF802006946094804
:101A8000FFF704FA20210748FFF796FA2020ADF867
:101A9000000069460448FFF7F9F920210248FFF7E2
:101AA0008BFA08BD000C01400018014000BFFEE7A2
:101AB000704700F01F02012191404209920002F19B
:101AC000E022C2F80011704770B5002100230F22F8
:101AD000C47804B3154C246804F4E064C4F5E064ED
:101AE000210AC1F10403CA40447804FA03F184785E
:101AF0001440214309010E4C0678A155047804F0E6
:101B00001F050124AC4005786D11AD0005F1E025FD
:101B1000C5F8004109E0047804F01F050124AC4039
:101B2000044D0678761145F8264070BD0CED00E0B6
:101B300000E400E080E100E002490143024A116054
:101B4000704700000000FA050CED00E0704700004F
:101B500029B1064A52690243044B5A6104E0034A20
:101B600052698243014B5A617047000000100240E5
:101B700029B1064AD2690243044BDA6104E0034A00
:101B8000D2698243014BDA617047000000100240C5
:101B900029B1064A92690243044B9A6104E0034A60
:101BA00092698243014B9A61704700000010024025
:101BB00030B500210022002400232D4D6D6805F072
:101BC0000C0121B1042905D0082923D105E0294DB4
:101BD000056022E0274D05601FE0254D6D6805F486
:101BE0007012234D6D6805F48034022505EB924296
:101BF0001CB9214D554305600BE01D4D6D6805F482
:101C000000351DB11C4D5543056002E0194D55438B
:101C1000056002E0174D056000BF00BF144D6D6800
:101C200005F0F0010909154D6B5C0568DD40456064
:101C30000F4D6D6805F4E061090A104D6B5C456855
:101C4000DD4085600A4D6D6805F46051C90A0B4D91
:101C50006B5C4568DD40C560054D6D6805F440412D
:101C6000890B074D6B5CC568B5FBF3F5056130BDAD
:101C70000010024000127A0000093D00040000201C
:101C80001400002010B5044624B140210448FFF799
:101C900093F903E040210248FFF78CF910BD0000E2
:101CA000000C014010B5044624B180210448FFF720
:101CB00083F903E080210248FFF77CF910BD0000A2
:101CC000000C01407047000000B587B001210420DE
:101CD000FFF75EFF01218803FFF75AFF18208DF8F8
:101CE0001B004FF40070ADF8180003208DF81A00A7
:101CF00006A92248FFF7CAF848208DF81B004FF4C8
:101D00008060ADF8180003208DF81A0006A91B4862
:101D1000FFF7BCF84FF4E13002900020ADF814005A
:101D20000C20ADF812000020ADF81000ADF80E0048
:101D3000ADF80C0002A9124800F076FA012240F238
:101D400025510F4800F04BFA4FF4A060FFF7F4FE66
:101D500025208DF8040001208DF8070003208DF860
:101D6000050001208DF8060001A8FFF7ADFE012156
:101D7000034800F0F1F907B000BD00000008014081
:101D80000038014010B500F001F810BD0CB500207E
:101D9000019000903348006840F480303149086079
:101DA00000BF3048006800F4003000900198401CEB
:101DB0000190009818B90198B0F5A06FF1D12948A9
:101DC000006800F4003010B10120009001E0002014
:101DD00000900098012843D12348006840F010008B
:101DE000214908600846006820F00700086008469E
:101DF000006840F0020008601A48406819494860CD
:101E00000846406848600846406840F48060486082
:101E10000846406820F47C1048600846406840F45A
:101E2000E81048600846006840F08070086000BF15
:101E30000C48006800F000700028F9D0094840689C
:101E400020F00300074948600846406840F002005F
:101E5000486000BF0348406800F00C000828F9D132
:101E60000CBD00000010024000200240042808D1F0
:101E70004FF0E021096941F004014FF0E0221161C7
:101E800007E04FF0E021096921F004014FF0E02262
:101E9000116170477047000010B51348006840F0AA
:101EA00001001149086008464068104908400E4981
:101EB0004860084600680E4908400B49086008461B
:101EC000006820F4802008600846406820F4FE0086
:101ED00048604FF41F008860FFF754FF4FF0006028
:101EE0000449086010BD0000001002400000FFF827
:101EF000FFFFF6FE08ED00E010B50121064800F0F6
:101F00001FF8012806D10121034800F00AF801203A
:101F100028F06AFE10BD000000100040CA43028293
:101F20007047CA430282704721B1028842F0010221
:101F3000028004E002884FF6FE731A400280704768
:101F400030B50246002000230024158A05EA01036B
:101F5000958905EA010413B10CB1012000E00020CD
:101F600030BD1AB183890B43838102E083898B439F
:101F700083817047002202881D4B98420ED01D4B72
:101F800098420BD0B0F1804F08D01B4B984205D03F
:101F90001A4B984202D01A4B984204D14FF68F73D5
:101FA0001A404B881A43174B984207D0164B984259
:101FB00004D04FF6FF431A40CB881A4302808B8827
:101FC00083850B8803850A4B98420BD0094B9842B6
:101FD00008D00E4B984205D00D4B984202D00D4BC5
:101FE000984201D10B7A0386012383827047000057
:101FF000002C014000340140000400400008004073
:10200000000C00400010004000140040004001405F
:10201000004401400048014010B504462CB14FF483
:1020200000610548FEF7C8FF04E04FF40061024874
:10203000FEF7C0FF10BD0000001C014010B50446B3
:102040002CB14FF400710548FEF7B6FF04E04FF4E1
:1020500000710248FEF7AEFF10BD0000001C0140F9
:1020600010B5044624B102210448FEF7A5FF03E0A1
:1020700002210248FEF79EFF10BD0000000C014047
:102080001FB501211020FFF773FD40F2E730ADF8D6
:1020900008004720ADF804000020ADF80A00ADF8B4
:1020A000060001A91048FFF765FF01210E48FFF760
:1020B00035FF012211460C48FFF753FF4FF4A06093
:1020C000FFF73AFD36208DF8000001208DF8010061
:1020D0008DF802008DF803006846FFF7F5FC01213A
:1020E0000148FFF721FF1FBD0010004010B514E0AC
:1020F0000E4800F005F90E490E4A128888540D4822
:102100000088401C0B4908800846008840F2FF31D7
:10211000884202DB00200749088040F2255103482D
:1021200000F033F80128E3D010BD00000038014072
:10213000A80200201A00002010B5044621460548D8
:1021400000F0E3F800BF8021024800F011F80028F9
:10215000F9D010BD0038014021B1828942F400520B
:10216000828104E082894DF6FF731A4082817047B4
:1021700002460020B1F5007F00D100BF13880B405C
:102180000BB1012000E00020704770B5024600242A
:1021900000230025002040F66A16B14200D100BF9E
:1021A000C1F3421501F01F03012606FA03F3012DC6
:1021B00002D19689334006E0022D02D1168A3340BF
:1021C00001E0968A33400C12012606FA04F41688C0
:1021D000344013B10CB1012000E0002070BDF0B517
:1021E0000346002400260025002040F66A17B94265
:1021F00000D100BF1846C1F3421401F01F060127A9
:1022000007FA06F5012C01D10C3004E0022C01D1B3
:10221000103000E014301AB107682F43076002E065
:102220000768AF430760F0BD2DE9F04786B005466B
:102230000E460024A24600BFA1460027B08900B187
:1022400000BF2F462C8A4CF6FF700440F0880443F0
:102250002C82AC894EF6F3100440B08831890843D3
:10226000718908430443AC81AC8A4FF6FF400440B7
:10227000B0890443AC8201A8FFF79AFC1F4887424B
:1022800002D1DDF810A001E0DDF80CA0A88900F46F
:10229000004040B10AEBCA0000EB0A103168490067
:1022A000B0FBF1F807E00AEBCA0000EB0A10316856
:1022B0008900B0FBF1F86420B8FBF0F004012009BC
:1022C000642101FB1089A88900F4004040B132204C
:1022D00000EBC900B0FBF1F000F00700044308E098
:1022E000322000EB09106421B0FBF1F000F00F0088
:1022F00004432C8106B0BDE8F0870000003801409F
:1023000001468888C0F308007047C1F30802828044
:10231000704700BFFEE700000FB4054B10B503A9DE
:10232000044A029802F020F910BC5DF814FB00008A
:10233000B7150108A00200200FB4084B10B504A97E
:1023400002AA039802F010F9044602A9002002F044
:102350008EFC204610BC5DF814FB00006F4C00089A
:1023600002E008C8121F08C1002AFAD1704770475E
:10237000002001E001C1121F002AFBD170470000BC
:102380000149086070470000A402002070B50446AF
:10239000002508E02168481C20600878303805EBEB
:1023A000850100EB41052168087800F0C7F8002896
:1023B000F0D1284670BD00002DE9FF5F82B00021FA
:1023C000DDE90430020DDDF840B0034318D044F6D7
:1023D0001050A2F2FF3242431514119801281FD069
:1023E000A5EB0B00401C5FEA000A4FF000064E4FC1
:1023F000DFF83891B046504615D5CAF1000413E015
:10240000119801244AA3012801D16FEA0B01029817
:10241000119AC0E90031C0E9024206B0BDE8F09F60
:10242000CBF10000DFE704460021404A491842EBA7
:102430000450CDE9001012E0E00707D032463B46D9
:1024400040464946FEF750F88046894632463B46AC
:1024500010461946FEF748F806460F466410002C51
:10246000EAD1DDE90401DDE90023BAF1000F06DA63
:10247000FEF73AF842464B46FEF736F805E0FEF71F
:10248000A5F842464B46FEF7A1F804460E46002248
:10249000284BFEF78FF903D84FF0FF30014607E0D5
:1024A0000022254B20463146FDF777FFFEF751F914
:1024B000102409E0002C0ADB0A220023FDF756FE57
:1024C000039B30321A55641E50EA0102F2D1641C9B
:1024D000039AC4F111031444119A012A03D0012272
:1024E00008430DD10AE0084304D000204FF0110B3F
:1024F000119072E7A3EB0B056D1E0DE05B4504DD4B
:102500004FF0000205F1010504E003DA4FF000028C
:10251000A5F10105002AECD002981199C0E9023119
:10252000C0E9004579E70000000014400000F03FDA
:10253000300000000000F0430000E03F0146302979
:1025400003DB392901DC012070470020FCE7000093
:1025500010B54421074801F04EF900221E2106481B
:1025600028F0AAFB0549086003F0A8F800200449F8
:10257000087010BDD82100209D5700080C020020D3
:10258000080200202DE9F04F87B007460C4615469B
:102590002946204600F066F920B94FF0FF3007B019
:1025A000BDE8F08F00222946204600F0FDF808B172
:1025B0000020F4E70026204613F088FF401E00B2FA
:1025C0000490204613F0F3FE401E00B2039068888A
:1025D0006188401A0FFA80FABAF1000F16DD2088E0
:1025E000ADF814006088ADF81600A088ADF81800AA
:1025F0006088504400B2ADF81A003046711C4EB2EB
:1026000007EBC0000599016006994160E888618880
:10261000411A0398401A0FFA80FBBBF1000F1CDD32
:10262000B5F90600B4F90610884216DA2088ADF82C
:102630001400E888ADF81600A088ADF81800E88806
:10264000584400B2ADF81A003046711C4EB207EB88
:10265000C0000599016006994160B5F90200B4F91E
:102660000210884202DDB5F9020001E0B4F902006F
:102670008046B5F90600B4F90610884202DAB5F9C9
:10268000060001E0B4F9060002900298A0EB0800F1
:102690000FFA80F928882188401A00B20190019829
:1026A00000281BDDB9F1000F18DD2088ADF81400FB
:1026B000ADF8168021880198084400B2ADF81800E2
:1026C00008EB090000B2ADF81A003046711C4EB29A
:1026D00007EBC0000599016006994160A888218830
:1026E000411A0498401A00B200900098002818DDA2
:1026F000A888ADF81400ADF81680A98800980844A1
:1027000000B2ADF8180008EB090000B2ADF81A00ED
:102710003046711C4EB207EBC00005990160069966
:10272000416030463BE730B50346B1F90040B2F9AD
:102730000050AC4202DDB1F9004001E0B2F90040C6
:102740001C80B1F90240B2F90250AC4202DDB1F98D
:10275000024001E0B2F902405C80B1F90440B2F9F4
:102760000450AC4202DAB1F9044001E0B2F904408D
:102770009C80B1F90640B2F90650AC4202DAB1F9D8
:10278000064001E0B2F90640DC800120B3F90040C8
:10279000B3F90450AC4205DCB3F90240B3F906507A
:1027A000AC4200DD002030BDF8B504460D461646AB
:1027B0000027B4F90000B5F90010884212DBB4F923
:1027C0000200B5F9021088420CDBB4F90400B5F937
:1027D0000410884206DCB4F90600B5F906108842F8
:1027E00000DC01270FB90020F8BD0EB90120FBE77E
:1027F0002088ADF800006088ADF8020032466946D6
:10280000284600F0A7F808B90020EDE7A088ADF849
:1028100000006088ADF8020032466946284600F0A4
:1028200099F808B90020DFE72088ADF80000E088BB
:10283000ADF8020032466946284600F08BF808B928
:102840000020D1E7A088ADF80000E088ADF80200D4
:1028500032466946284600F07DF808B90020C3E7F3
:102860000120C1E70246B2F90000B1F904309842F4
:1028700013DCB2F90400B1F9003098420DDBB2F973
:102880000200B1F90630984207DCB2F90600B1F94E
:102890000230984201DB012070470020FCE7F8B5C8
:1028A00004460D461646B4F90400B5F900108842F6
:1028B00011DBB4F90600B5F9021088420BDBB4F95C
:1028C0000000B5F90410884205DCB4F90200B5F93E
:1028D0000610884201DD0120F8BD0EB90020FBE79B
:1028E0002088ADF800006088ADF8020032466946E5
:1028F000284600F02FF808B10020EDE7A088ADF8D9
:1029000000006088ADF8020032466946284600F0B3
:1029100021F808B10020DFE72088ADF80000E0884A
:10292000ADF8020032466946284600F013F808B1B7
:102930000020D1E7A088ADF80000E088ADF80200E3
:1029400032466946284600F005F808B10020C3E782
:102950000120C1E72DE9FC5F05460E4614464FF005
:10296000000AB6F90000B5F90010884213DBB6F989
:102970000000B5F9041088420DDCB6F90200B5F983
:102980000210884207DBB6F90200B5F9061088424A
:1029900001DC4FF0010ABAF1000F02D10020BDE8BE
:1029A000FC9F002C01DC0120F9E7284613F08EFD86
:1029B000834600EBDB704710284613F0F8FC834693
:1029C00000EBDB704FEA6008474501DA384600E06B
:1029D000404681464C4500DD4C462888ADF8000055
:1029E0002888204400B2ADF804006888ADF80200E1
:1029F0006888204400B2ADF80600002231466846DF
:102A0000FFF7A8FF80B1BDF80400204400B2ADF884
:102A10000400BDF80600204400B2ADF806003146BF
:102A2000684624F005FFBAE7E888001B00B2ADF85D
:102A30000200E888ADF80600002231466846FFF73C
:102A400089FF80B1BDF80400204400B2ADF8040055
:102A5000BDF80200001B00B2ADF802003146684626
:102A600024F0E6FE9BE7A888001B00B2ADF800004A
:102A7000A888ADF80400002231466846FFF76AFFD7
:102A800080B1BDF80000001B00B2ADF80000BDF839
:102A90000200001B00B2ADF802003146684624F087
:102AA000C7FE7CE76888ADF802006888204400B261
:102AB000ADF80600002231466846FFF74BFF80B1B3
:102AC000BDF80000001B00B2ADF80000BDF8060024
:102AD000204400B2ADF806003146684624F0A8FE56
:102AE0005DE701205BE710B5B1F90030B2F90040B5
:102AF000A34202DAB1F9003001E0B2F900300380FC
:102B0000B1F90230B2F90240A34202DAB1F902305F
:102B100001E0B2F902304380B1F90430B2F9044067
:102B2000A34202DDB1F9043001E0B2F90430838040
:102B3000B1F90630B2F90640A34202DDB1F9063020
:102B400001E0B2F90630C38010BD00002DE9F04766
:102B50008AB0804628F038F8814600200990B8F104
:102B6000000F04D0CC49D8F80C00086003E016F040
:102B7000A5FBC9490860C8490968086924F0ECFC4C
:102B8000C5480068406920B1C3490968486924F014
:102B9000E3FCC1490968C86924F0DEFCBE49096844
:102BA000086A24F0D9FCBC480068006948B90020D4
:102BB000B9490968A1F8500100BF00BF0AB0BDE8DB
:102BC000F08724F0FFFE2AF029FD2AF063F9B248CD
:102BD0000068B0F85001002856D0AF48006800687F
:102BE000007C00F0010040B3AB4800680068C0689A
:102BF000406810B3002419E0A748006800F59870F9
:102C0000005D00B110E0A448006800F5AC7000F071
:102C100054FE0546A0480068303000EBC40001684F
:102C200029604068686000BF601C84B29A480068F0
:102C3000B0F85001A042DFDC00BF4FF4807196482D
:102C4000006830301EF0D5FC20219348006800F564
:102C500098701EF0CEFC00208F490968A1F8500141
:102C6000484627F0A3FF09908B4800680068406A37
:102C700050B18949096808688749096809684B6A39
:102C800086490A68099998471EF0E2F900F05EF952
:102C900000F026F982484669002E3FD11DF016FF4C
:102CA00004461CF025FE064600227F21304624F013
:102CB000DDFA15F05DFB002201460890304624F055
:102CC000B9FA15F0A0FE002201460890304624F023
:102CD00089FB00220321304624F06CFB00220321F3
:102CE000304624F043FB00220321304624F04AFB07
:102CF00000220321304624F051FB002203213046FC
:102D000024F064FB67A130461DF01AFE00231A462A
:102D1000062130461FF034F9614846616049086871
:102D200027F044FFB0F5967F10D25C48006841F26E
:102D3000883188424BD95A48406809990844584913
:102D4000486008468068401C886040E027F03CFFEF
:102D50005349086050480068406840B14E480068D8
:102D6000406800684FF47A71B1FBF0F400E0212470
:102D70004B48406810B9012049494860484880687C
:102D800008B9254608E0464880684FF47A71484300
:102D900043494968B0FBF1F500204149486088602B
:102DA000A54200D925463E48006928443C490861AF
:102DB0000846C068401CC86027F0ECFFC0F1640AF8
:102DC00053462A4638A130461DF012FE00BF3A484D
:102DD0004768D7BB1DF07AFE04461CF089FD074604
:102DE00000227F21384624F041FA15F0C1FA002272
:102DF00001460890384624F01DFA15F004FE002222
:102E000001460890384624F0EDFA002203213846A6
:102E100024F0D0FA00220321384624F0A7FA002239
:102E20000321384624F0AEFA00220321384624F06C
:102E3000B5FA1CA138461DF083FD00231A46042173
:102E400038461FF09DF81C4847601B49086827F06A
:102E5000ADFEB0F5967F1CD927F0B6FE1649086086
:102E600002A81EF0D9F904990298451AAC0AA5EBFC
:102E700084206621B0FBF1FA9DF821009DF8201016
:102E800053462246CDE900100CA138461DF0B0FD96
:102E900000BF00BF92E60000BC000020B800002088
:102EA000442000203F0000002575204650530A258D
:102EB0007525252043505500C000002025752E257E
:102EC00075206B42207573656420282564202525B4
:102ED000290A2564252520667261672E00000000FE
:102EE00010B5002416E0C4EBC4000C4951F82000D2
:102EF00030B1C4EBC401094A52F821001EF05AF95E
:102F0000C4EBC401054A02EB81001C211EF071FBD9
:102F1000601CC4B2042CE6DB10BD0000B42200200B
:102F20000146094A10680BE042688A4202D00268F2
:102F30008A4204D1027E22F00102521C02764069CC
:102F40000028F1D170470000900000207047000079
:102F500010B50421014800F04EFC10BDCC2100202A
:102F600010B52021014800F046FC10BDE4210020EE
:102F70002DE9FF4704460D4616461F46DDE90C893C
:102F80006FB9B8F5807F0AD1002020806080681E6C
:102F900000B2A080701E00B2E080BDE8FF87002074
:102FA0000090019002900390ADF80450ADF80A60D3
:102FB000ADF80C50ADF80E604B46424639466846B7
:102FC00024F06CFB4B464246394601A824F066FBD0
:102FD0004B464246394602A824F060FB4B46424627
:102FE000394603A824F05AFBBDF90000BDF90410CE
:102FF000884202DABDF9000001E0BDF90400BDF924
:103000000810BDF90C20914202DABDF9081001E068
:10301000BDF90C1088420BDABDF90000BDF90410AF
:10302000884202DABDF900000DE0BDF904000AE0B3
:10303000BDF90800BDF90C10884202DABDF908009C
:1030400001E0BDF90C00801E00B22080BDF9000037
:10305000BDF90410884202DDBDF9000001E0BDF9B0
:103060000400BDF90810BDF90C20914202DDBDF944
:10307000081001E0BDF90C1088420BDDBDF900001D
:10308000BDF90410884202DDBDF900000DE0BDF974
:1030900004000AE0BDF90800BDF90C10884202DD09
:1030A000BDF9080001E0BDF90C00801C00B2A08051
:1030B000BDF90210BDF90600814202DABDF9020035
:1030C00001E0BDF90600BDF90A20BDF90E108A42E3
:1030D00002DABDF90A1001E0BDF90E1088420BDAE0
:1030E000BDF90210BDF90600814202DABDF9020005
:1030F0000DE0BDF906000AE0BDF90A10BDF90E00A9
:10310000814202DABDF90A0001E0BDF90E00801E1D
:1031100000B26080BDF90210BDF90600814202DDF7
:10312000BDF9020001E0BDF90600BDF90A20BDF9B4
:103130000E108A4202DDBDF90A1001E0BDF90E1041
:1031400088420BDDBDF90210BDF90600814202DDA7
:10315000BDF902000DE0BDF906000AE0BDF90A1054
:10316000BDF90E00814202DDBDF90A0001E0BDF9A2
:103170000E00801C00B2E08000BF0EE72DE9F7438F
:10318000054616460024134C27F01EFD80463346A4
:1031900029462046019A1BF04FFC07465FB900BF45
:1031A00000BF2C2120461EF024FA4FF00040A06200
:1031B0000020BDE8FE830020A062E06918B9404607
:1031C00027F0F4FCE061E06908B90120E0612046E5
:1031D000EFE700000822002010B51421114800F08C
:1031E0000AFB1BF0DBFB044600BF1CB900BF00BF9D
:1031F00000BFFEE700BF14B900BF00BF10BD0A4901
:1032000020461BF0B3FC094920461BF0B1FC0849DD
:1032100020461BF0AFFC074920461BF0A5FC00BF71
:10322000ECE70000F02100204DE1010821E6010853
:10323000A9E8010815E1010870B504460D46102102
:1032400028461EF0D6F920680078012804D1A08A0B
:103250002880E08A68800CE020680078022802D18B
:10326000E068686005E020680078042801D10A2041
:1032700068602068406820B120682946426890470D
:1032800001E000BF00BF70BD2DE9FE4F0446A08ADB
:1032900018B9E08A08B9BDE8FE8FE66A96B92046FB
:1032A0000DF040FB064606B9F5E7204610F0B6FDE6
:1032B00000220921304619F093FF6078C0F34000E6
:1032C00000B1E8E700274FF48078B14616E000210E
:1032D000484621F0BFFD384407B20021484621F09E
:1032E000F5FD8246C0170AEB1060001200FB08F0E3
:1032F0000FFA80F8484620F043F98146B9F1000FF3
:10330000E5D117B9B8F5807F11D0784207B24FF4F4
:10331000803090FBF8F00FFA80F8002000906B46A8
:103320004246394604F1140024F0B8F900BF0020E9
:103330000290019094F8400000F00F00032812D191
:10334000304620F03BFA8246304620F0BFF98346F3
:1033500003200090B4F9141053465A4630460CF03E
:10336000D9FD029012E0304620F0AAFA824630469B
:1033700020F01EF983460C200090B4F916105B462D
:10338000524630460CF0C6FD019000BF304620F09A
:103390006FF9054605F0010028B9BDF908000028BD
:1033A00001DD0020029005F0020028B9BDF90800F7
:1033B000002801DA0020029005F0040028B9BDF9C8
:1033C0000400002801DD0020019005F0080028B964
:1033D000BDF90400002801DA0020019001AA02A929
:1033E00020462AF093FDBDF90420BDF908103046AF
:1033F00000F0FCFA6078C0F3400000B14BE7208B8E
:10340000BDF80810084401B22183608BBDF8041098
:10341000084401B2618300BF3DE72DE9F84F04463F
:10342000D4F82CB0BBF1000F01D1BDE8F88F94F8AF
:10343000400000F00F0000B9F7E71BF03FFE064622
:103440003068477E4021584621F0FAFE10B900212D
:10345000E183A183584620F01FFA8046584620F0A9
:1034600025FA054694F8400000F00F000C2843D1DF
:103470000021A1831DBBB4F91E00C7F164014843BC
:10348000642190FBF1F001B2E183584620F090F8FE
:103490008146584620F014FA82460C200090B4F978
:1034A0001E104B46524658460CF034FDE083B4F9EA
:1034B0001E2000231946584623F06EFA69E0204684
:1034C0002AF07BFD00900021E1836A4620462AF025
:1034D0001DFDBDF9003041F6FF72514258460DF016
:1034E00013FC8146BDF80000484402B201230021CC
:1034F000584623F051FA4CE094F8400000F00F00D9
:10350000032846D10021E183B8F1000F23D1B4F99B
:103510001C00C7F164014843642190FBF1F001B243
:10352000A183584620F0D2F88146584620F046F94B
:10353000824603200090B4F91C1053464A46584670
:103540000CF0E8FCA083B4F91C1000231A4658467E
:1035500023F022FA1DE020462AF014FD00900021FD
:10356000A1830022694620462AF0D0FCBDF9003034
:1035700041F6FF72514258460DF02CFB8146BDF8D2
:103580000000484401B201230022584623F004FA07
:1035900000BFA08B002860D1E08B00285DD11DBB4F
:1035A000584620F08DF98146584620F001F88246B1
:1035B000B9F1000F02DCBAF1000F14DDB9F1000F10
:1035C00006DA01234A460021584623F0E5F90AE0CD
:1035D000BAF1000F07DA0123CAF1000002B200219C
:1035E000584623F0D9F900BFB8F1000F23D158464F
:1035F00020F06CF88146584620F0E0F88246B9F198
:10360000000F02DCBAF1000F14DDB9F1000F06DA89
:10361000012300224946584623F0BEF90AE0BAF1D8
:10362000000F07DA01230022CAF1000001B2584658
:1036300023F0B2F900BF32460A21584619F0D0FDF6
:103640006078C0F3400000B1EFE694F8400020F04D
:103650000F0184F840100021E16200BFE5E62DE98A
:10366000FF4104460F4614B915F028FE04460CB974
:10367000BDE8FF81204615F0BAFE00B9F8E794F8DE
:103680002800C0F3800010B100BF00BFF0E71FB9F1
:103690000020A4F85001EBE70020ADF80800ADF8D9
:1036A0000A00204615F022FE401E00B2ADF80C00C4
:1036B000204615F081FE401E00B2ADF80E0002AAB1
:1036C00039466846FFF72FF8064606B9D0E7206866
:1036D000007CC0F3400060B10298206303986063EF
:1036E0000120A4F85001606810B1606827F00EFC5A
:1036F000BEE72068806918B12068694682699047F2
:1037000000250BE004F1300000EBC5010022684603
:10371000FFF74AF800B1ABE7681C85B2B4F8500176
:10372000A842EFDCB4F85001202809DAB4F850219F
:1037300004F1300101EBC200694612F09FFD0BE07D
:103740000020A4F85001B4F8502104F1300101EB3D
:10375000C20002A912F092FDB4F85001401CA4F876
:103760005001606810B1606827F0D0FB00BF7FE7B0
:1037700070B50546284600F013F8044600260CE014
:103780002146284600F024F806462146284600F047
:10379000C0F820461DF00EFD3446002CF0D170BD5F
:1037A000014609B9002070474868FCE770B5064635
:1037B00000243046FFF7F4FF054605E0641C294667
:1037C000304600F005F80546002DF7D1204670BDC3
:1037D00002460B461068001D0344186870470246F5
:1037E0000B461068034418687047014609B9002069
:1037F00070478868FCE7002242608260CA1C22F0A1
:1038000003010160704770B50446216801F10800AA
:103810001DF0F2FB0546A5B100222946204628F0FE
:10382000F3FD29462046626828F0E0FD606820B17B
:103830002A462046616828F0E7FD6560A06800B967
:10384000A560284670BD2DE9F04106460D4606B13B
:1038500015B90020BDE8F0813046FFF7A1FFA8426E
:1038600006D13046FFF7CFFF044624BB0020F1E726
:10387000316801F108001DF0BFFB04460CB90020BF
:10388000E8E729463046FFF7AAFF074622463946B1
:10389000304628F0ABFD3A462146304628F0B4FDCC
:1038A00022462946304628F0AFFD2A4621463046BA
:1038B00028F09CFD00BF2046CCE770B50446216887
:1038C00001F108001DF098FB0546A5B1002229462C
:1038D000204628F08BFD29462046A26828F094FD5A
:1038E000A06820B12A462046A16828F07FFDA56087
:1038F000606800B96560284670BD014609B90120BD
:103900007047486818B9886808B90120F8E70020AE
:10391000F6E72DE9F04104460D460CB9BDE8F0810B
:103920002046FFF73DFFA8420FD129462046FFF76A
:103930004FFF6060606810B90020A0602FE0002297
:103940002046616828F060FD29E02046FFF74DFF22
:10395000A8420FD129462046FFF741FFA060A0688A
:1039600010B9002060601AE000222046A16828F00B
:103970003DFD14E029462046FFF731FF0646294663
:103980002046FFF725FF07463A463146204628F0F5
:103990002DFD32463946204628F036FD00BF00BFD7
:1039A000BCE710B504462068806818B1206821463D
:1039B000826890472068006828B12068006820600D
:1039C0002046FFF7EEFF10BD0146886818B18868F1
:1039D000B0F9160070470020FCE70146886818B16E
:1039E0008868807E800970470020FCE72DE9F0415F
:1039F00004460D4616461DB916B90120BDE8F081F2
:103A000020461EF009FDA068008A284400B2A16883
:103A10000882A068408A304401B2A0684182012334
:103A200032462946204622F0A7F800220B212046E4
:103A300019F0D6FB0746012F01D03846DEE72046B5
:103A400021F0C2FF0120D9E7F7B582B004460E4647
:103A500014B9049805B0F0BD00BF6222314620467B
:103A600021F07EF80190019D00BFBDB12868A8B18A
:103A700000BF63223146204621F072F80190019880
:103A8000C0B207464FB13A462B682846049998477A
:103A90000190BDF80400ADF8100000BF0498D9E70C
:103AA0002DE9F04F95B004468B4691469A461E9DEF
:103AB000608C20F0080008306084A4F820902A89E7
:103AC0005946204621F04CF81490A4F820A02A89E9
:103AD0005946204621F044F81390608C20F00800ED
:103AE0006084DDE9131088420CD1DDE913108842AF
:103AF00008D1BDF85000BDF84C10884202D115B075
:103B0000BDE8F08FA4F820902A895946204621F07C
:103B100027F81490A4F820A0594620460EF0E8FE9D
:103B200012902989129A1068149A25F00BFD2889A1
:103B30000B2833D147F6FF711498884202D01398AE
:103B400088422BD1204621F01EFB009000EBD07064
:103B5000471020461FF0C4FC009000EBD0704FEAE5
:103B6000600847F6FF711498884208D1781C08F164
:103B70000101884200DA01E008F10100149047F6E3
:103B8000FF711398884208D1781C08F1010188421E
:103B900000DA01E008F10100139000BF2348FFF7AD
:103BA00032FE064600BF1EB900BF00BF00BFFEE7E1
:103BB00000BF06B9A3E71498F06013983061346031
:103BC0002889B080C6F808B001A811F01FFC314662
:103BD00001A811F0CDFC164901A811F09AFC154876
:103BE000039000BF144901A811F0A1FCFF2200219D
:103BF00001A811F0ADFC298801A811F09FFC69888B
:103C000001A811F081FCE868089000BF01A800211C
:103C100090F8422061F3000280F8422000BF28693A
:103C2000079001A811F0BCFC00BF68E7FC21002050
:103C300021230308C9250308F924030810B514211A
:103C40000148FFF7D8FD10BDFC2100202DE9FE4FF3
:103C500004460F4690464FF0000900254CE1E0680D
:103C600000EBC5004068C0F3406000B143E1E1688B
:103C700001EBC501496821F07F4023F033FC064683
:103C800026EA070008B9012000E00020029026EA99
:103C9000080008B9012000E000200190DDE90101E1
:103CA000814270D0E06850F835A04FF0000B6A46B2
:103CB0001021504625F01EF810B14FF0010B98E08E
:103CC0006A461121504625F015F810B14FF0010B4E
:103CD0008FE06A461221504625F00CF810B14FF0E3
:103CE000010B86E06A461321504625F003F810B117
:103CF0004FF0010B7DE06A461521504624F0FAFF93
:103D000010B14FF0010B74E06A461421504624F0C4
:103D1000F1FF10B14FF0010B6BE06A460A215046EB
:103D200024F0E8FF10B14FF0010B62E06A466B210E
:103D3000504624F0DFFF10B14FF0010B59E06A4606
:103D40006C21504624F0D6FF10B14FF0010B50E02B
:103D50006A460121504624F0CDFF10B14FF0010B0F
:103D600047E06A460421504624F0C4FF10B14FF0EA
:103D7000010B3EE06A460221504624F0BBFF18B119
:103D80004FF0010B35E0B5E06A460321504624F0C0
:103D9000B1FF10B14FF0010B2BE06A4605215046F0
:103DA00024F0A8FF10B14FF0010B22E06A46062173
:103DB000504624F09FFF10B14FF0010B19E06A4606
:103DC0003221504624F096FF10B14FF0010B10E065
:103DD0006A466E21504624F08DFF10B14FF0010B62
:103DE00007E06A466D21504624F084FF08B14FF089
:103DF000010BBBF1000F02D00320BDE8FE8F6A4625
:103E00006921504624F076FF10B14FF0020970E0AE
:103E10006A466A21504624F06DFF10B14FF0020946
:103E200067E06A466E21504624F064FF10B14FF0FF
:103E300002095EE06A466D21504624F05BFF10B136
:103E40004FF0020955E06A463721504624F052FFF0
:103E500010B14FF002094CE06A463821504624F078
:103E600049FF10B14FF0020943E06A463521504640
:103E700024F040FF10B14FF002093AE06A464021B9
:103E8000504624F037FF10B14FF0020931E06A4686
:103E90004521504624F02EFF10B14FF0020928E0D2
:103EA0006A464121504624F025FF10B14FF0020927
:103EB0001FE06A464221504624F01CFF10B14FF02B
:103EC000020916E06A464321504624F013FF10B160
:103ED0004FF002090DE06A464921504624F00AFFDE
:103EE00010B14FF0020904E0B9F1000F01D14FF019
:103EF000010900BF00BF6D1C608CC0F30510A84213
:103F00003FF6ADAE484678E70148006870470000CC
:103F1000BC00002010B5034828F033FB024828F00D
:103F2000D0F810BD44200020C00000200146C1F39D
:103F30000412072A00DD0722D0B2704701464FF66F
:103F4000FF70814201D11F20704709B90020FBE7B3
:103F5000712902DA0948405CF6E7A1F1710081B2EB
:103F60000748006838B107480068814203D2044816
:103F70000068405CE8E70020E6E70000689C030872
:103F8000300200204402002010B518210348FFF73A
:103F900032FC012026F0CCFE10BD0000A82100203C
:103FA0002DE9F04105460F4616460DB9BDE8F081F2
:103FB0002846FCF73EF98046394628460A4A1268E8
:103FC00090470746E8193146074A12689047064667
:103FD0003C4603E0A019285C2855641CA8EB0600A9
:103FE000A042F7D200BFE1E7740200202DE9F041C2
:103FF00006460C4617461D4629463046084A1268B2
:1040000090472060206830B1296888190021044A4F
:104010001268904700E000203860BDE8F0810000A1
:104020006C0200202DE9F04F87B004460F469246FF
:104030009846DDE910560DB1002028801CB90020FB
:1040400007B0BDE8F08F207808B90020F8E70FB975
:104050000020F5E74FF0000906F0020010B906F065
:10406000040098B1002000E0401C215C0A2905D022
:10407000215C0D2902D0215C0029F5D1215C01B120
:10408000401C15B14FF0FF312980D9E706F002003E
:1040900008B141F6FF7800200690059038E0002036
:1040A0000490059808B9012000E0002006A904AAA0
:1040B000CDE90062CDE902100599601843465246E9
:1040C000394627F0DDF883460498A8EB00000FFA84
:1040D00080F8049848440FFA80F9BBF1000F00D132
:1040E0001CE005985844059020780A2802D02078D2
:1040F0000D2800D112E00598205C0A2803D005980D
:10410000205C0D2803D10598401C059006E000BFF7
:104110000598205C10B1B8F1000FC0DC00BF059815
:1041200070B905A92046094A12689047834635B1FF
:1041300000225946384619F0D7F90FFA80F900BF26
:104140000DB1A5F8009005987AE700006C020020F8
:104150002DE9F04706468846174606B10FB9BDE877
:10416000F0873046FCF765F881463846FCF761F881
:10417000044604B9F3E704EB090A414630460B4A0A
:10418000126890478046554603E0281B305C705506
:104190006D1E08EB0400A842F7D906EB0800224682
:1041A00039461DF0E0F900BFD9E700007402002095
:1041B000024600200FA31B788B4211D113781BB944
:1041C0000123137001200BE01378012B02D100238F
:1041D000137005E01378022B02D100231370012025
:1041E0001378012B04D1202901D10223137001205F
:1041F000704700002300000073B582B006460398A4
:104200000190324600210846019B27F059FB0546E4
:10421000002001900024681C1CF0EEFE044600BF44
:104220001CB900BF00BF00BFFEE700BF14B90020EB
:1042300004B070BD002060553246691C2046039BC7
:1042400027F03EFB2046F3E72DE9F04781460E4676
:1042500014461F46DDF820A035461BE0600800FB31
:10426000075529464846D047B0F1000809DD04F05B
:10427000010080F00100C0EB5404E8190546064631
:1042800008E0B8F1000F02DA6408354602E028467B
:10429000BDE8F087002CE1D10020F9E72DE9FF4FC0
:1042A00085B08346DDE9158ADDE91349DDE9177537
:1042B000129E05F00200F8B94FB105F0010030B1CF
:1042C000B9F1000F02D105F00C0000B17F1E03E030
:1042D00030222046641C3254544501D2202CF7D39E
:1042E00003E030222046641C325405F0010018B16E
:1042F000BC4201D2202CF4D305F01000B0B305F479
:10430000806050B94CB1544501D0BC4205D1641E07
:104310001CB1B8F1100F00D1641EB8F1100F09D113
:1043200005F0200030B9202C04D278222046641CED
:10433000325415E0B8F1100F09D105F0200030B16A
:10434000202C04D258222046641C325408E0B8F1D4
:10435000020F05D1202C03D262222046641C325465
:10436000202C03D230222046641C3254202C16D23A
:10437000B9F1000F04D02D222046641C32540EE007
:1043800005F0040020B12B222046641C325406E0C4
:1043900005F0080018B120222046641C3254CDE9F3
:1043A0000275CDE90064584606A90EC900F0A2F8CE
:1043B00009B0BDE8F08F2DE9FF4F8FB08046DDE9F1
:1043C0001FABDDE91D96219D1C9C00270CB925F033
:1043D000100505F4806000B1E4B100BFB4FBF6F154
:1043E00006FB1141C8B20A2802DA00F1300107E0E9
:1043F00005F0200109B1412100E0612101440A39A1
:10440000CBB239467F1C07AA5354B4FBF6F40CB167
:10441000202FE3D307A8CDE904AB8DE881020396F2
:104420000695404610A90EC9FFF738FF13B0BDE846
:10443000F08F2DE9FF4F8FB0DDE9217BDDF8908013
:10444000209EDDE91C454FF00009002184EA0100AF
:104450006940084301D128F0100808F4806028B1B1
:10446000002184EA0100694008432DD000BF324694
:104470003B4620462946FBF779FE02F0FF0ABAF1D7
:104480000A0F02DA0AF1300007E008F0200008B154
:10449000412000E0612050440A38C2B2484609F188
:1044A000010907A90A5432463B4620462946FBF734
:1044B0005DFE04460D46002184EA01006940084380
:1044C00002D0B9F1200FD2D32398CDE9036BCDE907
:1044D000050807A91E98CDE9001902900FA80FC87A
:1044E000FFF7DCFE13B0BDE8F08F9A4200D288548B
:1044F000704770472DE9FF5F05461446DDE90EA6BB
:10450000DDE91087A34607F0020078B907F0010043
:1045100060B9B14607E02246641C2020039B019944
:10452000A84709F10109C145F5D300BF08E02246BB
:10453000641C711E0E461AF80100039B0199A847DE
:10454000002EF4D107F0020050B105E02246641CB1
:104550002020039B0199A847A4EB0B004045F5D30D
:10456000204604B0BDE8F09F2DE9FF4F95B09A4674
:10457000884606460025EEE1252877D10024274607
:10458000F94A0121039400E0044316F8013F203B5F
:1045900001FA03F01042F7D130782A2811D06FF0D9
:1045A0002F033078A0F13002092A16D8039A44F07C
:1045B000020402EB820203EB42021044761C0390D9
:1045C000EFE758F8042B0392002A03DA504244F430
:1045D0000054039044F00204761C30782E2816D143
:1045E00016F8010F44F004042A280DD06FF02F02B2
:1045F0003078A0F13003092B09D807EB870302EBD1
:104600004303C718761CF3E758F8047B761C307810
:104610006C280FD006DC4C2817D068280DD06A28EB
:1046200014D104E0742810D07A280FD10DE044F49E
:1046300000140AE044F4801401E044F44014727859
:10464000824202D104F58014761C761C30786628EC
:104650000BD013DC582877D009DC002875D045280A
:10466000F6D04628F4D047281AD193E118E0632801
:1046700035D0642879D0652812D18BE1702873D0A9
:1046800008DC6728F1D069286FD06E280DD06F281C
:1046900006D1ACE073282CD0752874D0782853D07C
:1046A0005246179990476D1C54E1C4F302500228FA
:1046B00009D003280DD0D8F8001004280DD00D60C3
:1046C00008F1040846E1D8F80010EA17C1E90052E1
:1046D000F6E7D8F800100D80F2E70D70F0E718F853
:1046E000041B8DF8001000208DF80100EB4601201E
:1046F00003E058F804BB4FF0FF3061074FF00001B2
:1047000002D40DE009F101018946B9420FDA814571
:10471000F8DB1BF809100029F4D108E009F10101C8
:1047200089468142FADB1BF809100029F6D103986B
:104730005346A0EB090721463846179A00F080FA45
:10474000284400EB090507E044E008E10DE01BF810
:10475000010B524617999047B9F10109F7D2534618
:1047600021463846179AF2E039E00A21C4F3025292
:104770004FF0000B0091022A06D058F8040BC11725
:10478000032A09D00AE023E008F1070020F007021D
:10479000F2E80201904605E000B2C117042A01D1F7
:1047A00040B2C117002906DA0A460021404261EBF7
:1047B00002012D2202E0220504D52B228DF80420CF
:1047C000012203E0E20701D02022F7E7914657E0FB
:1047D0000A2100E010214FF0000B00910BE01021A6
:1047E0004FF0000B44F004040827009103E0082078
:1047F0004FF0000B0090C4F30252022A05D058F883
:10480000040B0021032A08D008E008F1070020F07B
:104810000702F2E80201904603E080B2042A00D1C8
:10482000C0B24FF0000922072AD53278702A07D08B
:10483000DDF800C08CF0100C5CEA0B0C05D00EE02B
:1048400040228DF80420012208E050EA010306D03E
:1048500030238DF804308DF8052002229146009B0C
:1048600083F0080353EA0B030AD150EA010201D195
:10487000620705D530228DF804204FF001097F1E14
:104880003278582A04D039A20C920CAA02920BE07A
:104890003BA2F9E75B46009AFBF768FC0C9B9B5C2C
:1048A000029A521E0292137050EA0102F2D102984B
:1048B00004A9081A00F1200B600702D524F4803403
:1048C00000E001275F4502DDA7EB0B0000E00020C0
:1048D00000EB0B01009003984944401A0390E00359
:1048E00006D453462146179A039800F0A9F90544C7
:1048F000002706E001A85246C05D179990476D1C3D
:104900007F1C4F45F6DBE0030CD553462146179A32
:10491000039800F095F9054404E0302052461799B9
:1049200090476D1C0099481E00900029F5DC08E0B6
:104930000298029952460078491C029117999047B3
:104940006D1CBBF10001ABF1010BF1DC5BE100F090
:1049500065F90544761C307800287FF40DAE19B057
:104960002846BDE8F08F00000928010030313233BD
:10497000343536373839616263646566000000009B
:104980003031323334353637383941424344454685
:1049900000000000600700D4062708F1070020F09F
:1049A0000700F0E80223804603F0004C5FEA0C00A9
:1049B00001D097A009E0200501D596A005E0E00709
:1049C00001D095A001E0AFF24C001390307823F0B5
:1049D000004365280CD006DC452809D046281DD0A8
:1049E00047287FD13BE0662818D067287AD136E087
:1049F0000021112F01DB112000E0781CCDE900011E
:104A000004A90CA8FDF7D8FCDDE90D010C9A4FF0C4
:104A1000000B07F10109109200914EE04FF00040A9
:104A20000097CDE9011004A90CA8FDF7C5FCDDE94C
:104A30000D020C9B0F994FF0000B914610930092C2
:104A400011B9791C00EB0109B7EB090003D4C0F1DF
:104A5000FF3B07F10109A9EB0700019042E0012F9C
:104A600000DA01270021112F01DD112000E0384676
:104A7000CDE9000104A90CA8FDF79EFCDDE90D01BC
:104A80000C9A00914FF0000BB946109221070FD4F9
:104A9000009A4A4503DA914601E0A9F10109B9F10A
:104AA000010F05DD109AA9F10101515C3029F4D004
:104AB000B84202DA10F1040F03DA0121CDE9011046
:104AC00010E0002803DC8344A9EB000102E0411C54
:104AD000494500DD8946A0EB0B00401C01904FF0DA
:104AE00000400290200705D40198484502DB4FF0B2
:104AF000FF30019000208DF84B0002980DF14B071C
:104B0000B0F1004F25D002200C902B200D90029880
:104B100000280CDA404202902D200D9007E00A2177
:104B20000298FBF75FFE3031029007F8011D0C99E7
:104B3000481E0C900029F2DC02980028EFD1791E63
:104B40000D980870307800F0200040F0450007F81C
:104B5000020D11A8C01BC01D02901398007800B16F
:104B6000012000EB0901019801EBE071029801447A
:104B70000398401A401E0390E00306D45346214692
:104B8000179A039800F05CF805441398007818B160
:104B90005246179990476D1CE00323D55346214692
:104BA000179A039800F04CF805441BE0BBF1000F86
:104BB00007DB0098584504DD1098179910F80B0092
:104BC00001E0179930205246904701980BF1010BF4
:104BD000401E05F10105019004D12E20524617997F
:104BE00090476D1CB9F10001A9F10109DEDC05E077
:104BF00017F8010B5246179990476D1C0299481EF1
:104C000002900029F4DC53462146179A03989EE649
:104C10002D0000002B000000200000002DE9F041D5
:104C2000044600251E461746880404D405E039468C
:104C30002020B0476D1C641EF9D52846BDE8F081E0
:104C40002DE9F041044600251E469046C80301D5D3
:104C5000302700E02027880404D505E04146384687
:104C6000B0476D1C641EF9D52846BDE8F0810A687E
:104C7000531C0B60107070472DE9FF4F8BB0074637
:104C800000250C9800B9FA4FEAE20E980078252822
:104C90000AD02A466D1C0E990878DDE90C13B84736
:104CA0000E98401C0E90DBE20E98401C0E900024E3
:104CB00000BF0E9800782B2819D004DC20281ED0C5
:104CC00023282CD123E02D2809D0302827D144F0E7
:104CD00001040E98401C0E9001200A9022E044F03E
:104CE00002040E98401C0E9001200A901AE044F035
:104CF00004040E98401C0E9001200A9012E044F02B
:104D000008040E98401C0E9001200A900AE044F01E
:104D100010040E98401C0E9001200A9002E0002022
:104D20000A9000BF00BF0A980028C2D180460E99A1
:104D30000878FDF703FC20B10EA8FDF727FB80469D
:104D400012E00E9800782A280ED1189901C91891FE
:104D5000002804DA44F00204C0F1000800E08046B4
:104D60000E99491C0E9100BF4FF000090E98007873
:104D70002E281FD144F480640E98401C0E900E998A
:104D80000878FDF7DBFB20B10EA8FDF7FFFA81469E
:104D900010E00E9800782A280CD1189901C91891B2
:104DA000002801DD014600E0002189460E99491CDA
:104DB0000E9100BF0E9800786C280AD004DC682899
:104DC00016D06A2835D128E0742820D07A2830D12E
:104DD00029E044F480740E98401C0E900E980078E0
:104DE0006C2804D144F400740E98401C0E9021E00D
:104DF00044F080040E98401C0E900E9800786828AD
:104E000004D144F040040E98401C0E9012E044F48B
:104E100080740E98401C0E900CE044F400740E98C0
:104E2000401C0E9006E044F480740E98401C0E90D6
:104E300000E000BF00BF0E98007869281DD00EDC8E
:104E4000622821D006DC25287ED050281AD0582888
:104E50007BD115E0632879D06428F9D10CE0732860
:104E600075D004DC6F280ED07028F1D109E07528C8
:104E700004D07828ECD102E000BF00BF00BF00BF23
:104E800000BF00BF00BF00BF0E980078782803D095
:104E90000E980078582801D1102623E00E9800784B
:104EA000702803D00E98007850280CD1102644F0BA
:104EB000100444F480740E984078562812D10E984D
:104EC000401C0E900EE00E9800786F2801D1082645
:104ED00008E00E980078622801D1022602E00A2636
:104EE00024F010040E980078582803D00E9800780B
:104EF000502801D144F020040E980078692805D08C
:104F00000E980078642801D024F00C0404F480602A
:104F100008B124F001040E980078692803D00E9897
:104F2000007864287CD104F40070B8B31898C01DD0
:104F300020F007001890D0E900AB189A08321892B8
:104F40000020CDE9069803E073E17CE1F2E01CE18A
:104F5000CDE904600894BAEB00017BEB000001DAB4
:104F6000012000E00020002102900846B1EB0A0178
:104F700070EB0B0002DA5046594605E0002001466E
:104F8000B0EB0A0061EB0B01CDE900012A4638467F
:104F9000DDE90C13FFF74DFA0546C7E0FFE704F41F
:104FA0008070D0B1189850F804AB18904FEADA70BE
:104FB000CDE9039802960594BAF1000F01DD514640
:104FC00001E0CAF10001CDE900102A463846DDE9CA
:104FD0000C13FFF7F0F90546A8E004F0400028B1F3
:104FE000189810F8041B1890C8B20DE004F0800067
:104FF00028B1189830F8041B189008B204E01898EB
:1050000000681899091D189182464FEADA70CDE9B7
:10501000039802960594BAF1000F02DD514602E0B2
:105020000BE0CAF10001CDE900102A463846DDE95F
:105030000C13FFF7C0F9054678E00E980078562863
:1050400018D1189850F804AB1890DAF804000068EA
:10505000099009980090DAF800300D98421B0C98DE
:1050600041193846FFF708FE0544002009905DE02D
:10507000F344000804F40070D0B11898C01D20F06B
:105080000700CDE90698089418900020CDE9046047
:105090000290189903C9189A08321892CDE90001B4
:1050A0002A463846DDE90C13FFF7C3F905463DE013
:1050B00004F4807098B10022CDE90398029605941B
:1050C000189800681899091DCDE9000218912A4620
:1050D0003846DDE90C13FFF76EF9054626E004F0CB
:1050E000400028B1189810F8041B1890C8B20DE0C1
:1050F00004F0800028B1189830F8041B189088B28A
:1051000004E0189800681899091D1891824600203B
:10511000CDE900A0CDE90398029605942A463846C9
:10512000DDE90C13FFF747F9054600BF0E98401C58
:105130000E9093E0012604F0020050B905E02A46E3
:105140006D1C2020DDE90C13B8473046761C404525
:10515000F5D3189911F8043BD8B22A466D1C189162
:10516000DDE90C13B84704F0020050B105E02A460F
:105170006D1C2020DDE90C13B8473046761C4045F5
:10518000F5D30E98401C0E9068E0189850F804ABC8
:1051900018905046B9F1000F01D0494601E04FF098
:1051A000FF310A46014600E0491C0B781BB1131E73
:1051B000A2F10102F8D10E1A04F4806028B14E4524
:1051C00001D2304600E04846064604F0020050B9DD
:1051D00005E02A466D1C2020DDE90C13B847304657
:1051E000761C4045F5D306E01AF8010B2A466D1CE3
:1051F000DDE90C13B8479AF8000040B104F4806070
:105200000028F1D0B9F10000A9F10109ECD104F0B6
:10521000020050B105E02A466D1C2020DDE90C1388
:10522000B8473046761C4045F5D30E98401C0E908A
:1052300014E02A466D1C2520DDE90C13B8470E98B2
:10524000401C0E900AE02A466D1C0E990878DDE994
:105250000C13B8470E98401C0E9000BF00BF00BF53
:105260000E98007800287FF410AD0D98854201D289
:10527000284601E00D98401E02460020DDE90C138F
:10528000B84728460FB0BDE8F08F2DE9F04104463D
:105290000E46002774B13146204600F02DF8054631
:1052A000B5F5803F05D20C2D01D9284600E00C2031
:1052B000074600BF3846BDE8F081024600BF481EE1
:1052C000084018B100BF00BF00BFFEE700BF481E86
:1052D0001040101A704710B502464B1E13444C1E66
:1052E00023EA040000BF4B1E0B401BB100BF00BFF0
:1052F00000BFFEE700BF10BD024600BF481E0840C9
:1053000018B100BF00BF00BFFEE700BF481E104439
:105310004B1E9843704700002DE9F04180460E4631
:10532000444601206086002500270DE056F827003E
:1053300025A1FAF785FF10B1681C85B202E0608EE6
:10534000401C6086781C87B256F8270020B156F8BA
:10535000270000780028E9D1208EA84201D1BDE8BD
:10536000F081A06A20B1A06A1BF024FF0020A06297
:10537000E06A20B1E06A1BF01DFF0020E062E80057
:105380001BF03AFEA06200BFA06A18B900BF00BFC0
:1053900000BFFEE700BF68001BF02EFEE06200BF0A
:1053A000E06A18B900BF00BF00BFFEE700BFA06AF7
:1053B00008B1E06A00B900256900E06A1CF019F93B
:1053C000258600BFCBE700000A0000002DE9F84F5A
:1053D00081460E46924699F8090000F0070002281F
:1053E00001D1304600E050468346564501DD304647
:1053F00000E050460746032000EB470020F0030082
:1054000000F110053948006839490968A0EB010826
:10541000002405EB080037490968884206D2334862
:105420000468606820F0004060603AE0314800683D
:10543000854221D813E04FF0FF30009000226946EA
:105440002D480FF061FA002269462C480FF05CFAF3
:105450002648006826490968A0EB010800BF08EB50
:105460000500244909688842E5D820480468606836
:1054700020F00040606014E028461BF0BDFD0446AB
:1054800000BF1CB900BF00BF00BFFEE700BF14B9DA
:105490000020BDE8F88F606820F0004000F1004077
:1054A000606032465946484602F0CFF82060606896
:1054B00000F04040401C6060606820F08040606008
:1054C000A781A4F80EB06068C00F20B1204600F19B
:1054D0001001A16008E0054800681030A060034892
:1054E00000682844014908602046D2E7CC0000202B
:1054F0002C020020C8000020070901088949010882
:10550000F0B585B006460D46344600200490039061
:10551000029065480088A84202D0FF2063490870C5
:105520006148058094F83C0000F0030020B1012898
:1055300038D0022866D000BF94F83C0000F0030089
:105540005A49097888421BD02620005D00EB0010E4
:1055500000EB4000142190FBF1F055490870272022
:10556000005D00EB001000EB4000142190FBF1F017
:105570005049087094F83C0000F003004B49087053
:1055800002A803A9CDE9001005EB45014FF6FF7213
:1055900002EA410004AB47490A78454909780AF014
:1055A00086FE5FE094F83C0000F003003F49097874
:1055B00088421AD0A08C00EB400040024FF4B47136
:1055C000B0FBF1F03C4908802720005D00EB0010A3
:1055D00000EB4000142190FBF1F03649087094F87C
:1055E0003C0000F003003149087002A803A9CDE98E
:1055F0000010E9B204AB2F4802782F4800880AF067
:1056000056FE2FE094F83C0000F00300274909788B
:1056100088421AD0A08C00EB400040024FF4B471D5
:10562000B0FBF1F0244908802620005D00EB00105B
:1056300000EB4000142190FBF1F01D49087094F834
:105640003C0000F003001949087002A803A9EAB25F
:1056500004ABCDE9001016480178174800880AF01D
:1056600026FE00BF00BF9DF810009DF80C109DF8AD
:105670000820D708BDF8003067F304038F080093B3
:10568000BDF8003067F34A13C7080093BDF8003037
:1056900067F3CF230093BDF800703B460193BDF83C
:1056A0000410084605B0F0BD7C0100207A010020FE
:1056B00078010020790100207601002010B501203A
:1056C000074908700748FEF76BF820B906480068DC
:1056D00025F010FC03E00448006825F017FC10BD1D
:1056E00008020020D82100200C02002010B504463A
:1056F00094F84200C0F3400070B9B4F840000028AC
:105700000ADDB4F840004FF6FF71884204D0B4F8C7
:105710004000401EA4F84000B4F84000D0B9A06B8F
:1057200020B194F84200C0F3400098B121461A48D5
:10573000FEF7EFF8FFF7C2FFE06810B12046E1681E
:105740008847206910B120462169884720461BF010
:1057500031FD1FE0E06B40422063A06BD0B194F8B4
:105760004210C1F3400111B9616B4942216394F8C1
:1057700042104908C94394F8422061F3410284F879
:105780004220206AA16A2162A062E06AA16BE16204
:10579000A06300BF10BD0000D82100202DE9F0411A
:1057A00080464248006825F001FA064640480078E5
:1057B00080F001003E4908703E48FDF7F1FF0446C5
:1057C0006BE000203C49087094F84200C0F3800070
:1057D00037490978884253D0354801783034A07C65
:1057E00061F38200A07420688719A07C303CC0F36C
:1057F000C00010BB206B00281FDC002F1DDB94F8BD
:10580000420000F0010060B9606950B12046616952
:1058100088470546206A28442062A06A2844A0627E
:1058200000BFA06810B12046A168884794F84200E4
:1058300020F00800083084F84200206B30442063D8
:10584000206B00281BDBD4E90B10884201DDE06AE5
:1058500020632046E16988470546606AA84206D071
:105860006562606818B12946D4E900029047D4E91E
:105870000B10884202DB2046FFF738FF00BF00BF55
:105880000D48007820B10B48FDF78AFF044604E07C
:1058900021460848FDF79CFF0446002C91D125F0D5
:1058A00093F902490860BDE8F0810000040200207D
:1058B00009020020D82100200802002070B504460B
:1058C0000D46606818B129466068FFF7F7FF206849
:1058D00018B1294620462268904770BD70B505462C
:1058E0000C46A1B2284610F0F6FB70BD70B5054617
:1058F0000C46A1B2284610F03FFC70BD2DE9FF4FC9
:105900008FB01F46DDF888801C980E901D980D9072
:1059100000200B902398042806D0052809D00628DB
:105920000CD014281AD114E000200C904FF002097A
:1059300017E001200C904FF0030912E001200C90B9
:105940004FF00209FEF7E0FA05462868008F0B9039
:1059500007E001200C904FF0020902E013B0BDE80F
:10596000F08F00BF002489E11E9860430E9901EB7F
:1059700020201C901F9860430D9901EB20201D9062
:105980001C9805121D980612002D07DB1098854201
:1059900004DA002E02DB1198864203DB002008F8AF
:1059A000040069E11C98C0B20A901D9800F0FF0A3B
:1059B0000A98802807DA4FF0FF3B0A98C0F17F0071
:1059C00040000A9005E04FF0010B0A988038400033
:1059D0000A90BAF1800F07DA4FF0FF300990CAF150
:1059E0007F004FEA400A05E001200990AAF18000FB
:1059F0004FEA400A0F98089006FB07F000FB09F0F9
:105A000005FB090108980844089005EB0B000028E5
:105A10007EDB05EB0B011098401E814278DC099873
:105A200030440028F4DB099831181198401E814257
:105A3000F4DC0898079008980BFB09000690099879
:105A400000FB07F1089801FB090005900C9800285D
:105A50007FD0239B052B06D1079B9878059B9978CF
:105A6000069B9A783BE0239B142B18D1DDF844C0A9
:105A700007FB0CFCDDF83CE00EEB4C0306FB073C9F
:105A80001CF8050006FB073CAC441CF80B20DDF8B5
:105A900024C0B4440CFB073C1CF805101FE0239BFA
:105AA000062B19D1079B1B88BDF82CC063450BD072
:105AB000059B1B88BDF82CC0634505D0069B1B8841
:105AC000BDF82CC0634503D1002308F80430D3E0AF
:105AD000FF20FF21FF2202E0FF20FF21FF22814261
