:020000040800F2
:1000000040EB002049010008911A0008750F000814
:100010008D1A0008730B0008A722000800000000DA
:10002000000000000000000000000000A51C000807
:10003000770B0008000000002D1B0008751E00084B
:100040006301000863010008630100086301000800
:100050006301000863010008790B000863010008D0
:10006000AD0B0008E10B0008150C00086301000847
:1000700063010008630100086301000863010008D0
:1000800063010008630100086301000863010008C0
:1000900063010008630100086301000863010008B0
:1000A00063010008630100086301000863010008A0
:1000B0006301000863010008630100086301000890
:1000C0006301000863010008630100086301000880
:1000D00063010008C12000086301000863010008F3
:1000E0006301000863010008630100086301000860
:1000F0006301000863010008630100086301000850
:10010000630100086301000863010008630100083F
:100110006301000863010008D91E0008630100089C
:10012000630100086301000863010008630100081F
:10013000DFF810D000F074FC0048004791A40208DA
:10014000AFF3008040EB0020064880470648004798
:10015000FEE7FEE7FEE7FEE7FEE7FEE7FEE7FEE777
:10016000FEE7FEE7791E0008310100082DE9F05F87
:100170000546002092469B46884606468146402416
:100180001BE0284641464746224600F042FB5346C4
:100190005A46C01A914110D311461846224600F023
:1001A00029FB2D1A67EB01084F462246012000214A
:1001B00000F020FB17EB00094E41201EA4F10104C2
:1001C000DFDC484631462A464346BDE8F09F40EA18
:1001D00001039B0703D009E008C9121F08C0042AC5
:1001E000FAD203E011F8013B00F8013B521EF9D2AC
:1001F0007047D2B201E000F8012B491EFBD27047D4
:100200000022F6E710B513460A4604461946FFF7E2
:10021000F0FF204610BD421C10F8011B0029FBD145
:10022000801A704710B5002200E0521C835C8C5C81
:10023000A34201D1002BF8D1D8B2E1B2401A10BDCF
:10024000034611F8012B00F8012B002AF9D11846BA
:100250007047F0B480EA0102D40F4200B2EB410FC4
:1002600002D20246084611464A0042D0C30DDDB212
:10027000C1F3C752AD1A202D35DAC1F3160141F48E
:10028000000204B15242C5F1200602FA06F12A41E9
:100290001044B3EBD05F23D0C4B1012DA0EBC35009
:1002A00009DCF0BC4FF0004202EAC352DBB200F5B9
:1002B000000000F0D9BA400000F1807000EBC3509C
:1002C000A0F1807040EAD170490009E0490841EA94
:1002D000C071A0EBC35000F50000400800EBC35014
:1002E000F0BC00F0B8BA6142012202EB4101001BF0
:1002F000F6E7F0BC704781F00041AAE780F00040CB
:10030000A7E730B480EA010202F0004530F0004275
:1003100021F0004013D090B1C30DD40DC2F31601EB
:10032000C0F31600E41A41F4000140F400027D34E9
:10033000914201D3641C00E04900002C02DA30BC79
:10034000002070474FF400000023914201D3891A26
:10035000034340084FEA4101F7D151B1914202D124
:100360004FF0004105E002D24FF0010101E06FF0D3
:10037000010103EBC450284430BC00F06CBA2DE9F5
:10038000FE4F804681EA0300C00F0C46009021F02A
:10039000004123F00045B8EB0200A94105D24046D8
:1003A000214690461C460B46024623F0004010436F
:1003B00047D0270DC7F30A00C3F30A510290401A31
:1003C000019040286BDAC3F3130040F4801B0098BF
:1003D000924620B10023D2EB030A63EB0B0B01988A
:1003E0005946C0F14002504600F004FA06460D4658
:1003F00050465946019A00F01CFA10EB0800614182
:10040000002487EA115284EAE7731A4340D0009A25
:1004100062B3019A012A4FEA075215DC001B61EB17
:1004200002014FF0004202EA0752CDE90042001CEF
:1004300041F5801132462B4600F053FA03B0BDE877
:10044000F08F40462146F9E7001B61EB0201001CDA
:1004500041F5801300185B412018A2F5001747EB07
:10046000030140EAD570B6196D4111E06D084FEAFD
:10047000360645EAC0754FEA0752001B61EB0201E0
:10048000001C41F5801149084FEA30000019514124
:1004900032462B4603B0BDE8F04F00F013BA009887
:1004A000012240000023D0EB020263EBE0730098CE
:1004B00021464FEAE074B8EB000061EB0401E9E784
:1004C00083F000435BE781F0004158E72DE9FE4FE0
:1004D00081EA030404F0004421F0004100944FF04D
:1004E000000B23F0004350EA01045ED052EA0304FB
:1004F0005BD0C3F30A54C1F30A552C44A4F2F3347D
:100500000194A0FB0254C1F3130141F48011C3F321
:10051000130343F4801301FB024400FB034E840ADF
:10052000970A44EA815447EA8357A4FB0768029577
:100530008D0A05FB07854FEA932C04FB0C54270515
:10054000029D4FEA065847EA1637B5EB08056EEBF1
:10055000070C870E920E47EA811742EA8312A7FB27
:100560000201B6EB0B0164EB00042B0D43EA0C33E4
:100570005E1844EB1C50DA465146E7FB0201C5F316
:1005800013044FEA0B3343EA14534FEA0432019C3D
:1005900043EA0603A4F10C040294009CCDE900B4E4
:1005A00000F09FF903B0BDE8F08F00200146F9E7A5
:1005B0002DE9F04D81EA030404F0004B21F00045E1
:1005C00014464FF0000A23F0004150EA050220D003
:1005D00054EA01021DD0C5F30A570246C5F31303BE
:1005E000C1F31300C1F30A5640F4801543F480139D
:1005F000A7EB0608101BD64608F2FD3873EB050082
:1006000002D308F1010801E092185B41B8F1000F34
:1006100003DA00200146BDE8F08D00204FF4801180
:10062000064684460EE0171B73EB050705D3121B25
:1006300063EB050306434CEA010C49084FEA30001E
:1006400092185B4150EA0107EDD152EA030012D043
:1006500082EA040083EA0501084305D0101BAB4180
:1006600006D20122002306E000224FF0004302E000
:100670006FF0010253101AEB06004CEB085110EB1F
:100680000A0041EB0B01BDE8F04D00F01BB9C10FB2
:1006900080EAE0700844CA079623002100F0E4B81D
:1006A0000EB5C10F80EAE0700844CA07002140F28D
:1006B00033438DE80E000A460B4600F012F903B0F2
:1006C00000BD0EB540F2334102910021CDE9001189
:1006D0000A460B4600F005F903B000BD20F00040CB
:1006E000C10DC0F3160040F400007F2901DA00209C
:1006F0007047962903DCC1F19601C84070479639CE
:1007000088407047C1F30A5210B5C1F3130140F29B
:10071000FF3341F480119A4201DA002010BD40F20B
:1007200033439A42A2F2334203DC524200F071F8A2
:1007300010BD904010BDC1F30A52C1F3130140F245
:10074000FF3341F480119A4202DA002001467047DB
:1007500040F233439A42A2F2334202DC524200F0AA
:1007600058B800F047B8000030B5041E71F100041D
:1007700004DB4FF00044404264EB0101141E73F1AE
:10078000000405DB1C464FF00043524263EB0403B8
:100790008B4208BF824230BD30B5041E71F10004A7
:1007A00004DB4FF00044404264EB0101141E73F17E
:1007B000000405DB1C464FF00043524263EB040388
:1007C000994208BF904230BD30B50B46014600202B
:1007D0002022012409E021FA02F59D4205D303FA03
:1007E00002F5491B04FA02F52844151EA2F1010284
:1007F000F1DC30BD202A04DB203A00FA02F10020AF
:1008000070479140C2F1200320FA03F3194390404E
:100810007047202A04DB203A21FA02F000217047B9
:1008200021FA02F3D040C2F1200291400843194658
:100830007047202A06DBCB17203A41FA02F043EA40
:10084000E07306E041FA02F3D040C2F12002914089
:100850000843194670470029A8BF7047401C49004B
:1008600008BF20F00100704710B4B0FA80FC00FA15
:100870000CF050EA010404BF10BC704749B1CCF140
:10088000200421FA04F411FA0CF118BF01212143CC
:100890000843A3EB0C01CB1D4FEA00614FEA102087
:1008A00042BF002010BC704700EBC3501044002929
:1008B000A4BF10BC7047401C490008BF20F00100D5
:1008C00010BC704710B5141E73F1000408DA401C08
:1008D00041F1000192185B411A4301D120F001005F
:1008E00010BD2DE9F04D92469B4611B1B1FA81F24F
:1008F00002E0B0FA80F220329046FFF77BFF044618
:100900000F4640EA0A0041EA0B0153465A460843A3
:1009100013D0114653EA010019D0C8F140025046E5
:10092000FFF777FF05460E46504659464246FFF709
:1009300061FF084305D0012004E020463946BDE8A8
:10094000F08D0020054346EAE0762C4337430A98B1
:100950006305E40AA0EB08000022FD0A44EA4754BC
:100960000A3002D500200146E9E701051019694166
:10097000DDE9084500196941BDE8F04DA2E72DE920
:10098000F04D00231A461B1A8A4103DB0020014662
:10099000BDE8F08DC1F30A52C1F3130141F4801593
:1009A0004FF0000BD10702D100186D41521E0027F5
:1009B000044640F2FF11384601EB620A3E4680468B
:1009C000024600204FF48011FFF723FFC219714146
:1009D000BB1846EB0100B4EB030C75EB000C04D321
:1009E000E41A65EB000517460E46241908F10100CC
:1009F0006D4180463428E3DDF91946EB0600091BFA
:100A0000A84103D24FF0FF32134601E00022134603
:100A10001BEB070046EB0A51BDE8F04DFFF752BF54
:100A2000064C074D06E0E06840F0010394E807003B
:100A300098471034AC42F6D3FFF77EFBDC7E030808
:100A4000FC7E030870B58C1810F8015B15F00703E5
:100A500001D110F8013B2A1106D110F8012B03E057
:100A600010F8016B01F8016B5B1EF9D12B0705D45F
:100A70000023521E0DD401F8013BFAE710F8013BA8
:100A8000CB1A921C03E013F8015B01F8015B521EC4
:100A9000F9D5A142D8D3002070BD10B500F028FBD5
:100AA00010BD70B505460C46164607E029466A1C7F
:100AB00095B2C8B200F008F804F8010B301EA6F198
:100AC00001018EB2F2D170BD70B5054600F0FCFA9E
:100AD000A02000F0CBFA00F065FA0446ACB9284635
:100AE00000F0C4FA00F05EFA044674B900F0ECFAC3
:100AF000A12000F0BBFA00F055FA04462CB9012001
:100B000000F076FA064600F03CFA304670BD70B54B
:100B100004460D46164606E02978E0B200F009F8D2
:100B2000601C84B26D1C301EA6F101018EB2F3D19F
:100B300070BD70B506460D4600F0C6FAA02000F064
:100B400095FA00F02FFA044694B9304600F08EFA78
:100B500000F028FA04465CB9284600F087FA00F055
:100B600021FA044624B900F00CFA0A2006F0B6FD7A
:100B700070BD00BFFEE7704710B5142006F0AEFD53
:100B800000BF0121074800F0E8F90128F9D014203E
:100B900006F0A4FD012000F057F80020024908707B
:100BA00010BD0000000801401800002010B51420FE
:100BB00006F094FD00BF0421074800F0CEF900289C
:100BC000F9D0142006F08AFD042000F03DF8022040
:100BD0000249087010BD00000018014018000020F4
:100BE00010B5142006F07AFD00BF0821074800F078
:100BF000B4F90028F9D0142006F070FD082000F0A8
:100C000023F803200249087010BD000000180140BD
:100C10001800002010B5142006F060FD00BF102160
:100C2000074800F09AF90028F9D0142006F056FD84
:100C3000102000F009F804200249087010BD0000DF
:100C400000180140180000200149086070470000AA
:100C500014040140002123498279002A3AD00A462F
:100C6000126803689A430B461A600A1D12680368EB
:100C70009A430B1D1A60027911440A6803681A43EB
:100C80000A60184A0832126803689A43154B083301
:100C90001A601A1D126803689A43124B0C331A60CB
:100CA0004279102A0ED11A1F126803681A430D4B9D
:100CB00008331A601A1D126803681A43094B0C3373
:100CC0001A600DE00749427911440A6803681A4323
:100CD0000A6005E0027911440A6803689A430A60D1
:100CE000704700000004014051B18200A2F1C042EF
:100CF000126842F001038200A2F1C042136009E0D1
:100D00008200A2F1C0421268034B1A408300A3F193
:100D1000C0431A6070470000FEFF0F00D0E90112C7
:100D20001143C26811430269114342691143826948
:100D30001143C2691143026A1143426A1143826A34
:100D40001143C26A1143026B114302689200A2F17F
:100D5000C0421160816808290BD101688900A1F1A6
:100D6000C041096841F0400201688900A1F1C04119
:100D70000A60416B0968426B526841EA0211426B9A
:100D8000926841EA0221426B928941EA0241426B38
:100D9000128A41EA0251426B127D41EA0261426BC2
:100DA000926911430268521C9200A2F1C042116084
:100DB000C16AB1F5804F1BD1816B0968826B5268A3
:100DC00041EA0211826B926841EA0221826B128A27
:100DD00041EA0251826B127D41EA0261826B9269A3
:100DE000114302689200A2F1C042C2F8041107E068
:100DF0006FF0704201688900A1F1C041C1F804217F
:100E00007047000030B500228B071C0F0F2303FA38
:100E100004F20B4B8C1053F824309343084C8D1084
:100E200044F8253023468C1053F824308C07240FC7
:100E300000FA04F42343024C8D1044F8253030BDF1
:100E4000080001402DE9F04102460025002600205F
:100E500000230024002791F803C00CF00F0591F83F
:100E600003C00CF0100CBCF1000F03D091F802C0CD
:100E70004CEA050591F800C0BCF1000F31D01468B0
:100E800000202BE04FF0010C0CFA00F3B1F800C089
:100E90000CEA03069E4220D183004FF00F0C0CFA9F
:100EA00003F7BC4305FA03FC4CEA040491F803C0C1
:100EB000BCF1280F06D14FF0010C0CFA00FCC2F86F
:100EC00014C00AE091F803C0BCF1480F05D14FF0FF
:100ED000010C0CFA00FCC2F810C0401C0828D1D349
:100EE0001460B1F800C0BCF1FF0F34DD546800207D
:100EF0002EE000F1080C4FF0010808FA0CF3B1F8ED
:100F000000C00CEA03069E4221D183004FF00F0C73
:100F10000CFA03F7BC4305FA03FC4CEA040491F80D
:100F200003C0BCF1280F05D100F1080C08FA0CF839
:100F3000C2F8148091F803C0BCF1480F07D100F14A
:100F4000080C4FF0010808FA0CF8C2F81080401C99
:100F50000828CED35460BDE8F08102460020936893
:100F60000B400BB1012000E0002070474161704749
:100F70000161704700BFFEE710B5022006F0D4FB08
:100F800010BD10B5002000F07DFEFFF7F5FF012039
:100F900000F068FEFFF7F0FF012000F073FEFFF79E
:100FA000EBFF10BD70B500240025012000F06AFEA3
:100FB000FFF7E2FF012000F055FEFFF7DDFF07E03D
:100FC000601CC4B2FA2C03DDFFF7DBFF012505E04E
:100FD00080210648FFF7C1FF0028F1D100BF0020A3
:100FE00000F040FEFFF7C8FF284670BD000C01402E
:100FF00070B505460026012000F044FE002412E0F2
:10100000012000F02FFEFFF7B7FF80210B48FFF70C
:10101000A4FF10B1802020410643002000F022FEF2
:10102000FFF7AAFF641C082CEADB15B900F008F8EA
:1010300001E000F038F8304670BD0000000C0140BF
:1010400010B5002000F01EFEFFF796FF012000F013
:1010500009FEFFF791FF002000F004FEFFF78CFF70
:10106000012000F00FFEFFF787FF10BD70B50546A9
:10107000002412E0C4F1070145FA01F101F001007A
:1010800000F000FEFFF778FF012000F0EBFDFFF716
:1010900073FF002000F0E6FD641C082CEADB012051
:1010A00000F0F0FD70BD10B5012000F0EBFDFFF782
:1010B00063FF012000F0D6FDFFF75EFF002000F087
:1010C000D1FDFFF759FF10BD10B5012000F0DAFD8A
:1010D000012000F0C7FDFFF74FFF002000F0D2FD18
:1010E000FFF74AFF002000F0BDFDFFF745FF10BDF0
:1010F00008B50121082000F03BFD4020ADF80000BC
:1011000010208DF8030003208DF80200694608487E
:10111000FFF798FE8020ADF8000014208DF8030042
:1011200069460348FFF78EFEFFF72BFF08BD00005E
:10113000000C01401FB50121042000F019FD012120
:10114000402000F015FD0121084600F011FD1C2093
:10115000ADF80C0048208DF80F0003208DF80E002C
:1011600003A93F48FFF76EFE0120ADF80C002820D0
:101170008DF80F0003A93B48FFF764FE00210846E5
:10118000FFF740FE02210420FFF73CFE032104206C
:10119000FFF738FE04210846FFF734FE1C200190BB
:1011A00001208DF80A0000208DF808000C208DF831
:1011B000090001A8FFF74EFD0120019008208DF8DD
:1011C000090001A8FFF746FD4FF4A06000F0A4FC61
:1011D00006208DF8000001208DF8030002208DF814
:1011E000010001208DF80200684600F05DFC062039
:1011F00000F04FFC08208DF8000001208DF803005E
:1012000002208DF801008DF80200684600F04CFCC9
:10121000082000F03EFC09208DF8000001208DF828
:10122000030002208DF8010003208DF802006846BB
:1012300000F03AFC092000F02CFC0A208DF8000098
:1012400001208DF8030002208DF8010000208DF8A8
:101250000200684600F028FC0A2000F01AFC1FBDBE
:101260000018014000080140034991F90000FF21E6
:10127000014A117070470000180000200020084942
:10128000887141F66D608880F02008804FF4A0706E
:1012900048802C2008812A2048812B208881704793
:1012A0005C06002000B59FB00121080200F040FC60
:1012B00001214FF4B47000F05BFC0120ADF8780020
:1012C00010208DF87B0003208DF87A001EA931488C
:1012D000FFF7B8FD41F20100ADF8780018208DF855
:1012E0007B001EA92C48FFF7ADFD4CF23370ADF822
:1012F00078001EA92948FFF7A5FD4FF68070ADF8CC
:1013000078001EA92648FFF79DFD00200E900120C1
:101310000990002008900B900C900D9001200A90ED
:101320000020079001200290002001900490059079
:101330000690012003900020149006200F900020BA
:10134000139010904FF480401A90102012900020BB
:10135000119019901790159016904FF48050189096
:1013600008A81D9001A81C900FA8FFF7D7FC012129
:101370000620FFF7B9FC12F023FFFFF77FFF0121E2
:101380000448FFF7F5FD4FF6FF7000F00BF81FB0B3
:1013900000BD0000000C014000200140001401408D
:1013A0000018014030B504460E4800880D494988B0
:1013B00000FB01F50B484088401E83B209480088B5
:1013C000401E81B20022104600F002F900F096F8AB
:1013D000002203E0204600F01BFB521CAA42F9D970
:1013E00030BD00005C0600202DE9F04706460C46A3
:1013F00015461F46DDF82080A81B401C1FFA80FA06
:10140000381B401C1FFA80F93B46224629463046CD
:1014100000F0DEF800F072F8002206E0B8F80000F4
:1014200000F0F6FA08F10208521C0AFB09F090429B
:10143000F4D8BDE8F087F0B506460C4617461D46C1
:101440007019401E81B223462246304600F0C0F893
:1014500000F054F8002204E0384600F0D9FA501C9D
:1014600082B2AA42F8DBF0BD70B505460C461646BE
:10147000234622462946284600F0AAF800F03EF806
:10148000304600F0C5FA70BDF0B506460C4617466A
:101490001D466019401E83B222463146304600F098
:1014A00097F800F02BF8002204E0384600F0B0FA7C
:1014B000501C82B2AA42F8DBF0BD2DE9F04306468B
:1014C0000C4615461F46DDF81C80A81B401C391B26
:1014D000491C00FB01F93B4622462946304600F0F4
:1014E00077F800F00BF802E0404600F091FAB9F10D
:1014F0000000A9F10109F7D1BDE8F08300B5024968
:10150000088900F077FA00BD5C06002030B504467B
:1015100064B101202D4988714FF4A0700880F0203B
:1015200048802A2048812B2088810BE00020274911
:101530008871F02008804FF4A07048802A204881EC
:101540002B2088810023002514B1012C05D101E056
:1015500000BF03E043F0A00300E000BF00BF36255A
:1015600043F008031946284600F04AFA174948890B
:1015700000F040FA002000F04BFA002000F048FA9A
:1015800012490988491EC1F30F2000F041FA0F49A2
:101590000978491EC8B200F03BFA0C49888900F06E
:1015A00029FA002000F034FA002000F031FA07494F
:1015B0004988491EC1F30F2000F02AFA03498978AF
:1015C000491EC8B200F024FA30BD00005C060020BD
:1015D00030B504460D461049488900F00BFA201238
:1015E00000F016FAE0B200F013FA281200F010FA38
:1015F000E8B200F00DFA0849888900F0FBF91012F2
:1016000000F006FAD0B200F003FA181200F000FA67
:10161000D8B200F0FDF930BD5C0600202DE9FF4F87
:1016200082460F461646DDF83880B34606EBDB707F
:101630000AEB6000401E81B2B819401E83B23A46E0
:101640005046FFF7C5FFFFF759FF4FF00009102E76
:1016500004D0182E22D0202E73D152E04FF0100962
:10166000A8F12000434900FB0914002213E014F8FC
:10167000015B00230CE005F0800018B1039800F036
:10168000C7F902E00D9800F0C3F96806050E5B1C6F
:10169000082BF0DB521CB242E9DB68E04FF0300966
:1016A000A8F12000344900FB0914002226E014F8B8
:1016B000015B00230CE005F0800018B1039800F0F6
:1016C000A7F902E00D9800F0A3F96806050E5B1C6F
:1016D000082BF0DB14F8015B00230CE005F0800020
:1016E00018B1039800F094F902E00D9800F090F919
:1016F0006806050E5B1C042BF0DB521CB242D6DBE5
:1017000035E04FF04009A8F120001C4900FB091406
:10171000002227E014F8015B00230CE005F08000B4
:1017200018B1039800F074F902E00D9800F070F918
:101730006806050E5B1C082BF0DB14F8015B002328
:101740000DE012E005F0800018B1039800F060F998
:1017500002E00D9800F05CF96806050E5B1C082B92
:10176000F0DB521CB242D5DB01E0BDE8FF8F00BFC9
:1017700000BFFAE72E0903081E0F0308EE20030836
:101780002DE9FF4F89B082468B46DDE918562F467A
:10179000B046002409E0601CC4B20A220023384687
:1017A0004146FEF7E3FC07468846002187EA010030
:1017B00088EA01010843EED181461CE00A22002399
:1017C00028463146FEF7D2FC30201018C1B2A4F1F1
:1017D0000100A0EB090003AA11544FF00A024FF0D8
:1017E000000328463146FEF7C1FC05460E4609F1C6
:1017F000010000F0FF09A145E0DB002003A9085526
:101800001698CDE9000159465046DDE90B2300F05A
:1018100003F80DB0BDE8F08F2DE9FF4F83B0064609
:101820009146DDE910BA00210C460D461CE000216E
:10183000A4FB097205FB092204FB012802220B46C6
:1018400038464146FEF792FC801980B202901AF8A1
:101850000400CDE900B04A46069B04990298FFF7C0
:10186000DDFE641C45F100051AF804000028DED1F5
:1018700007B0BDE8F08F2DE9FF4F89B005460C4653
:101880001E46ADF82050A01B80B2ADF82200ADF886
:101890001C50A01980B2ADF81E00A81B80B2ADF894
:1018A0001800ADF81A40A81980B2ADF81400ADF8D0
:1018B0001640BDF8189048E006FB06F1A9EB0502BA
:1018C000A9EB050302FB1310FEF7EAFECDE90001C8
:1018D0002AF022FE074688462046FEF7F2FE3A46E8
:1018E0004346CDE90201FEF74AFD8246FEF70AFFB4
:1018F00080B20490014648460B9AFFF7B5FD06FBFF
:1019000006F1A9EB0502A9EB050302FB1310FEF794
:10191000C7FE82462AF000FECDE902012046FEF70E
:10192000D0FECDE90001DDE90223FEF7C9FD07463F
:10193000FEF7E8FE80B20490014648460B9AFFF796
:1019400093FD09F101001FFA80F9BDF81400484524
:10195000B2DABDF822B046E006FB06F1ABEB0402BA
:10196000ABEB040302FB1310FEF79AFECDE9000176
:101970002AF0D2FD074688462846FEF7A2FE814699
:101980003A464346FEF7FBFCCDE90201FEF7BAFEFC
:1019900080B2049059460B9AFFF766FD06FB06F1EC
:1019A000ABEB0402ABEB040302FB1310FEF778FE73
:1019B000CDE900012AF0B0FDCDE902012846FEF78D
:1019C00080FE0746DDE90223FEF77AFD8146FEF739
:1019D00099FE80B2049059460B9AFFF745FD0BF132
:1019E00001001FFA80FBBDF81E005845B4DA0DB0A7
:1019F000BDE8F08F0149088070470000FE07006CC9
:101A0000024A1080921C118070470000FE07006C93
:101A100001490880704700000008006C08B50121EA
:101A2000482000F0A5F82020ADF8000010208DF827
:101A3000030003208DF8020069460948FFF702FA07
:101A400020210748FFF794FA2020ADF800006946EE
:101A50000448FFF7F7F920210248FFF789FA08BD8B
:101A6000000C01400018014070B504460D4629469F
:101A70002046FFF772FA20B929462046FFF778FA88
:101A800003E029462046FFF771FA70BD00BFFEE76C
:101A9000704700F01F02012191404209920002F1BB
:101AA000E022C2F80011704770B5002100230F2218
:101AB000C47804B3154C246804F4E064C4F5E0640D
:101AC000210AC1F10403CA40447804FA03F184787E
:101AD0001440214309010E4C0678A155047804F006
:101AE0001F050124AC4005786D11AD0005F1E0251E
:101AF000C5F8004109E0047804F01F050124AC405A
:101B0000044D0678761145F8264070BD0CED00E0D6
:101B100000E400E080E100E002490143024A116074
:101B2000704700000000FA050CED00E0704700006F
:101B300029B1064A52690243044B5A6104E0034A40
:101B400052698243014B5A61704700000010024005
:101B500029B1064AD2690243044BDA6104E0034A20
:101B6000D2698243014BDA617047000000100240E5
:101B700029B1064A92690243044B9A6104E0034A80
:101B800092698243014B9A61704700000010024045
:101B900030B500210022002400232D4D6D6805F092
:101BA0000C0121B1042905D0082923D105E0294DD4
:101BB000056022E0274D05601FE0254D6D6805F4A6
:101BC0007012234D6D6805F48034022505EB9242B6
:101BD0001CB9214D554305600BE01D4D6D6805F4A2
:101BE00000351DB11C4D5543056002E0194D5543AC
:101BF000056002E0174D056000BF00BF144D6D6821
:101C000005F0F0010909154D6B5C0568DD40456084
:101C10000F4D6D6805F4E061090A104D6B5C456875
:101C2000DD4085600A4D6D6805F46051C90A0B4DB1
:101C30006B5C4568DD40C560054D6D6805F440414D
:101C4000890B074D6B5CC568B5FBF3F5056130BDCD
:101C50000010024000127A0000093D00040000203C
:101C60001400002010B5044624B140210448FFF7B9
:101C70007FF903E040210248FFF778F910BD00002A
:101C8000000C014010B5044624B180210448FFF740
:101C90006FF903E080210248FFF768F910BD0000EA
:101CA000000C01407047000000B587B001210420FE
:101CB000FFF75EFF01218803FFF75AFF18208DF818
:101CC0001B004FF40070ADF8180003208DF81A00C7
:101CD00006A92248FFF7B6F848208DF81B004FF4FC
:101CE0008060ADF8180003208DF81A0006A91B4883
:101CF000FFF7A8F84FF4E13002900020ADF814008F
:101D00000C20ADF812000020ADF81000ADF80E0068
:101D1000ADF80C0002A9124800F054FA012240F27A
:101D200025510F4800F028FA4FF4A060FFF7F4FEA9
:101D300025208DF8040001208DF8070003208DF880
:101D4000050001208DF8060001A8FFF7ADFE012176
:101D5000034800F0DBF907B000BD000000080140B7
:101D60000038014010B500F001F810BD0CB500209E
:101D7000019000903348006840F480303149086099
:101D800000BF3048006800F4003000900198401C0B
:101D90000190009818B90198B0F5A06FF1D12948C9
:101DA000006800F4003010B10120009001E0002034
:101DB00000900098012843D12348006840F01000AB
:101DC000214908600846006820F0070008600846BE
:101DD000006840F0020008601A48406819494860ED
:101DE0000846406848600846406840F480604860A3
:101DF0000846406820F47C1048600846406840F47B
:101E0000E81048600846006840F08070086000BF35
:101E10000C48006800F000700028F9D009484068BC
:101E200020F00300074948600846406840F002007F
:101E3000486000BF0348406800F00C000828F9D152
:101E40000CBD00000010024000200240042808D110
:101E50004FF0E021096941F004014FF0E0221161E7
:101E600007E04FF0E021096921F004014FF0E02282
:101E7000116170477047000010B51348006840F0CA
:101E800001001149086008464068104908400E49A1
:101E90004860084600680E4908400B49086008463B
:101EA000006820F4802008600846406820F4FE00A6
:101EB00048604FF41F008860FFF754FF4FF0006048
:101EC0000449086010BD0000001002400000FFF847
:101ED000FFFFF6FE08ED00E010B50121064800F016
:101EE0001CF8012806D10121034800F007F8012061
:101EF00027F022FC10BD000000100040CA430282FF
:101F0000704721B1028842F00102028004E0028899
:101F10004FF6FE731A400280704730B5024600202B
:101F200000230024158A05EA0103958905EA0104C6
:101F300013B10CB1012000E0002030BD1AB183893B
:101F40000B43838102E083898B43838170470000C8
:101F5000002202881D4B98420ED01D4B98420BD098
:101F6000B0F1804F08D01B4B984205D01A4B9842D5
:101F700002D01A4B984204D14FF68F731A404B8807
:101F80001A43174B984207D0164B984204D04FF68D
:101F9000FF431A40CB881A4302808B8883850B88C5
:101FA00003850A4B98420BD0094B984208D00E4B40
:101FB000984205D00D4B984202D00D4B984201D16A
:101FC0000B7A03860123838270470000002C0140B6
:101FD000003401400004004000080040000C0040B4
:101FE0000010004000140040004001400044014047
:101FF0000048014010B504462CB14FF4006105487B
:10200000FEF7B6FF04E04FF400610248FEF7AEFFB2
:1020100010BD0000001C014010B504462CB14FF467
:1020200000710548FEF7A4FF04E04FF40071024878
:10203000FEF79CFF10BD0000001C014010B50446D7
:1020400024B102210448FEF793FF03E00221024875
:10205000FEF78CFF10BD0000000C01401FB50121F0
:102060001020FFF775FD0920ADF8080041F61F406C
:10207000ADF804000020ADF80A00ADF8060001A993
:102080000E48FFF765FF012211460C48FFF756FF87
:1020900001210A48FFF735FF4FF4A060FFF73CFD30
:1020A00036208DF8000001208DF801008DF8020027
:1020B0008DF803006846FFF7F7FC1FBD00100040D5
:1020C00010B514E00E4800F0E9F80E490E4A1288E7
:1020D00088540D480088401C0B4908800846008839
:1020E00040F2FF31884202DB00200749088040F2BD
:1020F0002551034800F016F80128E3D010BD000078
:10210000003801405C0200201A00002021B18289C1
:1021100042F40052828104E082894DF6FF731A4036
:102120008281704770B502460024002300250020FC
:1021300040F66A16B14200D100BFC1F3421501F06A
:102140001F03012606FA03F3012D02D196893340BD
:1021500006E0022D02D1168A334001E0968A334010
:102160000C12012606FA04F41688344013B10CB19F
:10217000012000E0002070BDF0B5034600240026D9
:102180000025002040F66A17B94200D100BF18466A
:10219000C1F3421401F01F06012707FA06F5012CCE
:1021A00001D10C3004E0022C01D1103000E01430D9
:1021B0001AB107682F43076002E00768AF43076062
:1021C000F0BD00002DE9F04786B005460E4600241C
:1021D000A24600BFA1460027B08900B100BF2F462C
:1021E0002C8A4CF6FF700440F08804432C82AC89A2
:1021F0004EF6F3100440B0883189084371890843D2
:102200000443AC81AC8A4FF6FF400440B0890443DC
:10221000AC8201A8FFF7BCFC1F48874202D1DDF861
:1022200010A001E0DDF80CA0A88900F4004040B146
:102230000AEBCA0000EB0A1031684900B0FBF1F864
:1022400007E00AEBCA0000EB0A1031688900B0FB16
:10225000F1F86420B8FBF0F004012009642101FBCF
:102260001089A88900F4004040B1322000EBC90079
:10227000B0FBF1F000F00700044308E0322000EB6F
:1022800009106421B0FBF1F000F00F0004432C8131
:1022900006B0BDE8F087000000380140014688889C
:1022A000C0F30800704700BFFEE700000FB4084B02
:1022B00010B504A902AA039802F0FAF9044602A98B
:1022C000002002F078FD204610BC5DF814FB0000F1
:1022D000B74D000802E008C8121F08C1002AFAD151
:1022E00070477047002001E001C1121F002AFBD196
:1022F0007047000001490860704700005802002044
:1023000070B50446002508E02168481C2060087864
:10231000303805EB850100EB41052168087800F0B5
:10232000C7F80028F0D1284670BD00002DE9FF5FF6
:1023300082B00021DDE90430020DDDF840B0034336
:1023400018D044F61050A2F2FF32424315141198EF
:1023500001281FD0A5EB0B00401C5FEA000A4FF0DC
:1023600000064E4FDFF83891B046504615D5CAF1F9
:10237000000413E0119801244AA3012801D16FEA57
:102380000B010298119AC0E90031C0E9024206B07F
:10239000BDE8F09FCBF10000DFE704460021404A92
:1023A000491842EB0450CDE9001012E0E00707D0D5
:1023B00032463B4640464946FEF788F88046894605
:1023C00032463B4610461946FEF780F806460F4651
:1023D0006410002CEAD1DDE90401DDE90023BAF143
:1023E000000F06DAFEF772F842464B46FEF76EF82B
:1023F00005E0FEF7DDF842464B46FEF7D9F8044605
:102400000E460022284BFEF7C7F903D84FF0FF30E5
:10241000014607E00022254B20463146FDF7AFFF7D
:10242000FEF789F9102409E0002C0ADB0A220023B8
:10243000FDF79CFE039B30321A55641E50EA0102E0
:10244000F2D1641C039AC4F111031444119A012AB5
:1024500003D0012208430DD10AE0084304D0002034
:102460004FF0110B119072E7A3EB0B056D1E0DE001
:102470005B4504DD4FF0000205F1010504E003DADD
:102480004FF00002A5F10105002AECD00298119945
:10249000C0E90231C0E9004579E7000000001440BE
:1024A0000000F03F300000000000F0430000E03F7B
:1024B0000146302903DB392901DC01207047002067
:1024C000FCE7000010B54021074801F0E3FA0022C4
:1024D0001E21064827F098F90549086003F088F99D
:1024E00000200449087010BD70210020BD5800086C
:1024F000E0010020DC01002030B50346B1F90040C6
:10250000B2F90050AC4202DDB1F9004001E0B2F98D
:1025100000401C80B1F90240B2F90250AC4202DD29
:10252000B1F9024001E0B2F902405C80B1F9044027
:10253000B2F90450AC4202DAB1F9044001E0B2F958
:1025400004409C80B1F90640B2F90650AC4202DA70
:10255000B1F9064001E0B2F90640DC800120B3F990
:102560000040B3F90450AC4205DCB3F90240B3F9C2
:102570000650AC4200DD002030BDF8B504460D46E3
:1025800016460027B4F90000B5F90010884212DBA6
:10259000B4F90200B5F9021088420CDBB4F904006A
:1025A000B5F90410884206DCB4F90600B5F9061046
:1025B000884200DC01270FB90020F8BD0EB90120C8
:1025C000FBE72088ADF800006088ADF802003246D5
:1025D0006946284600F0A7F808B90020EDE7A08872
:1025E000ADF800006088ADF8020032466946284622
:1025F00000F099F808B90020DFE72088ADF8000066
:10260000E088ADF8020032466946284600F08BF8B3
:1026100008B90020D1E7A088ADF80000E088ADF847
:10262000020032466946284600F07DF808B90020CD
:10263000C3E70120C1E70246B2F90000B1F9043056
:10264000984213DCB2F90400B1F9003098420DDB76
:10265000B2F90200B1F90630984207DCB2F906007F
:10266000B1F90230984201DB012070470020FCE7FD
:10267000F8B504460D461646B4F90400B5F9001045
:10268000884211DBB4F90600B5F9021088420BDB71
:10269000B4F90000B5F90410884205DCB4F9020071
:1026A000B5F90610884201DD0120F8BD0EB9002001
:1026B000FBE72088ADF800006088ADF802003246E4
:1026C0006946284600F02FF808B10020EDE7A08801
:1026D000ADF800006088ADF8020032466946284631
:1026E00000F021F808B10020DFE72088ADF80000F5
:1026F000E088ADF8020032466946284600F013F83B
:1027000008B10020D1E7A088ADF80000E088ADF85E
:10271000020032466946284600F005F808B100205C
:10272000C3E70120C1E72DE9FC5F05460E461446CC
:102730004FF0000AB6F90000B5F90010884213DB2B
:10274000B6F90000B5F9041088420DDCB6F90200B4
:10275000B5F90210884207DBB6F90200B5F9061098
:10276000884201DC4FF0010ABAF1000F02D10020CB
:10277000BDE8FC9F002C01DC0120F9E7284613F09E
:102780003CF8834600EBDB704710284612F0ADFFA3
:10279000834600EBDB704FEA6008474501DA3846B4
:1027A00000E0404681464C4500DD4C462888ADF8A7
:1027B00000002888204400B2ADF804006888ADF815
:1027C00002006888204400B2ADF8060000223146BD
:1027D0006846FFF7A8FF80B1BDF80400204400B2AE
:1027E000ADF80400BDF80600204400B2ADF80600C4
:1027F0003146684623F0C0FBBAE7E888001B00B208
:10280000ADF80200E888ADF80600002231466846BF
:10281000FFF789FF80B1BDF80400204400B2ADF895
:102820000400BDF80200001B00B2ADF80200314602
:10283000684623F0A1FB9BE7A888001B00B2ADF817
:102840000000A888ADF80400002231466846FFF772
:102850006AFF80B1BDF80000001B00B2ADF80000B7
:10286000BDF80200001B00B2ADF802003146684618
:1028700023F082FB7CE76888ADF80200688820447A
:1028800000B2ADF80600002231466846FFF74BFF64
:1028900080B1BDF80000001B00B2ADF80000BDF82B
:1028A0000600204400B2ADF806003146684623F029
:1028B00063FB5DE701205BE710B5B1F90030B2F9C9
:1028C0000040A34202DAB1F9003001E0B2F9003071
:1028D0000380B1F90230B2F90240A34202DAB1F941
:1028E000023001E0B2F902304380B1F90430B2F9AC
:1028F0000440A34202DDB1F9043001E0B2F9043032
:102900008380B1F90630B2F90640A34202DDB1F985
:10291000063001E0B2F90630C38010BD2DE9FF4159
:10292000044626F0F9FE05460020039034B14749DD
:10293000E0680860204627F07FF803E015F0AEFD60
:102940004249086041490968086923F073FA3F4821
:102950000068406920B13D490968486923F06AFA76
:102960003A490968C86923F065FA38490968086A6C
:1029700023F060FA35480068006940B90020334907
:102980000968A1F8500100BF00BFBDE8FF8123F036
:10299000F3FD23F039FD2D480068B0F85001002800
:1029A0004BD02A4800680068007CC0F34000E8B1C2
:1029B0002648006815F0F0FD401E06B22348006866
:1029C00015F084FD401E07B23B460022114601A8C7
:1029D000009612F057FF01A81C4909680968896B25
:1029E00048601A48006805F0C5FF00BF4FF48071C9
:1029F0001648006830301DF0A8FC202113480068FC
:102A000000F598701DF0A1FC002010490968A1F89C
:102A10005001284626F072FE03900C4800680068BA
:102A2000406A50B109490968086808490968096895
:102A30004B6A07490A68039998471DF0BDF900F0F1
:102A40003FF800F007F800BF9FE700009800002063
:102A50009400002010B5002416E0C4EBC4000C491B
:102A600051F8200030B1C4EBC401094A52F82100EA
:102A70001DF054FAC4EBC401054A02EB81001C218D
:102A80001DF063FC601CC4B2042CE6DB10BD00002A
:102A90004C2200200146094A10680BE042688A4235
:102AA00002D002688A4204D1027E22F00102521C46
:102AB000027640690028F1D1704700006C000020C8
:102AC0007047000010B50421014800F0E3FF10BD7D
:102AD0006421002010B51C21014800F0DBFF10BD6F
:102AE0007C2100202DE9FF4F8BB004469A46199DAA
:102AF000BAF1000F11D11898B0F5807F0DD10020E8
:102B0000208060800C98401E00B2A0800D98401E6E
:102B100000B2E0800FB0BDE8F08FB5F90000404290
:102B2000189948430121C1EB202000B22080B5F95B
:102B300002004042189948430121C1EB202000B215
:102B40006080B5F900100C98401A1899484302218A
:102B500001EB202000B2A080B5F902100D98401AB8
:102B600018994843022101EB202000B2E080BAF11D
:102B7000000F14D120882988084400B22080608882
:102B80006988084400B26080A0882988084400B29F
:102B9000A080E0886988084400B2E080BAE70A2093
:102BA0009AFBF0F00A900A98401C09900A9800EBF2
:102BB0008000AAEB400B0A9800B227F0C3F80890F7
:102BC000099800B227F0BEF807900A985A3000B270
:102BD00027F0B8F8069009985A3000B227F0B2F8FA
:102BE0000590CBF10A0108984143079800FB0B10B0
:102BF0000A2190FBF1F6CBF10A01069841430598B2
:102C000000FB0B100A2190FBF1F776117F11B4F94C
:102C10000080B4F9029007FB08F006FB1900298830
:102C200001EBA02000B2ADF8100006FB08F007FB96
:102C30000900698801EBA02000B2ADF81200B4F9D8
:102C40000480B4F9029007FB08F006FB19002988FC
:102C500001EBA02000B2ADF80C0006FB08F007FB6A
:102C60000900698801EBA02000B2ADF80E00B4F9AC
:102C70000080B4F9069007FB08F006FB19002988CC
:102C800001EBA02000B2ADF8080006FB08F007FB3E
:102C90000900698801EBA02000B2ADF80A00B4F980
:102CA0000480B4F9069007FB08F006FB1900298898
:102CB00001EBA02000B2ADF8040006FB08F007FB12
:102CC0000900698801EBA02000B2ADF80600BDF94B
:102CD0000800BDF91010884202DABDF9080001E0D1
:102CE000BDF91000BDF90410BDF90C20914202DAC3
:102CF000BDF9041001E0BDF90C1088420BDABDF9F2
:102D00000800BDF91010884202DABDF908000DE094
:102D1000BDF910000AE0BDF90400BDF90C108842AD
:102D200002DABDF9040001E0BDF90C002080BDF914
:102D30000800BDF91010884202DDBDF9080001E06D
:102D4000BDF91000BDF90410BDF90C20914202DD5F
:102D5000BDF9041001E0BDF90C1088420BDDBDF98E
:102D60000800BDF91010884202DDBDF908000DE031
:102D7000BDF910000AE0BDF90400BDF90C1088424D
:102D800002DDBDF9040001E0BDF90C00A080BDF931
:102D90000A00BDF91210884202DABDF90A0001E00A
:102DA000BDF91200BDF90610BDF90E20914202DAFC
:102DB000BDF9061001E0BDF90E1088420BDABDF92D
:102DC0000A00BDF91210884202DABDF90A000DE0CE
:102DD000BDF912000AE0BDF90600BDF90E108842E7
:102DE00002DABDF9060001E0BDF90E006080BDF910
:102DF0000A00BDF91210884202DDBDF90A0001E0A7
:102E0000BDF91200BDF90610BDF90E20914202DD98
:102E1000BDF9061001E0BDF90E1088420BDDBDF9C9
:102E20000A00BDF91210884202DDBDF90A000DE06A
:102E3000BDF912000AE0BDF90600BDF90E10884286
:102E400002DDBDF9060001E0BDF90E00E08000BF23
:102E500060E62DE9F74F86B0044620680590B4F986
:102E600008100798A0EB0108B4F90A100898A0EB25
:102E70000109E089B0F5807F13D1206B00FB08F0D9
:102E8000E16A01FB1901606A00EBA10BE06A00FB3B
:102E900008F0216B01FB0901A06A00EBA10004907E
:102EA0002FE0A08980B9A06B00FB08F04FEA601802
:102EB000A06B00FB09F04FEA6019606A00EB080B99
:102EC000A06A484404901CE0A06B00FB08F04FEAA5
:102ED0006018A06B00FB09F04FEA6019206B00FB43
:102EE00008F0E16A01FB1901606A00EBA12BE06ABE
:102EF00000FB08F0216B01FB0901A06A00EBA12097
:102F000004904FEA2B2604980712B4F90400B0424B
:102F100003DC002009B0BDE8F08F002E01DA0020AC
:102F2000F8E7B4F90600B84201DC0020F2E7002F10
:102F300001DA0020EEE73420005DC0F3800050B3DA
:102F40003420005DC0F3400078B90225B4F90400D4
:102F50007843684306FB050A059800EB0A012A46F8
:102F600004F114001DF09FF92CE00325B4F90400CE
:102F70007843684306FB050A6A1E059800EB0A01C0
:102F800004F114001DF08FF90AEB0500401E0599AD
:102F9000095CA17516E04FF0000A0025208A03465F
:102FA0003AB231B2019004F1180019F06BFE0290B0
:102FB000BDF80800A0823AB231B204F1180019F04D
:102FC000C1FDA0753420005D00F00100B0B14FF4E8
:102FD0007F40002100F47C4241EA5211C0F3C40258
:102FE00011430191BDF8042011460291A08ABDF859
:102FF0000810884201D100208CE700BFE07C08B9AE
:10300000012087E70FFA8BF1A187049801B2E187CD
:1030100031B24020015339B242200153C4F844A0D8
:1030200084F84850204600F003F80390039871E7B5
:103030002DE9F04F8DB00446D4F8009094F83C0090
:103040000C9094F83E000B900C9870280BDA4FF01F
:10305000FF35B4F940002844002800DA00250C9818
:103060008030C7B213E00C9890280EDD0125B4F92A
:1030700040002844B4F90410884200DB00250C9875
:10308000C0F1FF008030C7B201E00025FF270B9898
:1030900070280CDA4FF0FF36B4F9420030440028B3
:1030A00000DA00260B98803000F0FF0815E00B983E
:1030B00090280FDD0126B4F942003044B4F906101F
:1030C000884200DB00260B98C0F1FF00803000F042
:1030D000FF0802E000264FF0FF08A08A0A90A07DBA
:1030E000069000200590049003903420005DC0F30A
:1030F000800000285BD094F84800626C00FB05203B
:1031000000EB0901022209A81DF0CDF8B4F9040072
:1031100094F848205043626C00FB062000EB090144
:10312000022208A81DF0BFF8B4F9040094F8482062
:103130005043626C00FB062294F8480000FB052017
:1031400000EB0901022207A81DF0ADF83420005D54
:10315000C0F3400000287ED094F84800616C00FB6A
:1031600005110844401E19F800000590B4F9040048
:1031700094F848104843616C00FB061194F848002D
:103180000844401E19F800000490B4F9040094F8B3
:1031900048104843616C00FB061194F8480000FB9E
:1031A00005110844401E19F80000039053E0208ADE
:1031B0000090B4F942204020005B284401B204F1A1
:1031C0001800009B19F05EFD0990208A00904220B3
:1031D000005B304402B2B4F9401004F11800009BC7
:1031E00019F050FD0890208A00904220005B304486
:1031F00002B24020005B284401B204F11800009B99
:1032000019F040FD07903420005DC0F3400010B37A
:10321000B4F942204020005B284401B204F11800B8
:1032200019F090FC05904220005B304402B2B4F9E2
:10323000401004F1180019F085FC04904220005B56
:10324000304402B24020005B284401B204F118006F
:1032500019F078FC0390BA46BB463420005DC0F3F9
:103260004000E0B306987843C7F1FF0C059B03FBD1
:103270000C00C0F3072104987843C7F1FF0C039BAF
:1032800003FB0C00C0F3072201FB08F0C8F1FF03A9
:1032900002FB0300030AA375022905DC022A03DCF2
:1032A00000200DB0BDE8F08F022901DC4FF00008CE
:1032B000022A01DC4FF0FF080698022801DC4FF0DB
:1032C000000A0598022801DC4FF0FF0A0498022842
:1032D00001DC4FF0000B0398022803DC00E002E061
:1032E0004FF0FF0B03E0BA46BB46FF21A175BAF1D0
:1032F000000F02D1099802900BE0BAF1FF0F02D142
:103300000A98029005E05246DDE9091014F03EFBF0
:103310000290BBF1000F02D1079801900BE0BBF1C6
:10332000FF0F02D10898019005E05A46DDE9071029
:1033300014F02CFB0190B8F1000F03D1BDF804008C
:10334000A0820FE0B8F1FF0F03D1BDF80800A08202
:1033500008E04246DDE9011014F018FB0090BDF8CA
:103360000000A08201209CE72DE9F05F0446B4F93B
:10337000080001026162B4F90A000102A162B4F915
:103380000C000A2190FBF1F56F1CB4F90C0005EB61
:103390008501A0EB4106684200B226F0D3FC8046CE
:1033A000784200B226F0CEFC8146C5F15A0000B248
:1033B00026F0C8FC8246C7F15A0000B226F0C2FCD3
:1033C0008346C6F10A0000FB08F009FB06000A214B
:1033D00090FBF1F1E162C6F10A0000FB0AF00BFB81
:1033E00006000A2190FBF1F12163E06A4111E162DC
:1033F000206B41112163A07C19F053FD3421095D3C
:1034000060F3000134200155A07C19F02DFD34211A
:10341000095D60F3410134200155A07C042805D0EA
:10342000A07C052802D0A07C062807D13420005DAE
:1034300020F00400001D3421085505E03420005D13
:1034400020F004013420015521682162A06920F098
:10345000E000A061A17CA06961F30400A061A188E3
:10346000A06961F39420A061E188A06961F35F50D5
:10347000A061E08900EBD071491001F5001191FBCA
:10348000F0F2A263FF21A175208AA082BDE8F09F1F
:103490002DE9F743054616460024134C26F03CF967
:1034A0008046334629462046019A1AF0A9F9074674
:1034B0005FB900BF00BF2C2120461CF046FF4FF033
:1034C0000040A0620020BDE8FE830020A062E06909
:1034D00018B9404626F012F9E061E06908B9012008
:1034E000E0612046EFE70000A021002010B5142184
:1034F000114800F0CFFA1AF035F9044600BF1CB9A4
:1035000000BF00BF00BFFEE700BF14B900BF00BF8F
:1035100010BD0A4920461AF00DFA094920461AF052
:103520000BFA084920461AF009FA074920461AF012
:10353000FFF900BFECE700008821002081CF0108DF
:1035400055D4010871D6010849CF010870B5044669
:103550000D46102128461CF0F8FE2068007801284E
:1035600004D1208A2880608A68800CE02068007876
:10357000022802D1E068686005E02068007804282D
:1035800001D10A2068602068406820B1206829467F
:103590004268904701E000BF00BF70BD2DE9FE43C7
:1035A0000446A66AEEB9A18A208A084401B2A18223
:1035B000E18A608A084401B2E18220460CF0F3FE01
:1035C00006460EB9BDE8FE8320460FF0F3FF002249
:1035D0000921304618F030FC6078C0F3400000B19B
:1035E000F0E7208A10B9608A002870D0002002908D
:1035F000019094F83C0000F00F00032812D13046EF
:103600001EF05CFF074630461EF0E0FE80460320B9
:103610000090B4F910103B46424630460CF0BAF91F
:10362000029012E030461EF0CBFF074630461EF0F7
:103630003FFE80460C200090B4F9121043463A46F3
:1036400030460CF0A7F9019000BF30461EF090FE06
:10365000054605F0010028B9BDF90800002801DD84
:103660000020029005F0020028B9BDF908000028EA
:1036700001DA0020029005F0040028B9BDF9040029
:10368000002801DD0020019005F0080028B9BDF9EF
:103690000400002801DA0020019001AA02A92046B6
:1036A00028F0D2FB0023BDF90420BDF908103046F4
:1036B00021F064FEA08ABDF80810084401B2A1827E
:1036C000E08ABDF80410084401B2E18200BF00BFE7
:1036D00078E72DE9F84F0446D4F828B0BBF1000F85
:1036E00001D1BDE8F88F94F83C0000F00F0000B95C
:1036F000F7E71AF007FC06463068477E4021584637
:1037000020F066FB10B900216183218358461EF02A
:1037100043FF804658461EF049FF054694F83C009A
:1037200000F00F000C2843D1002121831DBBB4F908
:103730001A00C7F164014843642190FBF1F001B223
:10374000618358461EF0B4FD814658461EF038FF8E
:1037500082460C200090B4F91A104B465246584647
:103760000CF018F96083B4F91A2000231946584662
:1037700021F004FE69E0204628F0BDFB0090002106
:1037800061836A46204628F05FFBBDF9003041F6B0
:10379000FF72514258460CF0AFFF8146BDF8000061
:1037A000484402B201230021584621F0E7FD4CE0D5
:1037B00094F83C0000F00F00032846D100216183FB
:1037C000B8F1000F23D1B4F91800C7F164014843E0
:1037D000642190FBF1F001B2218358461EF0F6FD02
:1037E000814658461EF06AFE824603200090B4F9D6
:1037F000181053464A4658460CF0CCF82083B4F9CA
:10380000181000231A46584621F0B8FD1DE0204646
:1038100028F056FB009000212183002269462046B3
:1038200028F012FBBDF9003041F6FF7251425846B4
:103830000CF0C8FE8146BDF80000484401B20123E7
:103840000022584621F09AFD00BF208B002860D14D
:10385000608B00285DD11DBB58461EF0B1FE81462D
:1038600058461EF025FD8246B9F1000F02DCBAF180
:10387000000F14DDB9F1000F06DA01234A460021DA
:10388000584621F07BFD0AE0BAF1000F07DA012368
:10389000CAF1000002B20021584621F06FFD00BFBE
:1038A000B8F1000F23D158461EF090FD81465846CE
:1038B0001EF004FE8246B9F1000F02DCBAF1000FDF
:1038C00014DDB9F1000F06DA0123002249465846FB
:1038D00021F054FD0AE0BAF1000F07DA01230022BB
:1038E000CAF1000001B2584621F048FD00BF32463F
:1038F0000A21584618F0A0FA6078C0F3400000B1E1
:10390000EFE694F83C0020F00F0184F83C10002111
:10391000A16200BFE5E62DE9FF4104460F4614B958
:1039200014F0BCFD04460CB9BDE8FF811FB90020AE
:10393000A4F85001F8E70020ADF80800ADF80A003F
:10394000204614F0C3FD401E00B2ADF80C00204626
:1039500014F022FE401E00B2ADF80E0002AA394655
:103960006846FEF7C9FD064606B9DDE72068007C1B
:10397000C0F3400060B102982063039860630120A7
:10398000A4F85001606810B1606826F061F8CBE7D8
:103990002068806918B120686946826990470025CF
:1039A0000BE004F1300000EBC50100226846FEF791
:1039B000E4FD00B1B8E7681C85B2B4F85001A84234
:1039C000EFDCB4F85001202809DAB4F8502104F1F2
:1039D000300101EBC200694611F0F7FD0BE0002059
:1039E000A4F85001B4F8502104F1300101EBC200F9
:1039F00002A911F0EAFDB4F85001401CA4F85001EE
:103A0000606810B1606826F023F800BF8CE770B5DD
:103A10000546284600F013F8044600260CE021462F
:103A2000284600F024F806462146284600F086F88D
:103A300020461CF073FA3446002CF0D170BD0146CC
:103A400009B9002070474868FCE770B506460024B5
:103A50003046FFF7F4FF054605E0641C2946304672
:103A600000F005F80546002DF7D1204670BD02464E
:103A70000B461068001D03441868704702460B4649
:103A80001068034418687047014609B90020704760
:103A90008868FCE7002242608260CA1C22F00301B1
:103AA0000160704770B50446216801F108001CF000
:103AB00067F90546A5B100222946204627F0C6F938
:103AC00029462046626827F0B3F9606820B12A468B
:103AD0002046616827F0BAF96560A06800B9A56062
:103AE000284670BD70B50446216801F108001CF03D
:103AF00047F90546A5B100222946204627F098F946
:103B000029462046A26827F0A1F9A06820B12A46DC
:103B10002046A16827F08CF9A560606800B965604F
:103B2000284670BD014609B901207047486818B998
:103B3000886808B90120F8E70020F6E72DE9F04190
:103B400004460D460CB9BDE8F0812046FFF777FF2B
:103B5000A8420FD129462046FFF789FF60606068C0
:103B600010B90020A0602FE000222046616827F0F5
:103B70006DF929E02046FFF787FFA8420FD12946BB
:103B80002046FFF77BFFA060A06810B900206060AE
:103B90001AE000222046A16827F04AF914E02946DD
:103BA0002046FFF76BFF064629462046FFF75FFFDA
:103BB00007463A463146204627F03AF9324639461A
:103BC000204627F043F900BF00BFBCE710B504460C
:103BD0002068806818B12068214682689047206874
:103BE000006828B12068006820602046FFF7EEFFDB
:103BF00010BD0146886818B18868B0F91600704792
:103C00000020FCE72DE9F04F93B005468B46914626
:103C10009A461C9E688C20F00400001D6884A5F85C
:103C200020903289594628461FF04EFE1290A5F882
:103C300020A03289594628461FF046FE1190688C14
:103C400020F004006884DDE9111088420CD1DDE920
:103C50001110884208D1BDF84800BDF844108842D0
:103C600002D113B0BDE8F08FA5F8209032895946F3
:103C700028461FF029FE1290A5F820A05946284694
:103C80000EF091FA10903189109A1068129A24F06F
:103C9000FEF93089602833D147F6FF7112988842C7
:103CA00002D0119888422BD1284620F034F80F908A
:103CB00000EBD0704710284620F02DF80F9000EB55
:103CC000D0704FEA600847F6FF711298884208D119
:103CD000781C08F10101884200DA01E008F10100D6
:103CE000129047F6FF711198884208D1781C08F1AC
:103CF0000101884200DA01E008F10100119000BFE3
:103D00002448FFF7CFFE044600BF1CB900BF00BF28
:103D100000BFFEE700BF04B9A3E71298E060119866
:103D20002061ACB325603089A080C4F808B0684633
:103D300010F016FE2146684610F0C5FE164968468A
:103D400010F091FE1548029000BF1549684610F02A
:103D500098FEFF220021684610F0A5FE31886846D3
:103D600010F097FE7188684610F078FEF0680690B3
:103D700000BF6846002190F83E2061F3000280F801
:103D80003E2000BF30690590684610F0B3FE00BFCA
:103D900000BF66E794210020910103083D04030859
:103DA0006D03030810B514210148FFF773FE10BD21
:103DB000942100202DE9FE4F04460F4690464FF017
:103DC000000900256BE1E06800EBC5004068C0F326
:103DD000406000B162E1E16801EBC501496821F092
:103DE0007F4022F023F8064626EA070008B90120A2
:103DF00000E00020029026EA080008B9012000E057
:103E000000200190DDE90101814272D0E06850F8A4
:103E100035A04FF0000B6A4641F61001504623F0E2
:103E2000CFFD10B14FF0010BA9E06A4641F6110138
:103E3000504623F0C5FD10B14FF0010B9FE06A46DC
:103E400041F61201504623F0BBFD10B14FF0010BBB
:103E500095E06A4641F61301504623F0B1FD10B1DA
:103E60004FF0010B8BE06A4641F61501504623F0F6
:103E7000A7FD10B14FF0010B81E06A4641F6140135
:103E8000504623F09DFD10B14FF0010B77E06A46DC
:103E900041F26901504623F093FD10B14FF0010B40
:103EA0006DE06A4643F20C01504623F089FD10B1E3
:103EB0004FF0010B63E06A4643F20D01504623F0D8
:103EC0007FFD10B14FF0010B59E06A4641F201014C
:103ED000504623F075FD10B14FF0010B4FE06A46DC
:103EE00041F20401504623F06BFD18B14FF0010B75
:103EF00045E0D2E06A4641F20201504623F060FDFF
:103F000010B14FF0010B3AE06A4641F2030150460E
:103F100023F056FD10B14FF0010B30E06A4641F23C
:103F20000501504623F04CFD10B14FF0010B26E087
:103F30006A4641F20601504623F042FD10B14FF0AF
:103F4000010B1CE06A4641F23201504623F038FD75
:103F500010B14FF0010B12E06A4643F60F015046D4
:103F600023F02EFD10B14FF0010B08E06A4643F636
:103F70000E01504623F024FD08B14FF0010BBBF1B8
:103F8000000F02D00320BDE8FE8F6A4640F60A010A
:103F9000504623F015FD10B14FF002097CE06A464F
:103FA00040F60B01504623F00BFD10B14FF0020913
:103FB00072E06A4643F60F01504623F001FD10B14E
:103FC0004FF0020968E06A4643F60E01504623F0BE
:103FD000F7FC10B14FF002095EE06A4640F63C0182
:103FE000504623F0EDFC10B14FF0020954E06A4650
:103FF00040F63D01504623F0E3FC10B14FF00209BA
:104000004AE06A4640F63A01504623F0D9FC10B126
:104010004FF0020940E06A464FF40461504623F035
:10402000CFFC10B14FF0020936E06A4640F6450178
:10403000504623F0C5FC10B14FF002092CE06A464F
:1040400040F64101504623F0BBFC10B14FF002098D
:1040500022E06A4640F64201504623F0B1FC10B11E
:104060004FF0020918E06A4640F64301504623F03B
:10407000A7FC10B14FF002090EE06A4640F6490174
:10408000504623F09DFC10B14FF0020904E0B9F155
:10409000000F01D14FF0010900BF00BF6D1C608C03
:1040A000C0F3C500A8423FF68EAE48466BE700005D
:1040B00001480068704700009800002070470146E2
:1040C000C1F30412072A00DD0722D0B270470000B6
:1040D00010B518210348FFF7DDFC012025F0D0FBC7
:1040E00010BD0000402100202DE9F04105460F469B
:1040F00016460DB9BDE8F0812846FCF78CF88046DD
:10410000394628460A4A126890470746E819314658
:10411000074A1268904706463C4603E0A019285C0F
:104120002855641CA8EB0600A042F7D200BFE1E7C7
:104130002C0200202DE9F04106460C4617461D468C
:1041400029463046084A126890472060206830B1FE
:10415000296888190021044A1268904700E000206D
:104160003860BDE8F0810000240200202DE9F04F06
:1041700087B004460F4692469846DDE910560DB1C9
:10418000002028801CB9002007B0BDE8F08F2078FF
:1041900008B90020F8E70FB90020F5E74FF0000953
:1041A00006F0020010B906F0040098B1002000E00B
:1041B000401C215C0A2905D0215C0D2902D0215C1C
:1041C0000029F5D1215C01B1401C15B14FF0FF3140
:1041D0002980D9E706F0020008B141F6FF780020F7
:1041E0000690059038E000200490059808B9012059
:1041F00000E0002006A904AACDE90062CDE9021082
:104200000599601843465246394625F0D3FD83464A
:104210000498A8EB00000FFA80F8049848440FFABD
:1042200080F9BBF1000F00D11CE0059858440590BF
:1042300020780A2802D020780D2800D112E00598B5
:10424000205C0A2803D00598205C0D2803D105982E
:10425000401C059006E000BF0598205C10B1B8F145
:10426000000FC0DC00BF059870B905A92046094AB7
:1042700012689047834635B100225946384617F0F8
:104280001CFF0FFA80F900BF0DB1A5F8009005984A
:104290007AE70000240200202DE9F0470646884610
:1042A000174606B10FB9BDE8F0873046FBF7B3FFFC
:1042B00081463846FBF7AFFF044604B9F3E704EB49
:1042C000090A414630460B4A1268904780465546D7
:1042D00003E0281B305C70556D1E08EB0400A842FB
:1042E000F7D906EB0800224639461BF0E8FF00BF6D
:1042F000D9E700002C020020024600200FA31B7803
:104300008B4211D113781BB90123137001200BE0EC
:104310001378012B02D10023137005E01378022BD0
:1043200002D10023137001201378012B04D120291E
:1043300001D1022313700120704700002300000008
:1043400073B582B0064603980190324600210846B4
:10435000019B26F04BF80546002001900024681CC4
:104360001BF00EFD044600BF1CB900BF00BF00BF1C
:10437000FEE700BF14B9002004B070BD00206055F6
:104380003246691C2046039B26F030F82046F3E7AE
:104390002DE9F04781460E4614461F46DDF820A061
:1043A00035461BE0600800FB075529464846D047C4
:1043B000B0F1000809DD04F0010080F00100C0EB5D
:1043C0005404E8190546064608E0B8F1000F02DA81
:1043D0006408354602E02846BDE8F087002CE1D1AC
:1043E0000020F9E72DE9FF4F85B08346DDE9158A06
:1043F000DDE91349DDE91775129E05F00200F8B9F1
:104400004FB105F0010030B1B9F1000F02D105F054
:104410000C0000B17F1E03E030222046641C3254A1
:10442000544501D2202CF7D303E030222046641CEF
:10443000325405F0010018B1BC4201D2202CF4D353
:1044400005F01000B0B305F4806050B94CB154458C
:1044500001D0BC4205D1641E1CB1B8F1100F00D1CF
:10446000641EB8F1100F09D105F0200030B9202CDE
:1044700004D278222046641C325415E0B8F1100FA3
:1044800009D105F0200030B1202C04D2582220465A
:10449000641C325408E0B8F1020F05D1202C03D27D
:1044A00062222046641C3254202C03D23022204643
:1044B000641C3254202C16D2B9F1000F04D02D22E6
:1044C0002046641C32540EE005F0040020B12B227B
:1044D0002046641C325406E005F0080018B1202282
:1044E0002046641C3254CDE90275CDE9006458467B
:1044F00006A90EC900F0A2F809B0BDE8F08F2DE9B9
:10450000FF4F8FB08046DDE91FABDDE91D96219D91
:104510001C9C00270CB925F0100505F4806000B143
:10452000E4B100BFB4FBF6F106FB1141C8B20A28A2
:1045300002DA00F1300107E005F0200109B1412164
:1045400000E0612101440A39CBB239467F1C07AA39
:104550005354B4FBF6F40CB1202FE3D307A8CDE9F4
:1045600004AB8DE8810203960695404610A90EC95A
:10457000FFF738FF13B0BDE8F08F2DE9FF4F8FB084
:10458000DDE9217BDDF89080209EDDE91C454FF0C0
:104590000009002184EA01006940084301D128F0A4
:1045A000100808F4806028B1002184EA0100694005
:1045B00008432DD000BF32463B4620462946FBF734
:1045C000D5FD02F0FF0ABAF10A0F02DA0AF1300053
:1045D00007E008F0200008B1412000E061205044CD
:1045E0000A38C2B2484609F1010907A90A543246FD
:1045F0003B4620462946FBF7B9FD04460D460021FF
:1046000084EA01006940084302D0B9F1200FD2D3F7
:104610002398CDE9036BCDE9050807A91E98CDE9DC
:10462000001902900FA80FC8FFF7DCFE13B0BDE819
:10463000F08F9A4200D28854704770472DE9FF5F8F
:1046400005461446DDE90EA6DDE91087A34607F00E
:10465000020078B907F0010060B9B14607E02246D0
:10466000641C2020039B0199A84709F10109C14559
:10467000F5D300BF08E02246641C711E0E461AF8EE
:104680000100039B0199A847002EF4D107F0020016
:1046900050B105E02246641C2020039B0199A847E5
:1046A000A4EB0B004045F5D3204604B0BDE8F09FD5
:1046B0002DE9FF4F95B09A46884606460025EEE163
:1046C000252877D100242746F94A0121039400E0E8
:1046D000044316F8013F203B01FA03F01042F7D1E2
:1046E00030782A2811D06FF02F033078A0F13002F3
:1046F000092A16D8039A44F0020402EB820203EB63
:1047000042021044761C0390EFE758F8042B039202
:10471000002A03DA504244F40054039044F00204A7
:10472000761C30782E2816D116F8010F44F00404B8
:104730002A280DD06FF02F023078A0F13003092B1A
:1047400009D807EB870302EB4303C718761CF3E78E
:1047500058F8047B761C30786C280FD006DC4C2887
:1047600017D068280DD06A2814D104E0742810D01E
:104770007A280FD10DE044F400140AE044F48014C8
:1047800001E044F440147278824202D104F58014AE
:10479000761C761C307866280BD013DC582877D02E
:1047A00009DC002875D04528F6D04628F4D04728E3
:1047B0001AD193E118E0632835D0642879D06528B0
:1047C00012D18BE1702873D008DC6728F1D06928FA
:1047D0006FD06E280DD06F2806D1ACE073282CD096
:1047E000752874D0782853D05246179990476D1C7D
:1047F00054E1C4F30250022809D003280DD0D8F8A0
:10480000001004280DD00D6008F1040846E1D8F826
:104810000010EA17C1E90052F6E7D8F800100D8041
:10482000F2E70D70F0E718F8041B8DF80010002077
:104830008DF80100EB46012003E058F804BB4FF06F
:10484000FF3061074FF0000102D40DE009F10101D2
:104850008946B9420FDA8145F8DB1BF809100029B7
:10486000F4D108E009F1010189468142FADB1BF825
:1048700009100029F6D103985346A0EB09072146F9
:104880003846179A00F080FA284400EB090507E043
:1048900044E008E10DE01BF8010B524617999047E0
:1048A000B9F10109F7D2534621463846179AF2E08A
:1048B00039E00A21C4F302524FF0000B0091022AA2
:1048C00006D058F8040BC117032A09D00AE023E0E8
:1048D00008F1070020F00702F2E80201904605E027
:1048E00000B2C117042A01D140B2C117002906DA6B
:1048F0000A460021404261EB02012D2202E022051E
:1049000004D52B228DF80420012203E0E20701D018
:104910002022F7E7914657E00A2100E010214FF0EE
:10492000000B00910BE010214FF0000B44F0040449
:104930000827009103E008204FF0000B0090C4F31B
:104940000252022A05D058F8040B0021032A08D08D
:1049500008E008F1070020F00702F2E802019046A3
:1049600003E080B2042A00D1C0B24FF00009220750
:104970002AD53278702A07D0DDF800C08CF0100CF0
:104980005CEA0B0C05D00EE040228DF804200122D9
:1049900008E050EA010306D030238DF804308DF88A
:1049A000052002229146009B83F0080353EA0B0383
:1049B0000AD150EA010201D1620705D530228DF8F3
:1049C00004204FF001097F1E3278582A04D039A202
:1049D0000C920CAA02920BE03BA2F9E75B46009A0C
:1049E000FBF7C4FB0C9B9B5C029A521E0292137055
:1049F00050EA0102F2D1029804A9081A00F1200B32
:104A0000600702D524F4803400E001275F4502DD11
:104A1000A7EB0B0000E0002000EB0B0100900398D7
:104A20004944401A0390E00306D453462146179A9E
:104A3000039800F0A9F90544002706E001A85246B2
:104A4000C05D179990476D1C7F1C4F45F6DBE00356
:104A50000CD553462146179A039800F095F9054462
:104A600004E030205246179990476D1C0099481E6B
:104A700000900029F5DC08E002980299524600787F
:104A8000491C0291179990476D1CBBF10001ABF1D5
:104A9000010BF1DC5BE100F065F90544761C307830
:104AA00000287FF40DAE19B02846BDE8F08F000055
:104AB00009280100303132333435363738396162F4
:104AC00063646566000000003031323334353637B8
:104AD000383941424344454600000000600700D495
:104AE000062708F1070020F00700F0E802238046BF
:104AF00003F0004C5FEA0C0001D097A009E020050C
:104B000001D596A005E0E00701D095A001E0AFF245
:104B10004C001390307823F0004365280CD006DC5D
:104B2000452809D046281DD047287FD13BE066287C
:104B300018D067287AD136E00021112F01DB11202F
:104B400000E0781CCDE9000104A90CA8FDF7EEFBFC
:104B5000DDE90D010C9A4FF0000B07F101091092ED
:104B600000914EE04FF000400097CDE9011004A9FC
:104B70000CA8FDF7DBFBDDE90D020C9B0F994FF054
:104B8000000B91461093009211B9791C00EB0109BA
:104B9000B7EB090003D4C0F1FF3B07F10109A9EB12
:104BA0000700019042E0012F00DA01270021112FB8
:104BB00001DD112000E03846CDE9000104A90CA870
:104BC000FDF7B4FBDDE90D010C9A00914FF0000BED
:104BD000B946109221070FD4009A4A4503DA91464C
:104BE00001E0A9F10109B9F1010F05DD109AA9F160
:104BF0000101515C3029F4D0B84202DA10F1040FFF
:104C000003DA0121CDE9011010E0002803DC834420
:104C1000A9EB000102E0411C494500DD8946A0EBFB
:104C20000B00401C01904FF000400290200705D47B
:104C30000198484502DB4FF0FF30019000208DF8CD
:104C40004B0002980DF14B07B0F1004F25D0022028
:104C50000C902B200D90029800280CDA4042029014
:104C60002D200D9007E00A210298FBF7ADFD3031B1
:104C7000029007F8011D0C99481E0C900029F2DCE7
:104C800002980028EFD1791E0D980870307800F056
:104C9000200040F0450007F8020D11A8C01BC01D00
:104CA00002901398007800B1012000EB09010198EF
:104CB00001EBE071029801440398401A401E0390F2
:104CC000E00306D453462146179A039800F05CF897
:104CD00005441398007818B15246179990476D1CF7
:104CE000E00323D553462146179A039800F04CF869
:104CF00005441BE0BBF1000F07DB0098584504DDBD
:104D00001098179910F80B0001E0179930205246BF
:104D1000904701980BF1010B401E05F10105019030
:104D200004D12E205246179990476D1CB9F100010D
:104D3000A9F10109DEDC05E017F8010B52461799CD
:104D400090476D1C0299481E02900029F4DC5346DE
:104D50002146179A03989EE62D0000002B000000C4
:104D6000200000002DE9F041044600251E461746AC
:104D7000880404D405E039462020B0476D1C641E29
:104D8000F9D52846BDE8F0812DE9F041044600251B
:104D90001E469046C80301D5302700E0202788042E
:104DA00004D505E041463846B0476D1C641EF9D570
:104DB0002846BDE8F0810A68531C0B6010707047EC
:104DC0002DE9FF4F8BB0074600250C9800B9FA4F2C
:104DD000EAE20E98007825280AD02A466D1C0E9922
:104DE0000878DDE90C13B8470E98401C0E90DBE202
:104DF0000E98401C0E90002400BF0E9800782B28BF
:104E000019D004DC20281ED023282CD123E02D2803
:104E100009D0302827D144F001040E98401C0E9090
:104E200001200A9022E044F002040E98401C0E90EB
:104E300001200A901AE044F004040E98401C0E90E1
:104E400001200A9012E044F008040E98401C0E90D5
:104E500001200A900AE044F010040E98401C0E90C5
:104E600001200A9002E000200A9000BF00BF0A98CB
:104E70000028C2D180460E990878FDF719FB20B1B1
:104E80000EA8FDF73DFA804612E00E9800782A2819
:104E90000ED1189901C91891002804DA44F00204CF
:104EA000C0F1000800E080460E99491C0E9100BF39
:104EB0004FF000090E9800782E281FD144F480642A
:104EC0000E98401C0E900E990878FDF7F1FA20B16B
:104ED0000EA8FDF715FA814610E00E9800782A28F2
:104EE0000CD1189901C91891002801DD014600E094
:104EF000002189460E99491C0E9100BF0E9800783A
:104F00006C280AD004DC682816D06A2835D128E03D
:104F1000742820D07A2830D129E044F480740E9887
:104F2000401C0E900E9800786C2804D144F4007454
:104F30000E98401C0E9021E044F080040E98401C16
:104F40000E900E980078682804D144F040040E9822
:104F5000401C0E9012E044F480740E98401C0E9099
:104F60000CE044F400740E98401C0E9006E044F4EB
:104F700080740E98401C0E9000E000BF00BF0E9899
:104F8000007869281DD00EDC622821D006DC252897
:104F90007ED050281AD058287BD115E0632879D0CC
:104FA0006428F9D10CE0732875D004DC6F280ED08A
:104FB0007028F1D109E0752804D07828ECD102E0FE
:104FC00000BF00BF00BF00BF00BF00BF00BF00BFE9
:104FD0000E980078782803D00E980078582801D1D0
:104FE000102623E00E980078702803D00E980078E1
:104FF00050280CD1102644F0100444F480740E980C
:105000004078562812D10E98401C0E900EE00E9853
:1050100000786F2801D1082608E00E9800786228F1
:1050200001D1022602E00A2624F010040E9800782E
:10503000582803D00E980078502801D144F020045D
:105040000E980078692805D00E980078642801D061
:1050500024F00C0404F4806008B124F001040E98DC
:105060000078692803D00E98007864287CD104F475
:105070000070B8B31898C01D20F007001890D0E950
:1050800000AB189A083218920020CDE9069803E088
:1050900073E17CE1F2E01CE1CDE904600894BAEB35
:1050A00000017BEB000001DA012000E0002000217C
:1050B00002900846B1EB0A0170EB0B0002DA504691
:1050C000594605E000200146B0EB0A0061EB0B01F8
:1050D000CDE900012A463846DDE90C13FFF74DFA09
:1050E0000546C7E0FFE704F48070D0B1189850F887
:1050F00004AB18904FEADA70CDE903980296059454
:10510000BAF1000F01DD514601E0CAF10001CDE91D
:1051100000102A463846DDE90C13FFF7F0F9054682
:10512000A8E004F0400028B1189810F8041B18906B
:10513000C8B20DE004F0800028B1189830F8041BC4
:10514000189008B204E0189800681899091D189181
:1051500082464FEADA70CDE9039802960594BAF1D7
:10516000000F02DD514602E00BE0CAF10001CDE97B
:1051700000102A463846DDE90C13FFF7C0F9054652
:1051800078E00E980078562818D1189850F804AB9B
:105190001890DAF804000068099009980090DAF88D
:1051A00000300D98421B0C9841193846FFF708FE55
:1051B0000544002009905DE03B46000804F40070BF
:1051C000D0B11898C01D20F00700CDE906980894CA
:1051D00018900020CDE904600290189903C9189A2C
:1051E00008321892CDE900012A463846DDE90C1351
:1051F000FFF7C3F905463DE004F4807098B1002242
:10520000CDE9039802960594189800681899091D2D
:10521000CDE9000218912A463846DDE90C13FFF764
:105220006EF9054626E004F0400028B1189810F801
:10523000041B1890C8B20DE004F0800028B1189843
:1052400030F8041B189088B204E018980068189988
:10525000091D189182460020CDE900A0CDE90398F0
:10526000029605942A463846DDE90C13FFF747F904
:10527000054600BF0E98401C0E9093E0012604F0F6
:10528000020050B905E02A466D1C2020DDE90C1310
:10529000B8473046761C4045F5D3189911F8043BC1
:1052A000D8B22A466D1C1891DDE90C13B84704F0FA
:1052B000020050B105E02A466D1C2020DDE90C13E8
:1052C000B8473046761C4045F5D30E98401C0E90EA
:1052D00068E0189850F804AB18905046B9F1000FE8
:1052E00001D0494601E04FF0FF310A46014600E097
:1052F000491C0B781BB1131EA2F10102F8D10E1A42
:1053000004F4806028B14E4501D2304600E04846A2
:10531000064604F0020050B905E02A466D1C202024
:10532000DDE90C13B8473046761C4045F5D306E05E
:105330001AF8010B2A466D1CDDE90C13B8479AF8E0
:10534000000040B104F480600028F1D0B9F1000001
:10535000A9F10109ECD104F0020050B105E02A46A0
:105360006D1C2020DDE90C13B8473046761C404503
:10537000F5D30E98401C0E9014E02A466D1C252093
:10538000DDE90C13B8470E98401C0E900AE02A463F
:105390006D1C0E990878DDE90C13B8470E98401C77
:1053A0000E9000BF00BF00BF0E98007800287FF469
:1053B00010AD0D98854201D2284601E00D98401E9F
:1053C00002460020DDE90C13B84728460FB0BDE8BF
:1053D000F08F2DE9F04104460E46002774B13146A6
:1053E000204600F02DF80546B5F5803F05D20C2D7E
:1053F00001D9284600E00C20074600BF3846BDE82A
:10540000F081024600BF481E084018B100BF00BF2F
:1054100000BFFEE700BF481E1040101A704710B5CD
:1054200002464B1E13444C1E23EA040000BF4B1ED1
:105430000B401BB100BF00BF00BFFEE700BF10BDA7
:10544000024600BF481E084018B100BF00BF00BFA1
:10545000FEE700BF481E10444B1E984370470000F3
:105460002DE9F04180460E46444601206086002525
:1054700000270DE056F8270025A1FAF7D3FE10B15A
:10548000681C85B202E0608E401C6086781C87B282
:1054900056F8270020B156F8270000780028E9D1F7
:1054A000208EA84201D1BDE8F081A06A20B1A06A97
:1054B0001AF034FD0020A062E06A20B1E06A1AF020
:1054C0002DFD0020E062E8001AF05AFCA06200BF47
:1054D000A06A18B900BF00BF00BFFEE700BF6800A8
:1054E0001AF04EFCE06200BFE06A18B900BF00BFCE
:1054F00000BFFEE700BFA06A08B1E06A00B900255E
:105500006900E06A1AF021FF258600BFCBE70000A2
:105510000A0000002DE9F84F81460E46924699F8A0
:10552000090000F00700022801D1304600E0504693
:105530008346564501DD304600E0504607460320CD
:1055400000EB470020F0030000F110053948006827
:1055500039490968A0EB0108002405EB0800374928
:105560000968884206D233480468606820F0004029
:1055700060603AE031480068854221D813E04FF07E
:10558000FF300090002269462D480EF063FD002296
:1055900069462C480EF05EFD2648006826490968D9
:1055A000A0EB010800BF08EB050024490968884208
:1055B000E5D820480468606820F00040606014E08E
:1055C00028461AF0DDFB044600BF1CB900BF00BF2F
:1055D00000BFFEE700BF14B90020BDE8F88F606887
:1055E00020F0004000F100406060324659464846D5
:1055F00001F069FE2060606800F04040401C60607F
:10560000606820F080406060A781A4F80EB06068F8
:10561000C00F20B1204600F11001A16008E005484C
:1056200000681030A0600348006828440149086001
:105630002046D2E7A0000020F40100209C000020BA
:1056400089030108D5400108F0B585B006460D462E
:105650003446002004900390029094F83C0000F03F
:10566000030020B1012838D0022866D000BF94F88A
:105670003C0000F003005A49097888421BD02620DC
:10568000005D00EB001000EB4000142190FBF1F0F6
:10569000544908702720005D00EB001000EB40002B
:1056A000142190FBF1F05049087094F83C0000F090
:1056B00003004B49087002A803A9CDE9001005EBCF
:1056C00045014FF6FF7202EA410004AB46490A78F1
:1056D000444909780AF02EFB5FE094F83C0000F0A2
:1056E00003003F49097888421AD0A08C00EB4000A3
:1056F00040024FF4B471B0FBF1F03C490880272020
:10570000005D00EB001000EB4000142190FBF1F075
:105710003549087094F83C0000F0030030490870E7
:1057200002A803A9CDE90010E9B204AB2E48027823
:105730002E4800880AF0FEFA2FE094F83C0000F0B2
:1057400003002749097888421AD0A08C00EB40005A
:1057500040024FF4B471B0FBF1F0244908802620D8
:10576000005D00EB001000EB4000142190FBF1F015
:105770001C49087094F83C0000F0030018490870B8
:1057800002A803A9EAB204ABCDE9001015480178DC
:10579000164800880AF0CEFA00BF00BF9DF810003E
:1057A0009DF80C109DF80820D708BDF8003067F36D
:1057B00004038F080093BDF8003067F34A13C7084D
:1057C0000093BDF8003067F3CF230093BDF800705D
:1057D0003B460193BDF80410084605B0F0BD00003B
:1057E0005201002050010020510100204E010020F4
:1057F00010B50120074908700748FEF720F920B9C5
:105800000648006824F018F903E00448006824F012
:105810001FF910BDDC01002070210020E0010020F4
:1058200010B5044694F83E00C0F3400050B9A08F74
:10583000002807DDA08F4FF6FF71884202D0A08FAD
:10584000401EA087A08FA8B9606B20B194F83E00DD
:10585000C0F3400070B121461748FEF76FF9FFF71B
:10586000C7FFE06810B12046E168884720461AF07B
:1058700055FB1FE0A06B4042E062606BD0B194F832
:105880003E10C1F3400111B9216B4942E16294F825
:105890003E104908C94394F83E2061F3410284F860
:1058A0003E20E069616AE1616062A06A616BA162A9
:1058B000606300BF10BD0000702100202DE9F041A1
:1058C00080464248006823F019FF064640480078A9
:1058D00080F001003E4908703E48FEF7B0F80446EB
:1058E0006BE000203C49087094F83E00C0F3800053
:1058F00037490978884253D0354801782C34A07C48
:1059000061F38200A07420688719A07C2C3CC0F34E
:10591000C00010BBE06A00281FDC002F1DDB94F8DC
:105920003E0000F0010060B9206950B120462169B5
:1059300088470546E0692844E061606A284460625F
:1059400000BFA06810B12046A168884794F83E00C7
:1059500020F00800083084F83E00E06A3044E0623D
:10596000E06A00281BDBD4E90A10884201DDA06A46
:10597000E0622046A16988470546206AA84206D011
:105980002562606818B12946D4E900029047D4E93D
:105990000A10884202DB2046FFF742FF00BF00BF2B
:1059A0000D48007820B10B48FEF749F8044604E0A2
:1059B00021460848FEF75BF80446002C91D123F0FD
:1059C000ABFE02490860BDE8F0810000D80100206C
:1059D000DD01002070210020DC010020F7B582B03D
:1059E00004460E4614B9049805B0F0BD00BF63220A
:1059F000314620461DF068FF0190019D00BFBDB1FA
:105A00002868A8B100BF6422314620461DF05CFF23
:105A100001900198C0B207464FB13A462B6828461C
:105A2000049998470190BDF80400ADF8100000BF3C
:105A30000498D9E770B504460D46606818B1294648
:105A40006068FFF7F7FF206818B1294620462268F2
:105A5000904770BD70B505460C46A1B228460FF0C0
:105A6000E1FC70BD70B505460C46A1B228460FF0AA
:105A70002AFD70BD70B504460D4600BF204600F0FB
:105A80003BF818B100BF00BF00BFFEE700BF2846CB
:105A900000F050F9001D616808446060204600F085
:105AA0003AF8204670BD70B505460C46284600F011
:105AB00041F904F11001884201D3012070BD00209A
:105AC000FCE70146A1F1080070477CB505460C468D
:105AD000204600F02FF906466A4601A924F0D2FFBD
