:020000040800F2
:100000004083002049010008FD170008850E000804
:10001000FB1700086B0B0008A91E00080000000079
:100020000000000000000000000000009919000816
:100030006D0B0008000000008D180008111B00085F
:100040006301000863010008630100086301000800
:100050006301000863010008710B000863010008D8
:10006000A50B0008D90B00080D0C0008630100085F
:1000700063010008630100086301000863010008D0
:1000800063010008630100086301000863010008C0
:1000900063010008630100086301000863010008B0
:1000A00063010008630100086301000863010008A0
:1000B0006301000863010008630100086301000890
:1000C0006301000863010008630100086301000880
:1000D00063010008251D0008630100086301000892
:1000E0006301000863010008630100086301000860
:1000F0006301000863010008630100086301000850
:10010000630100086301000863010008630100083F
:100110006301000863010008651B00086301000813
:10012000630100086301000863010008630100081F
:10013000DFF810D000F078FC00480047BD0A020844
:10014000AFF3008040830020064880470648004700
:10015000FEE7FEE7FEE7FEE7FEE7FEE7FEE7FEE777
:10016000FEE7FEE7151B0008310100082DE9F05FEE
:100170000546002092469B46884606468146402416
:100180001BE0284641464746224600F046FB5346C0
:100190005A46C01A914110D311461846224600F023
:1001A0002DFB2D1A67EB01084F4622460120002146
:1001B00000F024FB17EB00094E41201EA4F10104BE
:1001C000DFDC484631462A464346BDE8F09F40EA18
:1001D00001039B0703D009E008C9121F08C0042AC5
:1001E000FAD203E011F8013B00F8013B521EF9D2AC
:1001F0007047D2B201E000F8012B491EFBD27047D4
:100200000022F6E710B513460A4604461946FFF7E2
:10021000F0FF204610BD421C10F8011B0029FBD145
:10022000801A704710B5002200E0521C835C8C5C81
:10023000A34201D1002BF8D1D8B2E1B2401A10BDCF
:10024000034611F8012B00F8012B002AF9D11846BA
:100250007047F0B480EA0102D40F4200B2EB410FC4
:1002600002D20246084611464A0042D0C30DDDB212
:10027000C1F3C752AD1A202D35DAC1F3160141F48E
:10028000000204B15242C5F1200602FA06F12A41E9
:100290001044B3EBD05F23D0C4B1012DA0EBC35009
:1002A00009DCF0BC4FF0004202EAC352DBB200F5B9
:1002B000000000F0DDBA400000F1807000EBC35098
:1002C000A0F1807040EAD170490009E0490841EA94
:1002D000C071A0EBC35000F50000400800EBC35014
:1002E000F0BC00F0BCBA6142012202EB4101001BEC
:1002F000F6E7F0BC704781F00041AAE780F00040CB
:10030000A7E730B480EA010202F0004530F0004275
:1003100021F0004013D090B1C30DD40DC2F31601EB
:10032000C0F31600E41A41F4000140F400027D34E9
:10033000914201D3641C00E04900002C02DA30BC79
:10034000002070474FF400000023914201D3891A26
:10035000034340084FEA4101F7D151B1914202D124
:100360004FF0004105E002D24FF0010101E06FF0D3
:10037000010103EBC450284430BC00F070BA2DE9F1
:10038000FE4F804681EA0300C00F0C46009021F02A
:10039000004123F00045B8EB0200A94105D24046D8
:1003A000214690461C460B46024623F0004010436F
:1003B00047D0270DC7F30A00C3F30A510290401A31
:1003C000019040286BDAC3F3130040F4801B0098BF
:1003D000924620B10023D2EB030A63EB0B0B01988A
:1003E0005946C0F14002504600F008FA06460D4654
:1003F00050465946019A00F020FA10EB080061417E
:10040000002487EA115284EAE7731A4340D0009A25
:1004100062B3019A012A4FEA075215DC001B61EB17
:1004200002014FF0004202EA0752CDE90042001CEF
:1004300041F5801132462B4600F057FA03B0BDE873
:10044000F08F40462146F9E7001B61EB0201001CDA
:1004500041F5801300185B412018A2F5001747EB07
:10046000030140EAD570B6196D4111E06D084FEAFD
:10047000360645EAC0754FEA0752001B61EB0201E0
:10048000001C41F5801149084FEA30000019514124
:1004900032462B4603B0BDE8F04F00F017BA009883
:1004A000012240000023D0EB020263EBE0730098CE
:1004B00021464FEAE074B8EB000061EB0401E9E784
:1004C00083F000435BE781F0004158E72DE9FE4FE0
:1004D00081EA030404F0004421F0004100944FF04D
:1004E000000B23F0004350EA01045ED052EA0304FB
:1004F0005BD0C3F30A54C1F30A552C44A4F2F3347D
:100500000194A0FB0254C1F3130141F48011C3F321
:10051000130343F4801301FB024400FB034E840ADF
:10052000970A44EA815447EA8357A4FB0768029577
:100530008D0A05FB07854FEA932C04FB0C54270515
:10054000029D4FEA065847EA1637B5EB08056EEBF1
:10055000070C870E920E47EA811742EA8312A7FB27
:100560000201B6EB0B0164EB00042B0D43EA0C33E4
:100570005E1844EB1C50DA465146E7FB0201C5F316
:1005800013044FEA0B3343EA14534FEA0432019C3D
:1005900043EA0603A4F10C040294009CCDE900B4E4
:1005A00000F0A3F903B0BDE8F08F00200146F9E7A1
:1005B0002DE9F04D81EA030404F0004B21F00045E1
:1005C00014464FF0000A23F0004150EA050220D003
:1005D00054EA01021DD0C5F30A570246C5F31303BE
:1005E000C1F31300C1F30A5640F4801543F480139D
:1005F000A7EB0608101BD64608F2FD3873EB050082
:1006000002D308F1010801E092185B41B8F1000F34
:1006100003DA00200146BDE8F08D00204FF4801180
:10062000064684460EE0171B73EB050705D3121B25
:1006300063EB050306434CEA010C49084FEA30001E
:1006400092185B4150EA0107EDD152EA030012D043
:1006500082EA040083EA0501084305D0101BAB4180
:1006600006D20122002306E000224FF0004302E000
:100670006FF0010253101AEB06004CEB085110EB1F
:100680000A0041EB0B01BDE8F04D00F01FB9C10FAE
:1006900080EAE0700844CA079623002100F0E8B819
:1006A00096230022114600F0E3B80EB5C10F80EA90
:1006B000E0700844CA07002140F233438DE80E0081
:1006C0000A460B4600F011F903B000BD0EB540F22A
:1006D000334102910021CDE900110A460B4600F09A
:1006E00004F903B000BD20F00040C10DC0F31600B6
:1006F00040F400007F2901DA00207047962903DCCE
:10070000C1F19601C8407047963988407047C1F3DF
:100710000A5210B5C1F3130140F2FF3341F48011C6
:100720009A4201DA002010BD40F233439A42A2F20D
:10073000334203DC524200F070F810BD904010BD0F
:10074000C1F30A52C1F3130140F2FF3341F48011A7
:100750009A4202DA00200146704740F233439A423F
:10076000A2F2334202DC524200F057B800F046B821
:1007700030B5041E71F1000404DB4FF00044404228
:1007800064EB0101141E73F1000405DB1C464FF0FD
:100790000043524263EB04038B4208BF824230BDE8
:1007A00030B5041E71F1000404DB4FF000444042F8
:1007B00064EB0101141E73F1000405DB1C464FF0CD
:1007C0000043524263EB0403994208BF904230BD9C
:1007D00030B50B46014600202022012409E021FA11
:1007E00002F59D4205D303FA02F5491B04FA02F50E
:1007F0002844151EA2F10102F1DC30BD202A04DBE1
:10080000203A00FA02F1002070479140C2F1200323
:1008100020FA03F3194390407047202A04DB203A62
:1008200021FA02F00021704721FA02F3D040C2F110
:1008300020029140084319467047202A06DBCB1757
:10084000203A41FA02F043EAE07306E041FA02F38B
:10085000D040C2F120029140084319467047002958
:10086000A8BF7047401C490008BF20F00100704736
:1008700010B4B0FA80FC00FA0CF050EA010404BF96
:1008800010BC704749B1CCF1200421FA04F411FAEC
:100890000CF118BF012121430843A3EB0C01CB1D30
:1008A0004FEA00614FEA102042BF002010BC7047A1
:1008B00000EBC35010440029A4BF10BC7047401C7B
:1008C000490008BF20F0010010BC704710B5141E8D
:1008D00073F1000408DA401C41F1000192185B41F9
:1008E0001A4301D120F0010010BD2DE9F04D9246D0
:1008F0009B4611B1B1FA81F202E0B0FA80F22032E7
:100900009046FFF77BFF04460F4640EA0A0041EAA3
:100910000B0153465A46084313D0114653EA0100CF
:1009200019D0C8F140025046FFF777FF05460E4642
:10093000504659464246FFF761FF084305D0012063
:1009400004E020463946BDE8F08D0020054346EA24
:10095000E0762C4337430A986305E40AA0EB0800CD
:100960000022FD0A44EA47540A3002D5002001461D
:10097000E9E7010510196941DDE9084500196941F8
:10098000BDE8F04DA2E72DE9F04D00231A461B1AF1
:100990008A4103DB00200146BDE8F08DC1F30A5215
:1009A000C1F3130141F480154FF0000BD10702D1C0
:1009B00000186D41521E0027044640F2FF113846D0
:1009C00001EB620A3E468046024600204FF4801149
:1009D000FFF723FFC2197141BB1846EB0100B4EBCE
:1009E000030C75EB000C04D3E41A65EB0005174605
:1009F0000E46241908F101006D4180463428E3DDDC
:100A0000F91946EB0600091BA84103D24FF0FF324B
:100A1000134601E0002213461BEB070046EB0A5188
:100A2000BDE8F04DFFF752BF064C074D06E0E06809
:100A300040F0010394E8070098471034AC42F6D325
:100A4000FFF77AFBD8CC0208F8CC020870B58C18F6
:100A500010F8015B15F0070301D110F8013B2A11D2
:100A600006D110F8012B03E010F8016B01F8016BBF
:100A70005B1EF9D12B0705D40023521E0DD401F8BB
:100A8000013BFAE710F8013BCB1A921C03E013F884
:100A9000015B01F8015B521EF9D5A142D8D30020B9
:100AA00070BD00F0C7BA70B516460D46044606E0A4
:100AB000E0B2641CA4B200F006F805F8010B761E43
:100AC000B6B2F5D270BD10B5044600F09AFAA02077
:100AD00000F062FA00F0ECF998B9204600F05CFAF8
:100AE00000F0E6F968B900F08CFAA12000F054FAA1
:100AF00000F0DEF928B9012000F004FA044600F005
:100B0000C2F9204610BD70B516460D46044606E0F3
:100B10002978E0B200F007F8641CA4B26D1C761EC0
:100B2000B6B2F5D270BD70B50C46054600F069FA54
:100B3000A02000F031FA00F0BBF9002814D12846BB
:100B400000F02AFA00F0B4F900280DD1204600F098
:100B500023FA00F0ADF9002806D100F094F9BDE8C1
:100B600070400A2005F054BA70BDFEE770470000DF
:100B700010B5142005F04CFA084C0121204600F075
:100B800076F90128F9D0142005F042FA012000F08E
:100B900057F803490020087010BD0000000801400C
:100BA0001800002010B5142005F032FA084C04217A
:100BB000204600F05CF90028F9D0142005F028FA4E
:100BC000042000F03DF803490220087010BD000029
:100BD000001801401800002010B5142005F018FA84
:100BE000084C0821204600F042F90028F9D01420D2
:100BF00005F00EFA082000F023F8034903200870DE
:100C000010BD0000001801401800002010B514208D
:100C100005F0FEF9084C1021204600F028F90028C4
:100C2000F9D0142005F0F4F9102000F009F8034978
:100C30000420087010BD00000018014018000020BA
:100C400001490860704700001404014030B51A499A
:100C50008379026853B30B6893430B600A1D1368D2
:100C60000468A343136002790A44136804682343A9
:100C70001360114A083213680468A3431360131DFC
:100C80001C680568AC431C604479102C05D02144D5
:100C90000A68006802430A6030BD11680468214395
:100CA0001160196800680143196030BD007908447B
:100CB00001689143016030BD000401408000A0F153
:100CC000C0400029016802D041F0010101E0024A60
:100CD0001140016070470000FEFF0F0010B5D0E921
:100CE00001121143D0E903231A431143426911430E
:100CF00082691143C2691143026A1143426A114376
:100D0000826A1143C26A1143026B11430268920066
:100D1000A2F1C04211608168082907D101688900E9
:100D2000A1F1C0410A6842F040020A60416BD1E97A
:100D3000002342EA03128B688C891B0243EA0443B6
:100D40001A430B8A42EA03520B7D896942EA036225
:100D50000A4301688900A1F1C0414A60C16AB1F546
:100D6000804F08D000686FF070418000A0F1C04053
:100D7000C0F8041110BD816BD1E9002342EA0312CF
:100D80008B680C8A1B0243EA04531A430B7D896962
:100D900042EA036200680A438000A0F1C040C0F844
:100DA000042110BD10B58A0721F003040649130F72
:100DB00021440F228C689A4094438C608A68984042
:100DC00002438A6010BD000000000140F0B5CA78FF
:100DD000002502F00F03D20601D58A7813430A7862
:100DE0004FF00F0E12F0FF0F4FF001021CD00468FD
:100DF0000F8802FA05F63740B74211D14FEA850C49
:100E00000EFA0CF724EA070703FA0CF43C43CF78F8
:100E1000282F02D0482F02D002E0466100E0066190
:100E20006D1C082DE4D304600C88FF2C1ED9446887
:100E30005FF0000606F1080702FA07F50F882F4059
:100E4000AF420FD14FEA860C0EFA0CF7BC4303FAFF
:100E50000CF73C43CF78282F00D14561CF78482F3D
:100E600000D10561761C082EE4D34460F0BD024633
:100E7000002092680A4200D001207047416170470B
:100E800001617047FEE710B5002000F079FD0220F7
:100E900005F0D8F8012000F067FD022005F0D2F837
:100EA000012000F06DFDBDE81040022005F0CAB839
:100EB00070B500242546012000F062FD022005F0F7
:100EC000C1F8012000F050FD022005F0BBF80C4EE7
:100ED00007E0641CE4B2FA2C03D9FFF7D4FF012524
:100EE00005E080213046FFF7C2FF0028F1D1002045
:100EF00000F03AFD022005F0A5F8284670BD00007C
:100F0000000C01402DE9F04107460024012000F0CB
:100F100037FD0025DFF844808026012000F024FD05
:100F2000022005F08FF880214046FFF7A0FF10B1A6
:100F300026FA05F00443002000F016FD022005F01B
:100F400081F86D1C082DE8DB27B100F045F820463C
:100F5000BDE8F08100F004F8F9E70000000C014062
:100F600010B5002000F00CFD022005F06BF8012008
:100F700000F0FAFC022005F065F8002000F0F4FC17
:100F8000022005F05FF8012000F0FAFCBDE81040F7
:100F9000022005F057B8000070B505465FF0000468
:100FA000C4F1070025FA00F000F0010000F0E8FCB1
:100FB000022005F047F8012000F0D6FC022005F0E1
:100FC00041F8002000F0D0FC641C082CE8DBBDE8F0
:100FD0007040012000F0D4BC10B5012000F0D0FC1E
:100FE000022005F02FF8012000F0BEFC022005F0E1
:100FF00029F8002000F0B8FCBDE81040022005F000
:1010000021B810B5012000F0BBFC012000F0ACFCC1
:10101000022005F017F8002000F0B2FC022005F0D5
:1010200011F8002000F0A0FCBDE81040022005F0FF
:1010300009B8000038B50121082000F041FC40202B
:10104000ADF8000010208DF803000320094C8DF846
:10105000020069462046FFF7B9FE8020ADF8000087
:1010600014208DF8030069462046FFF7AFFEFFF716
:101070000AFF38BD000C01402DE9FF410121042089
:1010800000F01EFC0121402000F01AFC012108465E
:1010900000F016FC1C25ADF80C5048208DF80F0010
:1010A0004FF003088DF80E8003A93948FFF78EFE34
:1010B0000124ADF80C4028208DF80F0003A9354815
:1010C000FFF784FE00210846FFF76CFE0221042092
:1010D000FFF768FE03210420FFF764FE04210846A1
:1010E000FFF760FE8DF80A4000268DF808600C209E
:1010F0008DF80900019501A8FFF7A8FD08270194C4
:101100008DF8097001A8FFF7A1FD4FF4A06000F071
:10111000B3FB06208DF800008DF8034002258DF802
:1011200001508DF80240684600F074FB062000F084
:1011300066FB8DF800708DF803408DF801508DF836
:101140000250684600F066FB082000F058FB0920BA
:101150008DF800008DF803408DF801508DF8028065
:10116000684600F057FB092000F049FB0A208DF883
:1011700000008DF803408DF801508DF8026068463C
:1011800000F048FB0A2000F03AFBBDE8FF810000B8
:1011900000180140000801400249FF2291F90000B7
:1011A0000A7070471800002008480021817141F63C
:1011B0006D618180F02101804FF4A07141802C216C
:1011C00001812A2141812B21818170475C06002009
:1011D00070B501219EB0080200F05AFB01214FF4C6
:1011E000B47000F06DFB0124ADF83C4010258DF883
:1011F0003F5003202C4E8DF83E000FA93046FFF7DC
:10120000E5FD41F20100ADF83C0018208DF83F00EB
:101210000FA92648FFF7DAFD4CF23370ADF83C0019
:101220000FA92348FFF7D2FD4FF68070ADF83C00C0
:101230000FA92048FFF7CAFD00211691CDE910142F
:1012400013911491159112941D91CDE917140591E4
:101250001A9106201994CDE90001A003CDE90A10E6
:101260001B911C910491CDE902158010099010A8E2
:101270000E90089117A80D90069107916846FFF708
:101280002DFD01210620FFF719FD0EF00FFFFFF7DE
:101290008BFF01213046FFF7F3FD4FF6FF7000F0A2
:1012A0000BF81EB070BD0000000C01400020014092
:1012B000001401400018014030B505460B480022DB
:1012C0000488408821464443401E83B2491E89B2A7
:1012D000104600F0CBF800F07FF80021044801E050
:1012E0000580491CA142FBD930BD00005C060020EE
:1012F0000008006CF0B51746121A521C94B25A1A24
:10130000521C96B20A463946059D00F0AFF800F02F
:1013100063F80020054A744304E000BF35F8021B5F
:101320001180401C8442F9D8F0BD00000008006C18
:1013300070B51D4614464219521E96B20B461A4607
:10134000314600F093F800F047F80020034902E02E
:101350000C80401C80B2A842FAD370BD0008006C1B
:1013600010B50B4614461A46014600F07FF800F00F
:1013700033F80148048010BD0008006C30B51D46EC
:1013800014464A19521E93B20A46014600F06EF8FE
:1013900000F022F80020044902E00C80401C80B2DA
:1013A000A842FAD330BD00000008006C70B5141AD2
:1013B00016465A1A521C641C54430A463146049D70
:1013C00000F054F800F008F8024800E00580641EC0
:1013D000FCD270BD0008006C0248034900890880F7
:1013E000704700005C060020FE07006C70B5F0221C
:1013F0002A242B251B4B4FF4A071002806D000BFD8
:101400004FF001069E7119805A8004E04FF00006EB
:101410009E711A8059805C819D814FF0000102D03D
:10142000012800D1A021362041F0080100F0A4F9E4
:101430000D4A588910800021901C01800180198874
:10144000491E0C0A0480C9B20180998911800021CB
:10145000018001805988491E0A0A0280C9B20180B0
:1014600070BD00005C060020FE07006CF0B50C4D5E
:101470000C4E6C893480070AB41C2780C0B22080CF
:10148000080A2080C8B22080A8893080100A2080F5
:10149000D0B22080180A2080D8B22080F0BD000091
:1014A0005C060020FE07006CF0B516468A191C4643
:1014B000521E93B200EB5602521EDDE905571FFA89
:1014C00082FC0A466146FFF7D1FFFFF785FF3648E9
:1014D000203F102E11D0182E27D0202E24D1334A91
:1014E000402107FB0121002211F8013B5FF00007BA
:1014F0005FEA036C3FD504803EE02D4A102107FBD4
:101500000122002112F8017B5FF000035FEA076C03
:1015100001D5048000E005807F063F0E5B1C082B90
:10152000F4DB491CB142EDDBF0BD224A302107FB60
:101530000121002211F8013B5FF000075FEA036C14
:1015400001D5048000E005805B061B0E7F1C082F80
:10155000F4DB11F8013B00275FEA036C01D504803E
:1015600000E005805B061B0E7F1C042FF4DB521C81
:10157000B242DFDBF0BD05805B061B0E7F1C082F2F
:10158000B6DB11F8013B00275FEA036C01D504804C
:1015900000E005805B061B0E7F1C082FF4DB521C4D
:1015A000B242A1DBF0BD00000008006CF46E02083E
:1015B00034570208245D02082DE9FF4F89B09A468E
:1015C000DDE918649346304621460025DDF8589041
:1015D00005E06D1CEDB20A220023FEF7C7FD50EABC
:1015E0000102F6D100270DF1080811E00A220023BC
:1015F00030462146FEF7BAFDA5EB070404EB0803CD
:10160000303207F1010703F8012C06460C46FFB201
:10161000AF42EBD3002108F80510CDE90098DDE9D1
:10162000090153465A4600F003F80DB0BDE8F08FAB
:101630002DE9FF4F82B00024DDE90FA79B469046BD
:1016400081462546264615E0A4FB0812CDE900A0F8
:1016500005FB082004FB060040084FEA310111EBAE
:10166000090080B25B4642460399FFF71DFF641CE8
:1016700045F10005385D0028E6D106B0BDE8F08FE1
:101680002DE9FF4F1D46074685B0481B80B20490E8
:1016900048191FFA80F9781B84B278190E461FFA90
:1016A00080F82FE0381BE11B484305FB0500FEF7DF
:1016B000FCFF8346039120F0BDFECDE900013046DA
:1016C000FFF704F8DDE9002382460291FEF757FE9A
:1016D000FFF71DF881B22046079AFFF741FE5846F2
:1016E000039920F0A7FE02460B4650460299FEF7EA
:1016F000E7FEFFF70CF881B22046079AFFF730FEAD
:10170000641CA4B2A045CDD2049C2FE0301BA11BC9
:10171000484305FB0500FEF7C8FF8246029120F012
:1017200089FE834638460191FEF7D0FF80465A462F
:101730000091019BFEF723FEFEF7E9FF80B22146F0
:10174000079AFFF70DFE5046029920F073FE0246FD
:101750000B4640460099FEF7B3FEFEF7D8FF80B275
:101760002146079AFFF7FCFD641CA4B2A145CDD227
:1017700009B0BDE8F08F0000024A1080901C018083
:1017800070470000FE07006C38B50121482000F0CA
:1017900097F82024ADF8004010208DF803000320B6
:1017A0000B4D8DF8020069462846FFF70FFB2021FC
:1017B0002846FFF765FBADF80040064C6946204619
:1017C000FFF704FB20212046FFF75AFB38BD00003D
:1017D000000C01400018014070B50C460546FFF7AB
:1017E00046FB00282146284603D0BDE87040FFF79D
:1017F00045BBBDE87040FFF743BBFEE7704700F014
:101800001F02012191404009800000F1E020C0F852
:101810000011704770B50F23C47801780122F4B12C
:10182000144C2468457804F4E064C4F5E064240AA8
:10183000C4F10406E3408478B5401C402C4301F118
:10184000E021230181F80034007800F01F018A4074
:101850004009800000F1E020C0F8002170BD01F0D7
:101860001F0082404809800000F1E020C0F880217C
:1018700070BD00000CED00E0024908430249086019
:10188000704700000000FA050CED00E07047000012
:10189000044A0029516901D0014300E081435161AC
:1018A0007047000000100240044A0029D16901D0AD
:1018B000014300E08143D161704700000010024005
:1018C000044A0029916901D0014300E081439161FC
:1018D000704700000010024030B51F494A6812F0FE
:1018E0000C031E4A03D0042B01D0082B21D0026028
:1018F0004A680F231A4C03EA1212A35C0268DA400A
:1019000042604B68072505EA1323E35C22FA03F3E0
:1019100083604B6805EAD323E35CDA40C260496820
:10192000032303EA9131231F595CB2FBF1F10161FA
:1019300030BD4A684B6802F470124FF0020413F491
:10194000803F04EB924202D04B689B0301D5054BCC
:1019500000E0024B5A43CAE70010024000127A002E
:101960000800002000093D00044A00284FF0400113
:10197000104601D0FFF784BAFFF780BA000C01408F
:10198000044A00284FF08001104601D0FFF778BAD2
:10199000FFF774BA000C01407047000030B587B003
:1019A00001210420FFF78CFF01218803FFF788FF46
:1019B00018208DF813004FF40070ADF81000224D80
:1019C00003248DF8124004A92846FFF7FFF94820A8
:1019D0008DF813002815ADF810008DF8124004A9F9
:1019E0002846FFF7F3F94FF4E130009000200C2176
:1019F000ADF80A10ADF80600144DADF80C00ADF8C6
:101A00000800ADF804006946284600F0F3F9012209
:101A100040F22551284600F0D4F94FF4A060FFF7BA
:101A20002BFF25208DF8140001218DF817108DF85B
:101A300015408DF8161005A8FFF7ECFE0121284689
:101A400000F096F907B030BD0008014000380140B1
:101A50000CB50021264801910091026842F48032C1
:101A600002604FF4A063026802F400320092019A0F
:101A7000521C0192009A12B9019A9A42F3D102685B
:101A8000920333D5012100911A490A6842F01002ED
:101A90000A600A6822F007020A600A6842F002023D
:101AA0000A604168416041684160416841F4806179
:101AB0004160416821F47C114160416841F4E811C2
:101AC0004160016841F08071016001688901FCD5C5
:101AD000416821F003014160416841F00201416029
:101AE0004168C1F381010229FAD10CBD00910CBDFE
:101AF00000100240002002404FF0E0210428086955
:101B000003D020F004000861704740F00400FAE7B9
:101B1000704700000F4810B5016841F001010160F5
:101B200041680D4A1140416001680C4A1140016052
:101B3000016821F480210160416821F4FE014160C7
:101B40004FF41F018160FFF783FF05494FF00060EC
:101B5000086010BD001002400000FFF8FFFFF6FE15
:101B600008ED00E010B5084C06E00121204600F029
:101B70000DF801201EF08CFA0121204600F013F828
:101B80000128F2D010BD000000100040C9430182BE
:101B900070470029018802D041F0010101E021F0E5
:101BA00001010180704702460020138A92890B428E
:101BB00002EA010202D0002A00D001207047002A68
:101BC000828901D00A4300E08A4382817047000085
:101BD00030B502881B4B1C4C98420DD0A0420BD054
:101BE000B0F1804F08D0194DA84205D0184DA84239
:101BF00002D0184DA84203D122F070054A882A432A
:101C0000154DA84206D0154DA84203D022F44075C8
:101C1000CA882A4302808A8882850A880285984277
:101C20000AD0A04208D00E4A904205D00D4A9042F8
:101C300002D00D4A904201D1097A018601218182A8
:101C400030BD0000002C0140003401400004004081
:101C500000080040000C004000100040001400404C
:101C6000004001400044014000480140044A00286F
:101C70004FF40061104601D0FFF702B9FFF7FEB83C
:101C8000001C0140044A00284FF40071104601D0A6
:101C9000FFF7F6B8FFF7F2B8001C0140044A00282D
:101CA0004FF00201104601D0FFF7EAB8FFF7E6B89F
:101CB000000C01401FB501211020FFF7F5FD0920A0
:101CC000ADF8040041F61F40ADF800000020144CB0
:101CD000ADF80600ADF8020069462046FFF778FF30
:101CE00001212046FFF752FF012211462046FFF74F
:101CF00066FF4FF4A060FFF7BFFD36208DF80C00A3
:101D000001218DF80D108DF80E108DF80F1003A81D
:101D1000FFF780FD01212046FFF73BFF1FBD0000BC
:101D2000001000402DE9F0470E4C0F4D0F4E40F2D1
:101D3000FF374FF0000840F225590BE0284600F02D
:101D4000AFF821887054491C88B22080B84201D372
:101D5000A4F800804946284600F014F80128EDD088
:101D6000BDE8F0871A000020003801405C02002026
:101D70000029818902D041F4005101E021F4005191
:101D80008181704730B501F01F0201240025C1F3A5
:101D9000421304FA02F2012B0FD0022B0FD0838AD8
:101DA0004FEA11210088134204FA01F400EA04000A
:101DB00001D000B10125284630BD8389F0E7038AB0
:101DC000EEE710B5C1F3421301F01F040121A14059
:101DD000012B07D0022B07D01430002A026805D04F
:101DE0000A4304E00C30F8E71030F6E78A4302605B
:101DF00010BD000030B50446008A85B00D464CF693
:101E0000FF710840E98801432182A1894EF6F31051
:101E10000140A8882A8910436A890A431043A08197
:101E2000A08A4FF6FF410840A9890143A182684674
:101E3000FFF752FD1948844201D1039800E002984F
:101E4000A189090400EBC00101EB0010296801D54C
:101E5000490000E08900B0FBF1F06422B0FBF2F130
:101E600009010B096FF018056B4300EB8300A38990
:101E70001D044FF0320306D503EBC000B0FBF2F0B7
:101E800000F0070005E003EB0010B0FBF2F000F0FB
:101E90000F000843208105B030BD0000003801402C
:101EA0008088C0F308007047FEE700000FB4084BBD
:101EB00010B504A902AA039801F04EFE044602A937
:101EC000002002F0CCF9204610BC5DF814FB0000A5
:101ED0005F42000802E008C8121F08C1002AFAD1B8
:101EE00070477047002001E001C1121F002AFBD19A
:101EF0007047000001490860704700005802002048
:101F000070B5044600256FF02F0608E02068411CDC
:101F10002160007805EB850106EB4101451820683A
:101F2000007800F0C7F80028F0D1284670BD000006
:101F30002DE9FF5F82B00021DDE90430020DDDF8FC
:101F400040B0034318D044F61050A2F2FF3242438F
:101F50001514119801281FD0A5EB0B00401C5FEA57
:101F6000000A4FF000064E4FDFF83891B046504659
:101F700015D5CAF1000413E0119801244AA30128E1
:101F800001D16FEA0B010298119AC0E90031C0E952
:101F9000024206B0BDE8F09FCBF10000DFE7044647
:101FA0000021404A491842EB0450CDE9001012E0EC
:101FB000E00707D032463B4640464946FEF786FAE0
:101FC0008046894632463B4610461946FEF77EFA61
:101FD00006460F466410002CEAD1DDE90401DDE974
:101FE0000023BAF1000F06DAFEF770FA42464B46BC
:101FF000FEF76CFA05E0FEF7DBFA42464B46FEF7C9
:10200000D7FA04460E460022284BFEF7C9FB03D838
:102010004FF0FF30014607E00022254B20463146B5
:10202000FEF7ADF9FEF78CFB102409E0002C0ADB6B
:102030000A220023FEF79AF8039B30321A55641ED9
:1020400050EA0102F2D1641C039AC4F11103144452
:10205000119A012A03D0012208430DD10AE0084356
:1020600004D000204FF0110B119072E7A3EB0B0589
:102070006D1E0DE05B4504DD4FF0000205F101052A
:1020800004E003DA4FF00002A5F10105002AECD0CC
:1020900002981199C0E90231C0E9004579E70000D2
:1020A000000014400000F03F300000000000F0434A
:1020B0000000E03F3038092801D801207047002097
:1020C0007047000010B54021074801F081F8002258
:1020D0001E2106481EF036F8054CA06002F050FCA8
:1020E0000020207010BD000070210020294A000847
:1020F000DC01002070B5B1F90030B2F90040A34214
:1021000000DC23460380B1F90250B2F90240A54237
:1021100000DD2C464480B1F90460B2F90450AE42AF
:1021200000DA35468580B1F90610B2F906209142F1
:1021300000DB1146C1800120AB4201DC8C4200DD96
:10214000002070BDF8B50D460446B0F90000B1F9A5
:1021500000101646884247DBB4F90210B5F9022098
:10216000914241DBB4F90410B5F9042091423BDC03
:10217000B4F90610B5F90620914235DC96B3ADF8F6
:1021800000006088ADF8020032466946284600F03B
:1021900099F8002827D0A088ADF800006088ADF835
:1021A000020032466946284600F08CF800281AD012
:1021B0002088ADF80000E088ADF80200324669469C
:1021C000284600F07FF800280DD0A088ADF8000068
:1021D000E088ADF8020032466946284600F072F801
:1021E000002800D00120F8BD0020F8BDB0F9002083
:1021F000B1F904309A4213DCB0F90420B1F900308F
:102200009A420DDBB0F90220B1F906309A4207DCA0
:10221000B0F90600B1F90210884201DB01207047D5
:1022200000207047F8B50D460446B0F90400B1F936
:1022300000101646884243DBB4F90600B5F90210D7
:1022400088423DDBB4F90000B5F90410884237DC60
:10225000B4F90210B5F90620914231DC76B3ADF83D
:1022600000006088ADF8020032466946284600F05A
:1022700029F818BBA088ADF800006088ADF802000E
:1022800032466946284600F01DF8B8B92088ADF8F6
:102290000000E088ADF8020032466946284600F0AA
:1022A00011F858B9A088ADF80000E088ADF8020038
:1022B00032466946284600F005F808B10020F8BD0E
:1022C0000120F8BD2DE9FC4114460E46B1F900206D
:1022D000B0F9001005468A423ADBB5F904008242A3
:1022E00036DCB6F90270B5F90220974230DBB5F959
:1022F00006309F422CDC002C75DD401A9A1A401CD7
:10230000521C00B212B200EBD07002EBD27240103D
:102310005210904200DB1046844200DD0446ADF8C6
:102320000010288800222044ADF804006888ADF829
:102330000200688831462044ADF806006846FFF781
:10234000C1FF40B1BDF804002044ADF804003FE0F7
:102350000020BDE8FC81E8880022001BADF80200E7
:10236000E888ADF8060031466846FFF7ABFF28B1B4
:10237000BDF804002044ADF8040011E0A888002254
:10238000001BADF80000A888ADF80400314668468F
:10239000FFF798FF50B1BDF80000001BADF800003A
:1023A000BDF80200001BADF8020016E06888ADF829
:1023B0000200688800222044ADF8060031466846D5
:1023C000FFF780FF70B1BDF80000001BADF8000002
:1023D000BDF806002044ADF80600314668461BF003
:1023E000EBF9B6E7FFE70120B3E710B5B1F900401C
:1023F000B2F900309C4200DA23460380B1F9024072
:10240000B2F902309C4200DA23464380B1F904401D
:10241000B2F904309C4200DD23468380B1F90610F6
:10242000B2F90620914200DC1146C18010BD0000C7
:10243000FEB507461DF022FE0025354C06460095E8
:1024400037B1F868606038461DF04AFF606802E006
:1024500010F086FF606000691BF04AF9606840690F
:1024600008B11BF045F96068C0691BF041F960686C
:10247000006A1BF03DF960680169E1B31BF0F4FBF1
:102480001BF070FB6068B0F8501199B30168097CCB
:10249000890715D510F0C2FF401E07B2606810F022
:1024A00077FF401E03B20022114601A800970EF0EC
:1024B0002FFE606801A90268926B516004F060FD14
:1024C00060684FF48071303016F040FF6068202162
:1024D00000F5987016F03AFF6068A0F85051304649
:1024E0001DF0C6FD009060680068436A13B1226861
:1024F0000099984700E007E016F06AFD00F036F812
:10250000BDE8FE4000F006B8A0F85051FEBD000046
:102510009800002070B50A4D002400BFC4EBC4062B
:1025200055F8260008B116F0C7FD05EB86001C2102
:1025300016F00CFF641CE4B2042CEFD370BD000055
:102540004C220020084949680AE04A68824202D0C9
:102550000A68824203D10A7E42F001020A76496982
:102560000029F2D1704700006C0000207047000085
:102570000421014800F02CBE642100201C210148E8
:1025800000F026BE7C2100202DE9FF5F0446DDE936
:102590000E0613B9B0F5807F7ED0B6F900504FF02B
:1025A000FF376D42454307EB25252DB22580B6F94F
:1025B00002C0CCF1000C0CFB00FC07EB2C273FB257
:1025C0006780B6F900C0A1EB0C0141434FF0020C4B
:1025D0000CEB212109B2A180B6F90280A2EB08021E
:1025E00042430CEB222000B2E080002B7ED04FF063
:1025F0000A0A93FBFAF5684200EB800003EB400700
:1026000005F1010928B21DF0ABFF00900FFA89F027
:102610001DF0A6FF83465A3528B21DF0A1FF804663
:1026200009F15A0000B21DF09BFF0146009AC7F164
:102630000A0000FB02F300FB08F00BFB073301FB71
:10264000070193FBFAF291FBFAF04FEA601AB4F932
:102650000010B4F902000AFB01FCCDF80CC05511C2
:10266000378805FB10C207EBA2220FFA82F905FB9F
:1026700001F2BB46029277880AFB002107EBA121F9
:102680000BB2B4F90410BE460AFB01FC05FB10C2F4
:102690000BEBA22216B200E02FE005FB01F7CDE91B
:1026A000007CB4F90680DDF80CC00AFB007005FB65
:1026B00018C1DDF804C0009F05FB18C5029A0AFB8B
:1026C000087C0AFB08220BEBA1210EEBAC270EEBDA
:1026D000A02009B20EEBA2220BEBA5250FFA87FC76
:1026E00000B212B22DB24F46494500E00EE000DACA
:1026F0000F46B54216DAA84615E000202080491E94
:102700006080A180521EE280BDE8FF9F32882A448B
:10271000228072883A44628032881144A180718894
:1027200008444FE0B046474504DA4F46494506DACB
:102730000F4604E0B54201DA2F4600E03746278015
:102740004F46494500DD0F46B54201DDA84600E091
:10275000B046474503DD4D46494505DC01E0B5423D
:1027600001DD294600E03146A1809A4201DA154692
:1027700000E01D46844501DA614600E001468D42D5
:1027800005DA9A4201DA114606E0194604E084456A
:1027900001DA614600E0014661809A4201DD11469E
:1027A00000E01946844501DD654600E00546A94282
:1027B00005DD9A4201DD104604E0184602E084453A
:1027C00000DD6046E0809FE72DE9FE4F0446D0F82B
:1027D00000B0B0F90800E589081AB4F90A10511AD6
:1027E000D4E90932B5F5807F38D0A589ADB3A66BA1
:1027F000704345114E437011266BE16A06FB05F7E5
:1028000001FB1077694306FB001003EBA72902EBDD
:10281000A02080460612B4F904004FEA2927B842E6
:102820004EDD002F4CDBB4F90610B14248DD002E1E
:1028300046DB94F834104A0745D58A0704F114039F
:1028400022D400FB067045004FF0020A0BEB050195
:102850005246184616F030FD27E00DE0256BE66A7B
:1028600005FB00F706FB1177464305FB016003EB10
:10287000A70902EBA000CCE7A56B68434D4303EB2F
:10288000601902EB6510C4E700FB067000EB400521
:102890004FF0030A0BEB05010222184616F00CFD5F
:1028A000E81C584410F8010CA07594F83400C007D7
:1028B0001FD04FF4FC60ADF80000A18A814218D10E
:1028C0000020BDE8FE8F32B204F118002369CDE983
:1028D0000102002539B2AA468B4614F061F8009037
:1028E000BDF80000A082DDE90102594613F0F0FFB7
:1028F000DAE7E07C78B1A4F83C90A4F83E80A4F834
:102900004070A4F84260656484F848A02046BDE8A1
:10291000FE4F00F002B80120D3E72DE9F04F044646
:1029200090F83C10D0F8009090F83E0087B04FF03F
:10293000FF36702907DAB4F940203546012A00D560
:10294000002580310DE0902916DDB4F94020B4F95E
:1029500004300125521C9A4200DB0025A1F27F11B0
:102960004942C9B28846702809DAB4F942100129EF
:1029700000D50026803010E00025FF21F2E79028E6
:102980000DDDB4F94210B4F906200126491C91422C
:1029900000DB0026A0F27F104042C7B201E0002613
:1029A000FF2760690090A07D059000208246834645
:1029B000049094F83400400744D594F84810606CB3
:1029C000022201FB0501494401A816F075FCB4F987
:1029D000040094F8481002224843616C06FB001181
:1029E000494403A816F068FCB4F9041094F84800B0
:1029F000626C414306FB012200FB05901118022284
:102A000002A816F059FC94F83400800761D594F8B8
:102A10004800616C00EB090200FB0513134413F836
:102A2000013C0493B4F90430434306FB031100FB5B
:102A300005000A44014401EB090012F801AC10F84A
:102A4000010C45E0B4F84000B4F94220284401B23A
:102A500004F118008146236913F0A2FF0190B4F835
:102A60004200B4F94010304402B254F8103F4846D6
:102A700013F096FF0390608E2368304402B2208EDC
:102A8000284401B2484613F08BFF029094F82400CA
:102A9000103C80071DD5B4F9422034F8400F28447B
:102AA00001B2484613F014FF04906088B4F9001096
:102AB000304402B2484613F00BFF8246608830442F
:102AC00002B234F84009284401B2484613F000FF2E
:102AD000834694F8340042464546800735D505992B
:102AE000049B01FB08F1C8F1FF0003FB00110AFB86
:102AF00008F30BFB0030C1F30721C0F3072001FBF3
:102B000007F3C7F1FF0600FB06331B0AA375022972
:102B100007D8022803D8002007B0BDE8F08F0027AF
:102B200002E0022800D8FF270598022800D80022DA
:102B30000498022800D8FF22BAF1020F00D800251D
:102B4000BBF1020F03D8FF2501E0FF20A075EAB119
:102B5000FF2A04D0DDE900010FF0E2FF0090BDB1D3
:102B6000FF2D17D0DDE902102A460FF0D9FF04909F
:102B700097B1FF2F05D001463A4600980FF0D0FFDD
:102B80000090BDF80000A0820120C5E70198E5E7AC
:102B90000298ECE70398EAE7BDF81000F3E70000BD
:102BA0002DE9F0470446B0F908000A2700026062E8
:102BB000B4F90A000002A062B4F90C1091FBF7F519
:102BC000684200EB800001EB4006684205F1010815
:102BD00000B21DF0C5FC8246E84300B21DF0C0FC07
:102BE0008146C5F15A0000B21DF0BAFC0546C8F195
:102BF0005A0000B21DF0B4FCC6F10A0101FB0AF351
:102C0000024609FB0630694390FBF7F002FB061110
:102C100091FBF7F14011E06248112063A07C13F0B2
:102C20006CFF94F8341060F3000184F83410A07C39
:102C300013F053FF94F8341060F3410184F834101A
:102C4000A07C042824D0052822D0062820D021F0FA
:102C5000040100BF84F8341021682162A16921F0C9
:102C6000E00160F30401A08860F39421E08860F340
:102C70005F51A161E0894FF4001101EB5001B1FBFC
:102C8000F0F0A063FF20A075208AA082BDE8F08745
:102C900041F00401DEE700002DE9F04115460E4643
:102CA0000746114C1DF0EAF980462B46324639465C
:102CB000204614F0A3FA20B10020A062E06950B1D0
:102CC00010E02C21204616F041FB4FF00040A0629E
:102CD0000020BDE8F08140461DF0CAF9E06108B966
:102CE0000120E0612046F4E7A021002010B5142166
:102CF000074800F06DFA14F047FA40B10549016049
:102D000005494160054981600549C16010BDFEE784
:102D100088210020B56B0108316F0108A9700108F6
:102D2000816B010870B50D4604461021284616F047
:102D30000DFB20680078012804D0022807D0042861
:102D400007D008E0208A2880608A688003E0E06875
:102D500000E00A20686020684268002A03D0294603
:102D6000BDE87040104770BDFEB5866A0446BEB926
:102D7000A08A218A0844A082E08A618A0844E0820D
:102D800020460AF0C8FA060079D020460CF01CFD57
:102D900000220921304613F0E3F8607880076ED4F2
:102DA000208A10B9608A002869D00025ADF8045047
:102DB000ADF8085094F83C0000F00F0003283046AE
:102DC00016D018F04BF80746304617F001FF0346BF
:102DD0000C200090B4F912103A46304609F054FE27
:102DE000ADF80800304617F045FFC10712D017E0D4
:102DF00017F0C8FF0746304617F064FF024603206D
:102E00000090B4F910103B46304609F03DFEADF895
:102E10000400E7E7BDF90410002901DDADF8045016
:102E2000810705D4BDF90410002901DAADF804507A
:102E3000410705D4BDF90810002901DDADF808509F
:102E4000000705D4BDF90800002801DAADF80850E4
:102E500002AA01A920461FF098F80023BDF9082016
:102E6000BDF90410304619F0F3FFA08ABDF8041034
:102E70000844A082E08ABDF808100844E082FEBD44
:102E80002DE9FC5F0446806A5FEA000B71D094F87C
:102E90003C0000076DD014F06BFC019000684021ED
:102EA000457E584618F082FF4FF0000818B9A4F884
:102EB0001A80A4F81880584617F0C2FF8246584678
:102EC00017F0C5FF064694F83C004FF0640900F087
:102ED0000F000C2802D003284CD09AE0A4F81880E8
:102EE00056B1B4F91A50002714F042FC0068407E35
:102EF000C0F16401484622E0B4F91A00C5F164014A
:102F0000484390FBF9F06083584617F061FE054690
:102F1000584617F0A3FF02460C200090B4F91A108F
:102F20002B46584609F0B0FD6083024600231EE0A0
:102F30007A1917B201FB05F292FBF0F215B2002DDF
:102F4000F6D1ADF80070A4F81A806A460021204638
:102F50001FF01BF841F6FF72BDF900305142584690
:102F60000AF03EFBBDF800100123084402B2002124
:102F70004CE09AE0A4F81A80BAF1000F0AD0B4F934
:102F80001850002714F0F4FB00684946407EC0F159
:102F9000640022E0B4F91800C5F16401484390FBD5
:102FA000F9F02083584617F08DFE0546584617F075
:102FB000E9FE034603200090B4F918102A4658464B
:102FC00009F062FD2083014600231EE07A1917B242
:102FD00000FB05F292FBF1F215B2002DF6D1ADF82F
:102FE0000070A4F818800022694620461EF0CDFF2C
:102FF00041F6FF72BDF90030514258460AF068FAB6
:10300000BDF800100123084401B20022584619F00F
:103010001FFF208B002848D1608B002845D1C6B9FE
:10302000584617F01BFF0546584617F0D1FD002DF6
:1030300006DC00280DDD002D02DA01232A4604E01B
:10304000002806DA0123404202B20021584619F056
:10305000FFFEBAF1000F19D1584617F033FE0546AE
:10306000584617F08FFE002D07DC00280EDD002DDE
:1030700003DA01230022294605E0002806DA0123AD
:103080000022404201B2584619F0E2FE0A21584699
:10309000019A12F065FF6078800706D414F83C0F9F
:1030A00020F00F00207044F8148CBDE8FC9F000055
:1030B0007FB50E46040003D110F052F9040023D06E
:1030C0000025FEB1ADF80050ADF8025010F060F9E7
:1030D000401EADF80400204610F0A0F9401EADF8E7
:1030E00006006A46314602A8FFF704F800280BD014
:1030F0002068017C890708D5DDE90001C4E90C01DD
:1031000001202AE0A0F850517FBD82690AB102A9CE
:10311000904700260BE000BF04EBC601002202A886
:103120003031FFF70FF80028EED1761CB6B2B4F8B4
:103130005001B042F0D880B2202804D204EBC00085
:1031400002A9303004E0A4F8505104F1300069467F
:103150000DF035FFB4F85001401CA4F85001606830
:103160000028D1D01DF0C8F87FBD70B5054600F02D
:1031700012F804460CE02146284600F01EF80646E8
:103180002146284600F071F8204615F095FF344698
:10319000002CF0D170BD002800D04068704700B509
:1031A00003460022FFF7F7FF03E01846521C00F029
:1031B00004F80100F9D1104600BD0068091D40580F
:1031C0007047006840587047002800D080687047FA
:1031D00000224260C91C21F0030182600160704737
:1031E00070B504460068083015F0DCFE050013D009
:1031F0000146002220461EF081F8294620466268DA
:103200001EF076F8616819B12A4620461EF076F85D
:103210006560A06800B9A560284670BD70B5044619
:103220000068083015F0BEFE050013D001460022EC
:1032300020461EF05DF829462046A2681EF05EF882
:10324000A16819B12A4620461EF052F8A5606068B0
:1032500000B96560284670BD28B1416809B9806829
:1032600008B1002070470120704770B504000DD0F0
:10327000FFF791FF00228842204608D1FFF79DFF0B
:103280006060011E01D000221EE0A26070BDFFF749
:103290009BFF8842206808440AD10168A16029B1D7
:1032A0002046BDE8704000221EF022B8626070BD6A
:1032B00005682046FFF781FF06460246294620465C
:1032C0001EF016F82A4631462046BDE870401EF032
:1032D00015B810B50446006882680AB121469047C7
:1032E00020680068002801D02060F5E710BD8068E4
:1032F000002801D0B0F91600704700002DE9F04712
:10330000074690B0408C189E40F0040078849046A8
:103310003A8499468A463289384618F0B3FB054606
:10332000A7F8209032895146384618F0ABFB044686
:10333000788CA54220F00400788403D12904B1EBF5
:10334000044F68D0A7F8208032895146384618F0DB
:1033500099FB05468046A7F82090514638460BF069
:103360000FFB318900682A461BF0FEFD308960287A
:1033700023D147F6FF794D4501D04C451DD1384644
:1033800018F0CBFC00EBD0704510384618F0C5FCA7
:1033900000EBD0704010C84506D1691C431C99420F
:1033A00000DA00E0194688464C4506D1691C421CEB
:1033B000914201DA6C1C00E014461948FFF710FF37
:1033C00005002BD02F60C5E903843089A8806846AA
:1033D000C5F808A00DF00EF91248FF21CDE9005004
:1033E000114802901148039000200790CDE9080190
:1033F00030880A9070889DF83E1040420B90F0682B
:103400000690002060F300018DF83E1030690590B1
:1034100068460DF063F910B0BDE8F087FEE70000E4
:10342000942100204D510208395302089552020898
:1034300014210148FFF7CCBE942100202DE9FC5F48
:10344000002592468B4606462C46042743F60F0875
:1034500043F60E0901E100BFF06807EBC4014058D4
:1034600081017CD480B230EA0B0113D05FF00001FF
:1034700030EA0A0010D00020814270D0F06801AA22
:1034800041F6100150F8340000901BF053FB002867
:1034900066D103E00121EBE70120EDE701AA41F647
:1034A000110100981BF046FB002873D101AA41F6D8
:1034B000120100981BF03EFB00286BD101AA41F6D7
:1034C000130100981BF036FB002863D101AA41F6D6
:1034D000150100981BF02EFB00285BD101AA41F6D4
:1034E000140100981BF026FBD0BB01AA41F2690130
:1034F00000981BF01FFB98BB01AA43F20C01009837
:103500001BF018FB60BB01AA43F20D0100981BF0F1
:1035100011FB28BB01AA41F2010100981BF00AFB34
:10352000F0B901AA41F2040100981BF003FBB8B9FD
:1035300001AA41F2020100981BF0FCFA80B901AA2D
:1035400041F2030100981BF0F5FA48B901AA41F2D3
:10355000050100981BF0EEFA10B901AA01E07BE02A
:1035600018E041F2060100981BF0E4FA90B901AAB4
:1035700041F2320100981BF0DDFA58B901AA414628
:1035800000981BF0D7FA28B901AA494600981BF009
:10359000D1FA10B10320BDE8FC9F01AA40F60A0150
:1035A00000981BF0C7FAE8BB01AA40F60B0100988F
:1035B0001BF0C0FAB0BB01AA414600981BF0BAFA52
:1035C00080BB01AA494600981BF0B4FA50BB01AA7F
:1035D00040F63C0100981BF0ADFA18BB01AA40F67A
:1035E0003D0100981BF0A6FAE0B901AA40F63A01A5
:1035F00000981BF09FFAA8B901AA4FF40461009843
:103600001BF098FA70B901AA40F6450100981BF02A
:1036100091FA38B901AA40F6410100981BF08AFAE4
:1036200000B900E014E001AA40F6420100981BF046
:1036300081FA68B901AA40F6430100981BF07AFAB2
:1036400030B901AA40F6490100981BF073FA08B19D
:10365000022501E005B90125641C708CC0F3C5008A
:10366000A0423FF6F9AE284695E7000001484068C1
:1036700070470000980000207047C0F3041007282E
:1036800000D907207047000010B518210348FFF744
:103690009FFD03490120087010BD0000402100205B
:1036A000080200202DE9F04190460C46050015D097
:1036B000FCF7B1FD0A4F06462146BA6828469047F6
:1036C0000446BA682819414690470146701A03E03B
:1036D0006218AA5C2A55641CA042F9D2BDE8F081A8
:1036E0001C0200202DE9F041094D90460E466A6803
:1036F0001C46074619469047306020B120686A682A
:10370000384400219047C8F80000BDE8F08100006F
:103710001C0200202DE9F04F87B08A46DDE91058E1
:103720001F4693460446002105B129805CB12078EC
:10373000002809D0BAF1000F05D0002618F0060FB6
:1037400015D0002004E0002007B0BDE8F08F401C39
:10375000215C0A2904D00D2902D00029F7D100E00C
:10376000401C002DF0D04FF0FF312980ECE75FEADC
:10377000887001D541F6FF77894608468DF8141008
:10378000049127E00498CDF8189068B34FF0000C2E
:1037900005AA06ABCDF80CC0CDF80080CDE901320A
:1037A00020443B465A4651461CF004FF06997A1ABB
:1037B000314417B20EB288B10499014404912078C3
:1037C0000A280BD00D2809D0605C0A280FD00D28DC
:1037D0000DD00846205C08B1002FD3DC049848B116
:1037E00005B12E800498AFE74FF0010CD0E7481CDC
:1037F0000490F3E7064A04A9204652689047002D3A
:10380000F0D001460022504612F085FC06B2E8E7EF
:103810001C0200202DE9F0411746884606001ED004
:10382000002F1CD0FCF7F7FC04463846FCF7F3FCED
:10383000050014D00B4A2C4441469268304690470C
:10384000411903E0621BB25C3255641EA142F9D9F2
:1038500030442A463946BDE8F04115F039BDBDE88F
:10386000F08100001C02002000230278232902D0EE
:10387000012A0DD00FE02AB10021012A04D0022A2A
:1038800004D008E0012101E0017004E0017001E0D2
:10389000202902D00123184670470221F6E72DE9BE
:1038A000F0410E46804602460021334608461DF090
:1038B000BDF804460027401C15F074FB050008D035
:1038C0002F5533464246611C1DF0B0F82846BDE82E
:1038D000F081FEE72DE9F0471E4614460D4682466C
:1038E000DDF8209015E000BF4FEA540808FB0657AA
:1038F000394650464A469047002808DD44F3000008
:10390000C0EB540407EB0605A4F1010401E005DA5D
:103910004446002CE8D12046BDE8F0873846FBE756
:103920002DE9FC5F9B460CAB8A468146DDE91160C0
:1039300093E81210DDE90F575FEA80784FF030030B
:103940001AD45EB15FEAC07808D000F00C0858EADB
:103950000C0803D0761E01E00B55641CBC4204D257
:10396000202CF9D301E00B55641C5FEAC07803D02A
:10397000B44201D2202CF6D35FEAC06825D55FEAB5
:1039800040580AD44CB1BC4201D0B44205D1641EA7
:1039900003D0102D03D1641E04E0102D02D0022D9F
:1039A0000AD00EE0850603D4202C1ED2782506E02E
:1039B000202C1AD2582502E0202C16D262250D5553
:1039C000641C202C11D20B55641C202C0DD2BCF190
:1039D000000F01D02D2306E0430701D52B2302E081
:1039E000030702D520230B55641CCDE900BAC84655
:1039F000154681468B46AA46800714D1274607E024
:103A00002A46DDE900316D1C2020C446E0477F1CBA
:103A1000B742F5D307E02A466D1C641EDDE900318C
:103A20001BF80400C047002CF5D15FEA897006D46A
:103A300009E02A46DDE900316D1C2020C047A5EBD6
:103A40000A00B042F5D32846BDE8FC9F2DE9F04FAF
:103A50008FB099468B46DDE91818DDE91C63DDE976
:103A60001A4792468646002209B923F010035805EA
:103A700007AD00D5C9B1B1FBF4F004FB1010C0B222
:103A80000A2801D2303009E05FEA836C02D54FF09A
:103A9000410C01E04FF0610C60440A38B1FBF4F1D5
:103AA000A854521C09B1202AE5D3CDF80880CDE9ED
:103AB0000563CDE90052CDE903474B4652465946CE
:103AC0007046FFF72DFF0FB0BDE8F08F2DE9FF4FD7
:103AD0008FB01CACDDE9239594E8030820AC94E892
:103AE000C004002450EA010201D125F010056A0546
:103AF0000DF11C0802D550EA010217D032463B46B0
:103B0000FCF734FBD2B20A2A01D2303206E0AB060F
:103B100001D5412300E061231A440A3A08F8042041
:103B2000641C50EA010201D0202CE7D3CDE90084C7
:103B3000CDF808B0CDE90595CDE9036A0FAF97E858
:103B40000F00FFF7EDFE13B0BDE8F08F9A4200D2F0
:103B500088547047704700002DE9FF4F95B09A4692
:103B6000884606460025EEE1252877D10024274621
:103B7000F94A0121039400E0044316F8013F203B79
:103B800001FA03F01042F7D130782A2811D06FF0F3
:103B90002F033078A0F13002092A16D8039A44F096
:103BA000020402EB820203EB42021044761C0390F3
:103BB000EFE758F8042B0392002A03DA504244F44A
:103BC0000054039044F00204761C30782E2816D15D
:103BD00016F8010F44F004042A280DD06FF02F02CC
:103BE0003078A0F13003092B09D807EB870302EBEB
:103BF0004303C718761CF3E758F8047B761C30782B
:103C00006C280FD006DC4C2817D068280DD06A2805
:103C100014D104E0742810D07A280FD10DE044F4B8
:103C200000140AE044F4801401E044F44014727873
:103C3000824202D104F58014761C761C3078662806
:103C40000BD013DC582877D009DC002875D0452824
:103C5000F6D04628F4D047281AD193E118E063281B
:103C600035D0642879D0652812D18BE1702873D0C3
:103C700008DC6728F1D069286FD06E280DD06F2836
:103C800006D1ACE073282CD0752874D0782853D096
:103C90005246179990476D1C54E1C4F30250022814
:103CA00009D003280DD0D8F8001004280DD00D60DD
:103CB00008F1040846E1D8F80010EA17C1E90052FB
:103CC000F6E7D8F800100D80F2E70D70F0E718F86D
:103CD000041B8DF8001000208DF80100EB46012038
:103CE00003E058F804BB4FF0FF3061074FF00001CC
:103CF00002D40DE009F101018946B9420FDA81458C
:103D0000F8DB1BF809100029F4D108E009F10101E2
:103D100089468142FADB1BF809100029F6D1039885
:103D20005346A0EB090721463846179A00F080FA5F
:103D3000284400EB090507E044E008E10DE01BF82A
:103D4000010B524617999047B9F10109F7D2534632
:103D500021463846179AF2E039E00A21C4F30252AC
:103D60004FF0000B0091022A06D058F8040BC1173F
:103D7000032A09D00AE023E008F1070020F0070237
:103D8000F2E80201904605E000B2C117042A01D111
:103D900040B2C117002906DA0A460021404261EB11
:103DA00002012D2202E0220504D52B228DF80420E9
:103DB000012203E0E20701D02022F7E7914657E015
:103DC0000A2100E010214FF0000B00910BE01021C0
:103DD0004FF0000B44F004040827009103E0082092
:103DE0004FF0000B0090C4F30252022A05D058F89D
:103DF000040B0021032A08D008E008F1070020F096
:103E00000702F2E80201904603E080B2042A00D1E2
:103E1000C0B24FF0000922072AD53278702A07D0A5
:103E2000DDF800C08CF0100C5CEA0B0C05D00EE045
:103E300040228DF80420012208E050EA010306D058
:103E400030238DF804308DF8052002229146009B26
:103E500083F0080353EA0B030AD150EA010201D1AF
:103E6000620705D530228DF804204FF001097F1E2E
:103E70003278582A04D039A20C920CAA02920BE094
:103E80003BA2F9E75B46009AFCF770F90C9B9B5C40
:103E9000029A521E0292137050EA0102F2D1029865
:103EA00004A9081A00F1200B600702D524F480341D
:103EB00000E001275F4502DDA7EB0B0000E00020DA
:103EC00000EB0B01009003984944401A0390E00373
:103ED00006D453462146179A039800F0A9F90544E1
:103EE000002706E001A85246C05D179990476D1C57
:103EF0007F1C4F45F6DBE0030CD553462146179A4D
:103F0000039800F095F9054404E0302052461799D3
:103F100090476D1C0099481E00900029F5DC08E0D0
:103F20000298029952460078491C029117999047CD
:103F30006D1CBBF10001ABF1010BF1DC5BE100F0AA
:103F400065F90544761C307800287FF40DAE19B071
:103F50002846BDE8F08F00000928010030313233D7
:103F600034353637383961626364656600000000B5
:103F7000303132333435363738394142434445469F
:103F800000000000600700D4062708F1070020F0B9
:103F90000700F0E80223804603F0004C5FEA0C00C3
:103FA00001D097A009E0200501D596A005E0E00723
:103FB00001D095A001E0AFF24C001390307823F0CF
:103FC000004365280CD006DC452809D046281DD0C2
:103FD00047287FD13BE0662818D067287AD136E0A1
:103FE0000021112F01DB112000E0781CCDE9000138
:103FF00004A90CA8FDF79CFFDDE90D010C9A4FF018
:10400000000B07F10109109200914EE04FF00040C3
:104010000097CDE9011004A90CA8FDF789FFDDE99F
:104020000D020C9B0F994FF0000B914610930092DC
:1040300011B9791C00EB0109B7EB090003D4C0F1F9
:10404000FF3B07F10109A9EB0700019042E0012FB6
:1040500000DA01270021112F01DD112000E0384690
:10406000CDE9000104A90CA8FDF762FFDDE90D010F
:104070000C9A00914FF0000BB946109221070FD413
:10408000009A4A4503DA914601E0A9F10109B9F124
:10409000010F05DD109AA9F10101515C3029F4D01E
:1040A000B84202DA10F1040F03DA0121CDE9011060
:1040B00010E0002803DC8344A9EB000102E0411C6E
:1040C000494500DD8946A0EB0B00401C01904FF0F4
:1040D00000400290200705D40198484502DB4FF0CC
:1040E000FF30019000208DF84B0002980DF14B0736
:1040F000B0F1004F25D002200C902B200D9002989B
:1041000000280CDA404202902D200D9007E00A2191
:104110000298FCF75DFB3031029007F8011D0C9905
:10412000481E0C900029F2DC02980028EFD1791E7D
:104130000D980870307800F0200040F0450007F836
:10414000020D11A8C01BC01D02901398007800B189
:10415000012000EB0901019801EBE0710298014494
:104160000398401A401E0390E00306D453462146AC
:10417000179A039800F05CF805441398007818B17A
:104180005246179990476D1CE00323D553462146AC
:10419000179A039800F04CF805441BE0BBF1000FA0
:1041A00007DB0098584504DD1098179910F80B00AC
:1041B00001E0179930205246904701980BF1010B0E
:1041C000401E05F10105019004D12E205246179999
:1041D00090476D1CB9F10001A9F10109DEDC05E091
:1041E00017F8010B5246179990476D1C0299481E0B
:1041F00002900029F4DC53462146179A03989EE664
:104200002D0000002B000000200000002DE9F041EF
:10421000044600251E461746880404D405E03946A6
:104220002020B0476D1C641EF9D52846BDE8F081FA
:104230002DE9F041044600251E469046C80301D5ED
:10424000302700E02027880404D505E041463846A1
:10425000B0476D1C641EF9D52846BDE8F0810A6898
:10426000531C0B60107070472DE9FF4F89B0054655
:104270000A9800249246002800D1FE4D8FE125289F
:1042800004D02246641C53460A990BE2491C4FF0A5
:10429000000808460C9101782B2919D004DC20294C
:1042A00019D0232904D119E02D290ED0302909D0A5
:1042B0000026C8B2FDF7FEFEB0B10CA8FDF720FE47
:1042C00006461FE048F001010AE048F0020107E05D
:1042D00048F0040104E048F0080101E048F0100152
:1042E000401C88460C90D6E70C9908782A2809D1FA
:1042F000169840C81690002E02DA48F0020876425E
:10430000491C0C910C984FF0000B01782E2919D103
:10431000401C0C9048F480680078FDF7CBFE20B17B
:104320000CA8FDF7EDFD83460CE00C9A10782A28C6
:1043300008D1169901C91691002800DC0020521CF2
:1043400083460C920C9801786C290AD004DC682909
:104350000FD06A2919D128E0742929D07A2914D1DB
:1043600026E0401C0C90017848F480786C291CD021
:104370000BE0401C0C90017848F08008682904D1BB
:1043800048F04001401C88460C900146007869289E
:1043900022D015DC62281FD00DDC252872D05028D1
:1043A0001AD058287FF46DAF16E048F40071E9E7A1
:1043B00048F48071E6E7632879D06428F2D10BE0F5
:1043C000732875D004DC6F2806D07028EAD103E08A
:1043D000752801D07828E5D178280DD058280BD041
:1043E00070280BD0502809D06F2816D0622816D01C
:1043F0000A2228F0100016E0102207E04878102268
:1044000048F48878562804D1491C0C91087858281B
:1044100007D00878502804D006E0082209E00222DC
:1044200007E048F0200080460878692803D0642817
:1044300001D028F00C085FEA485001D528F00108A7
:10444000087869281FD064281DD0562864D05FEAF8
:10445000885072D51698CDF818B0C01D0021CDE94E
:1044600004210291CDE9076820F007005346F0E8E7
:104470000212CDE900121690224628460A99FFF74B
:1044800025FB88E009E15FEA885022D5169804AF41
:10449000C01D20F00703F3E802011693002387E80C
:1044A0000C08CDE90768002903DA012202E07FE069
:1044B000A6E00022002302921A461B1A8A4103DB5F
:1044C0000022404262EB010153462246CDE9000141
:1044D000D3E75FEAC85004D5169901C90FE04042FE
:1044E00015E05FEA486003D5169911F8040B06E061
:1044F0005FEA0860F0D5169931F8040B00B2169106
:10450000CDE9022BCDE90468C10F0028E7DD534651
:104510002246CDE900013AE01699AAEB040201C94E
:10452000169141680968009103680A9801192846A4
:10453000FFF79AFE04442FE0FFE75FEAC8500CD56E
:10454000CDE9022BCDE9046816980021534604C832
:10455000CDE900211690224619E05FEA486003D5B4
:10456000169810F8041B08E05FEA0860169803D557
:1045700030F8041B89B200E002C8169001AF002099
:10458000009187E80508CDE904685346224628468D
:104590000A99FFF75BFA04460C98401C0C900C99A2
:1045A000087800287FF46BAE54457DD222467DE02A
:1045B00001275FEA887006D509E02246641C53464D
:1045C00020200A99A84738467F1CB042F5D3169898
:1045D0002246641C10F804CB1690534660460A9994
:1045E000A8475FEA887006D4D6E72246641C534683
:1045F00020200A99A84738467F1CB042F5D3CBE764
:10460000169850F8049B16904B46BBF1000001D061
:10461000014601E04FF0FF31484600E0401C0278BF
:104620000AB1491EFAD2C71A5FEA485003D5584664
:104630005F4500D307465FEA887006D511E0224641
:10464000641C534620200A99A84738467F1CB04274
:10465000F5D306E0224609F10109641C53460A9984
:10466000A84799F8000040B15FEA4851F2D5BBF184
:10467000010B01E0553B0008ECD25FEA887006D4DC
:104680008AE72246641C534620200A99A8473846E8
:104690007F1CB042F5D37FE706E02246641C5346F8
:1046A00025200A99A84777E7AAF10102534600207E
:1046B0000A99A8470DB02046BDE8F08F10B502005A
:1046C0004FF000000CD04B1E194200D0FEE70A4408
:1046D000521E9A43B2F5804F02D20C2A01D91046DD
:1046E00010BD0C2010BD08444A1E401E90431142CC
:1046F00000D0FEE7704700002DE9F0410F46012190
:104700000025044641862E460BE01B49FBF78AFD37
:1047100010B16D1CADB202E0608E401C6086761C4C
:10472000B6B257F8260010B101780029EDD1208EDD
:10473000A8421ED0A06A002610B114F0BDFCA662EB
:10474000E06A10B114F0B8FCE662E80014F02AFC4C
:10475000A06238B1680014F025FCE06218B1A16ACB
:1047600011B102E0FEE7FEE70025690014F0EEFD5E
:104770002586BDE8F08100007C1901082DE9F84F7D
:104780008146407A0F4600F00700022819D01046F3
:104790008046974200DD3A46164603202A4C2B4AB3
:1047A00000EB460020F00305A06811681035411A9F
:1047B000636805EB010C9C4505D2416821F000417E
:1047C00024E00846E4E79D4219D892464FF0FF3BAB
:1047D00048196168884210D9002269461C48CDF802
:1047E00000B00BF0A9FB002269461A480BF0A4FBAD
:1047F000A168DAF80000091AEAE7A068DDE72846B0
:1048000014F0D0FBC0B1416841F0004188EA670272
:10481000416089EA02010160416801F04041491CA0
:1048200031F0804141608681A0F80E8005D500F10D
:1048300010018160BDE8F88FFEE7A16801F1100268
:1048400029448260A160F5E7A0000020F801002063
:1048500005D3000899FF000870B586B000228DF8D6
:1048600008208DF80C208DF81020444C90F83C2046
:10487000142302F00302A5784FF4B476012A23D062
:10488000022A5FD0AA4211D010F8265F05EB051569
:1048900005EB4505B5FBF3F52570407800EB0010FE
:1048A00000EB4000B0FBF3F06070A27004AA03A814
:1048B000CDE9000201EB41004FF6FF7101EA400033
:1048C00002AB627821781AE0AA4210D0858C05EB01
:1048D00045056D02B5FBF6F5A58090F8270000EBC5
:1048E000001000EB4000B0FBF3F06070A27004AA6F
:1048F00003A8CDE90002C9B202AB62783CE008F03F
:1049000015FA9DF810209DF80C10D308BDF8002072
:104910009DF8080063F30402ADF800208A08BDF892
:10492000001062F34A11ADF80010C108BDF8000094
:1049300061F3CF20ADF8000080B20090BDF8000018
:1049400006B070BDAA4210D0858C05EB45056D02FE
:10495000B5FBF6F5A58090F8260000EB001000EB03
:104960004000B0FBF3F02070A27004AA03A8CDE9C8
:104970000002CAB2217802ABA088C0E75001002033
:1049800010B5084C012020700748FEF704FC0028F1
:10499000A06803D0BDE810401BF0AEBCBDE81040DD
:1049A0001BF09EBCDC0100207021002010B50446E5
:1049B00090F83E00626B810707D4A18F39B1A1F551
:1049C0007F43FF3B15D0491EA187A18F89B90AB14A
:1049D00081070ED521461348FEF747FCFFF7D0FFAD
:1049E000E16809B1204688472046BDE8104014F030
:1049F00063BBA16B4942E162002A11D0810702D456
:104A0000216B4942E1624110491C61F3410084F885
:104A10003E00616AE069E1616062A06AA26260636F
:104A200010BD00007021002070B5304D68681BF08B
:104A30001FFB0646687880F00100687047E00020A0
:104A4000287094F83E006978C0F380028A4242D010
:104A500061F3820084F83E00E16A8A19030719D4E1
:104A6000002917DC002A15DBC00709D1216939B1FB
:104A700020468847E1690144E161616A0844606257
:104A8000A16809B12046884794F83E0040F008002C
:104A900084F83E00E06A8019E06216D4A16A884278
:104AA00000DDE162A169204688470146206A88420C
:104AB00004D0216262680AB120689047D4E90A01F3
:104AC000814202DB2046FFF771FF287818B10848C1
:104AD000FEF761FB03E021460548FEF76EFB04008C
:104AE000ADD11BF0CBFA686070BD0000DC01002086
:104AF0007021002070B5044640680D4608B1FFF7EC
:104B0000F9FF2268002A04D029462046BDE87040FB
:104B1000104770BD89B20CF0B7B989B20CF0F0B98A
:104B200010B50446406882080AD0496821F00301A4
:104B3000091D08446060204600F042F8204610BD80
:104B4000FEE74068103120F00300884201D30120C5
:104B50007047002070472DE9FC47054648680C4621
:104B600020F0030001AA69461CF06CFADDE9007030
:104B700005EBC71101EB80098046D9F8340060B11C
:104B800064B1C4E9020504F10806C460304604219A
:104B9000FFF7A9FD864202D0FEE7FEE7FEE7C9F86F
:104BA00034400120296900FA07F21143296105EB1D
:104BB000870100FA08F04A6902434A61BDE8FC87B0
:104BC00010B5044600F087F8046010BD2DE9FC47DD
:104BD00006464FF000000D0000900746019042D0BD
:104BE0000C46E9460DF10408802907D308461FF05A
:104BF00060FE411F01208840401E04444246494651
:104C000020461CF01FFA009C082C2CDA06EB8400CE
:104C1000019A40694FF0FF3101FA02F210400CD1C5
:104C2000641C3069A14008401DD01FF03AFE0446C4
:104C3000009006EB8000406978B11FF032FE034619
:104C400006EBC411019001EB8000476B5FB17868FF
:104C500020F00300A84201D2FEE7FEE739463046C5
:104C6000009A1CF0CDFF3846BDE8FC8710B504461D
:104C7000FFF7A6FF416841F002014160606840F023
:104C80000100606010BD10B5044600F024F84168D2
:104C900021F002014160606820F00100606010BDF9
:104CA00070B506460D46084600F015F8040010D011
:104CB0002079C0070BD0686880080BD021463046A9
:104CC00000F03CF821462846FFF72AFF0546284613
:104CD00070BDFEE7FEE7426800F1080122F0030024
:104CE000001F0844910800D1FEE7704770B50646E2
:104CF0000C004FF000001ED0F2B120791546C0071D
:104D00001BD011462046FFF71CFF78B129462046EC
:104D100000F025F805462046FFF752FF686829464F
:104D200040F0020068603046FFF715FF2046FFF7AD
:104D3000AAFF04F1080070BDFEE7FEE77CB505465A
:104D400048680C4620F0030001AA69461CF07AF975
:104D5000DDE90023214628461CF052FF7CBD2DE9E9
:104D6000F0410D46044600F10801281F0E18606846
:104D700006F1080720F00300401BA0F104083846A4
:104D80000421FFF7B0FC874200D0FEE7606820F006
:104D9000030108EB0500001D814200D0FEE73079D9
:104DA00000F0030040EA0800706020F003000C28C7
:104DB00000D2FEE7207900F003002843606030460F
:104DC000FFF754FF3046BDE8F08138B5044612F0D5
:104DD000CFFC054612F001FD0028204605D0218FAA
:104DE000E18617F0A8FA012038BD10F07FFE0028F8
:104DF00020461ED010F04FFD218FE08E81420CD056
:104E00002087E08E00906A461C21204611F0A8F809
:104E10000128E9D1204617F08EFA284612F0E9FC65
:104E20000428E0D1204615F081FE002111F02FFD6D
:104E3000D9E710F0B7FED6E770B511F08CF805464B
:104E400015F0BAFE044628460CF052FE01462046F4
:104E5000BDE8704001221AF037BC00002DE9F04F88
:104E60000D4687B00446002115F095FD60B3294634
:104E7000204600F061FA2946204600F06FF8002134
:104E8000204616F0B6FC05900021204616F083FD62
:104E900004900021204616F078FB012800D0002065
:104EA00080460021204616F00EFF074600212046CE
:104EB00016F0E9FB42F2D17906464F450BD1608CE2
:104EC000400508D4012707E007B02846BDE8F04FA9
:104ED0001C2114F03BBA0027204615F0DAFDDFF85C
:104EE00078A0834620460021BAF8022016F0CAFDB9
:104EF000D5F810C0AB682968CDF800C0CDF80C809B
:104F0000CDE90131C2B239465846059B09F0AAFDE8
:104F100028834E4504D1608C800501D4012600E031
:104F20000026204615F09BFD074620460021BAF8D2
:104F3000062016F0A7FDC2B2686900246B68E96814
:104F40008DE81B0031463846049B09F08BFD6883D1
:104F500007B0BDE8F08F0000B40000202DE9F34F4A
:104F600081B00C46019808F0E9FF0646019815F05B
:104F700090FD8246304600F007FF2061400014F0AB
:104F80003DF820602069400014F038F8002541F613
:104F90009A79A0603AE036F91510DFF8208149458A
:104FA00033D10027DFF818B11FE03946019815F01A
:104FB000F2FC5946009016F000FFA8B9009808F0DE
:104FC000CFFF012810D1009808F0C0FFA8420BD1F4
:104FD000009816F0A2FE4146404501DA084602E07C
:104FE000009816F09AFE80467F1C019815F0E5FCAB
:104FF000B842DAD8B8F1000F03DBA16821F81580B8
:1050000003E0A168002021F815006D1C2069A8426A
:10501000C1D800252F46284641F69B784A4615E020
:1050200036F91010414504DB0D44A5F5F8559B3DBC
:105030000BE0914204D1A16831F81010394403E02B
:10504000A36823F8101039440FB2401C2169814233
:10505000E6D80021019816F0CCFB2169C1F10102CC
:1050600000FB02A0C01B00B2002800DA00200022D2
:105070004FF0FF331146C44611E000BF36F91170FE
:1050800067450BDBA7F5F8579B3F3AB200FB02F3ED
:10509000B3FBF5F3A76827F811300B46491C2769C5
:1050A0008F42EBD8002B07DBA91A4143B1FBF5F186
:1050B000401AA16821F81300BDE8FE8F01E0FFFF50
:1050C000010006002DE9F14F00221146009817F06B
:1050D000FDFF0021009816F093FA04460021009885
:1050E00016F075FC20440FFA80F90021009816F0A4
:1050F00033FB20440FFA80F8009816F0F3F900EB28
:10510000090101EB0800DFF898A006B254460098A8
:1051100015F053FC074600252AE0009821498068D5
:10512000006850F82500834616F047FEF8B9584647
:1051300017F062F940BB0021584616F0F8F918B391
:10514000012821D002281FD003281DD00021584655
:1051500016F0DCFD58B9BBF81A10BBF81600081A97
:10516000401C00B24844A04200DB044624B26D1C3F
:10517000BD42D2D3544504D004EB080000B2B04283
:1051800000DC3046BDE8F88F0098BBF91A10B0F982
:105190001600081A411CA142E8DB0C46E6E70000B5
:1051A00001E0FFFF010004002DE9F84F00228046D6
:1051B000114617F075FF0021404616F021FA04460B
:1051C0000021404616F09AFB20440FFA80FA002195
:1051D000404616F038FB20440FFA80F9404616F09E
:1051E0008FF900EB090101EB0A00DFF844B105B2C9
:1051F0005C46404615F0E1FB07460021404616F0AC
:10520000B6F901284FF0000644D078E0D8F808003D
:105210004849006850F82600009016F0CEFDC0BB4B
:10522000009817F0E9F850B10098B8F91810B0F9E3
:105230001400091A481CA0422ADB4C1C28E000215B
:10524000009816F074F958B1032809D0062807D041
:10525000082805D00021009816F051FD58B118E03B
:105260000098B8F91810B0F91400081A411CA142AE
:105270000EDB0C460CE00098143000900BF010FF91
:105280005044A04204DB00980BF00AFF00EB0A0434
:1052900024B2761CBE42B9D35C453BD004EB090076
:1052A00033E000BFD8F808002249006850F8260013
:1052B000009016F082FD08BB009817F09DF860BBC7
:1052C0000021009816F033F938B3012825D00428BE
:1052D00023D0072821D00021009816F017FD68B9C7
:1052E0000098143000900BF0DBFE4844A04204DB31
:1052F00000980BF0D5FE00EB090424B2761CBE42E8
:10530000D0D35C4506D004EB0A0000B2584501D06A
:10531000A84200DC2846BDE8F88F0098B0F91810C4
:10532000B8F91400091A481CA042E6DB4C1CE4E75B
:1053300001E0FFFF010004002DE9F84F0C46834611
:1053400009F01CFA064600F01FFD6061400013F0F2
:1053500055FE60606069400013F050FE002541F684
:105360009A79E0603AE036F91500DFF80C8148459B
:1053700033D10027DFF804A11FE03946584615F065
:105380000AFB5146009016F018FDA8B9009809F0E4
:105390007BFA012810D1009809F06CFAA8420BD1D1
:1053A000009815F0C8FB4146404501DA084602E086
:1053B000009815F0C0FB80467F1C584615F0FDFA9A
:1053C000B842DAD8B8F1000F03DBE16821F81580A4
:1053D00003E0E168002021F815006D1C6069A84217
:1053E000C1D800273D46384641F69B784A4615E02D
:1053F00036F91010414504DB0F44A7F5F8579B3FE1
:105400000BE0914204D1E16831F81010294403E027
:10541000E36823F8101029440DB2401C61698142F1
:10542000E6D80021584616F0B6FA8146584615F0DF
:1054300016FB01466069C0F1010209FB0210401B26
:1054400001B2002900DA0021002043460FE000BF2E
:1054500036F910209A4209DBA2F5F8529B3A12B2B3
:105460004A43B2FBF7F2E56825F81020401C626958
:105470008242EDD8BDE8F88F01E0FFFF0100060091
:105480001CB50B8804892344ADF800304B8844894F
:105490002344ADF802308B8804892344ADF80430EE
:1054A000C98843891944ADF806104369694698478D
:1054B0001CBD0000F8B50D46D0E90C2104468AB1A8
:1054C00012787AB141B100BF1AF0FFFB0D490968AB
:1054D0008847616B884211D2206B88B100200A4E48
:1054E000009006E061B1EFE7326869469047A84254
:1054F00006D0206B0099415C0029F5D10020F8BD51
:105500000120F8BD34020020200200202DE9FF4FC9
:1055100087B0C878189CC0070D46002801D0F14814
:1055200000E0F148069001D0F04800E0F048049017
:1055300001D1EE4800E0EE484FF0100A4FF00C0E9B
:10554000CDF814006088A1884FF0000BA0EB01009B
:1055500001B25A465846276912E000BF00EB8006A8
:10556000E3680AEB860C13F80CC05FEACC7C0BD026
:105570004FF0080C0CEB86069B5BC91A09B2401C65
:105580008742EBD8002347E00EEB86069B5B1A446C
:1055900012B2F4E703EB8306E7680AEB860001909A
:1055A000385CC00737D191FBF2F00EEB860CCDF8DA
:1055B00000C037F80CC00CFB00FC0FFA8CF94FF060
:1055C000060C04200CEB860C00EB860037F90C80EF
:1055D000385ECC46C84500DCC446604504DC404625
:1055E000CC46C84500DD6046484506D0DDF804805D
:1055F0004FF0010CE34647F808C0D4F80CC0082768
:1056000007EB86062CF80600E768009EBE5B921B3F
:10561000081A12B201B25B1C20699842BAD8BBF1D9
:10562000000F8FD10021079815F0B6FF012826D072
:1056300000270020ADF80800ADF80C0003A902A86F
:10564000CDE900012089B4F9022003B22878169927
:105650001BF0E6FEE878384207D0079815F019FAF3
:10566000BDF808100844ADF808000999079815F02E
:1056700092F906464FF4FA684FF0640B27E10127D0
:10568000D7E79C49304616F098FB00287DD10021D1
:10569000304615F0E7FFE8B34FF0000948462169AE
:1056A00011E000BFE26800EB800352F82320B24211
:1056B00008D100EB8002E168082000EB820031F99C
:1056C000009002E0401C8142ECD8E878C007708C62
:1056D00002D040F4806001E040F40070708406F174
:1056E0001400049982468847484528D0304616F071
:1056F00022FEB08AADF80000F08AADF80200308BCF
:10570000ADF80400708BADF80600069A4946504685
:10571000904700E00FE06A462921304610F020FC57
:10572000304615F049FA3246222110F019FC304675
:1057300016F001FE03E0708C20F4C060708400203D
:1057400000906878012810D0022816D1059906F13A
:1057500014008847B4F90010491C21F00101081A0F
:1057600000EBD07040F34F0006E0059906F11400FD
:1057700088472188081A00B20090E87838420AD099
:10578000049906F11400884700E098E0BDF808107D
:10579000081AADF808003046002143F20C0216F05A
:1057A00071F90FFA80F93046002143F20D0216F02C
:1057B00069F90FFA80FA304616F0AFFA01903046D8
:1057C00015F0B9F90146C9F3413001280ED129F489
:1057D000C04040450ADCB0F57A7F01DDC0F57A7043
:1057E000019A504390FBFBF00FFA80F9CAF3413065
:1057F00001280DD12AF4C040404509DCB0F57A7F7C
:1058000001DDC0F57A70484390FBFBF00FFA80FA97
:10581000B18A1498F28A411A01EB0900159900B275
:105820008A1A02EB0A01EA7809B2D207002A02D0EA
:10583000BDF9082000E0009A10440FFA80FA01D068
:10584000009801E0BDF9080008440FFA80F95AEA0F
:1058500009001BD0304616F06EFDB18A01EB0A003C
:10586000B082318B01EB0A003083F18A01EB090031
:10587000F082718B01EB09007083304616F05BFDFE
:1058800001234A465146304616F004FEE878384275
:105890000CD1049906F11400884717990844BDF803
:1058A0000C100844BDF80810084406E0BDF80C10C0
:1058B00017980844BDF80810081AADF80800E878F1
:1058C00009AAC0F38001079808F024FE0646002EBE
:1058D00004D0DDE9090188427FF4D3AE0BB0BDE806
:1058E000F08F0000291101081F110108C5100108DF
:1058F0006D100108010006002DE9F04F91B00E0077
:1059000005463FD02E83286808B113F0D5FB06EB7F
:105910004600062101EB400013F044FB286040B331
:10592000022101EB46010144E960042101EB8601FB
:105930000144C5E9010101210024012E1AD0F00023
:10594000083013F05BFB814600EB860000F1040891
:10595000B00000B2A346ADF81000C0F10102801003
:10596000ADF812B00FFA82FA5C46CDF828B0069076
:10597000ABE0FEE7B4220270E8680480E86841808A
:10598000A868048011B0BDE8F08F0027BDF8122090
:10599000BAF1000F07DC032101EB42010AEB010021
:1059A0000FFA80FA0CE0BDF810100523521A03EB31
:1059B000420202EB0A00491E0FFA80FAADF81010FD
:1059C000BDF81200401CADF8120004A800F0E7F882
:1059D00068B1BDF9100006AA811042F827100AA983
:1059E00000F0030041F827007F1C042FCEDB042FBA
:1059F00071D109990698884212D129F8140028F823
:105A000014B0DDE90A010144DDE90C20104408442A
:105A100069680855696800010855641C24B252E0A1
:105A20000799884219D029F8140028F814B06A6838
:105A30000A9810556A6800011055641C069A20B235
:105A4000521E29F8102028F810B0DDE90B120A4484
:105A50000D99091D11446A682FE0089929F814006E
:105A6000884228F814B0DDE90A025946104412D0E1
:105A70006A6810556A6800011055641C069A20B2C5
:105A8000521E29F8102028F81010DDE90C121144DC
:105A900008316A6811E00C9A10446A6810556A6807
:105AA00000011055641C069A20B2521E29F81020DD
:105AB00028F810100D996A680C3111546A680901B0
:105AC0001154401C04B20BF1010B04A800F067F85C
:105AD00000287FF45AAF09EB440140F2D32046433B
