:020000040800F2
:1000000000000120A9350008012A0008032A000881
:10001000052A0008072A0008092A00080000000035
:100020000000000000000000000000000B2A000893
:100030000D2A0008000000000F2A0008112A0008FD
:10004000F1350008F1350008F1350008F1350008F8
:10005000F1350008F1350008F1350008F1350008E8
:10006000F1350008F1350008F1350008F1350008D8
:10007000F1350008F1350008F1350008F1350008C8
:10008000F1350008F1350008F1350008F1350008B8
:10009000F1350008F1350008F1350008F1350008A8
:1000A000F1350008F1350008F1350008F135000898
:1000B000F1350008F1350008F1350008F135000888
:1000C000F1350008F1350008F1350008F135000878
:1000D000F1350008F1350008F1350008F135000868
:1000E000F1350008F1350008F1350008F135000858
:1000F000F1350008F1350008F1350008F135000848
:10010000F1350008F1350008F1350008F135000837
:10011000F1350008F1350008F1350008F135000827
:10012000F1350008F1350008F1350008F135000817
:1001300000000000000000000000000000000000BF
:1001400000000000000000000000000000000000AF
:10015000000000000000000000000000000000009F
:10016000000000000000000000000000000000008F
:10017000000000000000000000000000000000007F
:10018000000000000000000000000000000000006F
:10019000000000000000000000000000000000005F
:1001A000000000000000000000000000000000004F
:1001B000000000000000000000000000000000003F
:1001C000000000000000000000000000000000002F
:1001D000000000000000000000000000000000001F
:0401E0005FF8E0F1F3
:1001E80081F0004102E000BF83F0004330B54FEAE0
:1001F80041044FEA430594EA050F08BF90EA020F4D
:100208001FBF54EA000C55EA020C7FEA645C7FEADF
:10021800655C00F0E2804FEA5454D4EB5555B8BF02
:100228006D420CDD2C4480EA020281EA030382EA73
:10023800000083EA010180EA020281EA0303362D05
:1002480088BF30BD11F0004F4FEA01314FF4801CD8
:100258004CEA113102D0404261EB410113F0004FEA
:100268004FEA03334CEA133302D0524263EB4303A1
:1002780094EA050F00F0A780A4F10104D5F1200E3F
:100288000DDB02FA0EFC22FA05F2801841F100019A
:1002980003FA0EF2801843FA05F359410EE0A5F16E
:1002A80020050EF1200E012A03FA0EFC28BF4CF09F
:1002B800020C43FA05F3C01851EBE37101F0004555
:1002C80007D54FF0000EDCF1000C7EEB00006EEB62
:1002D8000101B1F5801F1BD3B1F5001F0CD34908EC
:1002E8005FEA30004FEA3C0C04F101044FEA445243
:1002F80012F5800F80F09A80BCF1004F08BF5FEACA
:10030800500C50F1000041EB045141EA050130BDA9
:100318005FEA4C0C404141EB0101013C28BFB1F5BB
:10032800801FE9D291F0000F04BF01460020B1FA06
:1003380081F308BF2033A3F10B03B3F120020CDAD9
:100348000C3208DD02F1140CC2F10C0201FA0CF0B7
:1003580021FA02F10CE002F11402D8BFC2F1200C1C
:1003680001FA02F120FA0CFCDCBF41EA0C019040D2
:10037800E41AA2BF01EB0451294330BD6FEA04041B
:100388001F3C1CDA0C340EDC04F11404C4F1200206
:1003980020FA04F001FA02F340EA030021FA04F318
:1003A80045EA030130BDC4F10C04C4F1200220FA6F
:1003B80002F001FA04F340EA0300294630BD21FAAD
:1003C80004F0294630BD94F0000F83F4801306BF73
:1003D80081F480110134013D4EE77FEA645C18BF67
:1003E8007FEA655C29D094EA050F08BF90EA020FFE
:1003F80005D054EA000C04BF1946104630BD91EAF6
:10040800030F1EBF0021002030BD5FEA545C05D1F8
:100418004000494128BF41F0004130BD14F5800437
:100428003CBF01F5801130BD01F0004545F0FE41AB
:1004380041F470014FF0000030BD7FEA645C1ABFE0
:10044800194610467FEA655C1CBF0B46024650EA17
:10045800013406BF52EA033591EA030F41F4002143
:1004680030BD00BF90F0000F04BF0021704730B5C9
:100478004FF4806404F132044FF000054FF000019E
:1004880050E700BF90F0000F04BF0021704730B55F
:100498004FF4806404F1320410F0004548BF404234
:1004A8004FF000013EE700BF42004FEAE2014FEA89
:1004B80031014FEA02701FBF12F07F4393F07F4F64
:1004C80081F06051704732F07F4208BF704793F067
:1004D8007F4F04BF41F40021704730B54FF460747A
:1004E80001F0004521F000411CE700BF50EA01027D
:1004F80008BF704730B54FF000050AE050EA010226
:1005080008BF704730B511F0004502D5404261EB95
:1005180041014FF4806404F132045FEA915C3FF4D6
:10052800D8AE4FF003025FEADC0C18BF03325FEA73
:10053800DC0C18BF033202EBDC02C2F1200300FA24
:1005480003FC20FA02F001FA03FE40EA0E0021FA49
:1005580002F11444BDE600BF70B54FF0FF0C4CF437
:10056800E06C1CEA11541DBF1CEA135594EA0C0FE9
:1005780095EA0C0F00F0DEF82C4481EA030621EA24
:100588004C5123EA4C5350EA013518BF52EA03355F
:1005980041F4801143F4801338D0A0FB02CE4FF011
:1005A8000005E1FB02E506F00042E0FB03E54FF041
:1005B8000006E1FB03569CF0000F18BF4EF0010E39
:1005C800A4F1FF04B6F5007F64F5407404D25FEA35
:1005D8004E0E6D4146EB060642EAC62141EA5551E8
:1005E8004FEAC52040EA5E504FEACE2EB4F1FD0C2A
:1005F80088BFBCF5E06F1ED8BEF1004F08BF5FEAA8
:10060800500E50F1000041EB045170BD06F0004659
:1006180046EA010140EA020081EA0301B4EB5C0406
:10062800C2BFD4EB0C0541EA045170BD41F48011FE
:100638004FF0000E013C00F3AB8014F1360FDEBF23
:10064800002001F0004170BDC4F10004203C35DAFF
:100658000C341BDC04F11404C4F1200500FA05F382
:1006680020FA04F001FA05F240EA020001F0004223
:1006780021F0004110EBD37021FA04F642EB060199
:100688005EEA430E08BF20EAD37070BDC4F10C04C3
:10069800C4F1200500FA04F320FA05F001FA04F287
:1006A80040EA020001F0004110EBD37041F1000173
:1006B8005EEA430E08BF20EAD37070BDC4F120057E
:1006C80000FA05F24EEA020E20FA04F301FA05F2E6
:1006D80043EA020321FA04F001F0004121FA04F28E
:1006E80020EA020000EBD3705EEA430E08BF20EA5E
:1006F800D37070BD94F0000F0FD101F00046400098
:1007080041EB010111F4801F08BF013CF7D041EA19
:10071800060195F0000F18BF704703F0004652001D
:1007280043EB030313F4801F08BF013DF7D043EAEE
:100738000603704794EA0C0F0CEA135518BF95EAA4
:100748000C0F0CD050EA410618BF52EA4306D1D12B
:1007580081EA030101F000414FF0000070BD50EA4A
:10076800410606BF1046194652EA430619D094EAD4
:100778000C0F02D150EA013613D195EA0C0F05D1BE
:1007880052EA03361CBF104619460AD181EA030112
:1007980001F0004141F0FE4141F470014FF00000CA
:1007A80070BD41F0FE4141F4780170BD70B54FF065
:1007B800FF0C4CF4E06C1CEA11541DBF1CEA1355E5
:1007C80094EA0C0F95EA0C0F00F0A7F8A4EB0504C7
:1007D80081EA030E52EA03354FEA013100F08880BE
:1007E8004FEA03334FF0805545EA131343EA126387
:1007F8004FEA022245EA111545EA10654FEA00263C
:100808000EF000419D4208BF964244F1FD0404F5F4
:10081800407402D25B084FEA3202B61A65EB030550
:100828005B084FEA32024FF480104FF4002CB6EB0D
:10083800020E75EB030E22BFB61A754640EA0C008D
:100848005B084FEA3202B6EB020E75EB030E22BFCD
:10085800B61A754640EA5C005B084FEA3202B6EB0E
:10086800020E75EB030E22BFB61A754640EA9C00CD
:100878005B084FEA3202B6EB020E75EB030E22BF9D
:10088800B61A754640EADC0055EA060E18D04FEA5B
:10089800051545EA16754FEA06164FEAC30343EAFB
:1008A80052734FEAC2025FEA1C1CC0D111F4801FC8
:1008B8000BD141EA00014FF000004FF0004CB6E7C1
:1008C80011F4801F04BF01430020B4F1FD0C88BF60
:1008D800BCF5E06F3FF6AFAEB5EB030C04BFB6EB6B
:1008E800020C5FEA500C50F1000041EB045170BD5E
:1008F8000EF0004E4EEA113114EB5C04C2BFD4EB8B
:100908000C0541EA045170BD41F480114FF0000E0E
:10091800013C90E645EA060E8DE60CEA135594EA8A
:100928000C0F08BF95EA0C0F3FF43BAF94EA0C0F8D
:100938000AD150EA01347FF434AF95EA0C0F7FF402
:1009480025AF104619462CE795EA0C0F06D152EA56
:1009580003353FF4FDAE1046194622E750EA41063A
:1009680018BF52EA43067FF4C5AE50EA41047FF44B
:100978000DAF52EA43057FF4EBAE12E74FF0FF3CB0
:1009880006E000BF4FF0010C02E000BF4FF0010C81
:100998004DF804CD4FEA410C7FEA6C5C4FEA430CFA
:1009A80018BF7FEA6C5C1BD001B050EA410C0CBF49
:1009B80052EA430C91EA030F02BF90EA020F0020AB
:1009C800704710F1000F91EA030F58BF994208BF12
:1009D80090422CBFD8176FEAE37040F001007047CF
:1009E8004FEA410C7FEA6C5C02D150EA013C07D126
:1009F8004FEA430C7FEA6C5CD6D152EA033CD3D071
:100A08005DF8040B704700BF8446104662468C466A
:100A18001946634600E000BF01B5FFF7B7FF00289D
:100A280048BF10F1000F01BD4DF808EDFFF7F4FFC6
:100A38000CBF012000205DF808FB00BF4DF808ED51
:100A4800FFF7EAFF34BF012000205DF808FB00BF74
:100A58004DF808EDFFF7E0FF94BF012000205DF896
:100A680008FB00BF4DF808EDFFF7CEFF94BF01204B
:100A780000205DF808FB00BF4DF808EDFFF7C4FF44
:100A880034BF012000205DF808FB00BF4FEA410297
:100A980012F5001215D211D56FF47873B3EB6252C8
:100AA80012D94FEAC12343F0004343EA505311F0EF
:100AB800004F23FA02F018BF404270474FF0000081
:100AC800704750EA013005D111F0004008BF6FF0BF
:100AD800004070474FF00000704700BF4A0011D235
:100AE80012F5001211D20DD56FF47873B3EB625280
:100AF8000ED44FEAC12343F0004343EA505323FA8C
:100B080002F070474FF00000704750EA013002D100
:100B18004FF0FF3070474FF0000070474FEA410236
:100B2800B2F1E04324BFB3F5001CDCF1FE5C0DD943
:100B380001F0004C4FEAC0024CEA5070B2F1004F8D
:100B480040EB830008BF20F00100704711F0804F90
:100B580021D113F13872BCBF01F00040704741F455
:100B680080114FEA5252C2F11802C2F1200C10FA59
:100B78000CF320FA02F018BF40F001004FEAC1233D
:100B88004FEAD32303FA0CFC40EA0C0023FA02F3E1
:100B98004FEA4303CCE77FEA625307D150EA0133B7
:100BA8001EBF4FF0FE4040F44000704701F0004087
:100BB80040F0FE4040F40000704700BF80F0004065
:100BC80002E000BF81F0004142001FBF5FEA41031D
:100BD80092EA030F7FEA226C7FEA236C6AD04FEA1D
:100BE8001262D2EB1363C1BFD21841404840414062
:100BF800B8BF5B42192B88BF704710F0004F40F414
:100C0800000020F07F4018BF404211F0004F41F42F
:100C1800000121F07F4118BF494292EA030F3FD0FB
:100C2800A2F1010241FA03FC10EB0C00C3F120030E
:100C380001FA03F100F0004302D5494260EB40009D
:100C4800B0F5000F13D3B0F1807F06D340084FEA08
:100C5800310102F10102FE2A51D2B1F1004F40EBFD
:100C6800C25008BF20F0010040EA03007047490065
:100C780040EB0000013A28BFB0F5000FEDD2B0FA02
:100C880080FCACF1080CB2EB0C0200FA0CF0AABF25
:100C980000EBC25052421843BCBFD04018437047C3
:100CA80092F0000F81F4000106BF80F400000132C9
:100CB800013BB5E74FEA41037FEA226C18BF7FEAA0
:100CC800236C21D092EA030F04D092F0000F08BFE2
:100CD8000846704790EA010F1CBF0020704712F0C9
:100CE8007F4F04D1400028BF40F00040704712F108
:100CF80000723CBF00F50000704700F0004343F06D
:100D0800FE4040F4000070477FEA226216BF0846A2
:100D18007FEA23630146420206BF5FEA412390EA65
:100D2800010F40F4800070474FF0000304E000BF5B
:100D380010F0004348BF40425FEA000C08BF70470C
:100D480043F0964301464FF000001CE050EA0102D0
:100D580008BF70474FF000030AE000BF50EA0102E5
:100D680008BF704711F0004302D5404261EB4101D2
:100D78005FEA010C02BF84460146002043F0B643F7
:100D880008BFA3F18053A3F50003BCFA8CF2083A1C
:100D9800A3EBC25310DB01FA02FC634400FA02FC25
:100DA800C2F12002BCF1004F20FA02F243EB02002C
:100DB80008BF20F00100704702F1200201FA02FC8E
:100DC800C2F1200250EA4C0021FA02F243EB020081
:100DD80008BF20EADC7070474FF0FF0C1CEAD052C5
:100DE8001EBF1CEAD15392EA0C0F93EA0C0F6FD086
:100DF8001A4480EA010C400218BF5FEA41211ED064
:100E08004FF0006343EA501043EA5111A0FB01314F
:100E18000CF00040B1F5000F3EBF490041EAD37124
:100E28005B0040EA010062F17F02FD2A1DD8B3F1A0
:100E3800004F40EBC25008BF20F00100704790F00F
:100E4800000F0CF0004C08BF49024CEA502040EA61
:100E580051207F3AC2BFD2F1FF0340EAC250704727
:100E680040F400004FF00003013A5DDC12F1190F65
:100E7800DCBF00F000407047C2F10002410021FAD7
:100E880002F1C2F1200200FA02FC5FEA310040F1EF
:100E9800000053EA4C0308BF20EADC70704792F068
:100EA800000F00F0004C02BF400010F4000F013AA0
:100EB800F9D040EA0C0093F0000F01F0004C02BF9B
:100EC800490011F4000F013BF9D041EA0C018FE70A
:100ED8000CEAD15392EA0C0F18BF93EA0C0F0AD010
:100EE80030F0004C18BF31F0004CD8D180EA010036
:100EF80000F00040704790F0000F17BF90F0004FCF
:100F0800084691F0000F91F0004F14D092EA0C0FB0
:100F180001D142020FD193EA0C0F03D14B0218BF43
:100F2800084608D180EA010000F0004040F0FE4089
:100F380040F40000704740F0FE4040F44000704725
:100F48004FF0FF0C1CEAD0521EBF1CEAD15392EAA4
:100F58000C0F93EA0C0F69D0A2EB030280EA010C94
:100F680049024FEA402037D04FF0805343EA11112D
:100F780043EA10130CF000408B4238BF5B0042F18B
:100F88007D024FF4000C8B4224BF5B1A40EA0C0030
:100F9800B3EB510F24BFA3EB510340EA5C00B3EB62
:100FA800910F24BFA3EB910340EA9C00B3EBD10F50
:100FB80024BFA3EBD10340EADC001B0118BF5FEAA2
:100FC8001C1CE0D1FD2A3FF650AF8B4240EBC250CB
:100FD80008BF20F0010070470CF0004C4CEA50208C
:100FE8007F32C2BFD2F1FF0340EAC250704740F4DB
:100FF80000004FF00003013A37E792F0000F00F0CD
:10100800004C02BF400010F4000F013AF9D040EA4A
:101018000C0093F0000F01F0004C02BF490011F4DE
:10102800000F013BF9D041EA0C0195E70CEAD153D6
:1010380092EA0C0F08D142027FF47DAF93EA0C0FBD
:101048007FF470AF084676E793EA0C0F04D14B02A1
:101058003FF44CAF08466EE730F0004C18BF31F053
:10106800004CCAD130F000427FF45CAF31F000434D
:101078007FF43CAF5FE700BF42000ED2B2F1FE4FF3
:101088000BD34FF09E03B3EB126209D44FEA00234F
:1010980043F0004323FA02F070474FF00000704716
:1010A80012F1610F01D1420202D14FF0FF307047B7
:1010B8004FF00000704700BF10B5054C237833B9D6
:1010C800044B13B10448AFF300800123237010BD13
:1010D800A400002000000000603F000808B5034B92
:1010E8001BB103490348AFF3008008BD00000000AE
:1010F800A8000020603F000800B585B04FF6FF70DB
:1011080000F022FE4FF6FF7303931F230293064B52
:10111800019310230093C8220021D82000F00AFF71
:1011280005B05DF804FB00BF783F000870B50024E7
:1011380013E0FFF7E1FF02E00A2001F0D5FA3DB322
:101148000134E4B21A4BA3FB04231B0903EB83030A
:10115800A4EB830313F0FF0F25D001F0F3FB054642
:10116800144E736800209847B6F93430002BE3DA40
:10117800B089EF28E3D8318CB1F5A07FDFD2D82829
:1011880001D90F29D5D94FF4784200F04CFAD6E7A7
:101198004FF6FF7000F0D8FD00F00AFB00F05EFA91
:1011A800FFF7AAFFCCE72021034801F07BFBD4E737
:1011B800CDCCCCCC00000020000C014000B585B09F
:1011C80001F020FD4FF4E01001F09BFA482001F0F7
:1011D80067FA01F06BFB00F0B5FF01F029FB1E4B2D
:1011E8001B6898474FF6FF7603964FF478450295AB
:1011F8001A4B0193102400942346C82232211E2042
:1012080000F098FE03960295154B0193009423462F
:10121800C82246211E2000F08DFE03960295114B30
:10122800019300942346C8225A211E2000F082FE12
:10123800039602950C4B019300942346C8226E2115
:101248001E2000F077FE40F2DC5001F04DFAFFF767
:1012580053FFFFF76BFF00BF000000207C3F000832
:10126800843F0008903F0008A03F000808B528B157
:1012780001220221044802F018F908BD00220221C7
:10128800014802F012F9F8E7000C014008B530B146
:1012980001224FF40071054802F007F908BD002249
:1012A8004FF40071014802F000F9F7E7001C014013
:1012B80008B530B101224FF40061054802F0F5F895
:1012C80008BD00224FF40061014802F0EEF8F7E78C
:1012D800001C014038B5044600250FE00020FFF748
:1012E800D5FF6400E4B20020FFF7C0FF012001F041
:1012F800DDF90120FFF7BAFF0135EDB2072D06D859
:1013080014F0800FEAD00120FFF7C0FFE9E738BDED
:1013180038B504460020FFF7A9FF0020FFF7B6FF05
:101328000020FFF7C5FF2046FFF7D4FF062001F095
:10133800BDF90020FFF79AFF012001F0B7F901205D
:10134800FFF794FF012001F0B1F90020FFF78EFFAD
:1013580000252C4601E00135EDB20F2D13D86400AD
:10136800A4B20020FFF782FF012001F09FF90120BD
:10137800FFF77CFF0421074802F090F80028EAD024
:101388000134A4B2E7E724090120FFF791FF2046C2
:1013980038BD00BF000C014030B585B005460024BB
:1013A80009E02846FFF7B4FF04AB03EB440323F836
:1013B8000C0C0134E4B2042CF3D900201AE00133F8
:1013C800DBB2042B15D804AA02EB400232F80C2C2D
:1013D80004A901EB430131F80C1C8A42EFD904AD92
:1013E80005EB400C2CF80C1C05EB430121F80C2CE8
:1013F800E5E72046032803D8441CE4B22346E0E787
:101408000123002008E004AA02EB430232F80C2C66
:10141800104480B201339BB2032BF4D9034BA3FBD6
:101428000030C0F34F0005B030BD00BFABAAAAAA78
:1014380038B505460C46D020FFF7AEFF288090202F
:10144800FFF7AAFF208038BD30B583B005460C46AB
:1014580001A90DF10600FFF7EBFF69460DF1020047
:10146800FFF7E6FFBDF80230BDF80620934203D827
:1014780003F13101914205DA934220D302F131019F
:1014880099421FDBBDF80000BDF80410884203D85C
:1014980000F1310C8C4506DA884215D3313181428E
:1014A80001DA00200CE013445B102B80BDF80430F7
:1014B800BDF8002013445B102380012000E00020C9
:1014C80003B030BD0020FBE70020F9E738B504463B
:1014D8004FF480612C4801F0E1FF00283FD19CB116
:1014E8002A49A1F11400FFF7AFFF294BB3F93430B3
:1014F800002B07DB264B4FF440429A869A89DA8301
:101508001A8C5A86002038BD2049A1F11400FFF733
:101518009BFF0028E9D01E4CA089B4F84030C01ABF
:10152800A56B00B2FFF704FC2946FFF709FD19492E
:10153800FFF74AFBFFF7A0FDA081208CB4F84230EA
:10154800C01AE56B00B2FFF7F3FB2946FFF7F8FC7A
:101558001149FFF739FBFFF78FFD2084C5E70C4BD6
:101568009A8EB3F93430002B08DB094B0022DA835A
:101578005A864FF6FF729A811A84C3E7C2F30E02A5
:10158800034B9A86BEE700BF001C014020000020E4
:10159800000000200000F042000020432DE9F04345
:1015A80083B004460E46154600F10D020C3800952E
:1015B8000B4692B280B200F0ABFE06F10D03A6F125
:1015C8000C0100959BB2224689B2204600F0A0FE8D
:1015D80004F101091FFA89F906F101081FFA88F8D0
:1015E8002A464146484600F0A1FB671EBFB22A467C
:1015F8004146384600F09AFB06F1FF381FFA88F892
:101608002A464146484600F091FB2A46414638465C
:1016180000F08CFB2B4606223146204600F0CCFE1B
:1016280003B0BDE8F083F8B507460C46154600F050
:101638007DFB7E1CB6B22A462146304600F076FB7A
:101648000134A4B22A462146384600F06FFB2A46E8
:101658002146304600F06AFBF8BD000008B50C22B0
:101668000449282001F0D3F80A21342001F09EF81B
:1016780008BD00BF3800002008B50C220649282004
:1016880001F0B4F8342001F06DF80A2801D00020E8
:1016980008BD0120FCE700BF380000202DE9F04715
:1016A8008CB08146CDE90423002436E0651C09EBA3
:1016B800840639F824302A46384907A801F096FFED
:1016C80004EB8404A400A034A4B24FF6FF7ACDF84A
:1016D8000CA04FF47848CDF8088007AB0193102789
:1016E80000974FF4A073F0222146282000F022FC36
:1016F80073882A462A4907A801F078FFCDF80CA07C
:10170800CDF8088007AB019300974FF4A073F0223F
:101718002146782000F00EFCECB2042CC6D904EB6C
:101728008404A400A034A4B24FF6FF7500951023DA
:10173800EF222146282000F0C7FDDDE904231949DE
:1017480007A801F053FF4FF000088DF82380039598
:101758004FF47847029707AB0193102600964FF491
:10176800A073F0222146282000F0E4FBDDE91423D1
:101778000D4907A801F03AFF8DF8238003950297D9
:1017880007AB019300964FF4A073F022214678200E
:1017980000F0D0FB0CB0BDE8F08700BFB83F0008F0
:1017A800C03F0008C83F0008D43F00080000000000
:1017B8002DE9F047A4B04FF6FF7000F0C5FA4FF6D8
:1017C800FF7303934FF478440294424B0193102320
:1017D80000936423A0222821084600F0ABFB224690
:1017E80014210846FFF7DAFE00253B4B9D862C4660
:1017F80015E04FF6FF7214210846FFF7CFFE4FF4AD
:1018080078421421DC20FFF7C9FE00240A2000F0EA
:101818006BFF0134A4B2B4F57A7F00F2D3812E4E67
:10182800736801209847B38E03F44042B2F5804FA5
:10183800ECD1344623F48043B38624AB03EB05167E
:10184800A089FEF70FFE46E91401208CFEF70AFE78
:1018580046E912010135EDB26B1E042B00F2B0818E
:1018680001A252F823F000BFFB17000885180008F2
:10187800A3180008C3180008E51800084FF6FF72FF
:101888001421DC20FFF78AFE4FF478424FF496715A
:101898001420FFF783FE0024B8E74FF6FF724FF4D9
:1018A80096711420FFF77AFE4FF478424FF4967140
:1018B800DC20FFF773FE0024A8E74FF6FF7000F066
:1018C80043FA4FF47842A0217820FFF767FE0024FE
:1018D8009CE700BFE03F000800000020DDE910237E
:1018E800DDE91401FEF780FC80468946DDE918230E
:1018F800DDE91C01FEF778FC06460F46DDE91623F4
:10190800DDE91E01FEF770FCCDE90401DDE91223D3
:10191800DDE91A01FEF768FC04460D46CDE90E45DF
:10192800CDE9068940464946FFF7D8F802464FF602
:10193800FF7ACDF808A04FF47849CDF804904FF01D
:101948001008CDF8008005230021A02000F0A0FA9F
:10195800DDE90401FFF7C2F80246CDF808A0CDF88A
:101968000490CDF8008005231121A02000F090FA02
:10197800CDE9086730463946FFF7B0F80246CDF89A
:1019880008A0CDF80490CDF8008005232221A020DE
:1019980000F07EFA26462F4620462946FFF79EF895
:1019A8000246CDF808A0CDF80490CDF800800523B4
:1019B8003421A02000F06CFADDE90823DDE90601F6
:1019C800FEF7F4FE04460D4632463B46DDE90401C7
:1019D800FEF7ECFE06460F4620462946FFF77EF83E
:1019E8000246CDF808A0CDF80490CDF80080052374
:1019F8006421A02000F04CFA30463946FFF76EF813
:101A08000246CDF808A0CDF80490CDF80080052353
:101A18007821A02000F03CFA002200232046294625
:101A2800FFF70CF800287AD1002200233046394607
:101A3800FFF704F8002879D165A3D3E900232046ED
:101A48002946FEF7FBFF002853D163A3D3E90023FF
:101A580020462946FFF710F800284AD15CA3D3E9AD
:101A6800002330463946FEF7E9FF002841D15AA342
:101A7800D3E9002330463946FEF7FEFF002838D167
:101A8800DDE90601FFF702F8804680EAE073A3EB80
:101A9800E073B3F5805F2CDADDE90401FEF7F6FFA9
:101AA800814680EAE073A3EBE073B3F5805F20DA48
:101AB800DDE90801FEF7EAFF824680EAE073A3EB5E
:101AC800E073B3F5805F14DADDE90E01FEF7DEFF9F
:101AD80080EAE073A3EBE073B3F5805F09DAB8F14D
:101AE800000F06D0B9F1000F03D0BAF1000F00D0F3
:101AF80018BB4FF6FF72A0217820FFF74FFD4FF477
:101B0800784214210846FFF749FDCDE900672246CF
:101B18002B4610A8FFF7C2FD002425467FE60A944D
:101B280005F100430B93DDE90A457DE70C9607F1C3
:101B380000430D93DDE90C677EE7DDE90823DDE965
:101B48000601FEF753FBFEF7E9FF2549FFF7F8F911
:101B5800244CA063DDE90E23DDE90401FEF746FB12
:101B6800FEF7DCFF2049FFF7EBF9E063DDE9200130
:101B7800FEF78CFFA4F84000DDE92201FEF786FF9E
:101B8800A4F842004FF6FF7000F0DEF84FF6FF743D
:101B980003941F230293154B0193102300934FF4D2
:101BA800A073F0226E21232000F0C4F94FF47A705C
:101BB80000F09AFDFFF752FD204600F0C5F803E05B
:101BC800002423E6FFF758FD24B0BDE8F08700BFE6
:101BD800666666666666EE3FCDCCCCCCCCCCF03F74
:101BE8000000C8430000002000000C445C400008CE
:101BF8002DE9F04186B0304C002184F844102F4B79
:101C08009A6942F008029A619A6902F00802009201
:101C1800009A9A6942F080029A619B6903F08003F6
:101C28000193019B4FF4806302930391012604966C
:101C38004FF00308CDF81480214D02A9284601F081
:101C480011FB042302931F4F02A9384601F00AFB37
:101C58004FF40073029303960496CDF8148002A9FA
:101C6800284601F0FFFA0223029302A9384601F040
:101C7800F9FA4FF40063029302A9284601F0F2FA38
:101C880004F1200104F10C00FFF7D2FB00F066FD1F
:101C9800FFF7F2FC18B1002006B0BDE8F0814FF65E
:101CA800FF7000F051F8FFF783FDFFF7D7FCFFF74F
:101CB800E3FC3046F0E700BF0000002000100240BF
:101CC800001C0140000C0140014BA3F8FE007047C6
:101CD8000007006C014BA3F8000170470007006C77
:101CE800024BA3F8FE00A3F8001170470007006C30
:101CF80038B505460C462A20FFF7E6FF280AFFF705
:101D0800E9FFE8B2FFF7E6FF2B20FFF7DDFF200A27
:101D1800FFF7E0FFE0B2FFF7DDFF38BD024B2C22F2
:101D2800A3F8FE20704700BF0007006C10B51446EA
:101D3800FFF7DEFFFFF7F2FFA4B2024BA3F8004162
:101D480010BD00BF0007006C10B50446002108460E
:101D5800FFF7CEFFFFF7E2FF002204E0A3B2044939
:101D6800A1F800310132B2F5963FF7D910BD00BF96
:101D78000007006C0246012002E002FB00F0194651
:101D88004B1EDBB20029F8D1704700002DE9F04F57
:101D980083B0814688461F469DF830A013F007039C
:101DA80018BF012303EBD7007B0803FB00F0C0B288
:101DB800A2F12003D9B2A7F10C03142B5CD8DFE8F9
:101DC80003F00B5B5B5B165B5B5B5B5B5B5B1B5BF3
:101DD8005B5B5B5B5B5B220001EB4102284B03EB27
:101DE8008203019344464FF0000B00903CE0254BE2
:101DF80003EB01130193F5E701EBC102224B03EB5F
:101E080082030193EEE7214B03EB81130193E9E78A
:101E18000D9A21464846FFF789FF6D00EDB201345F
:101E2800A4B2B4F5A07F27D2A4EB0803BB420FD01D
:101E38000136F6B2072E13D815F0800FE8D1BAF1A3
:101E4800000FEAD10E9A21464846FFF76FFFE4E7F4
:101E580009F101091FFA89F9B9F1EF0F0CD84446C5
:101E68000BF101035FFA83FB009B9B4504D2019BA6
:101E780013F80B500026DDE703B0BDE8F08F00BF74
:101E8800946B0008A46500084858000888400008BA
:101E98002DE9F04F85B08246894690461D469DF84B
:101EA8003860BDF83CB000273C4621E0700800FBD4
:101EB80004A0109B0293CDF804B00023009333468E
:101EC8002022494680B2FFF761FF0FE070083032E8
:101ED80000FB04A0109B0293CDF804B000230093EC
:101EE8003346D2B2494680B2FFF750FF0134E4B21C
:101EF800AC421AD2291BC9B20139C9B20A20FFF76C
:101F080039FFB8FBF0F00A4AA2FB0032D20802EB14
:101F18008202A0EB4202D2B2002FD7D16B1E9C42A4
:101F2800D4DA002AC2D00127D0E705B0BDE8F08F87
:101F3800CDCCCCCC2DE9F04F85B083460D469DF82D
:101F480038700F9EBDF840A0DDF8449003EB0108FF
:101F58001FFA88F8044610E045451BD2CDF80890D2
:101F6800CDF804A0002300933B4629462046FFF7FE
:101F78000DFF04EB5704A4B201363278A2F1200316
:101F8800DBB25E2B06D8EF2CE6D95FFA8BF43D4422
:101F9800ADB2E1E705B0BDE8F08F08B51120FFF755
:101FA80093FE782000F0A8FB3620FFF78DFE002076
:101FB800FFF790FE3A20FFF787FE0520FFF78AFE1D
:101FC800B220FFF781FE0C20FFF784FE0C20FFF7FC
:101FD80081FE0020FFF77EFE3320FFF77BFE3320D3
:101FE800FFF778FEB720FFF76FFE3520FFF772FE88
:101FF800BB20FFF769FE3220FFF76CFEC020FFF719
:1020080063FE0C20FFF766FEC220FFF75DFE01208D
:10201800FFF760FEC320FFF757FE1020FFF75AFEB8
:10202800C420FFF751FE2020FFF754FEC620FFF71B
:102038004BFE0F20FFF74EFED020FFF745FEA420F1
:10204800FFF748FEA120FFF745FEE020FFF73CFE22
:10205800D020FFF73FFE0020FFF73CFE0220FFF7ED
:1020680039FE0720FFF736FE0A20FFF733FE282047
:10207800FFF730FE3220FFF72DFE4420FFF72AFE3F
:102088004220FFF727FE0620FFF724FE0E20FFF769
:1020980021FE1220FFF71EFE1420FFF71BFE17205B
:1020A800FFF718FEE120FFF70FFED020FFF712FE22
:1020B8000020FFF70FFE0220FFF70CFE0720FFF7B6
:1020C80009FE0A20FFF706FE2820FFF703FE31204D
:1020D800FFF700FE5420FFF7FDFD4720FFF7FAFD4C
:1020E8000E20FFF7F7FD1C20FFF7F4FD1720FFF780
:1020F800F1FD1B20FFF7EEFD1E20FFF7EBFD2A2068
:10210800FFF7E2FD0020FFF7E5FD0020FFF7E2FD05
:102118000020FFF7DFFDEF20FFF7DCFD2B20FFF7A6
:10212800D3FD0020FFF7D6FD0020FFF7D3FD0120E7
:10213800FFF7D0FD3F20FFF7CDFD2920FFF7C4FDB5
:1021480008BD00002DE9F04798B0594B5A6942F490
:1021580080725A615A6902F480720192019A9A69EE
:1021680042F008029A619A6902F008020292029A01
:102178009A6942F020029A619A6902F02002039259
:10218800039A9A6942F040029A619A6902F0400201
:102198000492049A9A6942F480729A619B6903F4E2
:1021A80080730593059B4CF20373149302261596CE
:1021B8000124169403251795DFF8F8A014A95046B2
:1021C80001F050F84FF680731493159616941795EE
:1021D80014A9394801F046F81494159416941795E3
:1021E800364F14A9384601F03DF84FF48058CDF821
:1021F8005080159616941795DFF8C49014A9484690
:1022080001F030F8149415961694179514A94846B9
:1022180001F028F82023149315961694179514A9FD
:10222800504601F01FF84FF01009CDF85090159660
:102238001694179514A9504601F014F821484FF048
:102248002043036003F58273436006238360002301
:10225800C360C0F814908361C3614362C0F82880EA
:10226800C3624FF4804202634363836313930E9304
:102278000D930F220F920C9307930693089406AAC6
:102288000DA900F0E8FB322000F036FAFFF785FED2
:1022980022462146384601F008F908213620FFF782
:1022A8001FFD4FF6FF70FFF74FFD18B0BDE8F08730
:1022B800001002400014014000180140000C0140C9
:1022C80000200140C00000202DE9F04107460E46DD
:1022D8009846069D141AA4B20134A4B209E0A9B222
:1022E8000A4BA3F80011013292B2A242F7D3013689
:1022F800B6B2464507D831463846FFF7F9FCFFF72E
:102308000DFD0022F1E7BDE8F08100BF0007006C79
:102318002DE9F04F85B00446BDF838000190A0467D
:10232800A2EB040B8946A3EB010ABBF1000F0DDDFC
:1023380001220292BAF1000F14DD01230393D34561
:102348001CDD5E4600252F462C461BE0BBF1000F26
:1023580005D0A4EB020B4FF0FF320292EAE7CDF86A
:1023680008B0E7E7BAF1000F05D0A1EB030A4FF078
:10237800FF330393E3E7CDF80CA0E0E75646E1E727
:102388000134A4B2731C9C4213DC019A1FFA89F130
:102398001FFA88F0FFF7CAFC5F445544BE4202DAD0
:1023A800BF1B029B9844AE42EADAAD1B039B9944DB
:1023B800E6E705B0BDE8F08F2DE9F04F87B081461C
:1023C80088461E4601925200C2F103030293002779
:1023D80008E0019ABB1A9B000A330299194402913A
:1023E800531E0193019B9F4254DCBDB205EB090BC0
:1023F8001FFA8BFBBDF80440A8EB04039BB23246DE
:10240800039319465846FFF791FC04EB090A1FFA93
:102418008AFAA8EB05039AB21046324604900146A0
:102428005046FFF783FC05EB08039AB29446324600
:10243800CDF814C061465046FFF778FC04EB080A53
:102448001FFA8AFA324651465846FFF76FFCA9EB45
:102458000505ADB2324651462846FFF767FCA9EBA1
:102468000404A4B2324605992046FFF75FFC3246C1
:1024780003992846FFF75AFC324604992046FFF78D
:1024880055FC0137029A002AA3DABB0006331A4426
:102498000292A7E707B0BDE8F08F000008B528B1A1
:1024A80001224021044801F000F808BD0022402123
:1024B800014800F0FAFFF8E7000C014008B528B120
:1024C80001228021044800F0F0FF08BD002280218D
:1024D800014800F0EAFFF8E7000C014008B50220C7
:1024E80000F0E4F808BD08B50120FFF7E7FF012078
:1024F800FFF7D4FFFFF7F2FF0020FFF7DFFFFFF73A
:10250800EDFF0020FFF7CAFFFFF7E8FF08BD08B599
:102518000020FFF7D3FFFFF7E1FF0120FFF7BEFF21
:10252800FFF7DCFF0120FFF7C9FFFFF7D7FF08BD62
:1025380010B586B0104B9A6942F008029A619B69FF
:1025480003F008030193019B4023029301230493A2
:10255800039303230593094C02A9204600F082FE49
:10256800802302931123039302A9204600F07AFEE8
:10257800FFF7CDFF06B010BD00100240000C01406F
:1025880038B50546002412E0C4F1070045FA00F00A
:1025980000F00100FFF792FFFFF7A0FF0120FFF70F
:1025A8007DFFFFF79BFF0020FFF778FF0134072C22
:1025B800EADD0120FFF782FF38BD000038B50120B1
:1025C800FFF77CFFFFF78AFF0120FFF767FFFFF7A0
:1025D80085FF00248021094800F060FF054630B1DE
:1025E8000134E4B2FA2CF5D9FFF791FF0125002058
:1025F800FFF754FFFFF772FF284638BD000C014073
:1026080008B50020FFF75AFFFFF768FF0120FFF722
:1026180045FFFFF763FF0020FFF740FFFFF75EFF6E
:102628000120FFF74BFFFFF759FF08BD08B5012050
:10263800FFF744FFFFF752FF0120FFF72FFFFFF7D7
:102648004DFF0020FFF72AFFFFF748FF08BD0000F5
:1026580070B5064600252C4605E00020FFF71EFF52
:10266800FFF73CFF0134072C0FDC0120FFF716FFB2
:10267800FFF734FF8021094800F010FF0028ECD054
:10268800802323411D43EDB2E7E71EB9FFF7B8FFEA
:10269800284670BDFFF7CAFFFAE700BF000C0140EB
:1026A800014B1860704700BF0801002010B44FF0BC
:1026B800E02254690B4B1B6800FB03FC9369002163
:1026C80004E0E01A02441144614509D21A464FF069
:1026D800E0239B699A42FAD0F3D9D21A1144F3E75E
:1026E80010BC70470801002008B54FF47A7303FB4B
:1026F80000F0FFF7DBFF08BD08B580B2FFF7F4FF75
:1027080008BD10B590B004462822002106A800F0A4
:102718008DFF0023019302930393049305930123F0
:1027280006934FF48033079302220D920E930F9471
:1027380006A800F0A1FA00B1FEE70F2301930221D9
:102748000291002303934FF480620492059301A839
:1027580000F0D2FC00B1FEE710B010BD08B5FFF7DD
:10276800E7FE08BD38B504460025FFF7BCFEA020EB
:10277800FFF706FFFFF722FF08B1284638BD2046BD
:10278800FFF7FEFEFFF71AFF0028F6D1FFF7ABFEB2
:10279800A120FFF7F5FEFFF711FF0028EDD101207A
:1027A800FFF756FF0546FFF7B2FEE6E738B50446E1
:1027B8000D46FFF798FEA020FFF7E2FEFFF7FEFEAA
:1027C80000B138BD2046FFF7DBFEFFF7F7FE002813
:1027D800F7D12846FFF7D4FEFFF7F0FE0028F0D126
:1027E800FFF795FE0A20FFF77FFFEAE770B50C4672
:1027F80008E0461CB6B2C0B2FFF7B4FF04F8010BFC
:102808002A463046531E9DB2002AF2D170BD70B5DB
:1028180004460E4607E016F8011BE0B2FFF7C6FFB4
:102828000134A4B22A46531E9DB2002AF3D170BDCA
:10283800F0B587B0184B9A6942F008029A619A6914
:1028480002F008020092009A9A6942F040029A61E6
:102858009B6903F040030193019B20240294012506
:10286800039500230493022305930C4F2A4621461F
:10287800384600F01AFE0A4E2A462146304600F035
:1028880014FE02A9384600F0EDFC02A9304600F01B
:10289800E9FC07B0F0BD00BF00100240000C014089
:1028A8000018014008B500F006FE08BD2DE9F0410A
:1028B80086B0224DAB6943F04003AB61AB6903F0CE
:1028C80040030093009B1C230293002703970124D5
:1028D80004944FF00308CDF81480194E22460421C1
:1028E800304600F0E2FD22460821304600F0DDFDCA
:1028F80022461021304600F0D8FD02A9304600F0EB
:10290800B1FCAB6943F00403AB61AB6903F00403AA
:102918000193019B0294039702230493CDF814803A
:10292800A5F584353A462146284600F0BEFD02A9A1
:10293800284600F097FC06B0BDE8F0810010024080
:102948000018014010B51021294800F0A7FD90B1EA
:1029580064240821264800F0A1FDD8B104212448A8
:1029680000F09CFD28B30121224800F097FD0128C2
:102978002ED0204610BD04460A20FFF7BDFE02E017
:102988000A20FFF7B9FE1021194800F087FD00283A
:10299800F6D0DEE70A20FFF7AFFE02E00A20FFF7D5
:1029A800ABFE0821124800F079FD0028F6D001247A
:1029B800D4E70A20FFF7A0FE02E00A20FFF79CFEFA
:1029C80004210B4800F06AFD0028F6D00224CAE76B
:1029D8000A20FFF791FE02E00A20FFF78DFE012191
:1029E800044800F05BFD0128F6D00324C1E700BFCE
:1029F8000018014000080140FEE7FEE7FEE7FEE799
:102A0800FEE770477047704708B500F00DF908BD3C
:102A180082B00E4B9A6942F001029A619A6902F0FB
:102A280001020092009ADA6942F08052DA61DB69A9
:102A380003F080530193019B054A536823F0E06338
:102A480043F00073536002B0704700BF00100240AB
:102A580000000140704760B370B50E461546044645
:102A68008369B3F5807F26D090F84130E3B12146E1
:102A780051F8080B00F022F8A2683146206800F0EF
:102A880051F8236BA2682946606800F073F8226841
:102A9800A16852F8213043F0010342F821300123A4
:102AA80084F84130002070BD80F84030FFF7D2FF35
:102AB800DDE7012070470120F5E7000010B40A683F
:102AC80050F8223023F0010340F822308B68082B9D
:102AD80024D000244A6822431343CA6813430A696E
:102AE80013434A691343CA6913430A6A13434A6A78
:102AF80013438A6A1343CA6A13430A6B13438A69E6
:102B08001A434B6B1A43096850F82140044B234081
:102B1800134340F82130002010BC70474024D9E707
:102B28008000F0FF00B5013250F8223003F0404C2D
:102B38000B68D1F804E043EA0E13D1F808E043EA41
:102B48000E23D1F80CE043EA0E43D1F810E00EF161
:102B5800FF3E43EA0E53D1F814E0AEF1020E43EA09
:102B68000E6389690B434CEA030340F822300020C6
:102B78005DF804FBB3F5804F05D06FF0704340F863
:102B880022300020704730B450F82230094C1C40E5
:102B98000B684D6843EA05138D6843EA05238D6980
:102BA8002B43C96843EA01431C4340F822400020F4
:102BB80030BC70470000F0CF10B504460E4B1A78B1
:102BC8004FF47A73B3FBF2F30C4A1068B0FBF3F0DE
:102BD80000F0D0FC68B90F2C01D901200AE00022CE
:102BE80021464FF0FF3000F0B5FC054B1C6000207B
:102BF80000E0012010BD00BF480000205000002068
:102C08004C00002008B5074A136843F0100313600E
:102C1800032000F08DFC0020FFF7CEFFFFF7F8FE41
:102C2800002008BD00200240034A1168034B1B78AE
:102C38000B441360704700BF0C01002048000020BF
:102C4800014B1868704700BF0C01002082B0084B88
:102C58001B68084AA2FB03235B0A00FB03F30193EA
:102C680000BF019B5A1E0192002BF9D102B0704798
:102C780050000020D34D6210002800F0F18170B59B
:102C880082B00446036813F0010F2CD0994B5B689F
:102C980003F00C03042B1DD0964B5B6803F00C0368
:102CA800082B12D06368B3F5803F41D0002B55D173
:102CB80003F1804303F504331A6822F480321A6062
:102CC8001A6822F480221A6037E08A4B5B6813F492
:102CD800803FE7D0874B1B6813F4003F03D063683D
:102CE800002B00F0BF81236813F0020F75D0814BD1
:102CF8005B6813F00C0F5FD07E4B5B6803F00C032E
:102D0800082B54D02369002B00F08A807A4B0122CB
:102D18001A60FFF795FF0546764B1B6813F0020F04
:102D280075D1FFF78DFF401B0228F5D903209EE1DE
:102D3800704A136843F480331360636843B3FFF742
:102D48007FFF05466B4B1B6813F4003FCBD1FFF7A1
:102D580077FF401B6428F5D9032088E1B3F5A02F3D
:102D680009D0644B1A6822F480321A601A6822F477
:102D780080221A60E1E703F18043A3F53C331A6827
:102D880042F480221A601A6842F480321A60D4E74A
:102D9800FFF756FF0546574B1B6813F4003FA2D0B8
:102DA800FFF74EFF401B6428F5D903205FE1514B24
:102DB8005B6813F4803FA5D14E4B1B6813F0020FDC
:102DC80003D02369012B40F04F814A4A136823F04E
:102DD800F803616943EAC1031360236813F0080F1D
:102DE80033D0A369002B5CD0434B0122C3F8802465
:102DF800FFF726FF05463F4B5B6A13F0020F21D110
:102E0800FFF71EFF401B0228F5D903202FE1394A9E
:102E1800136823F0F803616943EAC1031360DCE730
:102E2800354B00221A60FFF70BFF0546314B1B6834
:102E380013F0020FD1D0FFF703FF401B0228F5D98A
:102E4800032014E10120FFF701FF236813F0040FAA
:102E580000F09680274BDB6913F0805F34D1254B57
:102E6800DA6942F08052DA61DB6903F0805301933A
:102E7800019B0125214B1B6813F4807F26D0E36852
:102E8800012B3DD0002B53D103F1804303F50433CC
:102E98001A6A22F001021A621A6A22F004021A62FD
:102EA80033E0154B0022C3F88024FFF7C9FE05461E
:102EB800104B5B6A13F0020FC7D0FFF7C1FE401B2F
:102EC8000228F5D90320D2E00025D3E70B4A13687E
:102ED80043F480731360FFF7B3FE0646074B1B6885
:102EE80013F4807FCBD1FFF7ABFE801B6428F5D9A4
:102EF8000320BCE000100240000042420070004085
:102F08005F4A136A43F001031362E36833B3FFF7C0
:102F180097FE06465A4B1B6A13F0020F2FD1FFF794
:102F28008FFE801B41F288339842F3D903209EE03C
:102F3800052B09D0524B1A6A22F001021A621A6A4A
:102F480022F004021A62E0E74D4B1A6A42F00402CA
:102F58001A621A6A42F001021A62D6E7FFF770FE97
:102F68000646474B1B6A13F0020F08D0FFF768FEAE
:102F7800801B41F288339842F3D9032077E0E5B902
:102F8800E369002B72D03E4A526802F00C02082A0C
:102F980056D0022B17D03B4B00221A66FFF750FE83
:102FA8000446374B1B6813F0007F47D0FFF748FEF5
:102FB800001B0228F5D9032059E0314AD36923F0D0
:102FC8008053D361DCE72F4B00221A66FFF738FEE7
:102FD80005462B4B1B6813F0007F06D0FFF730FE29
:102FE800401B0228F5D9032041E0236AB3F5803F4E
:102FF8001AD023494B6823F47413226A606A024387
:1030080013434B601F4B01221A66FFF719FE044653
:103018001B4B1B6813F0007F0ED1FFF711FE001B3E
:103028000228F5D9032022E0154A536823F4003317
:10303800A1680B435360DCE7002018E0002016E08D
:10304800012B16D00E4B5B6803F48031226A914243
:1030580011D103F47013626A93420ED1002006E086
:1030680001207047012002E0012000E0002002B0AA
:1030780070BD0120FBE70120F9E70120F7E700BF59
:10308800001002400000424286B0174B0FCB0DF1F2
:10309800180C0CE90F0040F20123ADF80430134B73
:1030A8005B6803F00C02082A02D0114806B070478A
:1030B800C3F3834218326A4412F8100C13F4803FA9
:1030C8000DD00A4B5B68C3F3404318336B4413F8C5
:1030D800143C074A02FB00F0B0FBF3F0E6E7054BAF
:1030E80003FB00F0E2E700BF744000080010024054
:1030F80000127A0000093D00002800F0A08070B599
:103108000D460446524B1B6803F007038B420BD253
:103118004F4A136823F007030B431360136803F047
:1031280007038B4240F08D80236813F0020F17D0FD
:1031380013F0040F04D0474A536843F4E063536024
:10314800236813F0080F04D0424A536843F46053CD
:103158005360404A536823F0F003A1680B4353605F
:10316800236813F0010F31D06368012B20D0022BA4
:1031780025D0384A126812F0020F64D035494A68DF
:1031880022F0030213434B60FFF75AFD0646314B0A
:103198005B6803F00C036268B3EB820F16D0FFF78D
:1031A8004FFD801B41F288339842F0D9032045E057
:1031B800284A126812F4003FE0D101203EE0254A77
:1031C800126812F0007FD9D1012037E0204B1B682C
:1031D80003F00703AB420AD91D4A136823F007031B
:1031E8002B431360136803F00703AB422DD1236808
:1031F80013F0040F06D0174A536823F4E063E1681C
:103208000B435360236813F0080F07D0114A536823
:1032180023F46053216943EAC1035360FFF734FF85
:103228000C4B5B68C3F303130B4AD35CD8400B4BBE
:1032380018600B4B1868FFF7BFFC002070BD012019
:1032480070470120FAE70120F8E70120F6E700BF00
:1032580000200240001002400870000850000020C2
:103268004C00002070B582B00024A446ABE0854D28
:10327800AB4214D00CD8A5F58015AB420FD005F59C
:103288007025AB420BD0A5F58015AB4210D106E0F6
:103298007D4DAB4203D005F58035AB4208D18B6834
:1032A800002B5AD0012B53D04261082400E0CC688F
:1032B800BEF1FF0F53D806464FEA8C0233680F253C
:1032C800954023EA050304FA02F2134333604B687E
:1032D80013F0805F75D06D4B9A6942F001029A61D4
:1032E8009B6903F001030193019B4FEA9C02951C23
:1032F800674B53F825600CF00305AD000F23AB4076
:1033080026EA0306634B984230D003F5806398425F
:1033180000F0968003F58063984200F0938003F5EF
:103328008063984200F0908003F58063984200F033
:103338008D8003F58063984216D0062317E0CC6889
:103348000434B5E7CC680834B2E7CC680C34AFE78E
:1033580002610824ACE70024AAE70424A8E7061DB4
:10336800ACF108029200A9E7052300E00023AB4076
:1033780033430232464D45F822304B6813F4803F00
:1033880066D0454A136843EA0E0313604B6813F48A
:10339800003F63D0404A536843EA0E0353604B68CA
:1033A80013F4801F60D03C4A936843EA0E0393608D
:1033B8004B6813F4001F5DD0374AD36843EA0E0305
:1033C800D3600CF1010C0B6833FA0CF258D00122CF
:1033D80002FA0CF203EA020E32EA0303F1D14B6857
:1033E800122B3FF644AF122B3FF662AF01A555F8FA
:1033F80023F000BFA7320008B73200084D33000899
:103408005F330008B9320008B9320008B932000841
:10341800B9320008B9320008B9320008B9320008D8
:10342800B9320008B9320008B9320008B9320008C8
:10343800B9320008B932000847330008533300088E
:10344800012394E7022392E7032390E704238EE7FE
:10345800114A136823EA0E03136097E70E4A53686C
:1034680023EA0E0353609AE70B4A936823EA0E0394
:1034780093609DE7084AD36823EA0E03D360A0E768
:1034880002B070BD00002210000031100010024090
:10349800000001400008014000040140836819420F
:1034A80001D001207047002070470AB101617047C0
:1034B800090401617047C36801EA030221EA0301B4
:1034C80041EA024101617047002808DB0901C9B2DD
:1034D80000F1604000F5614080F80013704700F08B
:1034E8000F000901C9B2014B1954704714ED00E0EF
:1034F80000B500F00700C0F1070CBCF1040F28BFAD
:103508004FF0040C031D062B0FD9C31E4FF0FF3ECE
:103518000EFA0CF021EA000199400EFA03FE22EAA5
:103528000E0241EA02005DF804FB0023EEE700000A
:10353800074AD36823F4E0631B041B0C000200F461
:10354800E060034343F0BF6343F40033D360704744
:1035580000ED00E010B50446054BD868C0F3022022
:10356800FFF7C6FF01462046FFF7AEFF10BD00BFBC
:1035780000ED00E00138B0F1807F0BD24FF0E0237E
:103588005861054AF02182F823100020986107222B
:103598001A6170470120704700ED00E07047000095
:1035A8000C480D490D4A002302E0D458C450043396
:1035B800C4188C42F9D30A4A0A4C002301E013606C
:1035C8000432A242FBD3FFF7E9FF00F037F8FDF71A
:1035D800F5FD704700000020A4000020547000088A
:1035E800A40000205C020020FEE700000EB46FF08B
:1035F800004100B59CB01DAB029006900791049164
:103608000848094953F8042B0591006802A9019359
:1036180000F08CF90022029B1A701CB05DF804EBD4
:1036280003B07047540000200802FFFF034602441D
:10363800934200D1704703F8011BF9E770B50026E3
:103648000C4D0D4C641BA410A64209D100F084FC5B
:1036580000260A4D0A4C641BA410A64205D170BD71
:1036680055F8043B98470136EEE755F8043B984770
:103678000136F2E74C7000084C7000084C700008E6
:10368800507000087047704738B50546002940D08B
:1036980051F8043C0C1F002BB8BFE41800F0DEF80A
:1036A8001C4A136833B9636014602846BDE8384083
:1036B80000F0DAB8A34208D9206821188B4201BF6C
:1036C80019685B6809182160EDE71A465B680BB159
:1036D800A342FAD911685018A0420BD120680144BE
:1036E800501883421160E0D118685B680844106084
:1036F8005360DAE702D90C232B60D6E7206821183B
:103708008B4201BF19685B680918216063605460C7
:10371800CBE738BD5402002070B50F4E0C46316817
:10372800054611B900F0A8FB30602146284600F094
:10373800A3FB431C03D14FF0FF34204670BDC41CCB
:1037480024F00304A042F8D0211A284600F094FB84
:103758000130F2D1EFE700BF500200202DE9F84315
:10376800CD1C25F0030508350C2D38BF0C25002D80
:10377800064601DBA94204D90C2333600020BDE8CA
:10378800F883DFF8D48000F069F8D8F800301C46D8
:1037980044BB29463046FFF7BFFF431C044658D1B7
:1037A800D8F800402746002F43D1002C4BD023687F
:1037B8003946304604EB030900F05EFB814542D1EF
:1037C800216830466D1A2946FFF7A6FF01303AD026
:1037D80023682B442360D8F800305A6862BBC8F8C5
:1037E80000700FE02268521B20D40B2A17D96119E8
:1037F800A342256018BF5960636808BFC8F8001065
:1038080062514B60304600F02FF804F10B00231D85
:1038180020F00700C21A1CBF1B1AA350AFE762684A
:10382800A3420CBFC8F800205A60EBE7234664683F
:10383800AEE73C467F68B6E71A465B68A342FBD111
:1038480000235360DEE70C233046336000F00CF8A9
:1038580094E70560D6E700BF540200200148FFF74F
:1038680011BF00BF4C0200200148FFF70CBF00BF8A
:103878004C0200202DE9F0471F468E688246BE4262
:103888000C4690460B682DD8B1F90C2012F4906FB5
:1038980026D06569096905EB4505A3EB010905EB28
:1038A800D5757B1C4B446D109D4238BF1D46530592
:1038B80027D52946FFF752FF064660B34A462169D5
:1038C80000F0F8FAA38923F4906343F08003A381FE
:1038D80026614E4426603E466561A5EB0905A56054
:1038E800BE4200D93E4632464146206800F0AAFA58
:1038F8000020A3689B1BA360236833442360BDE8B2
:10390800F0872A4600F0E4FA06460028E0D150463F
:103918002169FFF7B9FE0C23CAF80030A3894FF0DC
:10392800FF3043F04003A381E9E700002DE9F04FA1
:1039380098468B8907461B060D4614469DB010D540
:103948000B6973B94021FFF709FF2860286130B976
:103958000C233B604FF0FF301DB0BDE8F08F4023D3
:103968006B610023099320238DF8293030234FF011
:103978000109CDF80C80DFF898818DF82A302346AC
:103988009A4613F8012B0AB1252AF9D1BAEB040B90
:103998000BD05B46224629463846FFF76BFF0130BD
:1039A80000F0A780099A5A4409929AF80030002B2F
:1039B80000F09F8000234FF0FF32CDE905230AF184
:1039C800010A049307938DF853301A93544605223D
:1039D80014F8011B4E4800F05FFA049AD8B9D006D3
:1039E80044BF20238DF85330110744BF2B238DF893
:1039F80053309AF800302A2B15D0544600204FF047
:103A08000A0C079A214611F8013B303B092B4BD988
:103A1800B0B1079214E0A0EB080309FA03F31343CB
:103A2800A2460493D2E7039B191D1B680391002B40
:103A3800BBBF5B4242F0020207930793B8BF0492F0
:103A480023782E2B0AD163782A2B32D1039B023498
:103A58001A1D1B68039243EAE3730593DFF8B4A0C9
:103A680003225046217800F017FA38B14022049B0F
:103A7800A0EB0A00824013430134049314F8011B9D
:103A8800062225488DF8281000F006FA002836D0BE
:103A9800224B1BBB039B073323F007030833039315
:103AA800099B334409936AE70C4601200CFB023258
:103AB800A8E700234FF00A0C194601340593204665
:103AC80010F8012B303A092A03D9002BC6D00591EA
:103AD800C4E7044601230CFB0121F0E703AB009384
:103AE8002A4638460E4B04A9AFF30080421C06460E
:103AF800D6D1AB895B063FF52DAF09982CE703AB10
:103B080000932A463846064B04A900F07DF8EDE7F5
:103B1800187000081E7000082270000800000000DD
:103B28007D3800082DE9F047164698468A680B69E3
:103B380007469342B8BF1346336091F843200C46BA
:103B4800DDF820900AB1013333602368990642BF3B
:103B5800336802333360256815F0060506D104F191
:103B6800190AE36832689B1AAB422BDC94F843309D
:103B78002268003B18BF0123920630D441463846DC
:103B880004F14302C847013023D02368226903F0B7
:103B98000603042B14BF002533684FF0000608BF46
:103BA800E56804F11A0408BFED1A54F8123C08BF7E
:103BB80025EAE5759342C4BF9B1AED18B5421AD1A0
:103BC800002008E00123524641463846C8470130E4
:103BD80003D14FF0FF30BDE8F0870135C1E7302051
:103BE800E11881F843005A1C94F845102244023326
:103BF80082F84310C2E70123224641463846C847A7
:103C08000130E6D00136D9E72DE9FF470F7E91460E
:103C1800782F80460C469A460C9E01F1430207D83D
:103C2800622F0AD8002F00F0D180582F00F0B880FA
:103C380004F1420684F842703AE0A7F16303152BB9
:103C4800F6D801A151F823F0A93C0008BD3C0008B2
:103C5800393C0008393C0008393C0008393C000868
:103C6800BD3C0008393C0008393C0008393C0008D4
:103C7800393C0008BB3D0008E73C0008753D0008DA
:103C8800393C0008393C0008DD3D0008393C000893
:103C9800E73C0008393C0008393C00087D3D000835
:103CA80033681A1D1B68326004F1420684F84230FA
:103CB80001239CE033682068191D3160060601D590
:103CC8001D6803E04506FBD5B3F90050002D03DA63
:103CD8002D236D4284F843300A23584811E02168A7
:103CE8003368080653F8045B02D4490648BFADB2EE
:103CF8006F2F336014BF0A2308235048002184F82B
:103D080043106668002EA66005DB21682E4321F06B
:103D1800040121604BD01646B5FBF3F103FB1157A4
:103D2800C75D06F8017D2F46BB420D46F4D9082B26
:103D38000BD12368DF0708D5236961689942DEBF84
:103D4800302306F8013C06F1FF36921B22614B46F0
:103D580021464046CDF800A003AAFFF7E3FE013054
:103D68004AD14FF0FF3004B0BDE8F087236843F034
:103D7800200323607827324884F845702368316827
:103D88001F0651F8045B02D45F0648BFADB231602C
:103D9800D90744BF43F0200323601DB11023ADE7CA
:103DA8002648E9E7236823F020032360F6E7164650
:103DB800BDE733682568181D616930602E061B68E9
:103DC80001D5196002E06806FBD519800023164664
:103DD8002361BCE7336800211A1D32601E686268DF
:103DE800304600F059F808B1801B606063682361B1
:103DF800002384F84330AAE73246494640462369FF
:103E0800D0470130ADD023689B0713D4E068039BEB
:103E18009842B8BF1846A6E70123324649464046AD
:103E2800D04701309DD00135E36803995B1AAB4256
:103E3800F2DCEBE7002504F11906F5E72970000824
:103E48003A700008884210B501EB020402D9844296
:103E5800234607D8431EA14208D011F8012B03F8C6
:103E6800012FF8E7014602448A4200D110BD13F839
:103E7800014D02F8014DF7E738B50023054D04461A
:103E880008462B6000F05AF8431C02D12B6803B196
:103E9800236038BD48020020034610B5C9B2024469
:103EA8009342184601D1002003E0047801338C4284
:103EB800F6D110BD0A44914200F1FF3300D170479A
:103EC80010B511F8014B914203F8014FF9D110BD1B
:103ED8002DE9F041074614460D4621B91146BDE8C3
:103EE800F041FFF73BBC2AB9FFF7CEFB2546284631
:103EF800BDE8F08100F01AF88442064602D8B4EB17
:103F0800500FF4D821463846FFF728FC804608B9F8
:103F18004546ECE7B4422246294628BF3246FFF719
:103F2800C9FF29463846FFF7AFFBF1E751F8043CD3
:103F3800181F002BBCBF0B58C0187047044A05490E
:103F48001368002B08BF0B461844106018467047CA
:103F58005802002060020020F8B500BFF8BC08BC79
:103F68009E467047F8B500BFF8BC08BC9E4670472F
:103F78005253540053544D3332000000544F5543AC
:103F8800482054455354000041544F4D40414C493A
:103F9800454E54454B0000005072657373204B45E5
:103FA800593020746F2041646A75737400000000F2
:103FB8007825643A256400007925643A2564000070
:103FC80070783A25302E32660000000070793A2564
:103FD800302E326600000000506C656173652075F4
:103FE800736520746865207374796C757320636CCD
:103FF80069636B207468652063726F7373206F6EDA
:10400800207468652073637265656E2E5468652038
:1040180063726F73732077696C6C20616C77617958
:1040280073206D6F766520756E74696C2074686591
:104038002073637265656E2061646A7573746D655B
:104048006E7420697320636F6D706C657465642E7F
:1040580000000000546F7563682053637265656ED5
:104068002041646A757374204F4B210002030405D4
:10407800060708090A0B0C0D0E0F101000000000AF
:104088000000000000000000000000000000000028
:104098000000000000000000000000000000000018
:1040A8000000000000000000000000000000000008
:1040B80000000000000000000000000000000000F8
:1040C80000000000000000000000000000000000E8
:1040D800000000000000000007F000C007FFE1E05A
:1040E80007F001E0000000C0000000000000000030
:1040F80000000000000000000000000000000000B8
:1041080000000000000000000020000001C00000C6
:10411800078000001F0000001E0000001C20000097
:1041280001C00000078000001F0000001E00000002
:104138001C0000000000000000000000000000005B
:104148000000000000180C0000180C0000180FE018
:10415800001FFC0003F80C0000180C0000180C00ED
:1041680000180C0000180C0000180FE0001FFC00DD
:1041780003F80C0000180C0000180C0000000000E8
:10418800000000000000000000000780007807C061
:1041980000FC0640010E00200307002002038020D7
:1041A8000FFFFFFC0201C0200200E06001307040F8
:1041B80001F03F8000F01F00000000000000000038
:1041C80000FE000001FF0000030180000200806083
:1041D800030181C001FF070000FE18000000E00095
:1041E8000003BF00000CFFC00071806001C1002007
:1041F800030180600000FFC000003F0000000000D5
:1042080000001F0000007FC000FCC0C001FF8060EC
:104218000303E0200202782002061E2003FC074068
:1042280001F00380000103C000011C600001E020D0
:104238000001002000010040000001800000000093
:1042480000000000002000001C6000001C4000006E
:104258001F8000000F0000000000000000000000A8
:104268000000000000000000000000000000000046
:104278000000000000000000000000000000000036
:104288000000000000000000000000000000000026
:104298000000000000000000000000000007F80017
:1042A800003FFF00007807C001C000E003000030B5
:1042B80004000008080000041000000200000000CC
:1042C80000000000100000020800000404000008BC
:1042D8000300003001C000E0007807C0003FFF0085
:1042E8000007F800000000000000000000000000C7
:1042F80000000000000000000000000000000000B6
:104308000000000000000000000C1800000E38003B
:10431800000E380000063000000360000061438092
:1043280000FFFF80006143000003600000063000CA
:10433800000E3800000E3800000C180000000000C5
:104348000000000000000000000080000000800065
:104358000000800000008000000080000000800055
:10436800007FFF0000008000000080000000800047
:1043780000008000000080000000800000000000B5
:104388000000000000000001000000E3000000E25F
:10439800000000FC000000780000000000000000A1
:1043A8000000000000000000000000000000000005
:1043B80000000000000000000000000000000000F5
:1043C8000000000000008000000080000000800065
:1043D80000008000000080000000800000008000D5
:1043E80000008000000080000000800000008000C5
:1043F8000000800000008000000080000000000035
:104408000000000000000000000000C0000001E003
:10441800000001E0000000C00000000000000000F3
:104428000000000000000000000000000000000084
:104438000000000000000000000000000000000074
:10444800000000000000000C00000038000000E040
:104458000000038000000E00000038000000E000AB
:1044680000038000000E00000038000000E000009B
:10447800038000000E00000018000000000000008B
:104488000000000000000000000FF800007FFF009F
:1044980000F00780018000C00300006002000020D7
:1044A800020000200200002003000060018000C01C
:1044B80000E00380007FFF00000FF800000000000C
:1044C8000000000000000000000000000080002044
:1044D80000800020008000200080006001FFFFE0D5
:1044E80003FFFFE000000060000000200000002043
:1044F8000000002000000000000000000000000094
:104508000000000000000000007800E00098016052
:1045180001000260020004600200086002001060EE
:104528000200206002004060030080600183006098
:1045380001FE00E0007C0780000000000000000091
:10454800000000000000000000F0078001F007C034
:1045580001000040020000200201002002010020AA
:1045680002010020030380200186804001FCC0C0B6
:1045780000787F8000001E0000000000000000009E
:10458800000000000000080000003800000048009B
:104598000001880000060800000C08100030081010
:1045A8000040081001FFFFF003FFFFF003FFFFF0DA
:1045B80000000810000008100000081000000000AB
:1045C800000000000000000000000780001F864077
:1045D80003E100200302002003040020030400205C
:1045E800030400200304002003060040030301C065
:1045F8000301FF8003007E000000000000000000AF
:1046080000000000000000000007FC00003FFF0061
:104618000070C380008180C0010100600302002097
:1046280002020020020200200202002002030040D1
:1046380001C180C000C0FF8000007E0000000000B3
:10464800000000000000000000F0000003C00000AF
:104658000380000003000000030007E003003FE0C0
:104668000301C000030600000318000003600000F7
:1046780003800000030000000000000000000000AC
:104688000000000000001F0000783F8000FC60C0B0
:10469800018EC04003078020020300200201802011
:1046A800020180200201C0200301E040018670C0A1
:1046B80000FC3F8000781F000000000000000000A0
:1046C80000000000003F000000FF81C001C0C1C021
:1046D800010060200200202002002020020020208B
:1046E80002002060020040C00100C18000C18F00AC
:1046F800007FFE00001FF000000000000000000026
:1047080000000000000000000000000000000000A1
:104718000000000000000000000300C0000781E066
:10472800000781E0000300C0000000000000000056
:104738000000000000000000000000000000000071
:104748000000000000000000000000000000000061
:104758000000000000000000000600660006007867
:104768000000000000000000000000000000000041
:104778000000000000000000000000000000000031
:104788000000000000000000000080000001C000E0
:104798000003600000063000000C180000180C0030
:1047A800003006000060030000C0018001000040E6
:1047B80002000020040000100000000000000000BB
:1047C80000000000000410000004100000041000A5
:1047D8000004100000041000000410000004100081
:1047E8000004100000041000000410000004100071
:1047F8000004100000041000000410000000000075
:10480800000000000000000004000010020000206A
:104818000100004000C00180006003000030060075
:1048280000180C00000C180000063000000360009F
:104838000001C0000000800000000000000000002F
:1048480000000000000000000078000001F80000EF
:104858000238000002000000040000C0040079E0F3
:10486800040081E0040100C004030000020200000B
:104878000306000001FC000000F800000000000032
:1048880000000000000FF800003FFE0000700780E5
:1048980000C000C00101F8400307FC20021E0420EC
:1048A8000230082002203020023FFC20013F044053
:1048B80001800CC000E03180001FC2000000000031
:1048C8000000002000000060000003E000003E201F
:1048D8000003E020003E200003E0200003802000C9
:1048E80007FC2000003FE0000003FE2000003FE03E
:1048F800000001E00000002000000020000000008F
:1049080000000000020000200200002003FFFFE07A
:1049180003FFFFE002010020020100200201002045
:1049280002010020020100200303002001868060AC
:1049380001FCC0C000F87F8000001F0000000000DC
:10494800000000000007F800003FFF00007007802B
:1049580000C000C001000040030000200200002049
:104968000200002002000020020000200100004098
:10497800018000C003C00180003006000000000074
:1049880000000000020000200200002003FFFFE0FA
:1049980003FFFFE0020000200200002002000020C8
:1049A800020000200300006001000040018000C0F8
:1049B80000F00780007FFE00000FF80000000000F4
:1049C80000000000020000200200002003FFFFE0BA
:1049D80003FFFFE002010020020100200201002085
:1049E800020100200201002002038020020FE020C3
:1049F8000300006003C000E0006003000000000046
:104A080000000000020000200200002003FFFFE079
:104A180003FFFFE002010020020100200201000064
:104A280002010000020100000201000002038000F0
:104A3800030FE0000300000003C000000060000056
:104A4800000000000007F800003FFE00007007802B
:104A580001C001C001000040030000200200002046
:104A68000200002002000020010020200100204058
:104A780003C03F8000303F8000002000000020007D
:104A8800020000200200002003FFFFE003FFFFE018
:104A980002008020020080200000800000008000CA
:104AA80000008000020080200200802003FFFFE059
:104AB80003FFFFE0020000200200002000000000C9
:104AC80000000000000000000000000002000020BC
:104AD80002000020020000200200002003FFFFE087
:104AE80003FFFFE002000020020000200200002077
:104AF800020000200000000000000000000000008C
:104B0800000000000000000E0000000F0000000F71
:104B18000000000102000001020000010200000381
:104B28000200000603FFFFFC03FFFFF8020000007D
:104B38000200000002000000020000000000000067
:104B480000000000020000200200002003FFFFE038
:104B580003FFFFE00200C0200201002000078000E0
:104B6800000FE0000030F80002603E2003800F20B4
:104B7800030003E0020000E0020000200000002023
:104B880000000000020000200200002003FFFFE0F8
:104B980003FFFFE0020000200200002000000020C8
:104BA800000000200000002000000020000000207D
:104BB80000000060000000E00000030000000000AA
:104BC800020000200200002003FFFFE003E00020B5
:104BD80003FF0020001FF0000001FF8000000FE02D
:104BE80000001E000003E000003E002003E000205B
:104BF80003FFFFE003FFFFE00200002002000020A7
:104C0800020000200200002003FFFFE003800020D4
:104C180003F0002000FC0000001F00000007C00097
:104C28000001F00000007C0002001F80020007E085
:104C380003FFFFE002000000020000000000000087
:104C480000000000000FF800003FFE0000F00780A1
:104C5800018000C001000040020000200200002086
:104C6800020000200200002001000040018000C076
:104C780000F00380003FFE00000FF8000000000075
:104C880000000000020000200200002003FFFFE0F7
:104C980003FFFFE002008020020080200200800065
:104CA80002008000020080000200800003018000F2
:104CB8000183000000FE0000007C000000000000EE
:104CC80000000000000FF800007FFF0000F00380E4
:104CD800018001C0010006400200042002000420F7
:104CE80002000620020003E0010000F80180005CD9
:104CF80000E0038C003FFF0C000FFC1800000000D0
:104D080000000000020000200200002003FFFFE076
:104D180003FFFFE0020100200201002002018000E1
:104D28000201E0000201FC0003033F80018607E066
:104D380001FC00E000F80020000000200000000056
:104D480000000000000000000078060000FE01E0FE
:104D5800018600C0030300400203002002018020F6
:104D6800020180200201C0200200C0200100E06092
:104D7800018070C003E03F8000001F0000000000B9
:104D88000000000000600000038000000300000035
:104D980002000000020000200200002003FFFFE0E4
:104DA80003FFFFE0020000200200002002000000D4
:104DB800020000000380000000E000000000000086
:104DC800020000000200000003FFFF0003FFFFC015
:104DD80002000040020000600000002000000020E7
:104DE80000000020000000200200004002000080B7
:104DF80003FFFF00020000000200000000000000A6
:104E080000000000020000000200000003C00000D3
:104E180003FC0000023FC0000003F80000007F8090
:104E2800000007E000000780000078000203C000CF
:104E3800023C000003C00000020000000200000065
:104E48000200000003C0000003FF8000023FFE00D4
:104E580002007FE000000F000200F00003EF0000F6
:104E680003FF8000020FFE0000003FE000001F006B
:104E78000207E00003F80000030000000200000041
:104E8800000000000200002002000020038000E073
:104E980003F0032002FC0C20021F30000007C000B2
:104EA8000007F00002187C0002601F20038003E066
:104EB800020000E0020000200000002000000000C6
:104EC80000000000020000000300000003C0000012
:104ED80003F80000023E0020020FC0200001FFE09E
:104EE80000007FE000038020021C00200270000008
:104EF8000380000002000000020000000000000023
:104F08000000000000000020006000E0038003E0D3
:104F180003000FA002003E200200F8200203E02058
:104F2800020F8020023E00200278002003E000608B
:104F3800038000E002000300000000000000000001
:104F48000000000000000000000000000000000059
:104F580000000000000000001FFFFFFC100000041C
:104F680010000004100000041000000410000004E9
:104F78001000000410000004000000000000000001
:104F88000000000000000000000000000700000012
:104F980003C0000000780000001E00000003C000ED
:104FA8000000F00000001E0000000780000000F074
:104FB8000000003C000000060000000000000000A7
:104FC80000000000000000001000000410000004B1
:104FD8001000000410000004100000041000000479
:104FE800100000041FFFFFFC00000000000000008C
:104FF80000000000000000000000000000000000A9
:105008000000000000000000000000000000000098
:105018000200000004000000080000001800000062
:105028001000000018000000180000000400000034
:105038000200000000000000000000000000000066
:105048000000000100000001000000010000000154
:105058000000000100000001000000010000000144
:105068000000000100000001000000010000000134
:105078000000000100000001000000010000000124
:105088000000000000000000000000001000000008
:1050980010000000100000001800000008000000C8
:1050A80004000000000000000000000000000000F4
:1050B80000000000000000000000000000000000E8
:1050C800000000000000038000018FC000038C6016
:1050D80000061820000410200004102000042020DE
:1050E80000042040000620400003FFC00001FFE04C
:1050F8000000002000000020000000C000000000A8
:1051080000000000020000000200000003FFFFE0B2
:1051180007FFFFC0000180C00002006000020020FD
:1051280000040020000400200004002000060040C5
:10513800000300C00001FF800000FE000000000026
:10514800000000000000000000007E000001FF8059
:10515800000381C000020040000600200004002077
:105168000004002000040020000600200003C040C6
:105178000001C080000003000000000000000000E3
:10518800000000000000000000007E000001FF8019
:10519800000380C000060060000400200004002016
:1051A80000040020020400400202008003FFFFE028
:1051B80007FFFFC0000000400000004000000000A2
:1051C800000000000000000000007E000001FF80D9
:1051D800000311C0000210400004106000041020F9
:1051E80000041020000410200006102000031040C6
:1051F8000001F0C000007100000000000000000085
:10520800000000000000000000040000000400206E
:105218000004002000040020007FFFE001FFFFE001
:1052280001040020030400200204002002040020DE
:10523800020400000200000001C0000001C00000DC
:1052480000000000000000000000001C0000E33E19
:105258000003FFC200020CC3000404C1000404C11F
:10526800000404C1000404C100060CC10003F8C313
:105278000005F0620006007E0006003C0000000009
:1052880000000000020000200200002003FFFFE0F1
:1052980007FFFFE0000100200002002000060000D8
:1052A80000040000000400000004002000060020A4
:1052B8000003FFE00001FFE00000002000000020E4
:1052C80000000000000000000000000000040020B2
:1052D8000004002000040020000400200387FFE0F1
:1052E800038FFFE003800020000000200000002062
:1052F8000000002000000000000000000000000086
:10530800000000000000000000000000000000068F
:105318000000000700000001000000010004000177
:105328000004000100040003000400060387FFFCDA
:10533800038FFFF803800000000000000000000059
:1053480000000000020000200200002003FFFFE030
:1053580007FFFFE0000008200000102000003000D8
:105368000000FC0000058E00000707A0000601E011
:10537800000400E0000400200000002000000000FD
:1053880000000000000000000000000002000020F3
:1053980002000020020000200200002003FFFFE0BE
:1053A80007FFFFE0000000200000002000000020B0
:1053B80000000020000000000000000000000000C5
:1053C80000000000000400200007FFE0000FFFE0DD
:1053D8000002002000040000000400200007FFE095
:1053E8000003FFE000020020000400000004002089
:1053F8000007FFE00003FFE00000002000000000BD
:105408000000000000040020000400200007FFE066
:10541800000FFFE000010020000200200002000051
:105428000004000000040000000400200006002022
:105438000003FFE00001FFE0000000200000002062
:10544800000000000000000000007E000000FF8057
:10545800000381C000020040000600200004002074
:105468000004002000040020000600200002004084
:10547800000381C00001FF8000007E0000000000E2
:105488000000000000040001000400010007FFFF05
:10549800000FFFFF000100C10002004100040020CE
:1054A8000004002000040020000400200006004042
:1054B800000301C00001FF8000007E000000000022
:1054C800000000000000000000007E000001FF80D6
:1054D800000380C0000200600004002000040020D7
:1054E800000400200004002000020041000300C165
:1054F8000003FFFF0007FFFF00000001000000019C
:105508000000000000040020000400200004002027
:1055180000040020000FFFE0000FFFE00000C020A3
:105528000001002000020020000600200004000006
:105538000004000000070000000300000000000055
:105548000000000000000000000003E00001C0E0CF
:105558000003E0400006302000043020000418203A
:10556800000418200004182000040C2000020C601D
:10557800000307C00007838000000000000000004F
:10558800000000000000000000040000000400000B
:1055980000040000000C0000001FFF8000FFFFC097
:1055A8000004006000040020000400200004002023
:1055B800000400400000018000000000000000001E
:1055C8000000000000040000000400000007FF8045
:1055D800000FFFC000000060000000200000002055
:1055E80000000020000000200004004000040080AB
:1055F8000007FFE0000FFFC000000040000000406F
:105608000000000000040000000400000007800003
:105618000007F0000004FE0000041FC0000003E0C3
:105628000000038000001C000004600000078000E8
:105638000006000000040000000000000000000058
:1056480000040000000600000007C0000007FC007E
:1056580000043F80000003E000040F800006F00013
:105668000007F0000007FF8000040FE0000003803F
:1056780000043C000007C000000600000004000011
:10568800000000000000002000040020000400606A
:10569800000700E0000783200007E6000004F80088
:1056A80000003C0000045E20000587A0000601E021
:1056B800000400600004002000000020000000003A
:1056C80000000000000400000004000300070003BD
:1056D8000007E0010004F80100041F02000007FCB5
:1056E800000000E000000700000438000007C000C8
:1056F8000006000000040000000400000000000094
:10570800000000000000000000078060000600E0C4
:10571800000403E0000407A000040E2000043C205D
:10572800000470200005E0200007802000070060CA
:10573800000400E0000003800000000000000000FA
:105748000000000000000000000000000000000051
:1057580000000000000000000000000000008000C1
:10576800000080000001400007FE3FF80800000428
:1057780010000002100000020000000000000000FD
:105788000000000000000000000000000000000011
:105798000000000000000000000000000000000001
:1057A800FFFFFFFF000000000000000000000000F5
:1057B80000000000000000000000000000000000E1
:1057C80000000000000000001000000210000002AD
:1057D8000800000407FE3FF80001400000008000B8
:1057E8000000800000000000000000000000000031
:1057F80000000000000000000000000000000000A1
:105808000000000018000000300000004000000008
:1058180040000000400000002000000030000000B0
:105828000800000004000000020000000200000060
:10583800020000000C00000018000000000000003A
:105848000000000000000000000000000000000050
:105858000000000000000000000000000000000040
:105868000000000000000000000000000000000030
:105878000000000F80380FFE380F8038000000004D
:10588800000000000000000000000000000001000F
:10589800000600000C00003800003100000600007F
:1058A8000C0000380000300000000000000000007C
:1058B80061800067F807F9800061800061800061FD
:1058C800800061800067F807F980006180000000AF
:1058D80000000000000001C0E003E0F0063008040A
:1058E80018081FFFFE040E080787F00381E0000078
:1058F8000000000001F000060C00040408060C700B
:1059080001F9C0000E00003BE000EC18070808048D
:105918000C180003E00000000001E00007F003F8A5
:1059280018041C0804170807E1D003C0E00023B0DE
:10593800003C0800200800001000000000000001E2
:1059480000003100003200001C00000000000000D0
:10595800000000000000000000000000000000003F
:10596800000000000000000000000000000000002F
:105978007F0001FFC00780F00C0018100004200011
:10598800020000000000002000021000040C0018B3
:105998000780F001FFC0007F000000000000000049
:1059A8000000000000000000000000004200006647
:1059B80000006600003C0000180003FFC00018004B
:1059C800003C000066000066000042000000000085
:1059D800080000080000080000080000080001FF97
:1059E800C0000800000800000800000800000800C7
:1059F80000000000000100003100003200001C001F
:105A0800000000000000000000000000000000008E
:105A18000000000000000000080000080000080066
:105A28000008000008000008000008000008000046
:105A3800080000080000000000000000000000004E
:105A480038000038000038000000000000000000A6
:105A5800000000000000000000000000000000003E
:105A6800000600001C000070000180000E000038D5
:105A78000000C0000700001C00003000000000000B
:105A8800000000007F8001FFE0038070060018041A
:105A9800000804000806001803807001FFE0007F7A
:105AA800800000000000000000000100080100085C
:105AB80001000803FFF807FFF800000800000800CD
:105AC800000800000000000000000001C03802C00B
