:020000040800F2
:1000000068060020CD010008210700086D050008E2
:100010001D070008870200085909000800000000B9
:10002000000000000000000000000000E1070008E0
:100030008B02000800000000BD070008F50800085A
:10004000E7010008E7010008E7010008E7010008F0
:10005000E7010008E70100088D020008E701000839
:10006000C1020008F502000829030008E7010008A2
:10007000E7010008E7010008E7010008E7010008C0
:10008000E7010008E7010008E7010008E7010008B0
:10009000E7010008E7010008E7010008E7010008A0
:1000A000E7010008E7010008E7010008E701000890
:1000B000E7010008E7010008E7010008E701000880
:1000C000E7010008E7010008E7010008E701000870
:1000D000E7010008E7010008E7010008E701000860
:1000E000E7010008E7010008E7010008E701000850
:1000F000E7010008E7010008E7010008E701000840
:10010000E7010008E7010008E7010008E70100082F
:10011000E7010008E7010008E7010008E70100081F
:10012000E7010008E7010008E7010008E70100080F
:1001300000F002F800F03AF80AA090E8000C8244BF
:100140008344AAF10107DA4501D100F02FF8AFF29C
:10015000090EBAE80F0013F0010F18BFFB1A43F0A5
:1001600001031847D4080000F4080000103A24BF27
:1001700078C878C1FAD8520724BF30C830C144BF0C
:1001800004680C607047000000230024002500264E
:10019000103A28BF78C1FBD8520728BF30C148BFEA
:1001A0000B6070471FB51FBD10B510BD00F031F8D2
:1001B0001146FFF7F7FF00F011FC00F04FF803B411
:1001C000FFF7F2FF03BC00F057F800000948804732
:1001D00009480047FEE7FEE7FEE7FEE7FEE7FEE729
:1001E000FEE7FEE7FEE7FEE704480549054A064B41
:1001F00070470000F908000831010008680000207D
:1002000068060020680200206802002070477047DE
:100210007047754600F02CF8AE4605006946534617
:1002200020F00700854618B020B5FFF7DDFFBDE8D8
:1002300020404FF000064FF000074FF000084FF04D
:10024000000B21F00701AC46ACE8C009ACE8C009DE
:10025000ACE8C009ACE8C0098D46704710B504464B
:10026000AFF300802046BDE81040FFF7A8BF0000B4
:10027000004870470800002001491820ABBEFEE787
:1002800026000200704700BFFEE7704710B514203B
:1002900000F07EFB00BF0121074800F05AF9012859
:1002A000F9D0142000F074FB012000F057F8002072
:1002B0000249087010BD0000000801400400002041
:1002C00010B5142000F064FB00BF0421074800F0C3
:1002D00040F90028F9D0142000F05AFB042000F067
:1002E0003DF802200249087010BD000000180140CE
:1002F0000400002010B5142000F04AFB00BF0821C4
:10030000074800F026F90028F9D0142000F040FB3F
:10031000082000F023F803200249087010BD0000F7
:10032000001801400400002010B5142000F030FB3C
:1003300000BF1021074800F00CF90028F9D0142064
:1003400000F026FB102000F009F804200249087094
:1003500010BD0000001801400400002001490860A1
:100360007047000014040140002123498279002ACB
:100370003AD00A46126803689A430B461A600A1D6F
:10038000126803689A430B1D1A60027911440A68C7
:1003900003681A430A60184A0832126803689A43CD
:1003A000154B08331A601A1D126803689A43124BE2
:1003B0000C331A604279102A0ED11A1F1268036892
:1003C0001A430D4B08331A601A1D126803681A434A
:1003D000094B0C331A600DE00749427911440A6851
:1003E00003681A430A6005E0027911440A68036849
:1003F0009A430A60704700000004014030B50022B3
:100400008B071C0F0F2303FA04F20B4B8C1053F8CD
:1004100024309343084C8D1044F8253023468C102B
:1004200053F824308C07240F00FA04F42343024CC1
:100430008D1044F8253030BD080001402DE9F04111
:10044000024600250026002000230024002791F802
:1004500003C00CF00F0591F803C00CF0100CBCF1B8
:10046000000F03D091F802C04CEA050591F800C0D6
:10047000BCF1000F31D0146800202BE04FF0010CCC
:100480000CFA00F3B1F800C00CEA03069E4220D13A
:1004900083004FF00F0C0CFA03F7BC4305FA03FC82
:1004A0004CEA040491F803C0BCF1280F06D14FF0C8
:1004B000010C0CFA00FCC2F814C00AE091F803C069
:1004C000BCF1480F05D14FF0010C0CFA00FCC2F84A
:1004D00010C0401C0828D1D31460B1F800C0BCF192
:1004E000FF0F34DD546800202EE000F1080C4FF0BF
:1004F000010808FA0CF3B1F800C00CEA03069E42AA
:1005000021D183004FF00F0C0CFA03F7BC4305FA1E
:1005100003FC4CEA040491F803C0BCF1280F05D198
:1005200000F1080C08FA0CF8C2F8148091F803C026
:10053000BCF1480F07D100F1080C4FF0010808FA90
:100540000CF8C2F81080401C0828CED35460BDE8D7
:10055000F0810246002093680B400BB1012000E0BF
:1005600000207047416170470161704700BFFEE79E
:100570001FB50121042000F023F90121402000F0E3
:100580001FF90121084600F01BF91C20ADF80C00F2
:1005900048208DF80F0003208DF80E0003A93F4876
:1005A000FFF74CFF0120ADF80C0028208DF80F005C
:1005B00003A93B48FFF742FF00210846FFF71EFF53
:1005C00002210420FFF71AFF03210420FFF716FF82
:1005D00004210846FFF712FF1C20019001208DF82E
:1005E0000A0000208DF808000C208DF8090001A8F1
:1005F000FFF7BAFE0120019008208DF8090001A83C
:10060000FFF7B2FE4FF4A06000F0CEF806208DF8A0
:10061000000001208DF8030002208DF80100012068
:100620008DF80200684600F087F8062000F079F89F
:1006300008208DF8000001208DF8030002208DF8BD
:1006400001008DF80200684600F076F8082000F0FE
:1006500068F809208DF8000001208DF803000220C1
:100660008DF8010003208DF80200684600F064F860
:10067000092000F056F80A208DF8000001208DF8BE
:10068000030002208DF8010000208DF8020068466A
:1006900000F052F80A2000F044F81FBD0018014095
:1006A00000080140014890F9000070470400002054
:1006B00008B50121482000F083F82020ADF80000A3
:1006C00010208DF8030003208DF8020069460948C8
:1006D000FFF7B4FE20210748FFF746FF2020ADF8C2
:1006E000000069460448FFF7A9FE20210248FFF7F1
:1006F0003BFF08BD000C01400018014070B50446E6
:100700000D4629462046FFF72FFF70BD70B5044601
:100710000D4629462046FFF725FF70BD00BFFEE7C6
:10072000704700F01F02012191404209920002F13E
:10073000E022C2F80011704770B5002100230F229B
:10074000C47804B3154C246804F4E064C4F5E06490
:10075000210AC1F10403CA40447804FA03F1847801
:100760001440214309010E4C0678A155047804F089
:100770001F050124AC4005786D11AD0005F1E025A1
:10078000C5F8004109E0047804F01F050124AC40DD
:10079000044D0678761145F8264070BD0CED00E05A
:1007A00000E400E080E100E002490143024A1160F8
:1007B000704700000000FA050CED00E070470000F3
:1007C00029B1064A92690243044B9A6104E0034A44
:1007D00092698243014B9A61704700000010024009
:1007E000704710B500F002F810BD00000CB50020F5
:1007F000019000903348006840F48030314908602F
:1008000000BF3048006800F4003000900198401CA0
:100810000190009818B90198B0F5A06FF1D129485E
:10082000006800F4003010B10120009001E00020C9
:1008300000900098012843D12348006840F0100040
:10084000214908600846006820F007000860084653
:10085000006840F0020008601A4840681949486082
:100860000846406848600846406840F48060486038
:100870000846406820F47C1048600846406840F410
:10088000E81048600846006840F08070086000BFCB
:100890000C48006800F000700028F9D00948406852
:1008A00020F00300074948600846406840F0020015
:1008B000486000BF0348406800F00C000828F9D1E8
:1008C0000CBD00000010024000200240042808D1A6
:1008D0004FF0E021096941F004014FF0E02211617D
:1008E00007E04FF0E021096921F004014FF0E02218
:1008F000116170477047000010B51348006840F060
:1009000001001149086008464068104908400E4936
:100910004860084600680E4908400B4908600846D0
:10092000006820F4802008600846406820F4FE003B
:1009300048604FF41F008860FFF753FF4FF00060DE
:100940000449086010BD0000001002400000FFF8DC
:10095000FFFFF6FE08ED00E000BFFEE710B56FF008
:100960000400FFF7B3FF0920074908700846007824
:1009700000EB4001C1EBC0104FF6FF7101EAC0006F
:100980000249088010BD0000000000200200002085
:100990000146114A12884A434FF0E0235A6100226F
:1009A0009A611A46126942F001021A6100BF4FF0C3
:1009B000E022106900F001021AB100F48032002A2E
:1009C000F5D04FF0E022126922F001024FF0E0234F
:1009D0001A6100229A61704702000020FFF7BEFFF3
:1009E000FFF766FEFFF7C4FD20E0FFF75BFE04465D
:1009F000ACB1022C04D0032C0CD0042C14D104E094
:100A000020210B48FFF782FE0FE020210848FFF766
:100A100075FE0AE020210748FFF778FE05E0202157
:100A20000448FFF76BFE00E000BF00BFDDE70000F9
:100A3000000C014000180140580A00080000002086
:100A4000080000006C010008600A0008080000208F
:100A5000600600008801000800000000FF000000A0
:0400000508000131BD
:00000001FF
